:020000040800F2
:10000000B00E00208D0F0008490600084B060008BE
:100010004F060008530600085706000800000000BD
:100020000000000000000000000000005B06000867
:100030005D060008000000005F0600086106000879
:10004000A70F0008A70F0008A70F0008A70F0008B8
:10005000A70F0008A70F0008A70F0008A70F0008A8
:10006000A70F0008A70F0008A70F0008A70F000898
:10007000A70F0008A70F0008A70F0008A70F000888
:10008000A70F0008A70F0008A70F0008A70F000878
:10009000A70F0008A70F0008A70F0008A70F000868
:1000A000A70F0008A70F0008A70F0008A70F000858
:1000B000A70F0008A70F0008A70F0008A70F000848
:1000C000A70F0008A70F0008A70F0008A70F000838
:1000D000A70F0008A70F0008F1010008A70F0008EC
:1000E000A70F0008A70F0008A70F0008A70F000818
:1000F000A70F0008A70F0008A70F0008A70F000808
:10010000A70F0008A70F0008A70F0008A70F0008F7
:10011000A70F0008A70F0008A70F0008A70F0008E7
:10012000A70F0008A70F0008A70F0008A70F0008D7
:1001300000F002F800F048F80AA090E8000C8244B1
:100140008344AAF10107DA4501D100F03DF8AFF28E
:10015000090EBAE80F0013F0010F18BFFB1A43F0A5
:10016000010318471826000038260000103A24BF63
:1001700078C878C1FAD8520724BF30C830C144BF0C
:1001800004680C607047000000230024002500264E
:10019000103A28BF78C1FBD8520728BF30C148BFEA
:1001A0000B607047642902F0BD80782902F0F68068
:1001B000632902F04C82732902F0518200207047BB
:1001C0001FB51FBD10B510BD02F08BFA1146FFF729
:1001D000F7FF00F039F802F0A9FA03B4FFF7F2FFD5
:1001E00003BC00F011FE000080F308887047000097
:1001F00038B59848006878B940F22551964801F022
:1002000093FC00B3944801F00FFCC0B20090694623
:10021000924802F06AF916E08F48008800F020004A
:1002200088B18D48001D0088C4B28D480088B0F5A3
:10023000B04F08DA8B488A490988445488480088B6
:10024000401C8749088038BD08B5002400270025D8
:10025000002662B64FF4A06000F0B8FE4FF4E13023
:1002600000F0E1FD00F02BFE00F064FD00F0EAFA82
:100270004FF00061084600F0E0FE7D2001F005F936
:1002800010B179A002F004F840F63541062000F0E4
:1002900067FE00F077FE642000F089FD642000F026
:1002A00086FD642000F083FD72A000F097FC4FF4FF
:1002B000FA7000F07CFD4FF4FA7000F078FD4FF416
:1002C000FA7000F074FD6BA001F0E2FF01206149BB
:1002D000086071490860AFE04FF4FA7000F067FD04
:1002E0004FF4FA7000F063FD4FF4FA7000F05FFD18
:1002F0005B480088002843D05A4890F864000028E2
:100300003ED0584890F86500002839D054480088FD
:10031000874233D1002405E05248015D5FA001F01F
:10032000B7FF641C4F4802F0C1F8A042F4D84C4813
:100330000588002700204A4908805AA001F0A8FF3C
:1003400029465EA001F0A4FF00204249086061A098
:1003500000F044FC2A4664A1644801F0A5FF64A0B3
:1003600000F03CFC614800F039FC64A000F036FC71
:100370004FF47A7000F01BFD012601E03848078831
:10038000012E30D1BDF80000002824D05DA000F07F
:1003900025FC61A001F07CFF6548406800F07F40CB
:1003A000B0F1006F0FD12A462E49624801F0FEFEDF
:1003B00061A000F013FC64A001F06AFF0226002097
:1003C000664908600FE066A000F008FC69A001F033
:1003D0005FFF00F032F86DA000F000FC71A001F0AA
:1003E00057FF00F02AF8022E1AD15248406800F058
:1003F0007F40B0F1006F0BD171A000F0EFFB70A057
:1004000001F046FF4B4801F002FF00F0BBFD07E0A2
:1004100076A000F0E3FB7CA001F03AFF00F00DF8BD
:1004200000F0B0FD1C480068012802D17EA000F059
:10043000D5FB0020184908604EE78148006800F4A9
:10044000E06080490843001D7D490860BFF3408F8C
:1004500000BFFEE70400002000440040A4C10020CB
:1004600032000020001000204957444720524553D5
:10047000540D0A002D2D2D2D2D2D3E494150204289
:100480006F6F746C6F616465722069732052756E52
:100490006E696E670D0A000010000020253078207C
:1004A00000000000D3C3BBA7B3CCD0F2BDD3CAD5E4
:1004B000CDEAB3C9212020310D0A0000B4FAC2EB05
:1004C000B3A4B6C83A256442797465732020320D0E
:1004D0000A000000D3C3BBA7B3CCD0F2BDD3CAD5AA
:1004E000CDEAB3C90D0A00002564000090C10020C8
:1004F000B4FAC2EBB3A4B6C8000000004279746538
:100500000D0A0000BFAACABCB8FCD0C2B9CCBCFE60
:100510002E2E2E0D0A000000BFAACABCB8FCD0C205
:10052000B9CCBCFE2E2E2E2020330D0A0000000078
:100530000010002000000108B9CCBCFEB8FCD0C2FD
:10054000CDEAB3C9210D0A00B9CCBCFEB8FCD0C2BB
:10055000CDEAB3C9212020340D0A00000C00002090
:10056000B7C7464C415348D3A6D3C3B3CCD0F2212E
:100570000D0A0000B7C7464C415348D3A6D3C3B3B6
:10058000CCD0F2212020350D0A000000C3BBD3D00F
:10059000BFC9D2D4B8FCD0C2B5C4B9CCBCFE210D01
:1005A0000A000000C3BBD3D0BFC9D2D4B8FCD0C2AC
:1005B000B5C4B9CCBCFE212020360D0A00000000D5
:1005C0002D2D2D3E5570677261646520697320661C
:1005D000696E69736865642C7761697420746F2033
:1005E00072756E696E670D0A00000000B7C7464C51
:1005F000415348D3A6D3C3B3CCD0F22CCEDEB7A898
:10060000D6B4D0D0210D0A00B7C7464C415348D3C9
:10061000A6D3C3B3CCD0F22CCEDEB7A8D6B4D0D0FC
:10062000212020390D0A0000576169742054686543
:1006300020417070205570646174650D0A000000DF
:100640000CED00E00000FA05704700BFFEE700BFB8
:10065000FEE700BFFEE700BFFEE770477047704748
:10066000704700000CB50020019000906C480068B5
:1006700040F480306A49086000BF6948006800F4AF
:10068000003000900198401C0190009818B9019822
:10069000B0F5A06FF1D16248006800F4003010B1ED
:1006A0000120009001E0002000900098012843D133
:1006B0005C48006840F010005A490860084600682D
:1006C00020F0030008600846006840F0020008605F
:1006D00053484068524948600846406848600846A8
:1006E000406840F4806048600846406820F47C1010
:1006F00048600846406840F4E810486008460068D2
:1007000040F08070086000BF4548006800F000704D
:100710000028F9D04248406820F003004049486072
:100720000846406840F00200486000BF3C4840680E
:1007300000F00C000828F9D10CBD10B5FFF792FFAE
:1007400010BD10B53648006840F00100344908601B
:100750000846406834490840314948600846006806
:10076000324908402E4908600846006820F480207D
:1007700008600846406820F4FE0048604FF41F00FF
:100780008860FFF7DAFF4FF000602949086010BD6C
:1007900010B5002100200022214B5B6803F00C0102
:1007A00021B1042906D0082928D107E0214B224C89
:1007B000236027E01F4B204C236023E0184B5B682D
:1007C00003F47010164B5B6803F48032022303EBD2
:1007D000904022B9194B4343174C23600DE0104B56
:1007E0005B6803F4003323B1144B4343124C236082
:1007F00003E0104B4343104C236003E00D4B0E4CC1
:10080000236000BF00BF064B5B68C3F303130C4CAF
:10081000E15C094B1B68CB40074C236010BD000016
:1008200000100240002002400000FFF8FFFFF6FE2B
:1008300008ED00E000127A001400002000093D00DD
:100840001800002008B501214C2000F049FF2020AD
:10085000ADF8000010208DF8030003208DF8020091
:1008600069460D4800F080FC20210B4800F029FD6E
:100870002020ADF800006946084800F075FC2021F2
:10088000064800F01EFD0220ADF80000694604484D
:1008900000F06AFC08BD0000000C01400018014097
:1008A000000801400146088870472DE9F0410546DF
:1008B0000E461746002407E036F81410284601F0CB
:1008C000DEFAAD1C601C84B2BC42F5DBBDE8F081F1
:1008D00030B503460C461546002207E01846FFF7E0
:1008E000E1FF24F812009B1C501C82B2AA42F5DBE7
:1008F00030BD2DE9F05F80468A461746B8F1006F9B
:1009000002D33748804501D3BDE8F09F01F06FF96D
:10091000A8F1006B4FEADB25CBF34909C9F58064E8
:10092000A74200DC3C464DE04FF0006101EBC520E2
:100930004A142C49FFF7CCFF00260BE009EB060018
:10094000284931F810004FF6FF71884200D003E0CB
:10095000701C86B2A642F1DB00BFA6421BDA4FF044
:10096000006101EBC52001F087F9002608E03AF8A4
:10097000160006EB09011B4A22F81100701C86B212
:10098000A642F4DB4FF0006101EBC5204A14154983
:10099000FFF78BFF04E0224651464046FFF785FFF4
:1009A000A74200D10FE06D1C4FF000090AEB440A8A
:1009B000A044381B87B2B7F5806F02DD4FF4806426
:1009C00000E03C46B0E700BF01F01DF900BF9BE727
:1009D00013B50446012201A92046FFF78AFF1CBD7A
:1009E000000008084C00002010B50221894800F0E2
:1009F0006AFC4FF47A7000F0DAF90221854800F0C1
:100A000060FC4FF47A7000F0D2F910BD2DE9F04788
:100A10000446894616461F46204601F047FD824699
:100A200051467DA001F034FC4FF000082CE0002579
:100A30000BE0615D804800F0F3FF00BF80217E483D
:100A400001F05CF80028F9D06D1C204601F02EFD65
:100A5000A842EED8B0B200F0AAF94946774801F0B2
:100A600013FD70B1214676A001F012FC77A001F0D1
:100A70000FFC4FF40061714801F043FD0020BDE818
:100A8000F08700BF08F10108B845D0DB214673A00C
:100A900001F0FEFB4FF40061684801F032FD0120D7
:100AA000EDE72DE9F0470546894616461F462846DC
:100AB00001F0FCFC8246514657A001F0E9FB4FF0E3
:100AC00000084BE000240BE0295D5B4800F0A8FF24
:100AD00000BF8021584801F011F80028F9D0641CAB
:100AE000284601F0E3FCA042EED8B0B200F05FF976
:100AF0004946524801F0C8FC20B9284601F0D6FC0E
:100B0000082828D1284601F0D1FC042814D9294608
:100B10004BA001F0BDFB57A001F0BAFB022405E099
:100B20004648015D56A001F0B3FB641C142CF7DBB2
:100B300054A001F0ADFB06E0294653A001F0A8FB4C
:100B400042A001F0A5FB4FF400613C4801F0D9FC44
:100B50000020BDE8F08700BF08F10108B845B1DB0F
:100B60000120F6E710B54CA001F092FBFFF73CFF27
:100B700000BF012340F6C4124CA14DA0FFF791FF26
:100B80000028F6D100BF012340F6C41247A149A0B6
:100B9000FFF73CFF0028F6D100BF012340F6C41246
:100BA00042A14AA0FFF732FF0028F6D100BF03237D
:100BB00041F288323DA14BA0FFF728FF0028F6D173
:100BC00000BF03234FF47A6238A152A0FFF71EFF43
:100BD0000028F6D152A001F05BFB10BD70B50546B0
:100BE00000240BE0295D144800F01AFF00BF8021AB
:100BF000114800F083FF0028F9D0641C284601F05A
:100C000055FCA042EED84FF400610C4801F079FC8D
:100C1000012070BD000801402D2D2D3E73656E64CE
:100C200020636F6D6D616E64206C656E6774683AE9
:100C300025640D0A0000000000440040A4C100200B
:100C40002D2D2D3E73656E64202573002D2D2D3CBA
:100C50003C736574206F6B0D0A0000002D2D2D3E36
:100C600073656E64203A2573206661696C210D0AF4
:100C7000000000002D2D2D3C3C4D61632000000044
:100C8000256300000D0A00002D2D2D3E73656E6456
:100C90002025730D0A0000000D0A52746C5F57691D
:100CA00066695F496E69740D0A0000004F4B0000D1
:100CB0002B2B2B004154235374614944202D734145
:100CC0005254544553540D0A00000000415423531C
:100CD0007461536563202D6B3132333435363738C8
:100CE0000D0A0000415423536F636B6574202D433C
:100CF00030202D5430202D4D31202D413137322ED2
:100D000032342E3131312E34202D50353030300DEB
:100D10000A000000415423457869740D0A00000060
:100D20005769666920436F6E6E656374204F4B0D83
:100D30000A00000010B56FF0040000F096F92E488C
:100D400000682E49B0FBF1F02D4908700846007884
:100D500000EB4001C1EBC0104FF6FF7101EAC0008B
:100D60002849088010BD0146254A12784A434FF0B1
:100D7000E0235A6100229A611A46126942F0010288
:100D80001A6100BF4FF0E022106900F001021AB1B1
:100D900000F48032002AF5D04FF0E022126922F0F0
:100DA00001024FF0E0231A6100229A617047014668
:100DB000144A12884A434FF0E0235A6100229A6194
:100DC0001A46126942F001021A6100BF4FF0E02298
:100DD000106900F001021AB100F48032002AF5D047
:100DE0004FF0E022126922F001024FF0E0231A6175
:100DF00000229A61704700001400002000127A005F
:100E0000280000202A000020014600BF704700BFD4
:100E1000504A128802F04002002AF9D0C2B24D4B6B
:100E20001B1D1A80704710B586B00446012144F29C
:100E3000040000F055FC4FF40070ADF814000320DE
:100E40008DF8160018208DF8170005A9424800F00B
:100E50008BF94FF48060ADF8140004208DF8170072
:100E600005A93D4800F080F925208DF800000320F9
:100E70008DF801008DF8020001208DF8030068460E
:100E800000F0A9F801940020ADF80800ADF80A00C0
:100E9000ADF80C00ADF810000C20ADF80E0001A963
:100EA0002C4800F0C4FC012240F22551294800F0F2
:100EB00056FD0121274800F046FD06B010BD00B5E3
:100EC00087B00121480400F018FC0420ADF8180098
:100ED00003208DF81A0018208DF81B0006A91E4863
:100EE00000F042F90820ADF8180004208DF81B002E
:100EF00006A9194800F038F926208DF804000320CF
:100F00008DF805008DF8060001208DF8070001A876
:100F100000F061F84FF4E13002900020ADF80C00D1
:100F2000ADF80E00ADF81000ADF814000C20ADF8CF
:100F3000120002A9094800F07AFC012240F2255172
:100F4000064800F00CFD0121044800F0FCFC07B04D
:100F500000BD00000038014000080140004400408E
:100F600070B505460C4645F2555001F0FFF828468D
:100F700001F0FFF8204601F0FFF801F000F901F060
:100F800003F970BD10B501F0FAF810BD09488047AB
:100F900009480047FEE7FEE7FEE7FEE7FEE7FEE75B
:100FA000FEE7FEE7FEE7FEE704480549054A064B73
:100FB000704700004307000831010008B008002016
:100FC000B00E0020B00A0020B00A002031490143D1
:100FD000314A1160704770B5002100230F22C47898
:100FE00004B32D4C246804F4E064C4F5E064210AE1
:100FF000C1F10403CA40447804FA03F18478144030
:1010000021430901254C0678A155047804F01F05F9
:101010000124AC4005786D11AD0005F1E025C5F85F
:10102000004109E0047804F01F050124AC401C4D88
:101030000678761145F8264070BD1A4A0A400243E8
:10104000154B1B1F1A60704739B1134A121D1268E5
:101050000243114B1B1D1A6006E00F4A121D126855
:1010600082430D4B1B1D1A607047042808D14FF0B6
:10107000E021096941F004014FF0E022116107E02D
:101080004FF0E021096921F004014FF0E0221161E5
:10109000704700000000FA050CED00E000E400E0FD
:1010A00080E100E080FFFF1F10B50446CC48844279
:1010B00008D10121042000F02DFB0021042000F0C4
:1010C00029FB46E0C748844208D10121082000F0EE
:1010D00021FB0021082000F01DFB3AE0C2488442B9
:1010E00008D10121102000F015FB0021102000F094
:1010F00011FB2EE0BD48844208D10121202000F0E0
:1011000009FB0021202000F005FB22E0B8488442C2
:1011100008D10121402000F0FDFA0021402000F01C
:10112000F9FA16E0B348844208D10121802000F08A
:10113000F1FA0021802000F0EDFA0AE0AE48844286
:1011400007D10121801500F0E5FA0021A01500F07B
:10115000E1FA10BD10B50121084600F0DBFA0021CC
:10116000012000F0D7FA10BD2DE9F041024600251C
:101170000026002000230024002791F803C00CF073
:101180000F0591F803C00CF0100CBCF1000F03D058
:1011900091F802C04CEA050591F800C0BCF1000FBF
:1011A00031D0146800202BE04FF0010C0CFA00F352
:1011B000B1F800C00CEA03069E4220D183004FF034
:1011C0000F0C0CFA03F7BC4305FA03FC4CEA0404C9
:1011D00091F803C0BCF1280F06D14FF0010C0CFAB6
:1011E00000FCC2F814C00AE091F803C0BCF1480F3B
:1011F00005D14FF0010C0CFA00FCC2F810C0401CE5
:101200000828D1D31460B1F800C0BCF1FF0F34DD61
:10121000546800202EE000F1080C4FF0010808FA95
:101220000CF3B1F800C00CEA03069E4221D1830002
:101230004FF00F0C0CFA03F7BC4305FA03FC4CEA21
:10124000040491F803C0BCF1280F05D100F1080C8B
:1012500008FA0CF8C2F8148091F803C0BCF1480FEA
:1012600007D100F1080C4FF0010808FA0CF8C2F899
:101270001080401C0828CED35460BDE8F0814FF6A2
:10128000FF710180022181700421C1707047024604
:10129000002093680B400BB1012000E00020704754
:1012A0000146886880B2704702460020D3680B4030
:1012B0000BB1012000E0002070470146C86880B2F1
:1012C000704701617047416170470AB1016100E0F8
:1012D00041617047C16070474FF480320A438261B8
:1012E0008161826182698269704702460020434BB6
:1012F00018684FF68073184040EA021008433F4BCD
:10130000186070473E49C8617047F0B50A4600232F
:1013100000240021002500F00046B6F1004F02D164
:10132000364EF16901E0354E7168C0F3034583B272
:1013300000F44016B6F5401F08D121F070612F4E21
:10134000766826F070662D4F7E6012E000F48016FD
:10135000B6F5801F06D1032606FA05F4A14341F035
:10136000706106E0460D360103FA06F6B14341F01E
:10137000706122B1460D360103FA06F6314300F0E2
:101380000046B6F1004F02D11C4EF16101E01B4E48
:101390007160F0BD30B500228B071C0F0F2303FADC
:1013A00004F2164B08338C1053F824309343134C3B
:1013B00008348D1044F8253023468C1053F824301F
:1013C0008C07240F00FA04F423430C4C08348D10CE
:1013D00044F8253030BD0A49DC3108607047000010
:1013E00000080140000C01400010014000140140C1
:1013F00000180140001C0140002001400000014095
:1014000000002042DF48006840F00100DD4908602C
:1014100008464068DC490840DA49486008460068E8
:10142000DA490840D74908600846006820F480205F
:1014300008600846406820F4FE0048604FF41F0032
:1014400088607047CF49096821F48031CD4A116026
:101450001146096821F480211160B0F5803F03D066
:10146000B0F5802F0ED106E0C649096841F48031FD
:10147000C44A116007E0C349096841F4A021C14A88
:10148000116000E000BF00BF704710B501460022A8
:10149000002300204A11012A02D1BA4C236806E039
:1014A000022A02D1B74C236A01E0B64C636A01F00C
:1014B0001F02012494401C400CB1012000E00020D8
:1014C00010BD38B5002000900024002500BF312059
:1014D000FFF7DBFF05460098401C00900098B0F530
:1014E000A06F01D0002DF2D03120FFF7CEFF08B160
:1014F000012400E00024204638BD01460020A14A16
:10150000106820F0F80040EAC10010607047A04960
:1015100008607047024600209A4B586820F47C10FF
:1015200042EA01031843974B586070479849086690
:10153000704701460020934A506820F0030008439A
:10154000506070478F48406800F00C0070470146BB
:1015500000208C4A506820F0F0000843506070472B
:1015600001460020874A506820F4E060084350603C
:10157000704701460020834A506820F4605040EADA
:10158000C1005060704729B17E4A527A02437D4BB8
:101590005A7204E07B4A527A82437A4B5A727047FD
:1015A0007B49D8310860704701460020754A506871
:1015B00020F440400843506070470021714A2032B7
:1015C0001170704A82F82010012802D004280AD134
:1015D00004E001216B4A2032117005E00521694ABF
:1015E0002032117000E000BF00BF704769490860F9
:1015F00070476449096A0143624A1162704765494C
:1016000044390860704730B50021002200240023CF
:101610005C4D6D6805F00C0121B1042905D0082945
:1016200023D105E05C4D056022E05B4D05601FE0C5
:10163000544D6D6805F47012524D6D6805F4803498
:10164000022505EB92421CB9544D554305600BE051
:101650004C4D6D6805F400351DB1504D5543056086
:1016600002E04D4D5543056002E04B4D056000BF63
:1016700000BF444D6D6805F0F0010909484D6B5CF1
:101680000568DD4045603F4D6D6805F4E061090A7D
:10169000434D6B5C4568DD4085603A4D6D6805F4EF
:1016A0006051C90A3E4D6B5C4568DD40C560354DF3
:1016B0006D6805F44041890B3A4D6B5CC568B5FB1C
:1016C000F3F5056130BD29B12E4A526902432D4B15
:1016D0005A6104E02B4A526982432A4B5A6170478F
:1016E00029B1284A92690243264B9A6104E0254AAF
:1016F00092698243234B9A61704729B1214AD2698A
:101700000243204BDA6104E01E4AD26982431D4B3A
:10171000DA61704729B11B4AD2680243194BDA607B
:1017200004E0184AD2688243164BDA60704729B148
:10173000144A12690243134B1A6104E0114A1269F8
:101740008243104B1A617047124940390860704754
:101750000F49C86470470B49C87170470948406A0F
:1017600040F0807007494862704701460020054AF2
:1017700092680A400AB1012000E000207047014948
:1017800088727047001002400000FFF8FFFFF6FE6D
:10179000000042428004424200127A0000093D00EB
:1017A000340000204400002010B50446FB48844269
:1017B00009D101218803FFF7ADFF00214FF48040DC
:1017C000FFF7A8FF32E0F648844209D1012148041E
:1017D000FFF7ADFF00214FF40030FFF7A8FF25E031
:1017E000F048844209D101218804FFF7A0FF0021BD
:1017F0004FF48020FFF79BFF18E0EB48844209D1AB
:101800000121C804FFF793FF00214FF40020FFF7E8
:101810008EFF0BE0E548844208D101210805FFF75F
:1018200086FF00214FF48010FFF781FF10BD2DE9E6
:10183000F04786B005460E460024A24600BFA146EA
:101840000027B08900B100BF2F462C8A4CF6FF70EC
:101850000440F08804432C82AC894EF6F310044017
:10186000B08831890843718908430443AC81AC8A4C
:101870004FF6FF400440B0890443AC8201A8FFF753
:10188000C2FEC648874202D1DDF810A001E0DDF8B3
:101890000CA0A88900F4004040B10AEBCA0000EB9C
:1018A0000A1031684900B0FBF1F807E00AEBCA0002
:1018B00000EB0A1031688900B0FBF1F86420B8FB36
:1018C000F0F004012009642101FB1089A88900F4CB
:1018D000004040B1322000EBC900B0FBF1F000F055
:1018E0000700044308E0322000EB09106421B0FB3C
:1018F000F1F000F00F0004432C8106B0BDE8F08742
:101900004FF41651016000218180C18001810C21BA
:10191000418100218181704710B502460020108A64
:101920004FF2FF0318400B884C8823438C882343D5
:10193000CC8823431843108210BD002101804180D0
:101940008180C180704721B1828942F40052828136
:1019500004E082894DF6FF731A4082817047F0B52A
:101960000346002400260025002040F66A17B942ED
:1019700000D100BF1846C1F3421401F01F06012731
:1019800007FA06F5012C01D10C3004E0022C01D13C
:10199000103000E014301AB107682F43076002E0EE
:1019A0000768AF430760F0BD1AB1838A0B43838297
:1019B00002E0838A8B4383827047028A4FF6F0737A
:1019C0001A400282028A0A430282704782894FF2D9
:1019D000FF731A40828182890A438281704721B154
:1019E000828942F00202828104E082894FF6FD730F
:1019F0001A4082817047028A4FF6DF731A400282D2
:101A0000028A0A430282704721B1028A42F480426C
:101A1000028204E0028A4BF6FF731A40028270478A
:101A2000C1F308028280704701468888C0F308002D
:101A30007047818941F0010181817047028BD2B2E8
:101A40000283028B42EA012202837047028B02F476
:101A50007F420283028B0A430283704721B1828A4C
:101A600042F02002828204E0828A4FF6DF731A403D
:101A70008282704721B1828A42F01002828204E0A1
:101A8000828A4FF6EF731A408282704721B1828AB0
:101A900042F00802828204E0828A4FF6F7731A400D
:101AA0008282704721B1828942F40042828103E040
:101AB0008289C2F30E028281704721B1828A42F488
:101AC0000062828204E0828A4FF2FF731A408282AF
:101AD0007047828A4FF6FB731A408282828A0A43D9
:101AE0008282704721B1828A42F00202828204E03F
:101AF000828A4FF6FD731A408282704702460020A8
:101B0000B1F5007F00D100BF13880B400BB101205D
:101B100000E00020704701F40072B2F5007F00D1B0
:101B200000BFCA430280704770B5024600240023FC
:101B30000025002040F66A16B14200D100BFC1F373
:101B4000421501F01F03012606FA03F3012D02D10D
:101B50009689334006E0022D02D1168A334001E017
:101B6000968A33400C12012606FA04F41688344093
:101B700013B10CB1012000E0002070BD10B50022AF
:101B8000002340F66A14A14200D100BF0A120124CA
:101B90009440A3B2DC43048010BD00000038014033
:101BA0000044004000480040004C0040005000400D
:101BB00001460020FE4A106800F03800084310601B
:101BC0007047FB49096821F00801F94A1160114684
:101BD0000968014311607047F549096821F0100157
:101BE000F34A116011460968014311607047F148DA
:101BF000EF494860F04848607047EE48EC4948605B
:101C0000ED4848607047EA48006940F08000E849C4
:101C100008617047E648006940F08000E4490861C7
:101C200070470420E249C96801F0010109B10120AF
:101C30000EE0DF49C96801F0040109B1022007E0A4
:101C4000DB49C96801F0100109B1032000E004205C
:101C5000704700B502460423FFF7E3FF034603E0A5
:101C6000FFF7DFFF0346521E012B01D1002AF7D1F7
:101C700002B90523184600BD30B5044604254FF4CB
:101C80003020FFF7E6FF0546042D17D1C84800694C
:101C900040F00200C649086108464461006940F00E
:101CA000400008614FF43020FFF7D3FF0546C048DD
:101CB000006941F6FD710840BD490861284630BD04
:101CC00010B504244FF43020FFF7C3FF0446042C62
:101CD00016D1B748006940F00400B54908610846CC
:101CE000006940F0400008614FF43020FFF7B1FF79
:101CF0000446AF48006941F6FB710840AC490861F1
:101D0000204610BD00B502460423FFF78AFF0346B4
:101D100003E0FFF786FF0346521E012B01D1002A84
:101D2000F7D102B90523184600BD10B504244FF4BD
:101D30003020FFF7E7FF0446042C16D19C480069C9
:101D400040F004009A4908610846006940F04000EC
:101D500008614FF43020FFF7D5FF0446944800692E
:101D600041F6FB71084092490861204610BD0020F1
:101D70008F49C96901F0020109B1012000E000208A
:101D8000704730B5A5250424FFF7F1FF00B1002509
:101D90004FF43020FFF75DFF0446042C3AD185480C
:101DA00083498860844888600846006940F02000C4
:101DB00008610846006940F0400008614FF4302097
:101DC000FFF747FF0446042C1BD17948006941F610
:101DD000DF710840764908610846006940F010004C
:101DE000086176480580E002FFF733FF0446052CC2
:101DF00010D06F48006941F6EF7108406C490861E6
:101E000008E0052C06D06A48006941F6EF710840E9
:101E100067490861204630BD78B506460C46042562
:101E200000200090E802FFF714FF0546042D24D19E
:101E30005F48006940F001005D4908613480E802B4
:101E4000FFF707FF0546042D10D1B01C0090200CB1
:101E500000990880E802FFF7FCFE05465448006937
:101E600041F6FE7108405249086106E05048006999
:101E700041F6FE7108404E490861284678BD70B5AC
:101E800004460D460426F002FFF7E3FE0646042E44
:101E900011D14748006940F001004549086125809B
:101EA000F002FFF7D6FE06464148006941F6FE7192
:101EB00008403F490861304670BD70B505460E4682
:101EC0000424E002FFF7C5FE0446042C17D139486C
:101ED00037498860384888600846006940F010003B
:101EE00008612E80E002FFF7B4FE0446052C06D000
:101EF0002F48006941F6EF7108402D4908612046DE
:101F000070BD2DE9F04304464FF6FF763746B046E4
:101F1000B1460425E443E6B2C4F30727C4F30748F7
:101F20004FEA1469E802FFF794FE0546042D49D1F3
:101F300020481F498860204888600846006940F0B2
:101F400010000861FF2E06D01C4808300680E80209
:101F5000FFF77FFE0546042D08D1FF2F06D0174856
:101F60000A300780E802FFF774FE0546042D0AD107
:101F7000B8F1FF0F07D011480C30A0F80080E8023C
:101F8000FFF767FE0546042D0AD1B9F1FF0F07D010
:101F90000A480E30A0F80090E802FFF75AFE054606
:101FA000052D0FD00248006941F6EF71084007E0A7
:101FB0000020024023016745AB89EFCD00F8FF1FE9
:101FC000664908612846BDE8F08330B5054604241B
:101FD0004FF43020FFF73DFE0446042C41D1604809
:101FE0005E4988605F4888600846006940F02000CC
:101FF00008610846006940F0400008614FF4302055
:10200000FFF727FE0446042C22D15448006941F60C
:10201000DF710840514908610846006940F010002E
:1020200008611DB100205049088002E0A5204E49FA
:1020300008804FF43020FFF70CFE0446052C10D02A
:102040004648006941F6EF7108404449086108E0DC
:10205000052C06D04148006941F6DF7108403F4930
:102060000861204630BDF0B505460E4617460424EB
:102070003B483A4988603B488860E002FFF7E9FD49
:102080000446042C19D13548006940F0100033494A
:10209000086147F0F800304328433349891C088021
:1020A000E002FFF7D6FD0446052C06D02B48006958
:1020B00041F6EF710840294908612046F0BD2748E4
:1020C000C069800870472548006A7047002023498E
:1020D000096801F0200109B1012000E000207047EB
:1020E00029B11E4A126902431C4B1A6104E01B4AC3
:1020F00012698243194B1A61704701460020012979
:1021000008D1164AD26902F001020AB1012008E0A2
:10211000002006E0114AD2680A400AB1012000E01E
:10212000002070470D49C860704704200B49C968FA
:1021300001F0010109B101200EE00849C96801F070
:10214000040109B1022007E00449C96801F0100147
:1021500009B1032000E00420704700000020024085
:1021600023016745AB89EFCD00F8FF1F0E490860DA
:1021700070470D49486070470B49886070474AF6C0
:10218000AA200949086070474CF6CC40064908600F
:10219000704701460020044AD2680A400AB1012073
:1021A00000E0002070470000003000402DE9F05FA3
:1021B00006460F4690460024B3463D46A1461CE025
:1021C00068784FEA002A287850441FFA80FAAD1C3C
:1021D0002046611C8CB2214921F810A0B4F5806F13
:1021E00007D100244FF480625846FEF782FB0BF5BE
:1021F000006B09F102001FFA80F9C145E0D324B158
:10220000224616495846FEF774FBBDE8F09F10B50C
:102210000446012080F3108800BF20681049084060
:10222000B0F1005F18D10FA000F032F84FF47A70CF
:10223000FEF7BDFD60680F4908600FA000F028F8A8
:102240002068FDF7D1FF0DA000F022F809480068D2
:1022500080470CA000F01CF810BD0000A4C90020AD
:102260000000FE2F61707020697320676F696E67D0
:102270000D0A000048000020580D0A0058580D0AA9
:10228000000000005858580D0A0000007047000078
:102290000FB4044910B503AA029800F0E5F910BC88
:1022A0005DF814FB2C0000200FB41CB5074B06AAE8
:1022B0007B4469460090059800F0A7F90020694624
:1022C00000F0B6F91CBC5DF814FB00007D030000B3
:1022D00070B50C460546012A05D02878800600D541
:1022E000EA69002302E0012305E05B1C934202D26D
:1022F000E05C0028F9D1A869E618C01AA861286A2C
:10230000184428622846AFF3008004E0D5E9012193
:1023100014F8010B9047B442F8D32846AFF300807D
:1023200070BD00002DE9F0410646002410687529B3
:10233000314616A510D0AFF30080002802DA4042E3
:1023400013A507E031688A0701D512A502E0490705
:1023500004D511A5012401E0AFF3008000210A2279
:1023600006F1240709E0B0FBF2FCB0FBF2F302FB3C
:102370001C00303078541846491C0028F3D12346FD
:102380002A463046BDE8F04100F0E1B80000000008
:102390002D0000002B0000002000000070B5044656
:1023A0000D4621461068AFF300802188090502D54B
:1023B0000F4A7A4402E00E4A7A440E32002104F1B8
:1023C000240305E000F00F060009965D5E54491CE9
:1023D0000028F7D120780023000704D5702D02D003
:1023E00009B1022311322046BDE8704000F0AFB8B9
:1023F0008A0300002DE9F0410F4604460020DFF873
:102400008480F84420622046E168884790B32528FC
:1024100006D0D4E901219047206A401C2062F2E7EF
:1024200000252046E16888472028064608DB312E33
:1024300006D208EB060010F8200C08B10543F0E7BF
:10244000A80701D525F00405A6B1A6F14100192879
:1024500002D8203645F400653A46314620462560CC
:10246000FDF7A0FE48B1012805D0FF1D27F00707A2
:102470000837C8E703E03F1DC5E73046C9E7206AD3
:10248000BDE8F0816203000030B505460B462A46E0
:1024900013F8014B12F8010B08B1A042F8D01CB19F
:1024A000002802D06D1CF1E7284630BD10B5431C52
:1024B00002E010F8011B71B18107FAD14FF001322F
:1024C00002C88C1A8C4314EAC211F9D0C01A0A0649
:1024D00003D0C01E10BDC01A10BD0A0401D0801E5A
:1024E00010BD0902FCD0401E10BD421E12F8013F73
:1024F000002BFBD111F8013B002B02F8013BF9D175
:1025000070474FF000020429C0F0128010F0030C55
:1025100000F0BE80CCF1040CBCF1020F18BF00F833
:10252000012BA8BF20F8022BA1EB0C0100F0B0B8E2
:102530005FEAC17C24BF00F8012B00F8012B48BFE3
:1025400000F8012B704770477047704770472DE9BE
:10255000F0470D4699469246044600F1240801686A
:10256000880604D5E06921F01001216000E0012017
:10257000A84201DD471B00E00027A1697A1902EBA0
:102580000900081AA0612078C00602D42046AFF3E3
:102590000080002608E0D4E901211AF806009047DF
:1025A000206A401C761C20624E45F4DB2078C00671
:1025B0000AD52046AFF3008006E0D4E9012130209F
:1025C0009047206A401C2062381EA7F10107F4DC06
:1025D00007E0D4E9012118F805009047206A401C63
:1025E0002062281EA5F10105F3DC2046AFF3008030
:1025F0002078000602D50220BDE8F0870120FBE725
:1026000001694A1C02610878704700B58FB0CDE9B6
:1026100001310021059105497944CDE903101146A6
:102620006846FFF7E7FE0FB000BD0000E5FFFFFFC3
:102630000A6802F8010B0A60704710B5436913B1CC
:10264000AFF3008001E0FFF743FE012010BD1278D8
:1026500000F124010A7000224A700122EDE711689E
:102660004FF0FF32E9E70000074B70B50D467B44A1
:10267000FFF7CBFF0446284600F02FF810B14FF0CB
:10268000FF3070BD204670BD9DE7FFFF4FF0000298
:1026900000B5134694469646203922BFA0E80C5058
:1026A000A0E80C50B1F12001BFF4F7AF090728BF33
:1026B000A0E80C5048BF0CC05DF804EB890028BFAF
:1026C00040F8042B08BF704748BF20F8022B11F0D8
:1026D000804F18BF00F8012B7047007B00F080008E
:1026E0007047754600F028F8AE4605006946534627
:1026F00020F00700854618B020B5FEF755FCBDE870
:1027000020404FF000064FF000074FF000084FF058
:10271000000B21F00701AC46ACE8C009ACE8C009E9
:10272000ACE8C009ACE8C0098D4670470446AFF379
:1027300000802046FDF751FD004870474C080020FE
:1027400030313233343536373839414243444546E7
:1027500040305800303132333435363738396162E1
:1027600063646566403078000400000800000000E3
:102770000000000200010000100000009C2700087B
:10278000000000204C0000006C010008E827000851
:102790004C00002058D10000880100080000000013
:1027A0000000000000000000000000000000000029
:1027B00000A24A040000000000000000010203041F
:1027C00006070809000000000000000000000000EB
:1027D00000000000010203040102030406070809C7
:0827E0000204060800000000DD
:0400000508000131BD
:00000001FF
