:020000040800F2
:1000000090890020F10200085D30000855280008A2
:10001000C92F0008151C0008574600080000000002
:10002000000000000000000000000000590200086D
:10003000191C0008000000009D020008293C00086F
:100040000B0300080B0300080B0300080B03000858
:100050000B0300080B0300080B0300080B03000848
:100060000B0300080B0300080B0300080B03000838
:100070000B0300080B0300080B0300080B03000828
:100080000B0300080B030008191900080B030008F4
:100090000B0300080B0300080B0300080B03000808
:1000A0000B0300080B0300080B0300080B030008F8
:1000B0000B0300080B030008993C00080B03000821
:1000C0000B0300080B0300080B0300080B030008D8
:1000D0000B0300080B0300080B0300083D43000856
:1000E000391C00080B0300080B0300080B03000871
:1000F0000B0300080B0300080B0300080B030008A8
:100100000B0300080B0300080B0300080B03000897
:10011000C5420008094300080B0300080B03000850
:100120000B0300080B0300080B0300080B03000877
:1001300000F002F800F070F80AA090E8000C824489
:100140008344AAF10107DA4501D100F065F8AFF266
:10015000090EBAE80F0013F0010F18BFFB1A43F0A5
:1001600001031847A4A20000C4A200000A444FF0F3
:10017000000C10F8013B13F0070408BF10F8014B06
:100180001D1108BF10F8015B641E05D010F8016B4B
:10019000641E01F8016BF9D113F0080F1EBF10F8AF
:1001A000014BAD1C0C1B09D16D1E58BF01F801CBD2
:1001B000FAD505E014F8016B01F8016B6D1EF9D555
:1001C0009142D6D37047000000230024002500266A
:1001D000103A28BF78C1FBD8520728BF30C148BFAA
:1001E0000B607047662909F05187642900F0D680BA
:1001F000782900F03A81732900F0C085002070470B
:100200001FB500F023FE04000020002109F0A8F82B
:10021000E0601FBD10B510BD00F021FF1146FFF7D3
:10022000EFFF05F0F5FA00F03FFF03B4FFF7F2FF30
:1002300003BC00F005FE0000EFF30980704780F377
:1002400009887047EFF30880704780F3088870478B
:1002500040BA7047C0BA7047224B19680868B0E8C6
:10026000F00F80F30988BFF36F8F4FF0000080F329
:1002700011884EF00D0E704700000000064800681F
:10028000006880F3088862B661B6BFF34F8FBFF392
:100290006F8F00DF00BF00BF08ED00E0EFF30980C3
:1002A000BFF36F8F0F4B1A6820E9F00F106008B58D
:1002B0004FF0500080F31188BFF34F8FBFF36F8F63
:1002C00007F0BAFC4FF0000080F31188BDE8084049
:1002D00019680868B0E8F00F80F30988BFF36F8FE2
:1002E000704700BF44030020EFF305807047000013
:1002F0000948804709480047FEE7FEE7FEE7FEE7BA
:10030000FEE7FEE7FEE7FEE7FEE7FEE704480549F5
:10031000054A064B70470000393C000831010008CF
:1003200090830020908900209085002090850020F7
:100330000FB4044910B503AA029800F023FD10BCC5
:100340005DF814FB0000002070B50C460546012A3C
:1003500005D02878800600D5EA69002302E0012351
:1003600005E05B1C934202D2E05C0028F9D1A86949
:10037000E618C01AA861286A184428622846AFF314
:10038000008004E0D5E9012114F8010B9047B44244
:10039000F8D32846AFF3008070BD00002DE9F0418E
:1003A0000646002410687529314616A510D0AFF313
:1003B0000080002802DA404213A507E031688A076E
:1003C00001D512A502E0490704D511A5012401E0D9
:1003D000AFF3008000210A2206F1240709E0B0FBF8
:1003E000F2FCB0FBF2F302FB1C00303078541846EC
:1003F000491C0028F3D123462A463046BDE8F04187
:1004000000F02CBA000000002D0000002B000000BE
:1004100020000000F0B40D460188090502D5214CEA
:100420007C4402E01F4C7C440E34002100F1240681
:1004300008E002F00F071209E75D42EA03721B09A8
:100440007754491C52EA0307F3D1027800231207BC
:1004500004D5702D06D009B1022311342246F0BC18
:1004600000F0FCB901231034F8E770B504460D46DE
:1004700021461068AFF30080024629462046BDE8B9
:1004800070400023C6E7D21D22F00703D3E9002302
:10049000C0E70368126843F0200303600823C361C8
:1004A0000023B7E76C9E00002DE9F05F8946044603
:1004B0004FF0000ADFF874B1FB44C0F820A02046DA
:1004C000E1688847002874D0252806D0D4E90121A6
:1004D0009047206A401C2062F1E700265F462046D4
:1004E000E16888472028054607DB312D05D27819B9
:1004F00010F8200C08B10643F1E7B00701D526F04B
:100500000406C4F81CA00027C4F818A02A2D09D09E
:10051000284604F0C5F838B304EB8708303DC8F826
:10052000185019E059F8041B204604EB870291612A
:10053000E1688847012F054618D1E069002820DAD4
:1005400026F020061DE0D8F8180000EB800005EB2F
:1005500040003038C8F818002046E1688847054652
:1005600004F09EF80028EED1012F0AD02E2D08D1DC
:100570002046E16888477F1C0546022F46F020068A
:10058000C4DBA069002803DA404246F00106A061FE
:10059000F00701D026F010066C2D0BD0682D09D085
:1005A0004C2D39D06A2D35D0742D35D07A2D33D0DD
:1005B00016E038E0E1682F4620468847B8420546F5
:1005C00009D16C2F26D04FF48060E16806432046A5
:1005D0008847054604E06C2F1AD04FF4807006431C
:1005E0000DB3A5F14100192802D8203546F4006664
:1005F0004A462946204626604E46FFF7F3FD80B165
:1006000001280BD0F61D26F0070000F1080956E777
:100610004020E4E78020D8E70020D6E706F104096F
:100620004DE7284652E7206ABDE8F09FFC9D000098
:100630000EB5054614460E4613A000F0BDFB284635
:1006400000F0BAFB16A000F0B7FB304600F0B4FB98
:1006500015A000F0B1FB00218DF80B100A210DF15F
:100660000A008DF80A1008E094FBF1F201FB124237
:1006700094FBF1F4303200F8012D002CF4DC00F092
:100680009BFB00F091FB00002A2A2A20617373650E
:100690007274696F6E206661696C65643A2000004F
:1006A0002C2066696C6520002C206C696E6520002A
:1006B00030B505460B462A4613F8014B12F8010BDC
:1006C00008B1A042F8D01CB1002802D06D1CF1E79F
:1006D000284630BD10B5431C02E010F8011B71B173
:1006E0008107FAD14FF0013202C88C1A8C4314EA08
:1006F000C211F9D0C01A0A0603D0C01E10BDC01A1C
:1007000010BD0A0401D0801E10BD0902FCD0401E9D
:1007100010BD421E12F8013F002BFBD111F8013B26
:10072000002B02F8013BF9D17047032A40F23080D8
:1007300010F0030C00F0158011F8013BBCF1020F22
:10074000624498BF11F801CB00F8013B38BF11F8A3
:10075000013BA2F1040298BF00F801CB38BF00F8BA
:10076000013B11F0030300F03183083AC0F0088028
:1007700051F8043B083A51F804CBA0E80810F5E71B
:10078000121D5CBF51F8043B40F8043BAFF30080FE
:10079000D20724BF11F8013B11F801CB48BF11F873
:1007A000012B24BF00F8013B00F801CB48BF00F843
:1007B000012B704702F0FF0343EA032242EA0242A0
:1007C00000F002B84FF000020429C0F0128010F0CF
:1007D000030C00F01B80CCF1040CBCF1020F18BF1D
:1007E00000F8012BA8BF20F8022BA1EB0C0100F0B0
:1007F0000DB85FEAC17C24BF00F8012B00F8012B83
:1008000048BF00F8012B70474FF0000200B51346B7
:1008100094469646203922BFA0E80C50A0E80C5020
:10082000B1F12001BFF4F7AF090728BFA0E80C50D1
:1008300048BF0CC05DF804EB890028BF40F8042BCA
:1008400008BF704748BF20F8022B11F0804F18BF37
:1008500000F8012B70477047704770472DE9F0474B
:100860000D4699469246044600F124080168880620
:1008700004D5E06921F01001216000E00120A842C8
:1008800001DD471B00E00027A1697A1902EB09008E
:10089000081AA0612078C00602D42046AFF3008079
:1008A000002608E0D4E901211AF806009047206AE2
:1008B000401C761C20624E45F4DB2078C0060AD529
:1008C0002046AFF3008006E0D4E9012130209047B4
:1008D000206A401C2062381EA7F10107F4DC07E003
:1008E000D4E9012118F805009047206A401C2062D5
:1008F000281EA5F10105F3DC2046AFF30080207827
:10090000000602D50220BDE8F0870120FBE7704712
:100910002DE9FF4F0C461E464FF0FF378BB0D2E952
:100920000001DDF860800A908A46C1F30A5505B9D6
:100930003D46002108464FF00000BAF1000F00F4D8
:10094000400005DA00EB80004FF4400101EA50005E
:100950004FEA9059B9F1010F00DDB9460A9850EA03
:100960004A000ED044F61050A5F2FF3545432F142F
:10097000B8F1000F1ED07542291E1EDDC9F100021C
:100980001CE0B8F1010F4FF0000001D0302103E06E
:10099000F24305E02154401CB042FBDB304600220C
:1009A000002121540B99C1F80880C1E900200FB043
:1009B000BDE8F08FBD1B6D1CDEE74A4600DA6942D8
:1009C00006A800F0CDFA06AB93E8070003AB83E876
:1009D000070050460A9900F0E4FB8DE80700A0F5F7
:1009E00000501F3800900398002D09DD42F21F01CE
:1009F0004A46084403A90390684600F043FE08E015
:100A0000A0F500504A461F3803A90390684600F03D
:100A10004DFE8DE807000004000C03D04FF0FF30BE
:100A2000410800E01046B8F1000F03D00022009208
:100A300015461EE0751E05D400F00CFA30326255E2
:100A40006D1EF9D5B3460122084302D000227F1C57
:100A500004E02078302801D100227F1E002A099767
:100A600086D01DE0112D07DA00F0F4F9303262551E
:100A70006D1C50EA0102F5D1084302D00098C8B1BC
:100A80000EE00021681E05E0235C625C6354225482
:100A9000401E491C8142F7DBAB46A81B401E099053
:100AA000002004F80B000B98099AC0F80880C0E9F0
:100AB000002B7CE711264FF0000859E72DE9F04F95
:100AC00088460446D21D22F0070191B0D1E9000109
:100AD000CDE90A0103F0D0FD02460B98C00F01D00A
:100AE0002D2007E02068810701D52B2002E020217E
:100AF00001EAC000032A099001D0072A05DB03465A
:100B00004146204600F0ECF90BE12078800601D543
:100B1000E06900E00620B8F1650F814606D0B8F123
:100B2000660F18D0B8F1670F70D131E00020B9F12D
:100B3000110F009001DB112301E009F101030AAA62
:100B400001A90CA8FFF7E4FEDDE90C70002609F10D
:100B50000105834647E001204B4600904FF00047D7
:100B60000AAA01A90CA8FFF7D3FEDDE90DB00C9984
:100B70005D46002610B909F101000D18B9EB05001A
:100B800003D4C0F1FF3609F10105A5EB09002BE004
:100B9000B9F1010F01DA4FF001090020B9F1110F8D
:100BA0000090484601DD112300E003460AAA01A98E
:100BB0000CA8FFF7ADFEDDE90C704D46002683461C
:100BC000207800070AD4AB4500DA5D4601A8012D64
:100BD00004DD411911F8011C302907D04F4502DA14
:100BE00017F1040F04DA012082460FE06D1EEEE7D4
:100BF000002F02DCED1B3E4403E0781CA84200DD20
:100C00007D1CB81B00F1010A4FF000472078000757
:100C100003D4AA4501DB4FF0FF3A0021B7F1004FA2
:100C20000DF143088DF8431024D002202B23002F10
:100C300001DA7F422D230A21021EA0F1010000DC0F
:100C40005FB197FBF1FC97FBF1F201FB1C7C1746AF
:100C50000CF1300C08F801CDEEE7A8F101000370AB
:100C60002188090501D5452100E06521A0F1010891
:100C700000F8011C09980FA9A1EB0807FF1D00B19E
:100C80000120411901EBEA70A1693844081A401E9D
:100C9000A0612078C00602D42046AFF300800998F6
:100CA00028B1D4E901219047206A401C20622078B5
:100CB000C00622D52046AFF300801EE0002E04DBE4
:100CC000B34502DD01A8805D00E03020D4E90121B8
:100CD0009047206A401C2062761CAAF101005FEA5E
:100CE000000A0AD100F0B2F8C0680168405CD4E99B
:100CF00001219047206A401C2062281EA5F10105B1
:100D0000DCDC07E0D4E9012118F8010B9047206AE8
:100D1000401C2062381EA7F10107F3DC2046AFF328
:100D20000080032011B043E601694A1C0261087883
:100D3000704700B58FB0CDE901310021059105491B
:100D40007944CDE9031011466846FFF7ADFB0FB0BB
:100D500000BD0000E5FFFFFF10B5436913B1AFF31D
:100D6000008001E0FFF7F0FA012010BD127800F1D9
:100D700024010A7000224A700122EDE711684FF049
:100D8000FF32E9E7074B70B50D467B44FFF7D1FF13
:100D90000446284600F052F910B14FF0FF3070BD04
:100DA000204670BD83490000002000F04BF9FFF79A
:100DB00031FA012000F044F810B5044602E0641C4A
:100DC00000F036F820780028F9D110BD10B5203A8F
:100DD000C0F00B80B1E81850203AA0E81850B1E8F4
:100DE0001850A0E81850BFF4F5AF5FEA027C24BFAA
:100DF000B1E81850A0E8185044BF18C918C0BDE8A1
:100E000010405FEA827C24BF51F8043B40F8043B69
:100E100008BF7047D20728BF31F8023B48BF11F81E
:100E2000012B28BF20F8023B48BF00F8012B704778
:100E300008B569468DF800000320ABBE08BD000070
:100E400001491820ABBEFEE72600020000487047AB
:100E50004C83002030B5B0F10A024FEA900E71F1D8
:100E600000034EEA817EB0EB0E0061EB91014FEA88
:100E7000101E4EEA017E10EB0E0041EB11114FEAFD
:100E8000102E4EEA016E10EB0E0041EB11214FEADD
:100E9000104E4EEA014E10EB0E0041EB114140188E
:100EA00041F100014FEAD00040EA41704FEAD10120
:100EB00010EB80054FEA810444EA907444EB01048E
:100EC0006D1944EB0404521BA3414FF0000348BFCB
:100ED0000A3200D530BD401C41F1000130BD000098
:100EE0002DE9F0411F46044603260168072A01F454
:100EF000006004DB08B116A505E016A503E008B103
:100F000015A500E015A521F010002060A069C01E05
:100F1000A0610FB1401EA0612046AFF300804FB129
:100F2000D4E9012138469047206A401C2062C01C49
:100F3000206206E0206AFAE7D4E9012115F8010BE6
:100F40009047761EF8D22046AFF30080BDE8F081CE
:100F50004E414E006E616E00494E4600696E66005D
:100F60002DE9F047814616468AB0334878440DC8CB
:100F70008DE80D0030487844801C03AC0DC884E82F
:100F80000D0041F69B300844372190FBF1F290FBB5
:100F9000F1F5A5F1800501FB12041B3C02D564426A
:100FA000012000E00020DFF890A080460027FA44EE
:100FB000AAF1BE0A0DE0E00709D03246684607EB09
:100FC00047010AEB810100F071FB8DE80700641016
:100FD0007F1C002CEFD1184F7F44AC3F18E0E8078E
:100FE00014D007EB04100DF1180A90E80E008AE8FF
:100FF0000E00C068F04201D198190890324606A947
:1010000003A800F053FB03AB83E807006D10641CDA
:10101000002DE4D132466946B8F1000F03A802D092
:1010200000F030FB01E000F041FBC9E90001C9F824
:1010300008200AB0BDE8F087D8930000007B00F0DC
:101040008000704710B500F03BF8BDE8104000F09C
:1010500031B80000004870472C8300207047754667
:10106000FFF7F8FFAE4605006946534620F007003B
:10107000854618B020B5FFF749F9BDE820404FF08C
:1010800000064FF000074FF000084FF0000B21F072
:101090000701AC46ACE8C009ACE8C009ACE8C0093F
:1010A000ACE8C0098D4670470446AFF30080204687
:1010B000FFF7BBF8002801D0FFF7C2BE7047000061
:1010C00010B5002102A000F053F8012010BD00006F
:1010D000534947414252543A2041626E6F726D61EA
:1010E0006C207465726D696E6174696F6E000000CA
:1010F0004FF0013C50F8042B51F8043B9A4221D1A7
:10110000A2EB0C03934313EACC1317D150F8042B32
:1011100051F8043B9A4215D1A2EB0C03934313EA16
:10112000CC130BD150F8042B51F8043B9A4209D14F
:10113000A2EB0C03934313EACC13DBD04FF0000077
:10114000704700BFD01A01BAB1FA81F101F018015D
:1011500022FA01F0CB40C1F12001DBB2C0B2C01ACB
:101160002CFA01F3D11A914311EAC311E6D1704769
:1011700070B505460C460A2000E06D1CFFF758FECE
:1011800035B128780028F8D102E0641CFFF750FE42
:1011900014B120780028F8D1BDE870400A20FFF78C
:1011A00047BE5FEA400C08BF91F0000F4FEA8C2366
:1011B0004FEAC12243EA51514FEA1C5018BF00F5D3
:1011C000F0404FEA300018BF41F000415FEA6C5C2C
:1011D00000F02980BCF1FF3F08BF40F0804070471D
:1011E000130C06BF12044FF0100C4FF0000C130E3E
:1011F00004BF12020CF1080C130F04BF12010CF112
:10120000040C930F04BF92000CF1020CD30F04BF27
:1012100052000CF1010C11464FF00002A0F11F002A
:10122000A0EB0C00704711F0004F08BF704731F081
:1012300000413FF4D5AF0B0C06BF09044FF0100C72
:101240004FF0000C0B0E04BF09020CF1080C0B0F41
:1012500004BF09010CF1040C8B0F04BF89000CF1D1
:10126000020CCB0F04BF49000CF1010CCCF12003A0
:10127000A0EB0C0022FA03F302FA0CF241EA03019C
:1012800000F10100704720F07F4C80EA030023F05A
:101290007F47ACEB070303F57C5300F0004003F1FC
:1012A000FF032DE980494FEA154B09B44FEA144377
:1012B00025EA0B4E24EA03480FF2042606EB132717
:1012C00049083E785FEA320203FB0667C7F500076C
:1012D00007FB06F64FEA54374FEAD64606F10206F8
:1012E00007FB066CCCF1005C4FEA1C472CEA074C6C
:1012F00007FB06F40CFB06F504EB15464FEA9616C1
:1013000034BF00204FF000404FEAD13706FB07FC06
:101310004FEA1C4C0CFB0BF7D21B03FB0CF761EBE9
:1013200007010CFB0EF7B0EB074072EB17420CFB0A
:1013300008F734BFA2EB0742B2EB074261EB17415B
:101340004FEA0C444FEA910706FB07FC4FEA1C4C9E
:101350000CFB0BF7B0EBC74072EB573203FB0CF7FB
:1013600034BFA2EBC742B2EBC74261EB57310CFB73
:101370000EF7B0EBC70072EB57720CFB08F734BFE7
:10138000A2EBC702B2EBC70261EB5771039F4FEAB2
:10139000816141EA921104EBCC044FEAD1374FEA64
:1013A000826206FB07FC42EA90124FEA80604FEA35
:1013B0001C4C0CFB0BF7D21B03FB0CF761EB07017A
:1013C0000CFB0EF7B0EB074072EB17420CFB08F773
:1013D00034BFA2EB0742B2EB074261EB17414FEA81
:1013E0008C554FEA910704EB9C2406FB07FC4FEA5F
:1013F0001C4C0CFB0BF7B0EBC74072EB573203FBF6
:101400000CF734BFA2EBC742B2EBC74261EB5731D6
:101410000CFB0EF7B0EBC70072EB57720CFB08F732
:1014200034BFA2EBC702B2EBC70261EB577115EBF9
:101430004C254FEA816141EA92114FEA82624FEAFC
:10144000D13742EA901206FB07FC44F100044FEA50
:1014500080604FEA1C4C0CFB0BF7D21B03FB0CF714
:1014600061EB07010CFB0EF7B0EB074072EB174284
:101470000CFB08F734BFA2EB0742B2EB074261EB6B
:10148000174115EB1C154FEA813141EA92414FEAB1
:10149000823242EA90424FEA80304FEA0C7644F1C1
:1014A000000448EA03434EEA0B484FF0000EB2EB4B
:1014B000080C71EB030724BF624639464EEB0E0E53
:1014C0004FF0000B0018524149414BEB0B0BB2EBB4
:1014D000080C71EB03077BF1000B24BF6246394611
:1014E0004EEB0E0E4FF0000B0018524149414BEBF2
:1014F0000B0BB2EB080C71EB03077BF1000B24BF65
:10150000624639464EEB0E0E51EA020718BF46F00E
:10151000010616EB0E7655F1000254F1000103D5D9
:10152000BDE88901BDE80088BDE88901BDE8004843
:10153000B619524141EB0101A3F1010370478080CC
:101540007F7E7D7C7B7A797877767675747372711D
:1015500071706F6E6E6D6C6C6B6A6A6968686766D5
:1015600066656464636362616160605F5F5E5E5D67
:101570005D5C5C5B5B5A5A595958585757565655DB
:1015800055555454535352525251515050504F4F3D
:101590004F4E4E4D4D4D4C4C4C4B4B4B4A4A4A498D
:1015A00049494848484747474746464645454544D0
:1015B0004444444343434342424242414141002B5D
:1015C00026D4770021D01CB54FEA370703B44FF07B
:1015D00010004FF010014FF000000FBCBDE81040AC
:1015E0000BF1010BBBF1010F08BF5FEA170722BF28
:1015F00012F1010211F101014FF0004143F100032A
:1016000000F0004043EA00007047F9D35708DAE7DA
:1016100046EA064613F1400F4FEA16461FDD13F166
:10162000200FDFBF16430A46002120335B42C8D09B
:10163000C3F1200746EA064602FA07F74FEA1646C4
:1016400046EA0706C3F1200722FA03F201FA07F778
:1016500021FA03F14FF0000342EA0702B1E746EA3C
:10166000020646EA06464FEA164646EA0106BCBFAF
:1016700046EA0646360C4FF000034FF000024FF0EA
:1016800000019EE72DE9C048934630B491E8380048
:1016900007C831EA400C48BF34EA430C03D5FFF7D2
:1016A000F2FDFFF78CFFF0BCBDE800882DE9C048D3
:1016B000934630B491E8380007C810F0804F08BF57
:1016C00013F0804F03D100F005F8FFF778FFF0BC6E
:1016D000BDE8008820F07F4780EA030023F07F4CBC
:1016E00007EB0C03A3F57C5300F00040A3F1FE03CD
:1016F00092F0000F00F0B38095F0000F00F07780BB
:101700002DE901494FEA11404FEA144621EA004809
:1017100000FB06FC24EA064708FB06F607FB08F870
:1017200000FB07F718EB06484CEB164C4FEA124B40
:1017300018EB07484FEA15464CEB174022EA0B4ED0
:101740000BFB06FC25EA06470EFB06F607FB0EFE22
:101750000BFB07F71EEB064E4CEB164C4FF000064A
:101760001EEB074E4CEB174B18EB0B0840F100003B
:1017700018EB0E0B58EB000840F100008F1A4FF0E9
:1017800000013CBFC943661B14BFB5EB040C00212C
:101790003CBFC943F61B4FEA17444EEA8E0E27EAB8
:1017A00004454FEA1C4704FB07622CEA074C05FB83
:1017B00007F70CFB05F604FB0CFC16EB074642EBA7
:1017C000174216EB0C4642EB1C421BEB060658EB8D
:1017D0000202414146EA9E0601D5BDE80189B619DB
:1017E000524141EB0101A3F10103BDE801894FEA38
:1017F00014454FEA114724EA054621EA074C05FB48
:1018000007F406FB07F70CFB06F105FB0CFC11EBDC
:10181000074144EB17444FEA124711EB0C4144EBEC
:101820001C4422EA074C05FB07F206FB07F70CFBFA
:1018300006F605FB0CFC16EB074642EB174216EBCF
:101840000C4642EB1C456A1854F1000148BF704732
:10185000B619524141EB0101A3F10103704795F024
:10186000000F37D04FEA11424FEA144721EA0246EF
:1018700024EA074C02FB07F106FB07F70CFB06F412
:1018800002FB0CFC14EB074441EB17414FEA1547F0
:1018900014EB0C4441EB1C4125EA074C02FB07F515
:1018A00006FB07F70CFB06F602FB0CFC16EB0746E3
:1018B00045EB174516EB0C4645EB1C42121951F14E
:1018C000000148BF7047B619524141EB0101A3F135
:1018D000010370474FEA14454FEA114724EA0546D1
:1018E00021EA074C05FB07F106FB07F70CFB06F2A4
:1018F0004FF0000605FB0CFC12EB074241EB1741D1
:1019000012EB0C4251EB1C4148BF7047921841EB5F
:101910000101A3F10103704710B54FF408710848A5
:1019200000F030F8012804D1054800F027F80549F7
:1019300008804FF40871024800F006F810BD00005E
:10194000002801406802002000220A12D3430360ED
:10195000704721B1826842F00102826003E0826830
:1019600022F0010282607047014600208A6802F07E
:1019700004020AB1012000E0002070470146C86C53
:1019800080B2704770B502460020002300240B127D
:101990005568CEB205EA060415681D4015B10CB1B4
:1019A000012000E0002070BD014600208A6802F09E
:1019B00008020AB1012000E00020704710B50023A2
:1019C000CBB21AB144681C43446002E044689C43B3
:1019D000446010BD30B502460020002350680F4C13
:1019E00020400D790C6844EA05242043506090683B
:1019F0000B4C2040D1E902542C434D7944EA450474
:101A000020439060D06A20F470000C7C641EE4B225
:101A1000234340EA0350D06230BD0000FFFEF0FFD8
:101A2000FDF7F1FFF0B504460D4600200021092D19
:101A300011DDE068A5F10A0606EB4607072606FA5F
:101A400007F18843A5F10A0606EB460603FA06F1FC
:101A50000843E0600CE0206905EB4507072606FA1D
:101A600007F1884305EB450603FA06F108432061B8
:101A7000072A0FDA606B561E06EB86071F2606FA4A
:101A800007F18843561E06EB860605FA06F1084361
:101A9000606322E00D2A0FDA206BD61F06EB860763
:101AA0001F2606FA07F18843D61F06EB860605FABD
:101AB00006F10843206310E0E06AA2F10D0606EB90
:101AC00086071F2606FA07F18843A2F10D0606EBEA
:101AD000860605FA06F10843E062F0BD816841F030
:101AE00008018160704721B1826842F4A0028260DF
:101AF00003E0826822F4A00282607047816841F0AE
:101B0000040181607047000008B50121102001F038
:101B1000FFFB0120ADF8000000208DF803006946AE
:101B2000014800F0A3FD08BD0010014010B5FFF70B
:101B3000EBFF00F001F810BD00B585B0012188026F
:101B400001F0E6FB002000908DF8040001208DF8E4
:101B500005004FF4602002900020039001208DF8D2
:101B6000100069461748FFF735FF4FF4404001F079
:101B7000B3FB052301220A211248FFF753FF01227C
:101B80004FF408710F48FFF719FF01210D48FFF7C7
:101B9000E0FE0C48FFF7A2FF00BF0A48FFF704FF72
:101BA0000028FAD10748FFF7A9FF00BF0548FFF753
:101BB000DBFE0028FAD101210248FFF794FF05B0AF
:101BC00000BD00000028014010B500F013F800BF70
:101BD00001234FF4FA6203A103A006F081F8002864
:101BE000F6D110BD4F4B000041542B534C4545508E
:101BF0000D0A000010B51021054800F0CBFD4FF490
:101C0000FA7002F08DFE1021014800F0C5FD10BDF4
:101C10000018014000BFFEE7704710B500F0F4FA6D
:101C200010BD012080F3108800BF7047002080F3B2
:101C3000108800BF7047000010B54FF4006000F03E
:101C40007BF900287ED001F097F94FF47A7002F00A
:101C500067FE4FF40061814800F093FD002872D1C7
:101C60004FF47A7002F05CFE4FF47A7002F058FE86
:101C70004FF40061794800F084FD002871D10A20FA
:101C80007749087000240AE000F0D6FDC82002F071
:101C900047FE00F0C3FDC82002F042FE641C032C86
:101CA000F2DB4FF400616D4800F06BFD012805D1B7
:101CB00000206B4908706BA0FEF73AFB00240CE093
:101CC0004FF40061654800F05CFD012800D106E09A
:101CD0004FF47A7002F024FE641C032CF0DB00BF8A
:101CE0004FF400615D4800F04CFD0028C6D114207F
:101CF0005B49087000240AE000F07CFDC82002F077
:101D00000FFE00F073FDC82002F00AFE641C032CD5
:101D1000F2DB4FF40061514800F033FD012817D188
:101D200000204F49087054A0FEF702FB002001F08C
:101D300039FE4FF4405001F035FE02F08FFC4FF4B5
:101D40007A7001E088E04BE002F0EAFD01F0E4F98E
:101D50004FF40061414800F014FD00284DD10024EB
:101D60000DE04AE04FF400613C4800F00AFD012814
:101D700000D106E04FF47A7002F0D2FD641C022C10
:101D8000F0DB00BF4FF40061344800F0FAFC00289B
:101D900033D13349087000240AE001F0B1FBC820B8
:101DA00002F0BEFD01F0A8FBC82002F0B9FD641CE2
:101DB000032CF2DB35A0FEF7BBFA00F069F900F066
:101DC0000FFC4FF47A7002F0ABFD38A0FEF7B0FACA
:101DD0004FF47A7002F0A4FD02F040FC01F09CF98F
:101DE0004FF400611D4800F0CCFC30B138A0FEF784
:101DF0009FFA02F033FC01F08FF9194800780A28A5
:101E00000AD137A0FEF794FA16A0FEF791FA05F072
:101E100063F901203B49087011480078142814D157
:101E200039A0FEF785FA14A0FEF782FA002001F02F
:101E3000B9FD4FF4405001F0B5FD02F00FFC4FF436
:101E40007A7002F06DFD01F067F900200449087016
:101E50004FF4006000F06AF810BD00000008014077
:101E6000BE0300200D0ABDF8C8EB736D6172746388
:101E70006F6E6669670D0A000D0ABBD6B8B4B3F67B
:101E8000B3A7C9E8D6C30D0A000000000D0ACCF8BC
:101E9000D7AAD6C14941505F426F6F744C6F6164DD
:101EA0006572B3CCD0F20D0A000000002D2D2D2D4F
:101EB0002D2D2D3E3E204A756D7020746F204941B6
:101EC0005020426F6F746C6F616465720D0A000080
:101ED0000D0AB0B4BCFCB8B4CEBB0D0A00000000C3
:101EE0002D2D2D2D2D2D3E3E3E736D617274636F31
:101EF0006E6669672077696C6C20646F696E670D28
:101F00000A000000BC0300202D2D2D2D2D2D3E3E5E
:101F10003E73797374656D5F696E69742077696C5F
:101F20006C20646F696E670D0A000000014908604B
:101F30007047000014040140014600200022074BB6
:101F40001B6803EA0102054B14331B680B4013B1F5
:101F50000AB1012000E000207047000000040140A9
:101F6000002123498279002A3AD00A461268036880
:101F70009A430B461A600A1D126803689A430B1DA8
:101F80001A60027911440A6803681A430A60184A01
:101F90000832126803689A43154B08331A601A1DF9
:101FA000126803689A43124B0C331A604279102A64
:101FB0000ED11A1F126803681A430D4B08331A60BA
:101FC0001A1D126803681A43094B0C331A600DE09E
:101FD0000749427911440A6803681A430A6005E018
:101FE000027911440A6803689A430A607047000046
:101FF000000401400EB50121052001F089F901F02E
:102000002EF84FF40060ADF8080004208DF80B00A6
:1020100002A90B4800F02AFB0B21002000F006FB70
:102020004FF40060009000208DF804000C208DF823
:10203000050001208DF806006846FFF791FF0EBDF0
:102040000008014010B508224FF41041054801F086
:1020500017FB044904A0FEF76BF9082108A0FEF75E
:1020600067F910BD2083002045746865726E657441
:102070005F4275666665723A25730D0A00000000BE
:102080007878782D2D2D3E3E3E3A256400000000E4
:1020900010B54FF4104001F085FC08224FF41041B8
:1020A000014801F017FB10BD3504002008B503F00E
:1020B0009BFB04F0A9FD04F0F9FF04F0A9FE1A4906
:1020C0001A4805F095F81AA0FEF732F92548C078AD
:1020D0000090244883784278017823A0FEF728F9FD
:1020E0002748018827A0FEF723F92AA0FEF720F948
:1020F00037A0FEF71DF93BA0FEF71AF94FF48071E7
:10210000404800F049FB4FF400713E4800F044FBAA
:102110004FF480613B4800F03FFB4FF400713948B9
:1021200000F038FB08BD0000FC020020F402002093
:102130000D0AB5E7C4D4D7F7CEAA544350B7FECEA4
:10214000F1C6F72CC8C35735353030D7F7CEAA20A3
:10215000544350BFCDBBA7B6CBC8A5C1ACBDD30DB2
:102160000A0000001C030020B7FECEF1C6F749505C
:102170003A25642E25642E25642E25640D0A000060
:1021800020030020BCE0CCFDB6CBBFDA3A256420AA
:102190000D0A0000C1ACBDD3B3C9B9A6BAF3A3AC54
:1021A000B7FECEF1C6F7B7A2CBCDCAFDBEDDB8F8FB
:1021B0005735353030A3AC5735353030BDABB7B5BA
:1021C000BBD8B6D4D3A6CAFDBEDD0D0A0000000000
:1021D000D3A6D3C3B3CCD0F2D6B4D0D0D6D00D0AC8
:1021E00000000000506C65617365205761697420C0
:1021F00061626F7574203333207365636F6E640D95
:102200000A0000000018014010B5894800781F2816
:1022100005DD00208649087001208649087086483F
:102220000068422809D0844840684D2805D0012024
:102230008249087000207F4908707E480078012894
:102240007DD100207B4908707C4908707A4800687D
:102250007949496808447849896808447649C968D1
:102260000844754909690844734949690844724931
:10227000896908447049C96908446F49096A084472
:102280006D49496A08446C49896A08446A49C96ABF
:1022900008446949096B08446749496B0844664921
:1022A000896B08446449C96B08446349096C084454
:1022B0006149496C08446049896C08445E49C96CAD
:1022C00008445D49096D08445B49496D08445A4911
:1022D000896D08445849C96D08445749096E084436
:1022E0005549496E08445449896E08445249C96E9B
:1022F00008445149096F08444F49496F44184E48F2
:10230000C06F4D49896F40EA0120A04298D14A48E8
:1023100090F830004A490870474890F8340049491D
:1023200008700978464A127841EA022007F0B6FDA3
:10233000454908604048C06C3F49896C00E074E042
:1023400040EA01204149086020213B48FEF75CFA41
:102350003E4800683E493F4A126841F822003D4825
:1023600000681C2804D23B480068401C39490860BA
:102370003548006807F02AFD374A03C23348006831
:1023800007F0B6FA354A03C235480068352801D14E
:102390003449086032480068B0F58C7F03D14FF4AF
:1023A0008C70304908602E480068401C2C49086039
:1023B000284800681B2838D12B480068A8BB01209A
:1023C0002949086000202949086015E0204927486C
:1023D0000068401C51F820101D48244A126850F82B
:1023E0002200081A224909680844214908601F4848
:1023F0000068401C1D49086016480068401E1B49C3
:1024000009688842E2D81C211148FEF7FDF91848F6
:10241000016810480068401CB1FBF0F014490860E6
:102420000846016813A0FDF783FF0848006810BD47
:102430002402002044020020341100204502002024
:102440003002002031020020340200203802002037
:10245000C41000203C02002048020020500200204E
:1024600058020020600200205C020020B801002019
:10247000F80100200D0A4741503A25640D0A00007A
:1024800010B51D220021104801F0FAF80E490FA0E6
:10249000FDF74EFF0C48FEF71DF90446214612A039
:1024A000FDF746FF1D222021144801F0E9F81349E9
:1024B00013A0FDF73DFF1148FEF70CF90446214635
:1024C00016A0FDF735FF10BD94820020B6C1B3F60B
:1024D000B5C4CAFDBEDDCEAA2020202053534944F6
:1024E000A3BA25730D0A00002020535349445F4CC2
:1024F000656E74683A25640D0A000000B082002001
:10250000B6C1B3F6B5C4CAFDBEDDCEAA2020506167
:1025100073737264A3BA25730D0A0000506173735C
:1025200072645F4C656E74683A25640D0A000000A1
:1025300010B51D224FF4A041034801F0A1F8024953
:1025400002A0FDF7F5FE10BD7A810020B6C1B3F6FA
:10255000B5C4CAFDBEDDCEAA20204D41435F414433
:102560004452A3BA25730D0A0000000010B51D22C5
:102570004FF4C041084801F083F8074907A0FDF770
:10258000D7FE1D224FF4E0410C4801F079F80B49C9
:102590000BA0FDF7CDFE10BD96810020B6C1B3F6AD
:1025A000B5C4CAFDBEDDCEAA2020202053657276B8
:1025B00065725F4950A3BA25730D0A00B2810020ED
:1025C000B6C1B3F6B5C4CAFDBEDDCEAA20205365A0
:1025D000727665725F506F7274A3BA25730D0A002C
:1025E00010B54FF4805001F0DDF909224FF480510D
:1025F000064801F06FF809224FF48051044801F0B9
:102600003FF8034903A0FDF793FE10BDFB03002034
:10261000248100200D0AB6C1B3F6B5C4CAFDBEDDE3
:10262000CEAAAAA325730D0A0000000030B500222F
:102630008B071C0F0F2303FA04F20B4B8C1053F87B
:1026400024309343084C8D1044F8253023468C10D9
:1026500053F824308C07240F00FA04F42343024C6F
:102660008D1044F8253030BD080001402DE9F041BF
:10267000024600250026002000230024002791F8B0
:1026800003C00CF00F0591F803C00CF0100CBCF166
:10269000000F03D091F802C04CEA050591F800C084
:1026A000BCF1000F31D0146800202BE04FF0010C7A
:1026B0000CFA00F3B1F800C00CEA03069E4220D1E8
:1026C00083004FF00F0C0CFA03F7BC4305FA03FC30
:1026D0004CEA040491F803C0BCF1280F06D14FF076
:1026E000010C0CFA00FCC2F814C00AE091F803C017
:1026F000BCF1480F05D14FF0010C0CFA00FCC2F8F8
:1027000010C0401C0828D1D31460B1F800C0BCF13F
:10271000FF0F34DD546800202EE000F1080C4FF06C
:10272000010808FA0CF3B1F800C00CEA03069E4257
:1027300021D183004FF00F0C0CFA03F7BC4305FACC
:1027400003FC4CEA040491F803C0BCF1280F05D146
:1027500000F1080C08FA0CF8C2F8148091F803C0D4
:10276000BCF1480F07D100F1080C4FF0010808FA3E
:102770000CF8C2F81080401C0828CED35460BDE885
:10278000F0810246002093680B400BB1012000E06D
:1027900000207047416170470161704710B50D49D5
:1027A00009780D4A127801EB022007F077FB0B49FC
:1027B00008600B4909780B4A127801EB022007F0F8
:1027C0006DFB0949086000221146104601F0FEFA2F
:1027D00010BD0000C4050020C406002064010020D4
:1027E000C4070020C40800206801002010B500F0D4
:1027F000C3FB10BD10B54FF480710748FFF7CCFF45
:102800004FF400710448FFF7C5FF4FF480610248A0
:10281000FFF7C2FF10BD00000018014010B54FF4D3
:1028200000710448FFF7B8FF4FF480610148FFF7DB
:10283000B3FF10BD0018014010B54FF400710448FB
:10284000FFF7A8FF4FF480610148FFF7A3FF10BD19
:102850000018014000BFFEE72DE9F0470223E52202
:1028600080213E4800F0CAF83C4800783C490860A6
:1028700008460068642190FBF1F03A490860384846
:102880000068642190FBF1F201FB120034490860FA
:102890003248407834490860324909684FF4C842E8
:1028A00001FB02F007F00DF8304A03C22C49096819
:1028B0002D4A126802EB012007F003F82C4A03C2EC
:1028C0002A480CC800202B4907F062F80446002271
:1028D000294B06F041FE254A03C225480CC80020BA
:1028E000244907F055F804460022234B06F034FE35
:1028F0001F4A03C21E481D490CC803C906F078FDD3
:102900001E4A03C200221E4B1C4903C907F074F97A
:102910001A4A03C21948D0E900101A4AC2E9001045
:10292000194A1A4B154903C907F032F80646184AE6
:10293000184B07F061F904460022174B06F058FDCA
:1029400080460022154B06F053FD0C4A03C20B498A
:1029500003C906F01BFDBDE8F0870000C40B002092
:1029600070010020780100207401002088010020FF
:102970009001002000405F400000F04080010020F6
:1029800000001840980100208DD0E8D038A8ED3F15
:102990004669B9EBE11D1A400000104000002040DC
:1029A00021B1028842F48062028004E002884FF67E
:1029B000FF331A400280704770B50246002400259C
:1029C00000230020958A138B1B0445EA030626F09A
:1029D0007F4404EA01068E4201D1012000E000207C
:1029E00070BD21B1028842F00102028004E0028839
:1029F0004FF6FE731A400280704700002DE9F04147
:102A000005460F4616461C464FF4A0306449086040
:102A10000AE063490868411E614A116020B9092033
:102A200000F050FABDE8F0814FF400315D4800F04D
:102A300083F90028EDD101215A4800F065F94FF4DF
:102A400080505749086009E055490868411E544ABA
:102A5000116018B90A2000F035FAE3E752495148ED
:102A6000FFF7AAFF0028EFD0002239464D4800F0BA
:102A70001DFA4FF480504A49086009E04849086847
:102A8000411E474A116018B90B2000F01BFAC9E734
:102A900046494448FFF790FF0028EFD00121414804
:102AA000FFF79FFF31463F4800F009FA4FF480508E
:102AB0003B49086009E03A490868411E384A1160FC
:102AC00018B90C2000F0FEF9ACE73849891C3548EC
:102AD000FFF772FF0028EED00121324800F014F910
:102AE0004FF480502E49086009E02D490868411EC6
:102AF0002B4A116018B90D2000F0E4F992E72A4939
:102B00002848FFF759FF0028EFD001223946254811
:102B100000F0CCF94FF480502149086009E02049C9
:102B20000868411E1E4A116018B90E2000F0CAF94B
:102B300078E71D49491C1B48FFF73EFF0028EED0EF
:102B400026E0012C07D100211648FFF729FF0121BB
:102B5000144800F0E5F84FF4A0301149086009E08E
:102B60000F490868411E0E4A116018B9032000F091
:102B7000A9F957E70C493F310A48FFF71DFF002824
:102B8000EED0084800F08EF928706D1C601E84B2EB
:102B9000002CD6D101210348FFF702FF012041E7B5
:102BA00040030020005400400100030082000700A1
:102BB00070B504460E4615460121364800F0A4F8CB
:102BC0004FF480503449086009E033490868411ED9
:102BD000314A116018B9002000F074F970BD2F4916
:102BE0002C48FFF7E9FE0028EFD0002231462948A3
:102BF00000F05CF94FF480502749086009E026494D
:102C00000868411E244A116018B9012000F05AF9E1
:102C1000E4E723491F48FFF7CFFE0028EFD02946FD
:102C20001C4800F04CF94FF480501B49086009E043
:102C300019490868411E184A116018B9022000F0AD
:102C400041F9CBE71649891C1248FFF7B5FE002869
:102C5000EED021780F4800F032F94FF480500E4941
:102C6000086009E00C490868411E0B4A116018B958
:102C7000032000F027F9B1E70949891C0548FFF74F
:102C80009BFE0028EED00121024800F049F8012007
:102C9000A4E70000005400404003002001000300AE
:102CA0008200070010B500F009F800F0D9F84020C4
:102CB0000149088010BD00003C03002008B5012137
:102CC000480500F015FB0121082000F021FB402001
:102CD000ADF8000003208DF802001C208DF80300E1
:102CE00069460848FFF7C2FC8020ADF800000320C9
:102CF0008DF802001C208DF8030069460148FFF79B
:102D0000B5FC08BD000C014021B1028842F480727C
:102D1000028004E002884FF6FF631A400280704789
:102D200021B1028842F40072028004E002884FF66A
:102D3000FF531A40028070470CB502460020002362
:102D40000193009300920B0F019321F07F41019BAF
:102D50001BB1009B1433009303E0090C009B183354
:102D60000093009B1B680B400BB1012000E000208A
:102D70000CBD00002DE9F04385B004460D46002649
:102D8000B1460427DFF8CC80A6884FF6C070064015
:102D9000684600F0CDFADDF808802F48B8FBF0F067
:102DA0001FFA80F946EA0906A68020884FF6FE71D0
:102DB0000840208000262949286888420CD82868C5
:102DC0004000B8FBF0F087B2042F00DA04273E433E
:102DD00009F10100208427E0E8884BF6FF71884262
:102DE00006D1286800EB4000B8FBF0F087B209E09C
:102DF000286800EBC00101EB0010B8FBF0F087B2CF
:102E000047F48047C7F30B0008B947F0010747F4C0
:102E1000004006434FF4967009FB00F04FF47A71BE
:102E200090FBF1F0401C2084A683208840F0010034
:102E3000208026884FF6F5300640A8886989084327
:102E400006432680A88929890843208105B0BDE86A
:102E5000F083000000127A0040420F00A0860100BB
:102E60001FB50020ADF804004BF6FF70ADF806006A
:102E70000A20ADF808004FF48060ADF80A000001A8
:102E8000ADF80C000548009069460548FFF772FF51
:102E900001210348FFF7A5FD1FBD0000A08601002A
:102EA000005400400146088AC0B2704712B141F098
:102EB000010102E04FF6FE73194001827047018262
:102EC0007047000010B50446214602A0FDF730FA15
:102ED000002010BD3C3C2D454550524F4D2D4552D4
:102EE000524F522D3E3E2049324320776169742073
:102EF00074696D6F757420216572726F72436F64AF
:102F000065203D2025640A0070B50446002502F0C6
:102F100074FCC4F3074000F010F8C4F3072000F07D
:102F20000CF804F0F80000F008F8002000F005F8B4
:102F3000054602F067FC284670BD10B504462046E1
:102F400000F054FD10BD70B504460D4602F055FC6E
:102F5000C4F30740FFF7F1FFC4F30720FFF7EDFFCD
:102F600004F0F801091DC8B2FFF7E7FF2846FFF794
:102F7000E4FF02F047FC70BD10B54FF480710748C4
:102F8000FFF70AFC4FF400710448FFF705FC4FF40B
:102F900080610248FFF700FC10BD000000180140EE
:102FA00010B54FF480710748FFF7F4FB4FF4007140
:102FB0000448FFF7EFFB4FF480610248FFF7EAFB9C
:102FC00010BD00000018014000BFFEE710B5FFF77C
:102FD000E7FF10211248FFF7D4FB012806D111A00A
:102FE000FDF7A6F901201249087005E011A0FDF7D0
:102FF0009FF900200E49087020210948FFF7C1FB06
:10300000012806D10EA0FDF793F901200F490870A1
:1030100005E00FA0FDF78CF900200C49087010BDE9
:10302000001001404D6F74696F6E313D310D0A0023
:10303000380300204D6F74696F6E313D300D0A000A
:103040004D6F74696F6E323D310D0A0039030020F7
:103050004D6F74696F6E323D300D0A00704708B5D0
:1030600028208DF8000003208DF8010001208DF844
:1030700002008DF80300684600F002F808BD000069
:1030800070B5002100230F22C47804B3154C2468C6
:1030900004F4E064C4F5E064210AC1F10403CA4009
:1030A000447804FA03F184781440214309010E4C5A
:1030B0000678A155047804F01F050124AC4005787A
:1030C0006D11AD0005F1E025C5F8004109E0047877
:1030D00004F01F050124AC40044D0678761145F834
:1030E000264070BD0CED00E000E400E080E100E06F
:1030F00002490143024A1160704700000000FA05CE
:103100000CED00E0024A0A400243024B1A6070478D
:1031100080FFFF1F08ED00E00648006800F4E06053
:1031200005490843001D03490860BFF3408F00BFF5
:10313000FEE700000CED00E00000FA0510B562B6F5
:103140000349C802FFF7DEFF01480249086010BDCD
:103150000000010808ED00E070B53748016837A0AD
:10316000FDF7E6F83948016839A0FDF7E1F83C4879
:10317000006806F02BFE3B4A03C2FEF74EFD0446F4
:1031800006F09FFB384A03C236480CC837A0FDF74B
:10319000CFF835480CC838A0FDF7CAF839480068A0
:1031A000002823D03748006813281FD82748006814
:1031B00035283BD10022344B2B4903C906F0E8FBEC
:1031C000044606F021FB314908600846016830A03A
:1031D000FDF7AEF802F008FE0020354908603549D9
:1031E000086015490860194908601FE01748006821
:1031F000B0F58C7F1AD10022234B1B4903C906F07E
:10320000C7FB044606F000FB204908600846016839
:1032100029A0FDF78DF802F0E7FD002024490860A1
:103220002449086004490860084908600C4800689F
:1032300006F0F8FD70BD000058020020706D3235B8
:103240005F636F6E743D25640D0A0000600200200C
:10325000666C61675F7072696E743D25640D0A006B
:10326000340200204802002050020020504D322E2F
:10327000353D252E660D0A00447573743D252E6676
:103280000D0A0000F8010020000024402C0200205C
:103290002D2D2D2D2D2D2D2D2D3E3E3E3E3E3E3AEB
:1032A0004475737435333D256C640D0A00000000CD
:1032B0005C0200203C0200202D2D2D2D2D2D2D2DCA
:1032C0002D3E3E3E3E3E3E3A447573743238303DAC
:1032D000256C640D0A00000001460020034A506876
:1032E00020F4404008435060704700000010024046
:1032F00029B1064AD2690243044BDA6104E0034A69
:10330000D2698243014BDA6170470000001002402D
:1033100029B1064A92690243044B9A6104E0034AC8
:1033200092698243014B9A6170470000001002408D
:1033300030B500210022002400232D4D6D6805F0DA
:103340000C0121B1042905D0082923D105E0294D1C
:10335000056022E0274D05601FE0254D6D6805F4EE
:103360007012234D6D6805F48034022505EB9242FE
:103370001CB9214D554305600BE01D4D6D6805F4EA
:1033800000351DB11C4D5543056002E0194D5543F4
:10339000056002E0174D056000BF00BF144D6D6869
:1033A00005F0F0010909154D6B5C0568DD404560CD
:1033B0000F4D6D6805F4E061090A104D6B5C4568BE
:1033C000DD4085600A4D6D6805F46051C90A0B4DFA
:1033D0006B5C4568DD40C560054D6D6805F4404196
:1033E000890B074D6B5CC568B5FBF3F5056130BD16
:1033F0000010024000127A0000093D001400002075
:103400002400002008B501215020FFF781FF302063
:10341000ADF8000010208DF8030003208DF80200A5
:1034200069461448FFF722F94FF4E060ADF8000058
:1034300010208DF8030003208DF8020069460E4825
:10344000FFF714F94FF480710B48FFF7A5F94FF41B
:1034500000710948FFF7A0F94FF480610648FFF7B3
:103460009BF910210348FFF795F920210148FFF748
:1034700091F908BD001001400018014010B5072265
:103480004FF48041034800F0FBF8024902A0FCF72A
:103490004FFF10BD1A810020B6C1B3F6B5C4CAFDF6
:1034A000BEDDCEAA4B65795F666C6167A3BA2573F2
:1034B000202020200D0A000010B50A224FF44051B0
:1034C000034800F0DDF8024902A0FCF731FF10BD0F
:1034D00010810020B6C1B3F6B5C4CAFDBEDDCEAAC8
:1034E000736D6172745F666C6167A3BA2573202087
:1034F00020200D0A0000000010B5FFF73DFD10BDB3
:1035000010B54FF480710748FFF746F94FF400718A
:103510000448FFF741F94FF480610248FFF73AF998
:1035200010BD00000018014000B587B001218803DC
:10353000FFF7DEFE01214CF20800FFF7E9FE4FF431
:103540008050ADF8040003208DF8060010208DF89F
:10355000070001A92448FFF789F84FF40050ADF89F
:10356000040018208DF8070001A91F48FFF77EF816
:103570004FF48040ADF8040001A91B48FFF776F82E
:103580004FF40040ADF8040001A91748FFF76EF8AA
:103590004FF480511448FFF7FFF80020ADF8080001
:1035A0004FF48270ADF80A000020ADF80C00022044
:1035B000ADF80E000120ADF810004002ADF8120089
:1035C0000820ADF814000020ADF816000720ADF873
:1035D000180002A9054800F061FA0121034800F033
:1035E00043F807B000BD0000000C01400038004067
:1035F00010B504464FF48050194908600AE0184994
:103600000868411E164A116020B9002000F064FAD3
:10361000C0B210BD0221134800F032FA0028EED0EB
:103620002146104800F038FA4FF480500C490860E9
:103630000AE00B490868411E094A116020B90120BF
:1036400000F04AFAC0B2E4E70121064800F018FA97
:103650000028EED0034800F01CFAC0B2D9E7000001
:10366000E40300200038004021B1028842F040020B
:10367000028004E002884FF6BF731A400280704750
:1036800070B505460C4616464FF480511048FFF7BA
:1036900081F80320FFF7ACFFC4F30740FFF7A8FF52
:1036A000C4F30720FFF7A4FFE0B2FFF7A1FF04E097
:1036B000FF20FFF79DFF28706D1C3000A6F101016F
:1036C0008EB2F5D14FF480510148FFF765F870BD17
:1036D000000C01402DE9F05F07460E4614464FF0FE
:1036E0000008C146C2460025AB4606F0FF0ACAF1F3
:1036F0000000C5B22046E11704EB1161C1F30728B1
:10370000E11704EB11610912A4EB012101F0FF099B
:10371000BAF1000F20D1B8F1000F05D12246314691
:10372000384600F0EFF864E009E04FF4807231466B
:10373000384600F0E7F806F5807607F580775FEA0F
:103740000800A8F1010101F0FF08EED14A46314618
:10375000384600F0D7F84CE0B8F1000F18D1A94571
:1037600010DDA9EB050000F0FF0B2A463146384674
:1037700000F0C8F82E442F445A463146384600F02F
:10378000C1F836E022463146384600F0BBF830E05A
:10379000601B84B22046E11704EB1161C1F30728D6
:1037A000E11704EB11610912A4EB012101F0FF09FB
:1037B0002A463146384600F0A5F82E442F4409E049
:1037C0004FF480723146384600F09CF806F580765A
:1037D00007F580775FEA0800A8F1010101F0FF0812
:1037E000EED1B9F1000F04D04A463146384600F018
:1037F00089F8BDE8F09F000000B587B00121742072
:10380000FFF786FD01210803FFF782FD2020ADF8B8
:10381000040003208DF8060018208DF8070001A988
:103820003548FEF723FF4020ADF8040001A93248D7
:10383000FEF71CFF8020ADF8040001A92E48FEF71A
:1038400015FF1020ADF804008DF8070001A92A48E3
:10385000FEF70CFF1020ADF804008DF8070001A959
:103860002648FEF703FF40F60270ADF80400102072
:103870008DF8070001A92148FEF7F8FE4FF480718A
:103880001E48FEF789FF4FF400711C48FEF784FFC5
:103890004FF480611948FEF77FFF02211748FEF7B9
:1038A00079FF4FF400611548FEF774FF0020ADF872
:1038B00008004FF48270ADF80A000020ADF80C004B
:1038C0000220ADF80E000120ADF810004002ADF866
:1038D00012000820ADF814000020ADF816000720F3
:1038E000ADF8180002A9064800F0D8F801210448F4
:1038F000FFF7BAFE07B000BD000801400018014004
:103900000030014070B505460C46164600F0A6F89A
:103910004FF480511548FEF73DFF0220FFF768FE87
:10392000C4F30740FFF764FEC4F30720FFF760FE0F
:10393000E0B2FFF75DFEB6F5807F04DD4FF48076E0
:103940000BA0FCF7F5FC03E02878FFF751FE6D1C97
:103950003000A6F101018EB2F6D14FF48051034838
:10396000FEF71AFF00F05EF870BD0000000C014089
:103970003C3C2D464C4153482D4552524F522D3E12
:103980003E205350495F464C4153485F5061676544
:10399000577269746520746F6F206C61726765215E
:1039A0000A00000010B5044600F058F800F03AF89C
:1039B0004FF480510C48FEF7EDFE2020FFF718FE73
:1039C000C4F30740FFF714FEC4F30720FFF710FE0F
:1039D000E0B2FFF70DFE4FF480510348FEF7DCFE26
:1039E00000F020F810BD0000000C014010B50446A6
:1039F00000BF02210A4800F043F80028F9D0214610
:103A0000074800F049F800BF0121054800F038F8E8
:103A10000028F9D0024800F03CF8C0B210BD000008
:103A20000030014010B500244FF480510A48FEF7E1
:103A3000B1FE0520FFF7DCFD00BFFF20FFF7D8FD3A
:103A4000044604F001000028F7D14FF480510248E9
:103A5000FEF7A2FE10BD0000000C014010B54FF4AF
:103A600080510648FEF796FE0620FFF7C1FD4FF491
:103A700080510248FEF790FE10BD0000000C01408E
:103A80000246002013890B400BB1012000E000200A
:103A900070470146888970478181704710B50022C0
:103AA000028802F441520B884C8823438C882343BC
:103AB000CC8823430C8923434C8923438C8923439B
:103AC000CC8923431A430280838B4FF2FF74234037
:103AD00083830B8A038210BD10B50446214602A0E1
:103AE000FCF726FC002010BD3C3C2D464C415348C1
:103AF0002D4552524F522D3E3E2053504920B5C8BD
:103B0000B4FDB3ACCAB1216572726F72436F646564
:103B1000203D2025640A000010B500F001F810BD1A
:103B20000CB50020019000903348006840F48030CC
:103B30003149086000BF3048006800F40030009050
:103B40000198401C0190009818B90198B0F5A06F39
:103B5000F1D12948006800F4003010B10120009034
:103B600001E0002000900098012843D1234800681C
:103B700040F01000214908600846006820F003006A
:103B800008600846006840F0020008601A48406873
:103B9000194948600846406848600846406840F453
:103BA000806048600846406820F47C104860084601
:103BB000406840F4E81048600846006840F08070B3
:103BC000086000BF0C48006800F000700028F9D0C1
:103BD0000948406820F003000749486008464068EB
:103BE00040F00200486000BF0348406800F00C004D
:103BF0000828F9D10CBD000000100240002002404E
:103C0000042808D14FF0E021096941F004014FF088
:103C1000E022116107E04FF0E021096921F0040181
:103C20004FF0E0221161704710B505F0F1F801285E
:103C300001D004F073FD10BD10B51348006840F0CA
:103C400001001149086008464068104908400E49C3
:103C50004860084600680E4908400B49086008465D
:103C6000006820F4802008600846406820F4FE00C8
:103C700048604FF41F008860FFF74EFF4FF0006070
:103C80000449086010BD0000001002400000FFF869
:103C9000FFFFF6FE08ED00E010B50121054800F039
:103CA00026F828B10121034800F012F802F0C2FE04
:103CB00010BD00000008004021B1028842F08002DF
:103CC000028004E002884FF67F731A40028070473A
:103CD000CA430282704721B1028842F00102028089
:103CE00004E002884FF6FE731A400280704730B538
:103CF0000246002000230024158A05EA0103958965
:103D000005EA010413B10CB1012000E0002030BD30
:103D10001AB183890B43838102E083898B438381BA
:103D20007047818470470000002202881D4B984232
:103D30000ED01D4B98420BD0B0F1804F08D01B4BDA
:103D4000984205D01A4B984202D01A4B984204D19F
:103D50004FF68F731A404B881A43174B984207D07F
:103D6000164B984204D04FF6FF431A40CB881A43B3
:103D700002808B8883850B8803850A4B98420BD081
:103D8000094B984208D00E4B984205D00D4B9842F3
:103D900002D00D4B984201D10B7A03860123838216
:103DA00070470000002C0140003401400004004036
:103DB00000080040000C00400010004000140040CB
:103DC00000400140004401400048014070B50446F5
:103DD0000D46164615B1012D0AD104E047F21750E1
:103DE0009849086009E040F6E7709649086004E0E9
:103DF0004FF480609349086000BF00BF24B9914828
:103E0000006800018F4908608F48006806F026F8B6
:103E100080B28C4909684843800A8C4908608C4804
:103E2000006806F01BF880B2864909684843800A9A
:103E3000884908600020884908608448006840B1CB
:103E400084480068800281490968B0FBF1F082492A
:103E5000086081480068401C40088049086016B12D
:103E6000012E6BD16BE07D48006800280CDB7B489D
:103E70000068402808DC4FF4F970794908604FF475
:103E8000DF707849086059E074480068802808DCD1
:103E90004FF405707249086040F2D1207149086002
:103EA0004CE06E480068C02808DC40F23F206C49B6
:103EB000086040F27B306B4908603FE0674800686B
:103EC000B0F5807F08DC4FF41C706549086040F253
:103ED000FE306449086031E060480068B0F59C7FBE
:103EE00008DC40F26F105E4908604FF4FE705D49D7
:103EF000086023E059480068B0F5CD7F06DCD22089
:103F000057490860FB205749086017E0534800688C
:103F100040F29A21884206DC18205149086012209C
:103F2000504908600AE04D48006840F29A218842F2
:103F300004DD00204A4908604A49086060E04748BB
:103F4000006800280CDB45480068432808DC4FF473
:103F500001704349086040F2AD10424908604FE0EB
:103F60003E480068852808DC4FF40A703C49086028
:103F700040F2C1203B49086042E038480068C82848
:103F800008DC40F253203649086040F2633035497E
:103F9000086035E031480068B0F5857F08DC40F204
:103FA00082202F49086040F2DF302E49086027E068
:103FB0002A480068B0F5A77F08DA40F27710284950
:103FC000086040F2DD102749086019E023480068C6
:103FD000B0F5CD7F08DC40F201102149086040F2C5
:103FE0002710204908600BE01C48006840F29A2125
:103FF000884205DC37201A4908602B2019490860DF
:1040000000BF124800681649096848431149096809
:10401000144A126801FB1200134908600846006840
:10402000002801DA002008600F48006800F5005001
:104030000D4908600846006880130C49086008466E
:10404000006870BD280100206401002030010020BC
:10405000680100202C0100203401002048010020CC
:10406000380100203C0100204001002044010020D4
:1040700008B501214020FFF74BF940F60200ADF8EA
:10408000000010208DF8030003208DF8020069461F
:104090000448FEF7EBFA40F602010248FEF77AFB0D
:1040A00008BD00000018014010B5FFF7E1FF8022B5
:1040B00052210748FEF77CFD812252210548FEF778
:1040C00077FD862252210448FEF772FD10BD0000E4
:1040D0004D0100204E0100204F01002010B50223A9
:1040E0008C2252210B48FEF789FC01238D2252219C
:1040F0000948FEF783FC01238E2252210748FEF770
:104100007DFC01238F2252210548FEF777FCFEF744
:1041100045FB10BDC4050020C4060020C4070020D4
:10412000C408002010B5FFF7D9FFFEF737FB0148A0
:10413000006810BD440100202DE9F05F0223E32256
:1041400080212B48FEF75AFC2948007800022949B3
:104150000860274840782849086026490968264AA7
:104160001268881805F0B2FE244908600846006805
:1041700005F02CFE8046224A224B05F009FC06463B
:104180000022214B05F0E8F9044605F0FFF81F492D
:1041900008600846006805F019FE06461C4A1D4BDB
:1041A00005F02AFD044605F0F1F8184908600846B4
:1041B0000068194908601548006805F007FE0646C2
:1041C000164A174B05F0E4FB8046164A164B05F0DD
:1041D00013FD04464FF06632144B05F00DFD824688
:1041E00005F0D4F80949086008460068BDE8F09F6A
:1041F000C4090020A0010020A4010020AC0100207F
:10420000D7A3703D0AF765400000F040A8010020E8
:10421000CDCCCCCCCC6C4740B001002076CB0D6D22
:104220003E39F03FAC1EE6CA9D5C15406666134001
:1042300000B587B00121C804FFF75AF8012110200A
:10424000FFF766F818208DF80B004FF48060ADF88A
:10425000080003208DF80A0002A91848FEF706FAA4
:1042600004208DF80B004002ADF8080002A91348A5
:10427000FEF7FCF94FF4165003900020ADF818003B
:104280000C20ADF816000020ADF81400ADF81200B7
:10429000ADF8100003A90A4800F068F934208DF841
:1042A000040001208DF8070002208DF805008DF82C
:1042B000060001A8FEF7E4FE07B000BD00100140B3
:1042C000004C004010B510E020210C4800F0BCF874
:1042D0000A4800F0B7F90A490A4A127841F8220060
:1042E00008480078401C074908702021034800F066
:1042F000E0F80028E8D1FDF787FF10BD004C004032
:10430000341100202402002008B540F2255109484C
:1043100000F0DCF860B12021064800F095F805486F
:1043200000F090F9C0B2009069460348FCF7F1F93B
:1043300008BD000000500040C225002010B540F22A
:104340002551144800F0C2F8012806D102F07AFB8A
:1043500040F225510F4800F080F840F226610D48E8
:1043600000F0B4F8012806D102F074FB40F2266197
:10437000084800F072F80821064800F09AF8012871
:1043800006D10821034800F05FF8024800F05AF90E
:1043900010BD00000048004000B587B001210805AD
:1043A000FEF7A6FF01213020FEF7B2FF4FF4805048
:1043B000ADF8180018208DF81B0003208DF81A00A6
:1043C00006A91E48FEF752F90420ADF818008DF832
:1043D0001B0006A91A48FEF749F94FF4165002903F
:1043E0000020ADF80C00ADF80E00ADF81000ADF8EF
:1043F00014000C20ADF8120002A9124800F0B6F823
:104400004FF4A060FEF774FE35208DF80400002004
:104410008DF805008DF8060001208DF8070001A831
:10442000FEF72EFE012240F22551064800F078F8F2
:104430000121044800F031F807B000BD0010014030
:10444000001401400050004001F40072B2F5007FFA
:1044500000D100BFCA430280704710B5002200237C
:1044600040F66A14A14200D100BF0A120124944010
:10447000A3B2DC43048010BD10B502460020108AB0
:104480004FF2FF0318400B884C8823438C8823434A
:10449000CC8823431843108210BD21B1828942F495
:1044A0000052828104E082894DF6FF731A408281B6
:1044B000704702460020B1F5007F00D100BF13888D
:1044C0000B400BB1012000E00020704770B50246A0
:1044D000002400230025002040F66A16B14200D1D6
:1044E00000BFC1F3421501F01F03012606FA03F3D2
:1044F000012D02D19689334006E0022D02D1168AA1
:10450000334001E0968A33400C12012606FA04F487
:104510001688344013B10CB1012000E0002070BDBA
:10452000F0B50346002400260025002040F66A1757
:10453000B94200D100BF1846C1F3421401F01F0672
:10454000012707FA06F5012C01D10C3004E0022CFA
:1045500001D1103000E014301AB107682F43076012
:1045600002E00768AF430760F0BD00002DE9F047A7
:1045700086B005460E460024A24600BFA14600278D
:10458000B08900B100BF2F462C8A4CF6FF70044062
:10459000F08804432C82AC894EF6F3100440B088B6
:1045A00031890843718908430443AC81AC8A4FF6D2
:1045B000FF400440B0890443AC8201A8FEF7B8FE76
:1045C0001F48874202D1DDF810A001E0DDF80CA001
:1045D000A88900F4004040B10AEBCA0000EB0A10C1
:1045E00031684900B0FBF1F807E00AEBCA0000EBC4
:1045F0000A1031688900B0FBF1F86420B8FBF0F0D4
:1046000004012009642101FB1089A88900F40040FD
:1046100040B1322000EBC900B0FBF1F000F0070020
:10462000044308E0322000EB09106421B0FBF1F0F4
:1046300000F00F0004432C8106B0BDE8F0870000B5
:104640000038014001468888C0F308007047C1F374
:1046500008028280704700BFFEE7000010B54FF4EB
:104660008040FFF79FF907224FF480410148FFF790
:1046700031F810BDF3030020490050EAC12018BFF3
:1046800004204A0D18BF40F0010040F2FF72B2EB67
:10469000515F08BF40F00200012808BF05207047A5
:1046A00030380A2801D2012070470020704710B529
:1046B00004464FF4847101EB44101021FEF743FCD3
:1046C00000BF4FF4847101EB4410FEF71DFC00287D
:1046D000F7D14FF4027101EB4410FF21FEF733FCD8
:1046E00010BD2DE9F04105460C4616462078FF28FE
:1046F00008D16078FF2805D1A078FF2802D1E078A2
:10470000FF2808D0207828B9607818B9A07808B9AF
:10471000E07800B10EB900275CE00127217840F66F
:10472000084202EB4510FEF70EFC617840F6085295
:1047300002EB4510FEF707FCA17840F6086202EB99
:104740004510FEF700FCE17840F6087202EB4510D8
:10475000FEF7F9FB310A41F2080202EB4510FEF7C1
:10476000F2FBF1B241F2081202EB4510FEF7EBFB4F
:104770004FF4847101EB45100421FEF7E4FB00BF08
:104780004FF4847101EB4510FEF7BEFB0028F7D112
:1047900017E04FF4427101EB4510FEF7B5FB172807
:1047A00000D116E0284600F0E3FF00F0080040B119
:1047B0004FF4027101EB45100821FEF7C4FB0027FE
:1047C00007E04FF4427101EB4510FEF79DFB152801
:1047D000DFD100BF3846BDE8F08100002DE9F0418F
:1047E00031A4FEF7B9FC0546FEF7F0FB40F2951048
:1047F0002F49488041208880C020C880A820088197
:10480000012048810F2088813420C881002008823F
:104810008A204882E12088824420C8822E20088392
:10482000244800684FF6FF7101EA20402049488380
:10483000204800888883CD8301F086F8064605F07D
:1048400013F81B490884FFF76DFC19494884FFF7EA
:1048500073FC0746184905F04DFB064605F0FEFAC5
:104860001349C884FDF7F8FF0746134905F042FBDA
:10487000064605F0F3FA0E4908850020488588852C
:104880000E480078C8850E4800780886642048865F
:10489000012088861220C886204600F0D3FE00F052
:1048A00017FFBDE8F081000068656C6C6F000000C8
:1048B000600500202C0200200000C84238030020C0
:1048C0003903002010B50420FFF79AF9104800685A
:1048D0001049B0FBF1F0104908700D4800680D490F
:1048E000B0FBF1F44FF47A70444301200B49088087
:1048F0004FF0E020006940F002004FF0E021086135
:1049000008464461006940F00100086110BD0000E4
:104910002800002040420F00B8030020BA03002006
:1049200070B5044604F074FA012810D00B480088D2
:10493000844206D309480088B4FBF0F5284602F00B
:1049400081FF06480088B4FBF0F100FB11444FF4EE
:104950007A7104FB01F000F003F870BDBA03002087
:1049600070B5034600224FF0E02675690D4E36788B
:1049700003FB06F44FF0E026B16910E04FF0E026AB
:10498000B06988420BD0884202D20E1A324402E04B
:104990002E1A0E4432440146A24200D300E0EDE755
:1049A00000BF70BDB80300202DE9F04180460C46E1
:1049B00015461E460027FDF734F90A200B490870FA
:1049C000334607222946204603F06CFC012801D01B
:1049D000032706E044F6206003F0FEFC012800D027
:1049E0000327FDF723F93846BDE8F0811B010020BD
:1049F0002DE9F04104460D4616460027FDF711F952
:104A000013480088FF2800DC04E09D2211A119A0B2
:104A1000FBF70EFE0E480088032813DB0C480188C4
:104A20001E48006801F0F5FF60B91C480068007876
:104A3000207007480088801E308018480068401C9D
:104A4000286000E00527FDF7F1F83846BDE8F08161
:104A5000100100202E2E5C5372635C6D6F646275D2
:104A6000735C61736369695C6D6261736369692E0C
:104A70006300000075735263764275666665725016
:104A80006F73203C204D425F5345525F5044555F49
:104A900053495A455F4D4158000000000C01002069
:104AA0002DE9F04104460D4616464FF00008FDF78B
:104AB000B8F81748007818BB681E1649086001202E
:104AC000154908801348006804700846008830447F
:104AD0000880084601880F48006801F09AFF0746E1
:104AE0000D490888411C0C4A11800C4909680F5473
:104AF00001200B4908700121002002F0CDFC01E0EB
:104B00004FF00508FDF792F84046BDE8F08100003F
:104B10000901002014010020180100200C010020D0
:104B20000801002010B5FDF77CF80021012002F0FB
:104B3000B3FC002003490870FDF778F8002003F06B
:104B40009BFB10BD0901002010B5FDF76AF800219C
:104B5000084602F0A1FC02F0D5FCFDF767F810BD95
:104B600010B5002406480078012806D105480068E1
:104B7000804700200249087000E00624204610BD4E
:104B800052000020580000202DE9F05F06460D4637
:104B90004FF0000B2888052848D170784FEA00298B
:104BA000B07840EA090909F101001FFA80F9F078AC
:104BB000040230790443012C35DBB4F5FA6F32DAA4
:104BC000374600202880012007F8010B2888401C68
:104BD000288004F0070040B12046E11704EB517132
:104BE000C910491C01F0FF0805E02046E11704EB5D
:104BF0005171C1F3C70807F8018B2888401C288031
:104C0000002322464946384600F086FC8246BAF127
:104C1000000F04D0504601F0AFFE834608E028881C
:104C20004044288004E04FF0030B01E04FF0030BF9
:104C30005846BDE8F09F2DE9F05F06460D464FF05F
:104C4000000B2888052847D170784FEA0029B078F2
:104C500040EA090909F101001FFA80F9F07804021D
:104C600030790443012C34DBB4F5FA6F31DA37467E
:104C700000202880022007F8010B2888401C28808B
:104C800004F0070040B12046E11704EB5171C91050
:104C9000491C01F0FF0805E02046E11704EB5171C3
:104CA000C1F3C70807F8018B2888401C28802246DA
:104CB0004946384600F034FC8246BAF1000F04D071
:104CC000504601F059FE834608E028884044288079
:104CD00004E04FF0030B01E04FF0030B5846BDE832
:104CE000F09F2DE9F04705460C464FF0000A20885A
:104CF000052837D168784FEA0028A87840EA0808E4
:104D000008F101001FFA80F8E87806022E79012EDA
:104D100025DB7D2E23DC2F4600202080032007F892
:104D2000010B2088401C20807006000E07F8010B44
:104D30002088401C2080002332464146384600F03F
:104D4000F3FB8146B9F1000F04D0484601F014FE90
:104D5000824609E0208800EB4600208004E04FF006
:104D6000030A01E04FF0030A5046BDE8F0872DE941
:104D7000F04705460C464FF0000A2088052837D139
:104D800068784FEA0028A87840EA080808F101008E
:104D90001FFA80F8E878060228790643012E24DB02
:104DA0007D2E22DA2F4600202080042007F8010BF8
:104DB0002088401C20807006000E07F8010B208818
:104DC000401C208032464146384600F0F7FB8146C1
:104DD000B9F1000F04D0484601F0CEFD824609E04B
:104DE000208800EB4600208004E04FF0030A01E039
:104DF0004FF0030A5046BDE8F0872DE9FC5F0446FA
:104E00000D460020009028880A285DDB60784FEA74
:104E1000002AA07840EA0A0A0AF101001FFA80FA83
:104E2000E07806022079064360794FEA002BA079EA
:104E300040EA0B0B0BF101001FFA80FBE07907023F
:104E4000207A0743607A0190012E3BDB7D2E39DC0E
:104E5000012F37DB792F35DC79000198814231D180
:104E600001233A46594604F10A0000F05DFB8146F1
:104E7000B9F1000F1ED1A04600202880172008F8A5
:104E8000010B2888401C28807006000E08F8010BD2
:104E90002888401C2880002332465146404600F0B6
:104EA00043FB8146B9F1000F04D12888022101FBA0
:104EB00006002880B9F1000F06D0484601F05CFDDD
:104EC000009001E0032000900098BDE8FC9F0000E6
:104ED00070B505460C46064802880649681CFBF773
:104EE00024FC03480088401C2080002070BD000086
:104EF0003C000020400400202DE9F84304460F4602
:104F00004FF000083888052829D160780502A0787C
:104F10000543681C85B22079F0B9E078FF2801D0FC
:104F2000E078C8B900208DF80100E078FF2803D1AF
:104F300001208DF8000002E000208DF80000012320
:104F40001A462946684600F0E7FA06464EB1304652
:104F500001F012FD804604E04FF0030801E04FF03D
:104F600003084046BDE8F8832DE9F04104460F46AA
:104F70004FF000083888052812D160780502A07823
:104F80000543681C85B201231A462946E01C00F03F
:104F9000CBFA064636B1304601F0EEFC804601E021
:104FA0004FF003084046BDE8F0812DE9F05F05466B
:104FB0000E464FF0000B3088052839DD687807026F
:104FC000A8780743781C87B2E8780402287904435C
:104FD00095F805A004F0070040B12046E11704EB66
:104FE0005171C910491C01F0FF0805E02046E11786
:104FF00004EB5171C1F3C708012C16DBB4F5F66F51
:1050000013DCD04511D1012322463946A81D00F0FA
:1050100083FA8146B9F1000F04D0484601F0ACFC98
:10502000834607E00520308004E04FF0030B01E0E9
:105030004FF0030B5846BDE8F09F2DE9F0470446BA
:105040000E464FF0000A3088062828DB60780702F9
:10505000A0780743781C87B2E078050220790543E1
:1050600094F80590012D17DB782D15DC6806000EED
:10507000484511D101232A463946A01D00F054FAB3
:105080008046B8F1000F04D0404601F075FC82461E
:1050900007E00520308004E04FF0030A01E04FF004
:1050A000030A5046BDE8F0872DE9F04705460C4657
:1050B00016461F46DDF820904FF000081CB1012C69
:1050C00001DBF72C02DD4FF0020859E02E48047096
:1050D00015B1012D42D120E02C482D4908602D4802
:1050E0002D4908602D482E4908602E482E49086039
:1050F00000202E4908602E482E4908602E482F496E
:1051000008602F482F4908604B463A4631461E48F2
:10511000007800F007F9804623E02B481C4908601E
:105120002A481D4908602A481D49086029481E4927
:10513000086000201D49086027481E49086027486C
:105140001E49086026481F4908604B463A463146CA
:105150000D480078FFF728FC804602E04FF0020877
:1051600000BF00BFB8F1000F0AD103F07DF810B9FD
:105170004FF0030804E01B48057001201A4908702D
:105180004046BDE8F087000050000020DD540008D4
:1051900058000020015500085C0000202D54000834
:1051A000540000207D5300086000002064000020AF
:1051B0006984000868000020C18500086C00002098
:1051C0003D85000870000020254B0008494B000871
:1051D000A14A0008F1490008197F00080181000870
:1051E00095800008510000205200002038B50025AD
:1051F0004148007808B1062038BD684603F022F81F
:10520000012877D19DF8000030B1012805D002288F
:1052100018D003286DD16BE06BE0384A3849394823
:10522000394B1B68984705465DB9364800783749C1
:105230000978884202D03348007810B9022003F080
:105240001BF856E02E4800680078314908700120AC
:1052500030490870002417E02F4810F8340000B9D6
:1052600014E02D4810F834002949097888420AD101
:10527000294800EBC4002149426821480068904752
:105280002449087002E0641C102CE5DB00BF1D48B7
:10529000007858B31F480078C8B10020174908802B
:1052A0001B48007840F08001144802880088401CA8
:1052B000124B18801248006881541648027818462C
:1052C00001880088401C18800D480068425413482B
:1052D0000078012800D100BF08480288084801680A
:1052E0000A4800780E4B1B689847054601E001E02C
:1052F00000BF00BF00207FE7520000200201002015
:10530000FC00002000010020600000205000002070
:1053100001010020040100207C0000205100002039
:10532000540000202DE9F04781460E4614461F46E2
:105330004FF00008FCF775FC3B460822214630463A
:1053400002F0B0FF012802D04FF003080FE0B4F5DF
:10535000964F01D9232503E060000749B1FBF0F522
:10536000A8B203F039F8012801D04FF00308FCF788
:105370005DFC4046BDE8F087A07F17002DE9F041B5
:1053800004460D4616464FF000080027FCF749FC7E
:1053900013480088FF2800DC04E09E2211A118A019
:1053A000FBF746F90E480088042812DB0C480188F8
:1053B0001D4802F00BF860B91B48007820700848BF
:1053C0000088C01E30801848401C28604FF001083B
:1053D00000E00527FCF72AFC3846BDE8F081000014
:1053E0004A0000202E2E5C5372635C6D6F64627500
:1053F000735C7274755C6D627274752E630000006C
:105400007573526376427566666572506F73203CA1
:10541000204D425F5345525F5044555F53495A45B2
:105420005F4D415800000000600400202DE9F0416C
:1054300005460E4617464FF00008FCF7F2FB2248DF
:105440000078012838D1701E2049086001202049C9
:1054500008801E48006805700846008838440880A7
:10546000084601881948006801F0B0FF0446184951
:105470000888411C164B198016490C5422121946F3
:105480000888411C198013490A54012012490870E8
:105490000E490968087802F095FF0C480068401C26
:1054A0000A4908600A480088401E0949088001210D
:1054B000002001F0F1FF01E04FF00508FCF7B6FB1A
:1054C0004046BDE8F081000041000020440000207B
:1054D00048000020600400204000002010B5FCF7C8
:1054E000A0FB0020054908700021012001F0D4FF35
:1054F00002F01EF8FCF79AFB10BD000041000020EE
:1055000010B5FCF78EFB0021084601F0C5FF01F045
:10551000F9FFFCF78BFB10BD10B50446012010BD50
:1055200003460120704700002DE9F04780460D46F4
:10553000144699464FF0000A46461D4800788542B9
:1055400030DB29191A480078FF3081422ADC1948DB
:1055500000782F1AB9F1000F03D0B9F1010F20D153
:105560000FE00BE039467F1C134A126832F8110035
:10557000FAF76EFE26F8020B601E84B2002CF1DCF6
:105580000FE00CE036F8020BFAF762FE82B2384602
:105590007F1C0949096821F81020601E84B2002C84
:1055A000F0DC01E04FF0010A5046BDE8F087000052
:1055B00025010020270100202001002070B50346AE
:1055C0000020104D2D78A9421ADB8E180D4D2D7834
:1055D000FF35AE4214DC0C4D2D784C1B0DE00B4D0D
:1055E00035F814502D1203F8015B084D15F81450CE
:1055F00003F8015B641C551EAAB2002AEFDC00E030
:10560000012070BD2401002026010020600500203B
:1056100008B501212020FDF77BFE0820ADF8000031
:1056200010208DF8030003208DF80200694604481D
:10563000FDF71CF808210248FDF7AEF808BD000090
:105640000014014070B50446012000F09AF830B112
:10565000132810D0172815D01C282ED129E018485F
:1056600002880088401C164B188020230121084620
:1056700001F05CFD21E01348028813490120FFF787
:1056800030F81AE0012000F073F800F0010018B1C2
:105690000121084601F0B1FB2046FBF71BF885B25B
:1056A0002A462146012001F0C5FA03200749086077
:1056B00003E00120FEF7FBFF00BF00BF70BD00004C
:1056C0001A030020200300201C0300208802002071
:1056D00010B54FF480710D48FDF75EF84FF400717E
:1056E0000A48FDF757F84FF480610848FDF754F871
:1056F0004FF4FA70FFF714F94FF400710348FDF707
:105700004BF84FF4FA70FFF70BF910BD0018014089
:1057100000BF054A128802F04002002AF9D0C2B246
:10572000014B1B1D1A8070470038014010B504461C
:1057300004222146900102F081FB10BD014602487F
:1057400030F81100704700006A25002010B50446AB
:10575000042221464FF4706002F070FB10BD10B5BA
:105760000446042221464FF4A06002F067FB10BDFE
:1057700010B504464FF4027101EB4410FDF7C4FB71
:1057800010BD10B504464FF4427101EB4410FDF713
:10579000BBFB10BD70B504460025002600BF42F2D9
:1057A000080101EB4410FDF7AFFB064642F2081179
:1057B00001EB4410FDF7A8FB00EB062086B27EB19A
:1057C00042F2080101EB4410FDF79EFB054642F250
:1057D000081101EB4410FDF797FB00EB052085B2A3
:1057E000B542DCD1284670BD10B5FEF705F80121A1
:1057F0004FF48870FDF78CFD10BD10B5002002F04D
:105800000BFB10BD10B5012002F006FB10BD00001F
:105810001CB5FEF711FA4FF44070FDF769FC4FF428
:10582000E13001F097FDFEF703FDFDF787FCFFF780
:1058300049F830A0FAF77CFD00204FF4E133012253
:1058400011210090FFF730FCFFF78AF94FF4FA704E
:10585000FFF766F84FF4FA70FFF762F8FDF722FAE7
:10586000FFF7D6FEFEF720FC4FF4FA70FFF758F86A
:105870004FF4FA70FFF754F8FEF78EFDFCF7A4F929
:10588000FCF754F9FDF7BEFDFCF7B4FBFDF74CFE49
:10589000FCF7F6FDFDF710FEFCF74AFEFCF766FE8E
:1058A000FDF7ECFDFCF7CEFB00F0C6FA012116482F
:1058B000FEF7F3FD00F098FA00211348FEF7EDFD26
:1058C000012240F225511048FEF72AFE01210E4820
:1058D000FEF7E3FDFCF7EAFB0C48012100238022E0
:1058E000CDE900100AA10D4803F062FA02F046F972
:1058F00000201CBD2D2D2D3E667265656D6F6462A6
:1059000075732030350D0A00004C00400400002063
:1059100073746172745F7461736B00007972000854
:105920002DE9F04104460D4616461F4632463B46D9
:105930002046294603F0F0FF01D234463D4620467A
:105940002946BDE8F081000070B50020FC4A1060D7
:105950005060FC49086035E00021FB4A116051604D
:105960000020FA4908601BE0F948FCF707F8F949FC
:10597000F64A126841F82200F44A126851F82200EF
:1059800003F09FFF044622460B46EF4903C9FFF789
:10599000C7FFED4A03C2ED480068401CEB490860B0
:1059A000EA480068B0F57A7FDEDDE748E4490CC8D4
:1059B00003C903F01DFDE24A03C2E2480068401C2F
:1059C000E0490860DF4800680528C5DB4FF47A71BC
:1059D000E048FAF719FF0022DF4BD94903C903F069
:1059E000BBFDD94A03C20022DC4BD74903C903F0EF
:1059F000CFFF04460022DA4B03F0AEFDD24A03C2C9
:105A00000022D84BD04903C903F086FF06D80022F4
:105A1000D54BCD4903C903F0EBFC70BD0022D34B3D
:105A2000C94903C903F078FF0DD80022CD4BC64900
:105A300003C904F0ABF806D20022CD4BC24903C91A
:105A400003F0D6FCE9E70022CA4BBF4903C903F0C3
:105A500063FF0DD80022C54BBB4903C904F096F87B
:105A600006D20022C44BB84903C903F0C1FCD4E7F5
:105A70000022B94BB44903C903F04EFF0DD80022F0
:105A8000BC4BB14903C904F081F806D20022BB4BDC
:105A9000AD4903C903F0ACFCBFE70022B84BAA49EB
:105AA00003C903F039FF0DD80022AB4BA64903C947
:105AB00004F06CF806D20022B24BA34903C903F0EC
:105AC00097FCAAE70022B04B9F4903C903F024FFCB
:105AD0000DD80022AA4B9C4903C904F057F806D2FE
