:020000040800F2
:10000000406D0020F901000891230008EF1B000853
:100010008D230008F51800081F2C000800000000C0
:100020000000000000000000000000007D25000826
:10003000991A0008000000002D24000891260008ED
:10004000130200081302000813020008130200083C
:10005000130200081302000813020008130200082C
:10006000130200081302000813020008130200081C
:10007000130200081302000813020008130200080C
:1000800013020008130200081302000813020008FC
:1000900013020008130200081302000813020008EC
:1000A00013020008130200081302000813020008DC
:1000B00013020008130200081302000813020008CC
:1000C00013020008130200081302000813020008BC
:1000D0001302000813020008AD2700088128000859
:1000E000130200081302000813020008130200089C
:1000F000130200081302000813020008130200088C
:10010000130200081302000813020008130200087B
:10011000130200081302000813020008130200086B
:10012000130200081302000813020008130200085B
:1001300000F002F800F050F80AA090E8000C8244A9
:100140008344AAF10107DA4501D100F045F8AFF286
:10015000090EBAE80F0013F0010F18BFFB1A43F0A5
:1001600001031847A0370000C0370000103A24BF31
:1001700078C878C1FAD8520724BF30C830C144BF0C
:1001800004680C607047000000230024002500264E
:10019000103A28BF78C1FBD8520728BF30C148BFEA
:1001A0000B607047662903F04383642900F0A28046
:1001B000782900F0DB80732900F0E084002070478C
:1001C0001FB500F019FD04000020002103F09EF887
:1001D000E0601FBD10B510BD00F00EFE1146FFF728
:1001E000EFFF02F097FD00F02CFE03B4FFF7F2FFE3
:1001F00003BC02F031FD0000094880470948004770
:10020000FEE7FEE7FEE7FEE7FEE7FEE7FEE7FEE7C6
:10021000FEE7FEE704480549054A064B7047000023
:10022000992600083101000840670020406D002039
:100230004069002040690020704700000FB4044965
:1002400010B503AA029800F09DFC10BC5DF814FBE9
:10025000D000002070B5044685690068C10601D54C
:10026000302600E02026C00707D070BDD4E9012168
:1002700030469047206A401C20626D1EF6D570BD46
:1002800070B5044685690078C00707D170BDD4E910
:10029000012120209047206A401C20626D1EF6D567
:1002A00070BD70B50C460546012A05D02878800639
:1002B00000D5EA69002302E0012305E05B1C9342BC
:1002C00002D2E05C0028F9D1A869E618C01AA8613A
:1002D000286A184428622846FFF7BCFF04E0D5E9E5
:1002E000012114F8010B9047B442F8D32846FFF7D8
:1002F000C7FF70BD2DE9F04106460024106875293E
:10030000314616A510D0AFF30080002802DA404233
:1003100013A507E031688A0701D512A502E0490755
:1003200004D511A5012401E0AFF3008000210A22C9
:1003300006F1240709E0B0FBF2FCB0FBF2F302FB8C
:100340001C00303078541846491C0028F3D123464D
:100350002A463046BDE8F04100F07FB900000000B9
:100360002D0000002B0000002000000070B50446A6
:100370000D4621461068AFF300802188090502D59B
:100380000F4A7A4402E00E4A7A440E32002104F108
:10039000240305E000F00F060009965D5E54491C39
:1003A0000028F7D120780023000704D5702D02D053
:1003B00009B1022311322046BDE8704000F04DB96A
:1003C000AE3400002DE9F05F894604464FF0000A84
:1003D000DFF874B1FB44C0F820A02046E1688847EC
:1003E000002874D0252806D0D4E901219047206A3E
:1003F000401C2062F1E700265F462046E1688847FE
:100400002028054607DB312D05D2781910F8200C7D
:1004100008B10643F1E7B00701D526F00406C4F899
:100420001CA00027C4F818A02A2D09D0284602F0E5
:100430000CFC38B304EB8708303DC8F8185019E0BD
:1004400059F8041B204604EB87029161E168884754
:10045000012F054618D1E069002820DA26F0200691
:100460001DE0D8F8180000EB800005EB40003038A4
:10047000C8F818002046E1688847054602F0E5FB09
:100480000028EED1012F0AD02E2D08D12046E16898
:1004900088477F1C0546022F46F02006C4DBA06972
:1004A000002803DA404246F00106A061F00701D0BF
:1004B00026F010066C2D0BD0682D09D04C2D39D0AC
:1004C0006A2D35D0742D35D07A2D33D016E038E032
:1004D000E1682F4620468847B842054609D16C2F6F
:1004E00026D04FF48060E1680643204688470546E1
:1004F00004E06C2F1AD04FF4807006430DB3A5F1C1
:100500004100192802D8203546F400664A4629469B
:10051000204626604E46FFF745FE80B101280BD0ED
:10052000F61D26F0070000F1080956E74020E4E731
:100530008020D8E70020D6E706F104094DE72846D9
:1005400052E7206ABDE8F09F8434000030B50546CC
:100550000B462A4613F8014B12F8010B08B1A042D2
:10056000F8D01CB1002802D06D1CF1E7284630BD40
:1005700040EA0103024630B59B0710D14FF0013429
:1005800000E008C208C91D1B9D4315EAC41FF8D02E
:1005900013F0FF0102F8011B0DD01B0AF8E711F858
:1005A000013B002B02F8013B05D011F8013B002B69
:1005B00002F8013BF3D130BD10B5431C02E010F846
:1005C000011B71B18107FAD14FF0013202C88C1AB8
:1005D0008C4314EAC211F9D0C01A0A0603D0C01E17
:1005E00010BDC01A10BD0A0401D0801E10BD090242
:1005F000FCD0401E10BD421E12F8013F002BFBD163
:1006000011F8013B002B02F8013BF9D170474FF084
:1006100000020429C0F0128010F0030C00F0C68222
:10062000CCF1040CBCF1020F18BF00F8012BA8BFDD
:1006300020F8022BA1EB0C0100F0B8BA5FEAC17CF4
:1006400024BF00F8012B00F8012B48BF00F8012B54
:10065000704770477047704770472DE9F0470D4667
:1006600099469246044600F124080168880604D59C
:10067000E06921F01001216000E00120A84201DDC5
:10068000471B00E00027A1697A1902EB0900081A4C
:10069000A0612078C00602D42046FFF7DBFD0026CB
:1006A00008E0D4E901211AF806009047206A401CAE
:1006B000761C20624E45F4DB2078C0060AD5204621
:1006C000FFF7C8FD06E0D4E9012130209047206AF9
:1006D000401C2062381EA7F10107F4DC07E0D4E9D2
:1006E000012118F805009047206A401C2062281E4E
:1006F000A5F10105F3DC2046FFF7C2FD20780006D6
:1007000002D50220BDE8F0870120FBE770472DE904
:10071000FF4F0C461E464FF0FF378BB0D2E9000169
:10072000DDF860800A908A46C1F30A5505B93D4656
:10073000002108464FF00000BAF1000F00F440001D
:1007400005DA00EB80004FF4400101EA50004FEA67
:100750009059B9F1010F00DDB9460A9850EA4A00F4
:100760000ED044F61050A5F2FF3545432F14B8F1D2
:10077000000F1ED07542291E1EDDC9F100021CE0CB
:10078000B8F1010F4FF0000001D0302103E0F24337
:1007900005E02154401CB042FBDB30460022002122
:1007A00021540B99C1F80880C1E900200FB0BDE8C1
:1007B000F08FBD1B6D1CDEE74A4600DA694206A8D1
:1007C00000F0A4FA06AB93E8070003AB83E8070048
:1007D00050460A9900F07EFB8DE80700A0F5005016
:1007E0001F3800900398002D09DD42F21F014A4690
:1007F000084403A90390684600F0DDFD08E0A0F579
:1008000000504A461F3803A90390684600F0E7FDF0
:100810008DE807000004000C03D04FF0FF304108C2
:1008200000E01046B8F1000F03D0002200921546F8
:100830001EE0751E05D400F0E3F9303262556D1EDE
:10084000F9D5B3460122084302D000227F1C04E000
:100850002078302801D100227F1E002A099786D0F7
:100860001DE0112D07DA00F0CBF9303262556D1C16
:1008700050EA0102F5D1084302D00098C8B10EE059
:100880000021681E05E0235C625C63542254401E14
:10089000491C8142F7DBAB46A81B401E0990002093
:1008A00004F80B000B98099AC0F80880C0E9002BE7
:1008B0007CE711264FF0000859E72DE9F04F8846F4
:1008C0000446D21D22F0070191B0D1E90001CDE923
:1008D0000A0102F0A6F902460B98C00F01D02D20A4
:1008E00007E02068810701D52B2002E0202101EAE2
:1008F000C000032A099001D0072A05DB03464146C0
:10090000204600F0C3F90BE12078800601D5E069AC
:1009100000E00620B8F1650F814606D0B8F1660FF9
:1009200018D0B8F1670F70D131E00020B9F1110F84
:10093000009001DB112301E009F101030AAA01A9DA
:100940000CA8FFF7E4FEDDE90C70002609F10105B3
:10095000834647E001204B4600904FF000470AAA2B
:1009600001A90CA8FFF7D3FEDDE90DB00C995D4697
:10097000002610B909F101000D18B9EB050003D4E8
:10098000C0F1FF3609F10105A5EB09002BE0B9F133
:10099000010F01DA4FF001090020B9F1110F0090A9
:1009A000484601DD112300E003460AAA01A90CA86C
:1009B000FFF7ADFEDDE90C704D460026834620783A
:1009C00000070AD4AB4500DA5D4601A8012D04DD1D
:1009D000411911F8011C302907D04F4502DA17F1EF
:1009E000040F04DA012082460FE06D1EEEE7002FAF
:1009F00002DCED1B3E4403E0781CA84200DD7D1CB8
:100A0000B81B00F1010A4FF000472078000703D41B
:100A1000AA4501DB4FF0FF3A0021B7F1004F0DF17D
:100A200043088DF8431024D002202B23002F01DA35
:100A30007F422D230A21021EA0F1010000DC5FB1DC
:100A400097FBF1FC97FBF1F201FB1C7C17460CF1C4
:100A5000300C08F801CDEEE7A8F101000370218801
:100A6000090501D5452100E06521A0F1010800F844
:100A7000011C09980FA9A1EB0807FF1D00B1012077
:100A8000411901EBEA70A1693844081A401EA061BF
:100A90002078C00602D42046FFF7DCFB099828B175
:100AA000D4E901219047206A401C20622078C006CA
:100AB00022D52046FFF7CEFB1EE0002E04DBB34517
:100AC00002DD01A8805D00E03020D4E901219047DB
:100AD000206A401C2062761CAAF101005FEA000A2D
:100AE0000AD100F089F8C0680168405CD4E90121AE
:100AF0009047206A401C2062281EA5F10105DCDC1D
:100B000007E0D4E9012118F8010B9047206A401C46
:100B10002062381EA7F10107F3DC2046FFF7B0FB87
:100B2000032011B043E6000001694A1C0261087805
:100B3000704700B58FB0CDE901310021059105491D
:100B40007944CDE9031011466846FFF73BFC0FB02E
:100B500000BD0000E5FFFFFF10B5436913B1AFF31F
:100B6000008001E0FFF79DFB012010BD127800F12D
:100B700024010A7000224A700122EDE711684FF04B
:100B8000FF32E9E7074B70B50D467B44FFF7D1FF15
:100B90000446284600F028F910B14FF0FF3070BD30
:100BA000204670BD632100004FF0000200B51346DF
:100BB00094469646203922BFA0E80C50A0E80C507D
:100BC000B1F12001BFF4F7AF090728BFA0E80C502E
:100BD00048BF0CC05DF804EB890028BF40F8042B27
:100BE00008BF704748BF20F8022B11F0804F18BF94
:100BF00000F8012B7047000000487047FC66002099
:100C000030B5B0F10A024FEA900E71F100034EEADE
:100C1000817EB0EB0E0061EB91014FEA101E4EEAAF
:100C2000017E10EB0E0041EB11114FEA102E4EEA3F
:100C3000016E10EB0E0041EB11214FEA104E4EEA0F
:100C4000014E10EB0E0041EB1141401841F1000143
:100C50004FEAD00040EA41704FEAD10110EB800525
:100C60004FEA810444EA907444EB01046D1944EBAB
:100C70000404521BA3414FF0000348BF0A3200D5C1
:100C800030BD401C41F1000130BD00002DE9F041B4
:100C90001F46044603260168072A01F4006004DBAE
:100CA00008B116A505E016A503E008B115A500E0FA
:100CB00015A521F010002060A069C01EA0610FB131
:100CC000401EA0612046FFF7C5FA4FB1D4E90121CB
:100CD00038469047206A401C2062C01C206206E013
:100CE000206AFAE7D4E9012115F8010B9047761E36
:100CF000F8D22046FFF7C4FABDE8F0814E414E001D
:100D00006E616E00494E4600696E66002DE9F0473F
:100D1000814616468AB0334878440DC88DE80D00E8
:100D200030487844801C03AC0DC884E80D0041F6BF
:100D30009B300844372190FBF1F290FBF1F5A5F1CF
:100D4000800501FB12041B3C02D56442012000E037
:100D50000020DFF890A080460027FA44AAF1BE0ADE
:100D60000DE0E00709D03246684607EB47010AEB81
:100D7000810100F034FB8DE8070064107F1C002C1B
:100D8000EFD1184F7F44AC3F18E0E80714D007EBD1
:100D900004100DF1180A90E80E008AE80E00C068F1
:100DA000F04201D198190890324606A903A800F034
:100DB00016FB03AB83E807006D10641C002DE4D123
:100DC00032466946B8F1000F03A802D000F0F3FAEA
:100DD00001E000F004FBC9E90001C9F808200AB0ED
:100DE000BDE8F087D02B0000007B00F0800070474A
:100DF00000487047DC6600207546FFF7F9FFAE46F5
:100E000005006946534620F00700854618B020B516
:100E1000FFF700FABDE820404FF000064FF0000752
:100E20004FF000084FF0000B21F00701AC46ACE892
:100E3000C009ACE8C009ACE8C009ACE8C0098D46FF
:100E4000704710B50446AFF300802046BDE810405F
:100E5000FFF7CBB94FF0013C50F8042B51F8043B9D
:100E60009A4221D1A2EB0C03934313EACC1317D17E
:100E700050F8042B51F8043B9A4215D1A2EB0C0315
:100E8000934313EACC130BD150F8042B51F8043BD5
:100E90009A4209D1A2EB0C03934313EACC13DBD0A3
:100EA0004FF00000704700BFD01A01BAB1FA81F1CB
:100EB00001F0180122FA01F0CB40C1F12001DBB2B0
:100EC000C0B2C01A2CFA01F3D11A914311EAC3112E
:100ED000E6D170475FEA400C08BF91F0000F4FEA7F
:100EE0008C234FEAC12243EA51514FEA1C5018BFEC
:100EF00000F5F0404FEA300018BF41F000415FEAD2
:100F00006C5C00F02980BCF1FF3F08BF40F08040DE
:100F10007047130C06BF12044FF0100C4FF0000C7A
:100F2000130E04BF12020CF1080C130F04BF1201C0
:100F30000CF1040C930F04BF92000CF1020CD30FC0
:100F400004BF52000CF1010C11464FF00002A0F159
:100F50001F00A0EB0C00704711F0004F08BF704756
:100F600031F000413FF4D5AF0B0C06BF09044FF040
:100F7000100C4FF0000C0B0E04BF09020CF1080C12
:100F80000B0F04BF09010CF1040C8B0F04BF890087
:100F90000CF1020CCB0F04BF49000CF1010CCCF199
:100FA0002003A0EB0C0022FA03F302FA0CF241EA50
:100FB000030100F10100704720F07F4C80EA03003C
:100FC00023F07F47ACEB070303F57C5300F00040B0
:100FD00003F1FF032DE980494FEA154B09B44FEAAD
:100FE000144325EA0B4E24EA03480FF2042606EBCD
:100FF000132749083E785FEA320203FB0667C7F50C
:10100000000707FB06F64FEA54374FEAD64606F1CB
:10101000020607FB066CCCF1005C4FEA1C472CEA89
:10102000074C07FB06F40CFB06F504EB15464FEAEC
:10103000961634BF00204FF000404FEAD13706FB30
:1010400007FC4FEA1C4C0CFB0BF7D21B03FB0CF705
:1010500061EB07010CFB0EF7B0EB074072EB174298
:101060000CFB08F734BFA2EB0742B2EB074261EB7F
:1010700017414FEA0C444FEA910706FB07FC4FEA81
:101080001C4C0CFB0BF7B0EBC74072EB573203FB69
:101090000CF734BFA2EBC742B2EBC74261EB57314A
:1010A0000CFB0EF7B0EBC70072EB57720CFB08F7A6
:1010B00034BFA2EBC702B2EBC70261EB5771039FCB
:1010C0004FEA816141EA921104EBCC044FEAD13737
:1010D0004FEA826206FB07FC42EA90124FEA806008
:1010E0004FEA1C4C0CFB0BF7D21B03FB0CF761EB1C
:1010F00007010CFB0EF7B0EB074072EB17420CFB3D
:1011000008F734BFA2EB0742B2EB074261EB17418D
:101110004FEA8C554FEA910704EB9C2406FB07FC31
:101120004FEA1C4C0CFB0BF7B0EBC74072EB57328D
:1011300003FB0CF734BFA2EBC742B2EBC74261EB33
:1011400057310CFB0EF7B0EBC70072EB57720CFB7C
:1011500008F734BFA2EBC702B2EBC70261EB5771CD
:1011600015EB4C254FEA816141EA92114FEA826208
:101170004FEAD13742EA901206FB07FC44F1000423
:101180004FEA80604FEA1C4C0CFB0BF7D21B03FBB1
:101190000CF761EB07010CFB0EF7B0EB074072EBAD
:1011A00017420CFB08F734BFA2EB0742B2EB074231
:1011B00061EB174115EB1C154FEA813141EA924171
:1011C0004FEA823242EA90424FEA80304FEA0C7690
:1011D00044F1000448EA03434EEA0B484FF0000E86
:1011E000B2EB080C71EB030724BF624639464EEBA5
:1011F0000E0E4FF0000B0018524149414BEB0B0B08
:10120000B2EB080C71EB03077BF1000B24BF6246C5
:1012100039464EEB0E0E4FF0000B0018524149417B
:101220004BEB0B0BB2EB080C71EB03077BF1000BE4
:1012300024BF624639464EEB0E0E51EA020718BF34
:1012400046F0010616EB0E7655F1000254F100014E
:1012500003D5BDE88901BDE80088BDE88901BDE886
:101260000048B619524141EB0101A3F10103704757
:1012700080807F7E7D7C7B7A7978777676757473D3
:10128000727171706F6E6E6D6C6C6B6A6A69686892
:10129000676666656464636362616160605F5F5E28
:1012A0005E5D5D5C5C5B5B5A5A595958585757569E
:1012B0005655555554545353525252515150505003
:1012C0004F4F4F4E4E4D4D4D4C4C4C4B4B4B4A4A55
:1012D0004A49494948484847474747464646454599
:1012E00045444444444343434342424242414141D2
:1012F000002B26D4770021D01CB54FEA370703B462
:101300004FF010004FF010014FF000000FBCBDE88F
:1013100010400BF1010BBBF1010F08BF5FEA17078B
:1013200022BF12F1010211F101014FF0004143F11E
:10133000000300F0004043EA00007047F9D357086B
:10134000DAE746EA064613F1400F4FEA16461FDD7C
:1013500013F1200FDFBF16430A46002120335B4202
:10136000C8D0C3F1200746EA064602FA07F74FEA5B
:10137000164646EA0706C3F1200722FA03F201FAED
:1013800007F721FA03F14FF0000342EA0702B1E741
:1013900046EA020646EA06464FEA164646EA0106CD
:1013A000BCBF46EA0646360C4FF000034FF0000281
:1013B0004FF000019EE72DE9C048934630B491E814
:1013C000380007C831EA400C48BF34EA430C03D563
:1013D000FFF7F2FDFFF78CFFF0BCBDE800882DE9B8
:1013E000C048934630B491E8380007C810F0804FE9
:1013F00008BF13F0804F03D100F005F8FFF778FF26
:10140000F0BCBDE8008820F07F4780EA030023F0AD
:101410007F4C07EB0C03A3F57C5300F00040A3F1D5
:10142000FE0392F0000F00F0B38095F0000F00F083
:1014300077802DE901494FEA11404FEA144621EA2D
:10144000004800FB06FC24EA064708FB06F607FBFB
:1014500008F800FB07F718EB06484CEB164C4FEA70
:10146000124B18EB07484FEA15464CEB174022EA9F
:101470000B4E0BFB06FC25EA06470EFB06F607FBA8
:101480000EFE0BFB07F71EEB064E4CEB164C4FF017
:1014900000061EEB074E4CEB174B18EB0B0840F108
:1014A000000018EB0E0B58EB000840F100008F1AFB
:1014B0004FF000013CBFC943661B14BFB5EB040CE1
:1014C00000213CBFC943F61B4FEA17444EEA8E0E7B
:1014D00027EA04454FEA1C4704FB07622CEA074C45
:1014E00005FB07F70CFB05F604FB0CFC16EB0746A7
:1014F00042EB174216EB0C4642EB1C421BEB060676
:1015000058EB0202414146EA9E0601D5BDE8018939
:10151000B619524141EB0101A3F10103BDE8018974
:101520004FEA14454FEA114724EA054621EA074CE1
:1015300005FB07F406FB07F70CFB06F105FB0CFCAB
:1015400011EB074144EB17444FEA124711EB0C41F2
:1015500044EB1C4422EA074C05FB07F206FB07F7A5
:101560000CFB06F605FB0CFC16EB074642EB17429C
:1015700016EB0C4642EB1C456A1854F1000148BFBB
:101580007047B619524141EB0101A3F101037047C5
:1015900095F0000F37D04FEA11424FEA144721EA85
:1015A000024624EA074C02FB07F106FB07F70CFB97
:1015B00006F402FB0CFC14EB074441EB17414FEA25
:1015C000154714EB0C4441EB1C4125EA074C02FB88
:1015D00007F506FB07F70CFB06F602FB0CFC16EB07
:1015E000074645EB174516EB0C4645EB1C42121916
:1015F00051F1000148BF7047B619524141EB01015A
:10160000A3F1010370474FEA14454FEA114724EA5A
:10161000054621EA074C05FB07F106FB07F70CFB23
:1016200006F24FF0000605FB0CFC12EB074241EB03
:10163000174112EB0C4251EB1C4148BF7047921806
:1016400041EB0101A3F10103704721B1826842F02F
:101650000102826003E0826822F00102826070472A
:1016600021B1826842F48072826003E0826822F4D1
:10167000807282607047014600208A6802F004028E
:101680000AB1012000E000207047014600208A686E
:1016900002F008020AB1012000E0002070470000BB
:1016A00030B502460020002350680F4C20400D79D1
:1016B0000C6844EA05242043506090680B4C20409D
:1016C000D1E902542C434D7944EA4504204390600B
:1016D000D06A20F470000C7C641EE4B2234340EA1C
:1016E0000350D06230BD0000FFFEF0FFFDF7F1FFB8
:1016F000F0B504460D4600200021092D11DDE068FB
:10170000A5F10A0606EB4607072606FA07F1884305
:10171000A5F10A0606EB460603FA06F10843E06067
:101720000CE0206905EB4507072606FA07F1884318
:1017300005EB450603FA06F108432061072A0FDA94
:10174000606B561E06EB86071F2606FA07F18843D4
:10175000561E06EB860605FA06F10843606322E092
:101760000D2A0FDA206BD61F06EB86071F2606FA16
:1017700007F18843D61F06EB860605FA06F10843F3
:10178000206310E0E06AA2F10D0606EB86071F2633
:1017900006FA07F18843A2F10D0606EB860605FA64
:1017A00006F10843E062F0BD816841F00801816004
:1017B000704721B1826842F4A002826003E082682F
:1017C00022F4A00282607047816841F004018160C8
:1017D0007047000008B50121102000F055FE0220DE
:1017E000ADF8000000208DF803006946014800F0C4
:1017F00068F908BD0010014010B5FFF7EBFF00F0DD
:1018000001F810BD00B591B00121084600F01CFEA2
:101810000121480200F038FE334800F079F83348DF
:10182000069033480790002008900120099000207E
:101830000A900B904FF480700C9080000D90202047
:101840000E9000020F900020109006A9264800F08C
:1018500005F90121244800F04FF8002001908DF88F
:10186000080001208DF809004FF46020039000204B
:10187000049001208DF8140001A91C484C38FFF792
:101880000FFF4FF4404000F0D3FD052301220B2150
:1018900016484C38FFF72CFF012114484C38FFF74D
:1018A000DFFE012111484C38FFF7CFFE0F484C38BE
:1018B000FFF77AFF00BF0D484C38FFF7E6FE00281F
:1018C000F9D10A484C38FFF77FFF00BF07484C3872
:1018D000FFF7D1FE0028F9D1012104484C38FFF769
:1018E00068FF11B000BD0000080002404C24014018
:1018F000C800002000BFFEE721B1026842F00102EB
:10190000026004E002684FF6FE731A4002607047FE
:1019100001684FF6FE7211400160002101604160D4
:101920008160C1604B49884208D14A4908394968F9
:1019300041F00F01474A083A51608AE045491431A5
:10194000884208D143490839496841F0F001414AC9
:10195000083A51607DE03F492831884208D13D492D
:101960000839496841F470613A4A083A516070E0B8
:1019700038493C31884208D136490839496841F430
:101980007041344A083A516063E03249503188422C
:1019900008D130490839496841F470212D4A083A84
:1019A000516056E02B496431884208D129490839F1
:1019B000496841F47001274A083A516049E02549D5
:1019C0007831884208D123490839496841F070616B
:1019D000204A083A51603CE01F49884206D1011F65
:1019E000096841F00F01021F116032E01A491431F9
:1019F000884208D11849091F096841F0F001164AC8
:101A0000121F116025E014492831884208D112497B
:101A1000091F096841F470610F4A121F116018E034
:101A20000D493C31884208D10B49091F096841F42E
:101A30007041094A121F11600BE00749503188427A
:101A400007D10549091F096841F47021024A121F94
:101A500011607047080002400804024010B50022DF
:101A6000026847F6F0739A430C6A8B6823430C694B
:101A700023434C6923438C692343CC6923434C6A39
:101A800023438C6A23431A430260CB6843600B688C
:101A900083604B68C36010BD70470FE04FF47A71EC
:101AA00008E04FF47A7201E0531E9AB2002AFBDC80
:101AB0004B1E99B20029F4DC431E98B20028EDDCDD
:101AC00070472DE9F0410246002500260020002342
:101AD0000024002791F803C00CF00F0591F803C013
:101AE0000CF0100CBCF1000F03D091F802C04CEACE
:101AF000050591F800C0BCF1000F31D0146800203A
:101B00002BE04FF0010C0CFA00F3B1F800C00CEA26
:101B100003069E4220D183004FF00F0C0CFA03F70E
:101B2000BC4305FA03FC4CEA040491F803C0BCF181
:101B3000280F06D14FF0010C0CFA00FCC2F814C0BB
:101B40000AE091F803C0BCF1480F05D14FF0010C39
:101B50000CFA00FCC2F810C0401C0828D1D3146055
:101B6000B1F800C0BCF1FF0F34DD546800202EE056
:101B700000F1080C4FF0010808FA0CF3B1F800C0AE
:101B80000CEA03069E4221D183004FF00F0C0CFAA1
:101B900003F7BC4305FA03FC4CEA040491F803C0C4
:101BA000BCF1280F05D100F1080C08FA0CF8C2F8B6
:101BB000148091F803C0BCF1480F07D100F1080C64
:101BC0004FF0010808FA0CF8C2F81080401C0828F1
:101BD000CED35460BDE8F0810246002093680B40EC
:101BE0000BB1012000E0002070470161704700BF89
:101BF000FEE721B1028842F48062028004E002889C
:101C00004FF6FF331A400280704770B50246002439
:101C1000002500230020958A138B1B0445EA030648
:101C200026F07F4404EA01068E4201D1012000E043
:101C3000002070BD002221F07F42D3438382704791
:101C400021B1028842F00102028004E002884FF6CE
:101C5000FE731A40028070472DE9F04105460F4699
:101C600016461C464FF42040644908600AE0634968
:101C70000868411E614A116020B9092000F020FB6C
:101C8000BDE8F0814FF400315D4800F049FA0028CA
:101C9000EDD101215A4800F02BFA4FF480505749FA
:101CA000086009E055490868411E544A116018B996
:101CB0000A2000F005FBE3E752495148FFF7A5FF72
:101CC0000028EFD0002239464D4800F0EEFA4FF4DC
:101CD00080504A49086009E048490868411E474A5F
:101CE000116018B90B2000F0EBFAC9E746494448E7
:101CF000FFF78BFF0028EFD001214148FFF7A0FF3D
:101D000031463F4800F0DAFA4FF480503B49086012
:101D100009E03A490868411E384A116018B90C2098
:101D200000F0CEFAACE73849891C3548FFF76DFF63
:101D30000028EED00121324800F0DAF94FF480504B
:101D40002E49086009E02D490868411E2B4A1160A0
:101D500018B90D2000F0B4FA92E72A492848FFF795
:101D600054FF0028EFD001223946254800F09DFAA3
:101D70004FF480502149086009E020490868411E5D
:101D80001E4A116018B90E2000F09AFA78E71D4932
:101D9000491C1B48FFF739FF0028EED026E0012C34
:101DA00007D100211648FFF724FF0121144800F055
:101DB000ABF94FF420401149086009E00F49086869
:101DC000411E0E4A116018B9032000F079FA57E756
:101DD0000C493F310A48FFF718FF0028EED00848A9
:101DE00000F05FFA28706D1C601E84B2002CD6D102
:101DF00001210348FFF7FDFE012041E7B400002068
:101E000000540040010003008200070070B5044642
:101E10000E4615460121374800F06AF94FF480500C
:101E20003549086009E034490868411E324A1160AA
:101E300018B9002000F044FA70BD30492D48FFF772
:101E4000E4FE0028EFD0002231462A4800F02DFAA7
:101E50004FF480502849086009E027490868411E6E
:101E6000254A116018B9012000F02AFAE4E7244954
:101E70002048FFF7CAFE0028EFD029461D4800F091
:101E80001DFA4FF480501C49086009E01A4908689F
:101E9000411E194A116018B9022000F011FACBE76F
:101EA0001749891C1348FFF7B0FE0028EED02178AF
:101EB000104800F003FA4FF480500F49086009E021
:101EC0000D490868411E0C4A116018B9032000F042
:101ED000F7F9B1E70A49891C0648FFF796FE002882
:101EE000EED00121034800F00FF900F0B1F8012015
:101EF000A2E7000000540040B400002001000300ED
:101F00008200070010B500F0CDF800F09DF98020A8
:101F10000149088010BD0000B00000202DE9F0410B
:101F200004460F4615461E464FF4204044490860BB
:101F30000AE043490868411E414A116020B9042063
:101F400000F0BEF9BDE8F0814FF400313D4800F0EB
:101F5000E7F80028EDD101213A4800F0C9F84FF424
:101F600080503749086009E035490868411E344A05
:101F7000116018B9052000F0A3F9E3E732493148B0
:101F8000FFF743FE0028EFD0002239462D4800F02D
:101F90008CF94FF480502A49086009E02849086804
:101FA000411E274A116018B9062000F089F9C9E7D7
:101FB00026492448FFF729FE0028EFD0294621486A
:101FC00000F07CF94FF480501D49086009E01C497D
:101FD0000868411E1A4A116018B9072000F070F90C
:101FE000B0E71A49891C1748FFF70FFE0028EED00A
:101FF0001AE02178134800F061F9641C4FF4805016
:102000000F49086009E00E490868411E0C4A11603A
:1020100018B9082000F054F994E70C49891C0948C4
:10202000FFF7F3FD0028EED0301EA6F10101CEB27D
:10203000DFD10121034800F067F8012082E70000AA
:10204000B40000200054004001000300820007009B
:1020500008B50020009000BF01210F4800F048F8AB
:1020600014210D4800F012F900900C48017800226C
:10207000094800F01AF91421074800F007F900F0A8
:1020800002000028E8D006490348FFF7D3FD0121EC
:10209000014800F039F808BD00540040B0000020AD
:1020A0000004001008B50121480500F0DDF9012108
:1020B000082000F0E9F94020ADF8000003208DF879
:1020C00002001C208DF8030069460848FFF7F9FC60
:1020D0008020ADF8000003208DF802001C208DF850
:1020E000030069460148FFF7ECFC08BD000C014005
:1020F00021B1028842F48072028004E002884FF627
:10210000FF631A400280704721B1028842F40072D6
:10211000028004E002884FF6FF531A4002807047A5
:102120000CB50246002000230193009300920B0F90
:10213000019321F07F41019B1BB1009B143300935D
:1021400003E0090C009B18330093009B1B680B40B5
:102150000BB1012000E000200CBD00002DE9F04390
:1021600085B004460D460026B1460427DFF8CC8032
:10217000A6884FF6C0700640684600F095F9DDF875
:1021800008802F48B8FBF0F01FFA80F946EA0906EC
:10219000A68020884FF6FE7108402080002629493D
:1021A000286888420CD828684000B8FBF0F087B255
:1021B000042F00DA04273E4309F10100208427E0C0
:1021C000E8884BF6FF71884206D1286800EB400092
:1021D000B8FBF0F087B209E0286800EBC00101EB22
:1021E0000010B8FBF0F087B247F48047C7F30B004C
:1021F00008B947F0010747F4004006434FF49670D2
:1022000009FB00F04FF47A7190FBF1F0401C208440
:10221000A683208840F00100208026884FF6F53004
:102220000640A8886989084306432680A889298929
:102230000843208105B0BDE8F083000000127A0059
:1022400040420F00A08601001FB50020ADF8040039
:102250004BF6FF70ADF806000A20ADF808004FF409
:102260008060ADF80A000001ADF80C000548009050
:1022700069460548FFF772FF01210348FFF7E0FCBC
:102280001FBD0000A08601000054004008B50246B2
:102290000020009000920098084400900098008868
:1022A00008BD0146088AC0B2704712B141F0010171
:1022B00002E04FF6FE7319400182704701827047B9
:1022C00010B50446214602A0FDF7B8FF002010BD5E
:1022D0003C3C2D454550524F4D2D4552524F522DAD
:1022E0003E3E2049324320776169742074696D6FE6
:1022F000757420216572726F72436F6465203D2092
:1023000025640A0008B50121142000F0BDF8012061
:10231000ADF8000004208DF8030069460748FFF778
:10232000D0FB4FF40050ADF8000004208DF80300FE
:1023300069460348FFF7C5FB08BD000000080140DF
:102340000010014008B50121102000F09DF8042084
:10235000ADF8000010208DF8030003208DF8020076
:1023600069460948FFF7ADFB0820ADF80000694653
:102370000548FFF7A6FB04210348FFF736FC0821B8
:102380000148FFF732FC08BD0010014000BFFEE726
:102390007047000070B5002100230F22C47804B3F9
:1023A000154C246804F4E064C4F5E064210AC1F12A
:1023B0000403CA40447804FA03F1847814402143AA
:1023C00009010E4C0678A155047804F01F0501247C
:1023D000AC4005786D11AD0005F1E025C5F8004170
:1023E00009E0047804F01F050124AC40044D067890
:1023F000761145F8264070BD0CED00E000E400E0E9
:1024000080E100E002490143024A11607047000088
:102410000000FA050CED00E0024A0A400243024BBC
:102420001A60704780FFFF1F08ED00E07047000052
:1024300001460020034A506820F4404008435060A1
:10244000704700000010024029B1064A5269024359
:10245000044B5A6104E0034A52698243014B5A61BA
:10246000704700000010024029B1064AD2690243B9
:10247000044BDA6104E0034AD2698243014BDA611A
:10248000704700000010024029B1064A92690243D9
:10249000044B9A6104E0034A92698243014B9A61BA
:1024A000704700000010024030B5002100220024D7
:1024B00000232D4D6D6805F00C0121B1042905D0D4
:1024C000082923D105E0294D056022E0274D05604C
:1024D0001FE0254D6D6805F47012234D6D6805F4FD
:1024E0008034022505EB92421CB9214D554305600D
:1024F0000BE01D4D6D6805F400351DB11C4D5543B5
:10250000056002E0194D5543056002E0174D056076
:1025100000BF00BF144D6D6805F0F0010909154DAD
:102520006B5C0568DD4045600F4D6D6805F4E0614A
:10253000090A104D6B5C4568DD4085600A4D6D6889
:1025400005F46051C90A0B4D6B5C4568DD40C56000
:10255000054D6D6805F44041890B074D6B5CC568FE
:10256000B5FBF3F5056130BD0010024000127A00A2
:1025700000093D00D4000020E4000020704710B5A1
:1025800000F002F810BD00000CB500200190009092
:102590003348006840F480303149086000BF30485B
:1025A000006800F4003000900198401C01900098F1
:1025B00018B90198B0F5A06FF1D12948006800F46E
:1025C000003010B10120009001E000200090009840
:1025D000012843D12348006840F0100021490860D9
:1025E0000846006820F0030008600846006840F0D4
:1025F000020008601A484068194948600846406867
:1026000048600846406840F480604860084640687A
:1026100020F47C1048600846406840F4E8104860A8
:102620000846006840F08070086000BF0C480068F1
:1026300000F000700028F9D00948406820F003003D
:10264000074948600846406840F00200486000BF03
:102650000348406800F00C000828F9D10CBD0000C8
:102660000010024000200240042808D14FF0E02171
:10267000096941F004014FF0E022116107E04FF0D9
:10268000E021096921F004014FF0E0221161704757
:1026900010B500F031F810BD10B51348006840F0D7
:1026A00001001149086008464068104908400E4979
:1026B0004860084600680E4908400B490860084613
:1026C000006820F4802008600846406820F4FE007E
:1026D00048604FF41F008860FFF751FF4FF0006023
:1026E0000449086010BD0000001002400000FFF81F
:1026F000FFFFF6FE08ED00E00448006820B1034843
:102700000068401E0149086070470000C4000020B6
:1027100000B587B001214804FFF7A6FE0420ADF8FC
:10272000180003208DF81A0018208DF81B0006A948
:102730001C48FFF7C6F90820ADF8180004208DF8F2
:102740001B0006A91748FFF7BCF926208DF80400E6
:1027500003208DF805008DF8060001208DF8070094
:1027600001A8FFF717FE4FF4E13002900020ADF80A
:102770000C00ADF80E00ADF81000ADF814000C2000
:10278000ADF8120002A9084800F0D4F9012240F285
:102790002551054800F0A9F90121034800F021F96D
:1027A00007B000BD000801400044004008B540F2F9
:1027B0002551074800F06FF948B1054800F026FAA6
:1027C000C0B2009069460348FDF715FF00BF08BD81
:1027D00000440040785E002000B587B001218804E5
:1027E000FFF742FE01210820FFF74EFE18208DF86A
:1027F0000B004FF48060ADF8080003208DF80A004C
:1028000002A91D48FFF75DF904208DF80B00400276
:10281000ADF8080002A91848FFF753F94FF4165015
:1028200003900020ADF818000C20ADF81600002031
:10283000ADF81400ADF81200ADF8100003A90F4870
:1028400000F078F927208DF8040001208DF80700AA
:102850008DF805008DF8060001A8FFF79BFD012209
:1028600040F22551054800F040F90121034800F0ED
:10287000B8F807B000BD0000000C0140004800405F
:1028800010B520214B4800F0F9F878B120214948D3
:1028900000F09EF8474800F0B9F94749474A1278D6
:1028A000885446480078401C4449087043480078E2
:1028B0001F2805DD002041490870012040490870AB
:1028C0003F480078012873D100203D4908703A48FC
:1028D00000783949497808443749897808443649A5
:1028E000C978084434490979084433494979084486
:1028F0003149897908443049C97908442E49097A0F
:1029000008442D49497A08442B49897A08442A49C0
:10291000C97A08442849097B08442749497B084467
:102920002549897B08442449C97B08442249097CFC
:1029300008442149497C08441F49897C08441E49B0
:10294000C97C08441C49097D08441B49497D084449
:102950001949897D08441849C97D08441649097EEA
:1029600008441549497E08441349897E08441249A0
:10297000C97E08441049097F08440F49497F44181B
:102980000D48C07F0C49897F40EA0120A0420FD149
:102990000948007B0B4908700748407B0A490870CA
:1029A000084600780749097840EA0120074908608D
:1029B00010BD00000048004078660020B8000020EC
:1029C000C0000020B9000020BA000020BC00002098
:1029D00001F40072B2F5007F00D100BFCA4302804B
:1029E000704721B1828942F40052828104E08289D9
:1029F0004DF6FF731A4082817047000000B585B024
:102A000001210420FFF740FD01218803FFF73CFD71
:102A10004FF40070ADF8100018208DF8130003205B
:102A20008DF8120004A91348FFF74BF84FF48060AB
:102A3000ADF8100004208DF8130004A90D48FFF72D
:102A400040F84FF4E13000900020ADF80400ADF8FC
:102A50000600ADF80800ADF80C000C20ADF80A0037
:102A60006946054800F066F801210348FFF7B9FF01
:102A700005B000BD000801400038014002460020BA
:102A8000B1F5007F00D100BF13880B400BB10120CE
:102A900000E00020704770B50246002400230025A6
:102AA000002040F66A16B14200D100BFC1F34215C2
:102AB00001F01F03012606FA03F3012D02D19689C6
:102AC000334006E0022D02D1168A334001E0968A97
:102AD00033400C12012606FA04F41688344013B170
:102AE0000CB1012000E0002070BDF0B503460024C9
:102AF00000260025002040F66A17B94200D100BF29
:102B00001846C1F3421401F01F06012707FA06F523
:102B1000012C01D10C3004E0022C01D1103000E076
:102B200014301AB107682F43076002E00768AF430B
:102B30000760F0BD2DE9F04786B005460E4600243B
:102B4000A24600BFA1460027B08900B100BF2F46B2
:102B50002C8A4CF6FF700440F08804432C82AC8928
:102B60004EF6F3100440B088318908437189084358
:102B70000443AC81AC8A4FF6FF400440B089044363
:102B8000AC8201A8FFF790FC1F48874202D1DDF814
:102B900010A001E0DDF80CA0A88900F4004040B1CD
:102BA0000AEBCA0000EB0A1031684900B0FBF1F8EB
:102BB00007E00AEBCA0000EB0A1031688900B0FB9D
:102BC000F1F86420B8FBF0F004012009642101FB56
:102BD0001089A88900F4004040B1322000EBC90000
:102BE000B0FBF1F000F00700044308E0322000EBF6
:102BF00009106421B0FBF1F000F00F0004432C81B8
:102C000006B0BDE8F0870000003801400146888822
:102C1000C0F308007047C1F308028280704700BF0C
:102C2000FEE7490050EAC12018BF04204A0D18BF32
:102C300040F0010040F2FF72B2EB515F08BF40F07C
:102C40000200012808BF0520704730380A2801D249
:102C50000120704700207047014600BF7047000008
:102C600010B56FF00400FFF7FFFC0A4800680A493E
:102C7000B0FBF1F0094908700846007800EB40010C
:102C8000C1EBC0104FF6FF7101EAC0000449088093
:102C900010BD00009C00002000127A00CC00002033
:102CA000CE0000200146114A12884A434FF0E0232B
:102CB0005A6100229A611A46126942F001021A61B1
:102CC00000BF4FF0E022106900F001021AB100F4D9
:102CD0008032002AF5D04FF0E022126922F0010282
:102CE0004FF0E0231A6100229A617047CE00002065
:102CF00070B504460D46E1B20548FFF78CFF00BFF2
:102D000080210348FFF7BAFE0028F9D0204670BDA5
:102D10000038014000BF00BF00BF00BF00BF00BFC0
:102D200062B64FF4A060FFF76DFBFFF767FEFFF799
:102D3000EFFCFFF795FF62B64FF000610846FFF722
:102D40006BFB77A179A000F077F9FFF7FBFAFFF7AB
:102D5000D9FAFEF751FDFFF73FFDFFF7D3F8012346
:102D60002022B4217248FEF777FF7148017871A0E4
:102D7000FDF764FA01232322B4216D48FEF76CFFAE
:102D80006B4801786BA0FDF759FA01232422B42186
:102D90006748FEF761FF6648017866A0FDF74EFAC6
:102DA00001230022B4216248FEF756FF60480178F3
:102DB00060A0FDF743FA5E48007800F0100050B1C3
:102DC0000023F422B4215E48FFF7A8F858480178A0
:102DD00058A0FDF733FA01230022B4215448FEF72E
:102DE0003BFF01231A46B4215148FEF735FF01226B
:102DF000B4215448FFF70AF80A20FEF74EFE8EE091
:102E000001230022B4214A48FEF726FF0123E022D5
:102E1000B4214748FEF720FF04230222B4214A4888
:102E2000FEF71AFF01232022B4214148FEF714FFC8
:102E300045484178007801EB00204449086044A0EF
:102E4000FDF7FCF94148016847A0FDF7F7F93E4856
:102E5000C178807801EB0020454908600846016888
:102E600044A0FDF7EBF901214648FEF7B5FE012825
:102E700005D145A0FDF7E2F9042047494861012149
:102E80004048FEF7A9FE28B944A0FDF7D7F9042071
:102E9000414908614FF400513F48FEF79DFE01286B
:102EA00005D142A0FDF7CAF908203B4908614FF45B
:102EB00000513948FEF790FE28B940A0FDF7BEF951
:102EC0000820354948614148008800F053FC81469C
:102ED0004FF08B4100F08CFB044600F05DFB074691
:102EE0004FF066323A4B00F059FA054600F024FAEA
:102EF000384908603548018837A0FDF79FF9354803
:102F0000006800F049FB044622460B463BA0FDF753
:102F100095F941A0FDF792F90320FEF7BEFD6FE79A
:102F20005A515751415A3132330000004641530043
:102F30000A000020787878783D253032780D0A0034
:102F4000090000200B000020E80000200000002005
:102F500054686520434F322626564F322056616C06
:102F600075650D0A00000000434F323D256C64007A
:102F70000400002020202054564F323D256C640D63
:102F80000A000000000801404D6F74696F6E5F4CCD
:102F900045443D4F4E0A0000001001404D6F7469DA
:102FA0006F6E5F4C45443D4F46460A0059616E576F
:102FB000755F4C45443D4F46460A000059616E57C7
:102FC000755F4C45443D4F4E0A000000C80000208C
:102FD00066660A407400002054686520637572724A
:102FE000656E742041442076616C7565203D20300B
:102FF0007825303458200D0A000000005468652000
:10300000566F6C742076616C7565203D20256620B6
:1030100056200D0A00000000787878787878787863
:103020007878787878787878787878787878787820
:10303000787878780A00000070B504460D461420B0
:10304000FFF730FE3CA000F037F91420FFF72AFE0E
:1030500039A000F031F94FF4FA60FFF723FE00BF0A
:1030600003234FF4FA7235A135A000F0B9F8002817
:10307000F6D100BF0323642230A134A000F0B0F8E1
:103080000028F7D14FF4C8713448FDF7C0FA34A1D5
:103090003248FDF76DFA21463048FDF7ACFA33A10E
:1030A0002E48FDF7A8FA29462C48FDF7A4FA30A1CE
:1030B0002A48FDF7A0FA00BF03234FF47A722DA12E
:1030C000264800F08DF80028F6D14FF400612C4816
:1030D000FDF79DFA4FF4C8712048FDF798FA29A131
:1030E0001E48FDF745FA2CA11C48FDF784FA2EA1D5
:1030F0001A48FDF780FA00BF03234FF47A722DA11E
:10310000164800F06DF80028F6D100BF03236422B2
:103110000AA12AA000F064F80028F7D100BF032319
:1031200064222AA12AA000F05BF80028F7D114201D
:10313000FFF7B8FD70BD00002B2B2B004F4B00009C
:1031400041542B5253540D0A0000000041542B43AC
:10315000574D4F44453D330D0A000000E85C002008
:1031600041542B43574A41503D220000222C22005B
:10317000220D0A005749464920474F542049500024
:10318000785E002041542B43495053544152543DE2
:1031900022544350222C22003139322E3136382E1F
:1031A00034332E3132370000222C383038300D0ABB
:1031B00000000000434F4E4E4543540041542B4302
:1031C00049504D4F44453D310D0A00003E0000007E
:1031D00041542B43495053454E440D0A0000000012
:1031E0002DE9F0470446894616461F462046FDF75E
:1031F000E3F9824651461CA0FDF720F84FF0000885
:1032000029E000250BE0615D1C48FFF704FD00BFCD
:1032100080211A48FFF732FC0028F9D06D1C2046A7
:10322000FDF7CAF9A842EED8B0B2FFF73BFD494618
:103230001348FDF78BF958B1214612A0FCF7FEFFA9
:103240004FF400610E48FDF7E2F90020BDE8F08779
:1032500000BF08F10108B845D3DB214610A0FCF7F8
:10326000EDFF0120F2E70000636F6D6D616E642079
:103270006C656E6774683A25640D0A00004400406E
:10328000785E00202D2D2D3E73656E642025732001
:103290007375636365737366756C0D0A00000000D7
:1032A0002D2D2D3E73656E64203A2573206661696D
:1032B0006C210D0A0000000070B505462846FDF798
:1032C0007BF9064631460BA0FCF7B8FF00240BE063
:1032D000295D0D48FFF79FFC00BF80210A48FFF7DA
:1032E000CDFB0028F9D0641C2846FDF765F9A04203
:1032F000EED870BD636F6D6D616E64206C656E6736
:1033000074683A25640D0A000044004010B5002995
:103310000AD00878002807D005487844FDF79AFDC0
:10332000002801D0002010BD0248784410BD0000E4
:103330000A0600000206000021F00042A2F16052DD
:10334000B2F5801F01F0004328BFD2F17F6C0BD98A
:103350005FEA001C43EAC20242EB507018BF70479C
:1033600028BF20F001007047B2F5801FBCBF18468F
:1033700070474FEA410C1CF5001F02D2084600F0CE
:1033800052BA70B500F0B4F800000089FFF7F6BF3C
:103390004FF00040A0F5800070470000DFF848C102
:1033A00070B51CEA111E1EBF1CEA13159EEA0C0F15
:1033B00095EA0C0F00F06F8081EA030423EA4C13B6
:1033C0004EEAD47E21EA4C1141F4801143F480137B
:1033D000AE44A1FB024CA0FB0365AEF17F7E361923
:1033E00055EB0C05A1FB034C4CF10003A0FB021CA8
:1033F00016EB0C06654153F10003094218BF46F075
:10340000010613F4007F0BD14FEA03314FEA053078
:10341000340341EA155140EA16506FF003020AE006
:103420004FEAC3214FEAC520F40241EA555140EA70
:1034300056506FF0020202EB2E4201EB025585EA74
:10344000CE710AD05FEA440C18BF24F0004450F15A
:10345000000041F1000120EAD47040F2FE7C624598
:1034600000D270BDA84214BF4FF080444FF04044DA
:10347000002E08BF0024BEF1806FA8BFA1F1C0419B
:10348000BDE8704080F282804FF0000001F1C04141
:1034900001F0004170479EEA0C0F0CEA131518BFAB
:1034A00095EA0C0F06D04FF0000081EA030E0EF0F3
:1034B000004170BD00F01CF88900013E00F007B823
:1034C00000F009B84FEA430C5FEA5C5C08D081EA7F
:1034D000030100F05BB84FEA410C5FEA5C5CF6D197
:1034E0004FF00000014970470000FF070000F87F1F
:1034F0000EF1020E2EF0030E5EF8046B364205D478
:10350000012A43EB030515F5001F12D8012841EBF2
:10351000010C1CF5001F0CD80ED14FEAD17C15F51B
:10352000001F0CEB4C0C0CF1020C08BF4CEBD37CD5
:1035300004E04FF0080C01E04FEAD37C0CEB4C05A3
:1035400026FA05F606F00706B6F1040C06D20EEBD5
:10355000860CBDE870404CF0010C6047DFE80CF0D1
:10356000090B02024FF000414FF00000A1F50021CD
:1035700070BD19461046012851EB010418BFD4F55F
:10358000001484BF002001F0004170BD0808A0F5C0
:1035900000114FEA3101704743004FEAD30C4FEA64
:1035A0003C0C43401FBF40070CF1605113F0FE4F2D
:1035B00070471CF0006F03D100200CF000417047F1
:1035C0000CF0004343EA507010B540EACC0000F024
:1035D000E4F800BF000000924FEA0001FFF7D6BFF9
:1035E0004FF000414FF00000A1F5002170470000AE
:1035F0004FF47F0C1CEAD0121EBF1CEAD11392EAD2
:103600000C0F93EA0C0F00F0858090EA010F48BF81
:1036100042F4807240F4000C41F400002CF07F4131
:1036200020F07F4000B58142A2EB03020FF2081C9C
:10363000ACEB504EC0F100009EF800E04FEA4E0E99
:1036400000FB0EFC38BF49004FEA2C1C02F5FA02C1
:103650000CFB0EF34FEACE1E4FEA112C4FEAC121AC
:103660000EEB635E42EB22420EFB0CFC4FEA1C5356
:1036700000FB03114FEA112C4FEA01310EFB0CFC49
:103680004FEADC4C00FB0C11C14228BF09184CEB7F
:1036900003335DF804EB10EB410143EBC250B2F58C
:1036A0007C0F38BF704729D512F0F00F1CBF00F116
:1036B000C04000F000407047008182838485868787
:1036C00088898B8C8D8E8F919293959697999A9CE1
:1036D0009D9FA0A2A3A5A7A8AAACAEB0B2B3B5B750
:1036E000B9BCBEC0C2C5C7C9CCCED1D4D7D9DCDF26
:1036F000E2E6E9ECF0F3F7FAFE0000004FEA400CD6
:103700000CF1807CBCF17E4F28BF7047B0F1C04007
:1037100000F089B890EA010F0CEAD11348BF42F4D7
:103720008072624538BF634507D213F47F0F16D00D
:1037300080EA010000F00040704710B500F02DF85D
:10374000097EFC3E00F005B880EA010000F0004070
:10375000704780EA010000F0004000F064B812F405
:103760007F0F04BF0248704780EA010000F05BB899
:103770000000C07FB0FA80F310FA03F2C3F19D039A
:103780000AD0D90501EB1220530638BF704700F16B
:10379000010008BF20F0010070470EF1020E2EF06C
:1037A000030E5EF8044B244204D44FEA4102B2F106
:1037B0007F4F11D84FEA4003B3F17F4F0CD80ED1A1
:1037C0004FEAD07CB2F17F4F0CEB4C0C0CF1020CA9
:1037D00008BF4CEBD17C04E04FF0080C01E04FEA4D
:1037E000D17C0CEB4C0324FA03F404F00704B4F18D
:1037F000040C06D20EEB840CBDE810404CF0010C1A
:103800006047DFE80CF0070802024FF00040A0F527
:10381000800010BD0846420018BFD2F1807288BFF8
:1038200000F0004010BDFF2141EAD050C0057047B4
:10383000FDF743B830313233343536373839414209
:103840004344454640305800303132333435363702
:1038500038396162636465664030780004000008AE
:103860000000000000000002000100001000000045
:1038700002400000000000A0000000000540000021
:10388000000000C8000000000C4000000000409C48
:1038900000000000194000000020BCBE0000000035
:1038A00034400000BFC91B8E00000004B54000007A
:1038B000504BCFD06607E2CF010000006C41000002
:1038C0003E8251AADFEEA73401000000D942000079
:1038D000DCB5A0E23A301F97FFFFFFFFB4450000C0
:1038E000FD25A0C8E9A3C14FFFFFFFFFFF3F000078
:1038F0000000008000000000FF3F0000000000808A
:10390000000000004039000800000020E80000002E
:103910006C010008283A0008E8000020586C0000FC
:10392000880100081C00000043000000F8FFFFFFB2
:103930000C0000000E0000000F0000002E00000030
:103940000000000000000000F4000010037A686F1F
:103950006E6768756172656E6D696E676F6E6768B8
:103960006567756F77616E677375690000000000A9
:103970000000000000000000000000000000000047
:103980000000000000000000000000000000000037
:103990000000000000000000000000000000000027
:1039A0000000000000000000000000000000000017
:1039B0000000000000000000ECEDEEEF80030000CE
:1039C00000000000000000000000000000000000F7
:1039D00000000000000000000000000000A24A04F7
:1039E00000000000000000000102030406070809AF
:1039F0000000000000A00000000000000000000027
:103A000000000000000000000000000000000000B6
:103A10000000000000000000010203040102030492
:083A200006070809020406086C
:04000005080001F9F5
:00000001FF
