:020000040801F1
:10000000588F0020F1020108FD320108152A01086D
:1000100071320108C11D01080B4A010800000000EF
:10002000000000000000000000000000590201086C
:1000300099200108000000009D0201089D3E010872
:100040000B0301080B0301080B0301080B03010854
:100050000B0301080B0301080B0301080B03010844
:100060000B0301080B0301080B0301080B03010834
:100070000B0301080B0301080B0301080B03010824
:100080000B0301080B030108B11A01080B03010857
:100090000B0301080B0301080B0301080B03010804
:1000A0000B0301080B0301080B0301080B030108F4
:1000B0005D3F01080B030108993F01080B0301088C
:1000C0000B0301080B0301080B0301080B030108D4
:1000D0000B030108614601080B030108F146010802
:1000E000F52101080B0301080B0301080B030108AC
:1000F0000B0301080B0301080B0301080B030108A4
:100100000B0301080B0301080B0301080B03010893
:10011000E94501082D4601080B0301080B030108FE
:100120000B0301080B0301080B0301080B03010873
:1001300000F002F800F070F80AA090E8000C824489
:100140008344AAF10107DA4501D100F065F8AFF266
:10015000090EBAE80F0013F0010F18BFFB1A43F0A5
:100160000103184774C9000094C900000A444FF005
:10017000000C10F8013B13F0070408BF10F8014B06
:100180001D1108BF10F8015B641E05D010F8016B4B
:10019000641E01F8016BF9D113F0080F1EBF10F8AF
:1001A000014BAD1C0C1B09D16D1E58BF01F801CBD2
:1001B000FAD505E014F8016B01F8016B6D1EF9D555
:1001C0009142D6D37047000000230024002500266A
:1001D000103A28BF78C1FBD8520728BF30C148BFAA
:1001E0000B60704766290CF0FC81642900F01281D5
:1001F000782900F07681732900F087860020704707
:100200001FB500F0EBFE0400002000210BF092FA75
:10021000E0601FBD10B510BD00F0EDFF1146FFF707
:10022000EFFF06F05FFA01F00BF803B4FFF7F2FFFF
:1002300003BC00F0CDFE0000EFF30980704780F3AF
:1002400009887047EFF30880704780F3088870478B
:1002500040BA7047C0BA7047224B19680868B0E8C6
:10026000F00F80F30988BFF36F8F4FF0000080F329
:1002700011884EF00D0E704700000000064800681F
:10028000006880F3088862B661B6BFF34F8FBFF392
:100290006F8F00DF00BF00BF08ED00E0EFF30980C3
:1002A000BFF36F8F0F4B1A6820E9F00F106008B58D
:1002B0004FF0500080F31188BFF34F8FBFF36F8F63
:1002C00009F0FAFD4FF0000080F31188BDE8084006
:1002D00019680868B0E8F00F80F30988BFF36F8FE2
:1002E000704700BF88030020EFF3058070470000CF
:1002F0000948804709480047FEE7FEE7FEE7FEE7BA
:10030000FEE7FEE7FEE7FEE7FEE7FEE704480549F5
:10031000054A064B70470000AD3E01083101010857
:1003200058890020588F0020588B0020588B0020BF
:100330000FB4044910B503AA029800F0EBFD10BCFD
:100340005DF814FB000000200FB41CB5084B06AA92
:100350007B4469460090059800F0ADFD04460020FE
:10036000694600F0BBFD20461CBC5DF814FB000094
:10037000890B000070B5044685690068C10601D587
:10038000302600E02026C00707D070BDD4E9012147
:1003900030469047206A401C20626D1EF6D570BD25
:1003A00070B5044685690078C00707D170BDD4E9EF
:1003B000012120209047206A401C20626D1EF6D546
:1003C00070BD70B50C460546012A05D02878800618
:1003D00000D5EA69002302E0012305E05B1C93429B
:1003E00002D2E05C0028F9D1A869E618C01AA86119
:1003F000286A184428622846FFF7BCFF04E0D5E9C4
:10040000012114F8010B9047B442F8D32846FFF7B6
:10041000C7FF70BD2DE9F04106460024106875291C
:10042000314616A510D0AFF30080002802DA404212
:1004300013A507E031688A0701D512A502E0490734
:1004400004D511A5012401E0AFF3008000210A22A8
:1004500006F1240709E0B0FBF2FCB0FBF2F302FB6B
:100460001C00303078541846491C0028F3D123462C
:100470002A463046BDE8F04100F0B2BA0000000064
:100480002D0000002B00000020000000F0B40D46FD
:100490000188090502D5214C7C4402E01F4C7C44B4
:1004A0000E34002100F1240608E002F00F071209C3
:1004B000E75D42EA03721B097754491C52EA0307BD
:1004C000F3D102780023120704D5702D06D009B1AC
:1004D000022311342246F0BC00F082BA012310340A
:1004E000F8E770B504460D4621461068AFF300806A
:1004F000024629462046BDE870400023C6E7D21DCB
:1005000022F00703D3E90023C0E70368126843F031
:10051000200303600823C3610023B7E73AC4000047
:100520002DE9F05F894604464FF0000ADFF874B108
:10053000FB44C0F820A02046E1688847002874D01A
:10054000252806D0D4E901219047206A401C20626A
:10055000F1E700265F462046E168884720280546E7
:1005600007DB312D05D2781910F8200C08B10643AD
:10057000F1E7B00701D526F00406C4F81CA0002757
:10058000C4F818A02A2D09D0284604F0F6FA38B38A
:1005900004EB8708303DC8F8185019E059F8041BDF
:1005A000204604EB87029161E1688847012F0546E8
:1005B00018D1E069002820DA26F020061DE0D8F8DE
:1005C000180000EB800005EB40003038C8F8180038
:1005D0002046E1688847054604F0CFFA0028EED1AE
:1005E000012F0AD02E2D08D12046E16888477F1CB4
:1005F0000546022F46F02006C4DBA069002803DA76
:10060000404246F00106A061F00701D026F0100636
:100610006C2D0BD0682D09D04C2D39D06A2D35D0DA
:10062000742D35D07A2D33D016E038E0E1682F46AE
:1006300020468847B842054609D16C2F26D04FF492
:100640008060E168064320468847054604E06C2F39
:100650001AD04FF4807006430DB3A5F1410019285C
:1006600002D8203546F400664A46294620462660D0
:100670004E46FFF7B7FD80B101280BD0F61D26F0DE
:10068000070000F1080956E74020E4E78020D8E79A
:100690000020D6E706F104094DE7284652E7206A14
:1006A000BDE8F09FCAC300000EB5054614460E46CD
:1006B00013A000F049FC284600F046FC16A000F00C
:1006C00043FC304600F040FC15A000F03DFC00214A
:1006D0008DF80B100A210DF10A008DF80A1008E0C0
:1006E00094FBF1F201FB124294FBF1F4303200F87A
:1006F000012D002CF4DC00F027FC00F01DFC0000B4
:100700002A2A2A20617373657274696F6E2066618C
:10071000696C65643A2000002C2066696C652000D5
:100720002C206C696E65200030B505460B462A46C4
:1007300013F8014B12F8010B08B1A042F8D01CB11C
:10074000002802D06D1CF1E7284630BD40EA0103C5
:1007500010B59B070FD1042A0DD310C808C9121F6A
:100760009C42F8D020BA19BA884201D9012010BDA4
:100770004FF0FF3010BD1AB1D30703D0521C07E071
:10078000002010BD10F8013B11F8014B1B1B07D1D5
:1007900010F8013B11F8014B1B1B01D1921EF1D146
:1007A000184610BD40EA0103024630B59B0710D140
:1007B0004FF0013400E008C208C91D1B9D4315EA33
:1007C000C41FF8D013F0FF0102F8011B0DD01B0A63
:1007D000F8E711F8013B002B02F8013B05D011F8B6
:1007E000013B002B02F8013BF3D130BD10B5431C97
:1007F00002E010F8011B71B18107FAD14FF001320C
:1008000002C88C1A8C4314EAC211F9D0C01A0A0625
:1008100003D0C01E10BDC01A10BD0A0401D0801E36
:1008200010BD0902FCD0401E10BD421E12F8013F4F
:10083000002BFBD111F8013B002B02F8013BF9D151
:100840007047032A40F2308010F0030C00F015804E
:1008500011F8013BBCF1020F624498BF11F801CBC3
:1008600000F8013B38BF11F8013BA2F1040298BF28
:1008700000F801CB38BF00F8013B11F0030300F092
:100880006D83083AC0F0088051F8043B083A51F8EB
:1008900004CBA0E80810F5E7121D5CBF51F8043B3B
:1008A00040F8043BAFF30080D20724BF11F8013BAE
:1008B00011F801CB48BF11F8012B24BF00F8013B10
:1008C00000F801CB48BF00F8012B704702F0FF038E
:1008D00043EA032242EA024200F002B84FF000026B
:1008E0000429C0F0128010F0030C00F01B80CCF142
:1008F000040CBCF1020F18BF00F8012BA8BF20F8B0
:10090000022BA1EB0C0100F00DB85FEAC17C24BF03
:1009100000F8012B00F8012B48BF00F8012B7047AD
:100920004FF0000200B5134694469646203922BF88
:10093000A0E80C50A0E80C50B1F12001BFF4F7AFD3
:10094000090728BFA0E80C5048BF0CC05DF804EBB5
:10095000890028BF40F8042B08BF704748BF20F823
:10096000022B11F0804F18BF00F8012B704710B513
:10097000044610F0030F08BF11F0030F40F015807C
:100980004FF0013E121FC0F20E8051F8043BA3EB62
:100990000E0C2CEA030C1CEACE1C08BF40F8043BEA
:1009A000F0D0A1F1040102F10402521E08DB11F89B
:1009B000013B002B00F8013BF7D11146FFF78EFFFA
:1009C000204610BD70477047704710B500F00AFB15
:1009D000006810BD10B5044600F004FB046010BDB3
:1009E0002DE9F0470D4699469246044600F1240849
:1009F0000168880604D5E06921F01001216000E05B
:100A00000120A84201DD471B00E00027A1697A19F7
:100A100002EB0900081AA0612078C00602D4204623
:100A2000FFF7A8FC002608E0D4E901211AF8060027
:100A30009047206A401C761C20624E45F4DB2078EB
:100A4000C0060AD52046FFF795FC06E0D4E901214F
:100A500030209047206A401C2062381EA7F1010711
:100A6000F4DC07E0D4E9012118F805009047206A7A
:100A7000401C2062281EA5F10105F3DC2046FFF78B
:100A80008FFC2078000602D50220BDE8F087012007
:100A9000FBE770472DE9FF4F0C461E464FF0FF372E
:100AA0008BB0D2E90001DDF860800A908A46C1F37C
:100AB0000A5505B93D46002108464FF00000BAF13D
:100AC000000F00F4400005DA00EB80004FF4400115
:100AD00001EA50004FEA9059B9F1010F00DDB94623
:100AE0000A9850EA4A000ED044F61050A5F2FF359D
:100AF00045432F14B8F1000F1ED07542291E1EDD8C
:100B0000C9F100021CE0B8F1010F4FF0000001D064
:100B1000302103E0F24305E02154401CB042FBDBEE
:100B200030460022002121540B99C1F80880C1E908
:100B300000200FB0BDE8F08FBD1B6D1CDEE74A46FC
:100B400000DA694206A800F0D7FA06AB93E807007E
:100B500003AB83E8070050460A9900F0EEFB8DE8EE
:100B60000700A0F500501F3800900398002D09DD04
:100B700042F21F014A46084403A90390684600F068
:100B80004DFE08E0A0F500504A461F3803A9039027
:100B9000684600F057FE8DE807000004000C03D003
:100BA0004FF0FF30410800E01046B8F1000F03D0CD
:100BB0000022009215461EE0751E05D400F016FABC
:100BC000303262556D1EF9D5B3460122084302D07A
:100BD00000227F1C04E02078302801D100227F1EF3
:100BE000002A099786D01DE0112D07DA00F0FEF9E2
:100BF000303262556D1C50EA0102F5D1084302D033
:100C00000098C8B10EE00021681E05E0235C625C1C
:100C100063542254401E491C8142F7DBAB46A81B9B
:100C2000401E0990002004F80B000B98099AC0F8A8
:100C30000880C0E9002B7CE711264FF0000859E737
:100C40002DE9F04F88460446D21D22F0070191B0ED
:100C5000D1E90001CDE90A0103F014FF02460B9827
:100C6000C00F01D02D2007E02068810701D52B207F
:100C700002E0202101EAC000032A099001D0072ADE
:100C800005DB03464146204600F0F6F90BE12078EB
:100C9000800601D5E06900E00620B8F1650F8146C5
:100CA00006D0B8F1660F18D0B8F1670F70D131E0F7
:100CB0000020B9F1110F009001DB112301E009F1CF
:100CC00001030AAA01A90CA8FFF7E4FEDDE90C70F4
:100CD000002609F10105834647E001204B460090BC
:100CE0004FF000470AAA01A90CA8FFF7D3FEDDE9DF
:100CF0000DB00C995D46002610B909F101000D18E0
:100D0000B9EB050003D4C0F1FF3609F10105A5EBED
:100D100009002BE0B9F1010F01DA4FF001090020C1
:100D2000B9F1110F0090484601DD112300E00346A0
:100D30000AAA01A90CA8FFF7ADFEDDE90C704D462B
:100D400000268346207800070AD4AB4500DA5D46CA
:100D500001A8012D04DD411911F8011C302907D02B
:100D60004F4502DA17F1040F04DA012082460FE042
:100D70006D1EEEE7002F02DCED1B3E4403E0781C05
:100D8000A84200DD7D1CB81B00F1010A4FF00047AE
:100D90002078000703D4AA4501DB4FF0FF3A002179
:100DA000B7F1004F0DF143088DF8431024D0022015
:100DB0002B23002F01DA7F422D230A21021EA0F1EE
:100DC000010000DC5FB197FBF1FC97FBF1F201FB46
:100DD0001C7C17460CF1300C08F801CDEEE7A8F1A9
:100DE000010003702188090501D5452100E0652136
:100DF000A0F1010800F8011C09980FA9A1EB080750
:100E0000FF1D00B10120411901EBEA70A1693844CE
:100E1000081A401EA0612078C00602D42046FFF7C1
:100E2000A9FA099828B1D4E901219047206A401C09
:100E300020622078C00622D52046FFF79BFA1EE0EC
:100E4000002E04DBB34502DD01A8805D00E0302008
:100E5000D4E901219047206A401C2062761CAAF147
:100E600001005FEA000A0AD100F0B8F8C068016822
:100E7000405CD4E901219047206A401C2062281E72
:100E8000A5F10105DCDC07E0D4E9012118F8010B2C
:100E90009047206A401C2062381EA7F10107F3DC4E
:100EA0002046FFF77DFA032011B043E601694A1C92
:100EB00002610878704700B58FB0CDE9013100219B
:100EC000059105497944CDE9031011466846FFF7BD
:100ED00027FB0FB000BD0000E5FFFFFF0A6802F826
:100EE000010B0A60704710B5436913B1AFF300807E
:100EF00001E0FFF766FA012010BD127800F124012D
:100F00000A7000224A700122EDE711684FF0FF32AB
:100F1000E9E70000074B70B50D467B44FFF7CBFFB8
:100F20000446284600F056F910B14FF0FF3070BD6E
:100F3000204670BD87510000002000F04FF9FFF7F8
:100F400069F9012000F044F810B5044602E0641C81
:100F500000F036F820780028F9D110BD10B5203AFD
:100F6000C0F00B80B1E81850203AA0E81850B1E862
:100F70001850A0E81850BFF4F5AF5FEA027C24BF18
:100F8000B1E81850A0E8185044BF18C918C0BDE80F
:100F900010405FEA827C24BF51F8043B40F8043BD8
:100FA00008BF7047D20728BF31F8023B48BF11F88D
:100FB000012B28BF20F8023B48BF00F8012B7047E7
:100FC00008B569468DF800000320ABBE08BD0000DF
:100FD00001491820ABBEFEE726000200004870471A
:100FE0001889002000487047F888002030B5B0F11B
:100FF0000A024FEA900E71F100034EEA817EB0EBD7
:101000000E0061EB91014FEA101E4EEA017E10EBDB
:101010000E0041EB11114FEA102E4EEA016E10EB5B
:101020000E0041EB11214FEA104E4EEA014E10EB3B
:101030000E0041EB1141401841F100014FEAD00090
:1010400040EA41704FEAD10110EB80054FEA81047C
:1010500044EA907444EB01046D1944EB0404521B00
:10106000A3414FF0000348BF0A3200D530BD401CF9
:1010700041F1000130BD00002DE9F0411F4604465A
:1010800003260168072A01F4006004DB08B116A5F5
:1010900005E016A503E008B115A500E015A521F0AF
:1010A00010002060A069C01EA0610FB1401EA061A9
:1010B0002046FFF75FF94FB1D4E901213846904748
:1010C000206A401C2062C01C206206E0206AFAE709
:1010D000D4E9012115F8010B9047761EF8D220467D
:1010E000FFF75EF9BDE8F0814E414E006E616E0083
:1010F000494E4600696E66002DE9F0478146164666
:101100008AB0334878440DC88DE80D0030487844E3
:10111000801C03AC0DC884E80D0041F69B300844E8
:10112000372190FBF1F290FBF1F5A5F1800501FB71
:1011300012041B3C02D56442012000E00020DFF8CD
:1011400090A080460027FA44AAF1BE0A0DE0E0070D
:1011500009D03246684607EB47010AEB810100F0EF
:1011600071FB8DE8070064107F1C002CEFD1184F35
:101170007F44AC3F18E0E80714D007EB04100DF1F2
:10118000180A90E80E008AE80E00C068F04201D10B
:1011900098190890324606A903A800F053FB03AB48
:1011A00083E807006D10641C002DE4D132466946C7
:1011B000B8F1000F03A802D000F030FB01E000F00E
:1011C00041FBC9E90001C9F808200AB0BDE8F08771
:1011D000C4B80000007B00F08000704710B500F03C
:1011E0003BF8BDE8104000F031B8000000487047FF
:1011F000F888002070477546FFF7F8FFAE460500F7
:101200006946534620F00700854618B020B5FFF721
:101210007DF8BDE820404FF000064FF000074FF08A
:1012200000084FF0000B21F00701AC46ACE8C00904
:10123000ACE8C009ACE8C009ACE8C0098D4670470D
:101240000446AFF300802046FEF7EFFF002801D0F0
:10125000FFF7BEBE7047000010B5002102A000F0ED
:1012600053F8012010BD0000534947414252543AFF
:101270002041626E6F726D616C207465726D696E73
:101280006174696F6E0000004FF0013C50F8042B50
:1012900051F8043B9A4221D1A2EB0C03934313EA89
:1012A000CC1317D150F8042B51F8043B9A4215D1B6
:1012B000A2EB0C03934313EACC130BD150F8042B8D
:1012C00051F8043B9A4209D1A2EB0C03934313EA71
:1012D000CC13DBD04FF00000704700BFD01A01BA2A
:1012E000B1FA81F101F0180122FA01F0CB40C1F10D
:1012F0002001DBB2C0B2C01A2CFA01F3D11A91431B
:1013000011EAC311E6D1704770B505460C460A20B4
:1013100000E06D1CFFF754FE35B128780028F8D1A5
:1013200002E0641CFFF74CFE14B120780028F8D1CD
:10133000BDE870400A20FFF743BE5FEA400C08BFDB
:1013400091F0000F4FEA8C234FEAC12243EA51513A
:101350004FEA1C5018BF00F5F0404FEA300018BFAC
:1013600041F000415FEA6C5C00F02980BCF1FF3F76
:1013700008BF40F080407047130C06BF12044FF0C6
:10138000100C4FF0000C130E04BF12020CF1080CED
:10139000130F04BF12010CF1040C930F04BF920051
:1013A0000CF1020CD30F04BF52000CF1010C1146DA
:1013B0004FF00002A0F11F00A0EB0C00704711F0ED
:1013C000004F08BF704731F000413FF4D5AF0B0C20
:1013D00006BF09044FF0100C4FF0000C0B0E04BFB9
:1013E00009020CF1080C0B0F04BF09010CF1040CED
:1013F0008B0F04BF89000CF1020CCB0F04BF490016
:101400000CF1010CCCF12003A0EB0C0022FA03F349
:1014100002FA0CF241EA030100F10100704720F0EA
:101420007F4C80EA030023F07F47ACEB070303F512
:101430007C5300F0004003F1FF032DE980494FEA9F
:10144000154B09B44FEA144325EA0B4E24EA03482E
:101450000FF2042606EB132749083E785FEA3202B2
:1014600003FB0667C7F5000707FB06F64FEA54378C
:101470004FEAD64606F1020607FB066CCCF1005C8B
:101480004FEA1C472CEA074C07FB06F40CFB06F559
:1014900004EB15464FEA961634BF00204FF000408B
:1014A0004FEAD13706FB07FC4FEA1C4C0CFB0BF74D
:1014B000D21B03FB0CF761EB07010CFB0EF7B0EB43
:1014C000074072EB17420CFB08F734BFA2EB074250
:1014D000B2EB074261EB17414FEA0C444FEA910728
:1014E00006FB07FC4FEA1C4C0CFB0BF7B0EBC740AC
:1014F00072EB573203FB0CF734BFA2EBC742B2EBDF
:10150000C74261EB57310CFB0EF7B0EBC70072EB33
:1015100057720CFB08F734BFA2EBC702B2EBC7024D
:1015200061EB5771039F4FEA816141EA921104EB2D
:10153000CC044FEAD1374FEA826206FB07FC42EA4D
:1015400090124FEA80604FEA1C4C0CFB0BF7D21B49
:1015500003FB0CF761EB07010CFB0EF7B0EB074048
:1015600072EB17420CFB08F734BFA2EB0742B2EB59
:10157000074261EB17414FEA8C554FEA910704EBA4
:101580009C2406FB07FC4FEA1C4C0CFB0BF7B0EB52
:10159000C74072EB573203FB0CF734BFA2EBC742D4
:1015A000B2EBC74261EB57310CFB0EF7B0EBC70053
:1015B00072EB57720CFB08F734BFA2EBC702B2EB19
:1015C000C70261EB577115EB4C254FEA816141EA87
:1015D00092114FEA82624FEAD13742EA901206FB3B
:1015E00007FC44F100044FEA80604FEA1C4C0CFBFE
:1015F0000BF7D21B03FB0CF761EB07010CFB0EF79B
:10160000B0EB074072EB17420CFB08F734BFA2EBBC
:101610000742B2EB074261EB174115EB1C154FEA8D
:10162000813141EA92414FEA823242EA90424FEAE6
:1016300080304FEA0C7644F1000448EA03434EEA56
:101640000B484FF0000EB2EB080C71EB030724BF00
:10165000624639464EEB0E0E4FF0000B0018524119
:1016600049414BEB0B0BB2EB080C71EB03077BF121
:10167000000B24BF624639464EEB0E0E4FF0000BB6
:101680000018524149414BEB0B0BB2EB080C71EBCC
:1016900003077BF1000B24BF624639464EEB0E0E6A
:1016A00051EA020718BF46F0010616EB0E7655F117
:1016B000000254F1000103D5BDE88901BDE80088AE
:1016C000BDE88901BDE80048B619524141EB01016E
:1016D000A3F10103704780807F7E7D7C7B7A7978DF
:1016E000777676757473727171706F6E6E6D6C6CE7
:1016F0006B6A6A6968686766666564646363626189
:101700006160605F5F5E5E5D5D5C5C5B5B5A5A5909
:101710005958585757565655555554545353525275
:101720005251515050504F4F4F4E4E4D4D4D4C4CCD
:101730004C4B4B4B4A4A4A49494948484847474716
:101740004746464645454544444444434343434253
:10175000424242414141002B26D4770021D01CB5A2
:101760004FEA370703B44FF010004FF010014FF06D
:1017700000000FBCBDE810400BF1010BBBF1010FE5
:1017800008BF5FEA170722BF12F1010211F1010140
:101790004FF0004143F1000300F0004043EA000035
:1017A0007047F9D35708DAE746EA064613F1400FC7
:1017B0004FEA16461FDD13F1200FDFBF16430A461E
:1017C000002120335B42C8D0C3F1200746EA064619
:1017D00002FA07F74FEA164646EA0706C3F1200762
:1017E00022FA03F201FA07F721FA03F14FF000039E
:1017F00042EA0702B1E746EA020646EA06464FEA2F
:10180000164646EA0106BCBF46EA0646360C4FF0CD
:1018100000034FF000024FF000019EE72DE9C048A1
:10182000934630B491E8380007C831EA400C48BF0D
:1018300034EA430C03D5FFF7F2FDFFF78CFFF0BC51
:10184000BDE800882DE9C048934630B491E83800DF
:1018500007C810F0804F08BF13F0804F03D100F08D
:1018600005F8FFF778FFF0BCBDE8008820F07F475F
:1018700080EA030023F07F4C07EB0C03A3F57C53B5
:1018800000F00040A3F1FE0392F0000F00F0B380DF
:1018900095F0000F00F077802DE901494FEA1140E3
:1018A0004FEA144621EA004800FB06FC24EA0647FA
:1018B00008FB06F607FB08F800FB07F718EB0648DD
:1018C0004CEB164C4FEA124B18EB07484FEA154603
:1018D0004CEB174022EA0B4E0BFB06FC25EA0647B1
:1018E0000EFB06F607FB0EFE0BFB07F71EEB064E84
:1018F0004CEB164C4FF000061EEB074E4CEB174B13
:1019000018EB0B0840F1000018EB0E0B58EB000829
:1019100040F100008F1A4FF000013CBFC943661B25
:1019200014BFB5EB040C00213CBFC943F61B4FEAC2
:1019300017444EEA8E0E27EA04454FEA1C4704FB83
:1019400007622CEA074C05FB07F70CFB05F604FBC6
:101950000CFC16EB074642EB174216EB0C4642EB2B
:101960001C421BEB060658EB0202414146EA9E066A
:1019700001D5BDE80189B619524141EB0101A3F13E
:101980000103BDE801894FEA14454FEA114724EAF3
:10199000054621EA074C05FB07F406FB07F70CFB9D
:1019A00006F105FB0CFC11EB074144EB17444FEA31
:1019B000124711EB0C4144EB1C4422EA074C05FB97
:1019C00007F206FB07F70CFB06F605FB0CFC16EB13
:1019D000074642EB174216EB0C4642EB1C456A18D1
:1019E00054F1000148BF7047B619524141EB010163
:1019F000A3F10103704795F0000F37D04FEA114271
:101A00004FEA144721EA024624EA074C02FB07F199
:101A100006FB07F70CFB06F402FB0CFC14EB074477
:101A200041EB17414FEA154714EB0C4441EB1C41C5
:101A300025EA074C02FB07F506FB07F70CFB06F649
:101A400002FB0CFC16EB074645EB174516EB0C4664
:101A500045EB1C42121951F1000148BF7047B619FD
:101A6000524141EB0101A3F1010370474FEA1445D4
:101A70004FEA114724EA054621EA074C05FB07F126
:101A800006FB07F70CFB06F24FF0000605FB0CFC0B
:101A900012EB074241EB174112EB0C4251EB1C4198
:101AA00048BF7047921841EB0101A3F10103704751
:101AB00010B54FF40871084800F030F8012804D13F
:101AC000054800F027F8054908804FF408710248DE
:101AD00000F006F810BD0000002801406002002060
:101AE00000220A12D3430360704721B1826842F09A
:101AF0000102826003E0826822F001028260704786
:101B0000014600208A6802F004020AB1012000E0C8
:101B1000002070470146C86C80B2704770B502461D
:101B20000020002300240B125568CEB205EA0604FB
:101B300015681D4015B10CB1012000E0002070BDFA
:101B4000014600208A6802F008020AB1012000E084
:101B50000020704710B50023CBB21AB144681C4373
:101B6000446002E044689C43446010BD30B50246C6
:101B70000020002350680F4C20400D790C6844EA87
:101B800005242043506090680B4C2040D1E902545A
:101B90002C434D7944EA450420439060D06A20F4F8
:101BA00070000C7C641EE4B2234340EA0350D06210
:101BB00030BD0000FFFEF0FFFDF7F1FFF0B5044679
:101BC0000D4600200021092D11DDE068A5F10A066F
:101BD00006EB4607072606FA07F18843A5F10A0631
:101BE00006EB460603FA06F10843E0600CE02069C4
:101BF00005EB4507072606FA07F1884305EB45067E
:101C000003FA06F108432061072A0FDA606B561EBB
:101C100006EB86071F2606FA07F18843561E06EBD9
:101C2000860605FA06F10843606322E00D2A0FDA02
:101C3000206BD61F06EB86071F2606FA07F188439E
:101C4000D61F06EB860605FA06F10843206310E06E
:101C5000E06AA2F10D0606EB86071F2606FA07F1D9
:101C60008843A2F10D0606EB860605FA06F1084345
:101C7000E062F0BD816841F008018160704721B1E8
:101C8000826842F4A002826003E0826822F4A0022B
:101C900082607047816841F00401816070470000F4
:101CA00008B50121102001F0D3FB0120ADF80000A0
:101CB00000208DF803006946014800F0DBFD08BDF7
:101CC0000010014010B5FFF7EBFF00F001F810BD68
:101CD00000B585B00121880201F0BAFB0020009018
:101CE0008DF8040001208DF805004FF4602002906B
:101CF0000020039001208DF8100069461748FFF777
:101D000035FF4FF4404001F087FB052301220A21F3
:101D10001248FFF753FF01224FF408710F48FFF7F5
:101D200019FF01210D48FFF7E0FE0C48FFF7A2FF65
:101D300000BF0A48FFF704FF0028FAD10748FFF761
:101D4000A9FF00BF0548FFF7DBFE0028FAD10121FB
:101D50000248FFF794FF05B000BD000000280140D5
:101D600010B500F013F800BF012341F2883203A13F
:101D700003A008F0F5F80028F6D110BD4F4B000085
:101D800041542B534C4545500D0A000010B5032417
:101D90000FE01021094800F001FE4FF4FA7003F043
:101DA00067F91021054800F0FBFD4FF4FA7003F0CD
:101DB0005FF92000A4F10104EBD110BD001801402F
:101DC00000BFFEE710B500F015FE36E003F002FAA2
:101DD0001F4801681FA0FEF7ABFA1D480068401CB1
:101DE0001B49086001F0CEF94FF47A7003F040F916
:101DF00017480068242820DD17A0FEF799FA002074
:101E0000134908601C480068401C1B4908600846CC
:101E10000068022811DD19A0FEF78AFA00BF1B48EE
:101E2000006800F4E0601A490843001D1749086083
:101E3000BFF3408F00BF00BFFEE7164800680028D0
:101E4000C4D011A0FEF774FA01F0BAF910BD000079
:101E500070030020202564000D0A444843502047A9
:101E60004554204950204661696C2C5761697420A3
:101E700052657472790D0A007403002053797374EB
:101E8000656D2052657365740D0A00000CED00E06D
:101E90000000FA058402002010B568480068F0B11F
:101EA0006648006802281AD865480068642816D178
:101EB0006448006800EB8000400063490860084601
:101EC000016862A0FEF734FA04F094FE002067492E
:101ED00008606749086067490860594908605748C1
:101EE000006802281ED9554800680A281AD85448A4
:101EF0000068912816D15348006800EB800040002C
:101F0000514908600846016850A0FEF711FA04F034
:101F100071FE002055490860554908605549086020
:101F200047490860454800680A281ED943480068A8
:101F30001E281AD842480068C82816D141480068AF
:101F400000EB8000400040490860084601683FA05F
:101F5000FEF7EEF904F04EFE0020444908604449C3
:101F600008604449086036490860344800681E2803
:101F70001ED93248006864281AD831480068DC2825
:101F800016D13048006800EB800040002E49086000
:101F9000084601682DA0FEF7CBF904F02BFE0020C7
:101FA00032490860324908603249086024490860B3
:101FB0002248006864281ED920480068C8281AD81A
:101FC0001F480068F02816D11E48006800EB80000A
:101FD00040001D490860084601681CA0FEF7A8F9EA
:101FE00004F008FE002021490860214908602149C9
:101FF00008601349086011480068C8281BD91048B8
:102000000068B0F58C7F16D10E48006800EB8000A8
:1020100040000D4908600846016817A0FEF788F9DE
:1020200004F0E8FD002011490860114908601149D9
:102030000860034908600448006810BD00020020E1
:102040005802002040020020340200202D2D2D2DAA
:102050002D2D2D2D2D3E3E3E3E3E3E3A4475737451
:1020600035333D256C640D0A000000005402002049
:1020700044020020500200202D2D2D2D2D2D2D2D20
:102080002D3E3E3E3E3E3E3A447573743238303DFE
:10209000256C640D0A00000070470000002007E076
:1020A00005490A5C054B00F11C0123F81120401C76
:1020B0001028F5DB70470000DA8800203406002085
:1020C00010B511212B48FEF709FC0D212A48FEF717
:1020D00005FC2AA12F48FEF727FB002848D0102234
:1020E0002C4915312348FEF742FC0C2229492631A0
:1020F0002148FEF73CFC002001F08EFD102200215B
:102100001C4801F021FC0C2220211B4801F01CFC82
:102110004FF47A7007F056FC06F0EAFF4FF47A703D
:1021200007F050FC4FF4004001F076FD0122D1038E
:10213000194801F009FC3C211648FEF7CFFB0D4978
:1021400016A0FEF7F5F80C491AA0FEF7F1F807F013
:102150002DF800BF1D48006800F4E0601C490843EA
:10216000001D1A490860BFF3408F00BF00BFFEE7A3
:1021700010BD000092040020A304002041542B57FE
:10218000524954455F4445564943455F434F4E4687
:1021900023000000963200209104002057726974D9
:1021A000655F4465766963655F49443A25730D0A46
:1021B0000000000057726974655F44657669636565
:1021C0005F4D41433A25730D0A0000000CED00E01D
:1021D0000000FA0501480068704700004002002036
:1021E000012080F3108800BF7047002080F3108822
:1021F00000BF70474FF4006000F062F800282BD059
:1022000000201D4902F0EAFE4FF400611B4800F077
:10221000BCFB012803D11AA0FEF78AF81CE00020BD
:102220001B4902F0DBFE00201A4902F0D7FE002015
:10223000174902F0D3FE0020154902F0CFFE4FF4FB
:1022400000610E4800F0A1FB30B913A0FEF770F852
:1022500000F0BCF800F0C8FA00BF1748006800F4AE
:10226000E06016490843001D13490860BFF3408F22
:1022700000BF00BFFEE70000F8FF07410008014073
:102280000D0AB0B4BCFCB8B4CEBB0D0A000000000F
:10229000FCFF1341F8FF0F410D0ACCF8D7AAD6C1B5
:1022A000494150A1AAA1AA426F6F744C6F61646545
:1022B00072B3CCD0F20D0A000CED00E00000FA057C
:1022C000014600200022074B1B6803EA0102054B70
:1022D00014331B680B4013B10AB1012000E0002049
:1022E0007047000000040140002123498279002A40
:1022F0003AD00A46126803689A430B461A600A1DD0
:10230000126803689A430B1D1A60027911440A6827
:1023100003681A430A60184A0832126803689A432D
:10232000154B08331A601A1D126803689A43124B42
:102330000C331A604279102A0ED11A1F12680368F2
:102340001A430D4B08331A601A1D126803681A43AA
:10235000094B0C331A600DE00749427911440A68B1
:1023600003681A430A6005E0027911440A680368A9
:102370009A430A6070470000000401400EB5012135
:10238000052001F065F800F0BAFF4FF40060ADF8E9
:10239000080004208DF80B0002A90B4800F06AFA2F
:1023A0000B21002000F046FA4FF40060009000205E
:1023B0008DF804000C208DF8050001208DF8060032
:1023C0006846FFF791FF0EBD0008014010B54FF4BD
:1023D000104001F021FC08224FF41041014801F0A7
:1023E000B3FA10BD7104002008B503F0F1FE05F04A
:1023F0001DFD06F09BFC1149114806F00FFD11A0D0
:10240000FDF796FF1C48C07800901B4883784278FF
:1024100001781AA0FDF78CFF1E4801881EA0FDF769
:1024200087FF21A0FDF784FF2EA0FDF781FF32A0DA
:10243000FDF77EFFFFF7C6FC08BD00003C0300204F
:10244000340300200D0AB5E7C4D4D7F7CEAA54430D
:1024500050B7FECEF1C6F72CC8C35735353030D74C
:10246000F7CEAA20544350BFCDBBA7B6CBC8A5C159
:10247000ACBDD30D0A0000005C030020B7FECEF116
:10248000C6F749503A25642E25642E25642E25640E
:102490000D0A000060030020BCE0CCFDB6CBBFDA23
:1024A0003A2564200D0A0000C1ACBDD3B3C9B9A65A
:1024B000BAF3A3ACB7FECEF1C6F7B7A2CBCDCAFD37
:1024C000BEDDB8F85735353030A3AC573535303030
:1024D000BDABB7B5BBD8B6D4D3A6CAFDBEDD0D0A19
:1024E00000000000D3A6D3C3B3CCD0F2D6B4D0D072
:1024F000D6D00D0A00000000506C6561736520574E
:102500006169742061626F75742033332073656371
:102510006F6E640D0A00000010B509A10D48FEF7AA
:1025200003F958B10C490DA0FDF702FF0A4803F06A
:1025300053FD4FF480610748FEF7D0F910BD00004D
:102540005345525645525F53454E445F44415441B2
:10255000000000003E260020BC0400200D0A536548
:102560006E643A25730D0A002DE9F0479048007813
:102570001F2805DD00208E49087001208D49087054
:102580008C48007801287CD18B4800684228FAD119
:10259000894840684D28F6D1002086490870864851
:1025A0000068854949680844834989680844824924
:1025B000C96808448049096908447F494969084451
:1025C0007D49896908447C49C96908447A49096A8E
:1025D00008447949496A08447749896A0844764930
:1025E000C96A08447449096B08447349496B084433
:1025F0007149896B08447049C96B08446E49096C7C
:1026000008446D49496C08446B49896C08446A491F
:10261000C96C08446849096D08446749496D084414
:102620006549896D08446449C96D08446249096E69
:1026300008446149496E08445F49896E08445E490F
:10264000C96E08445C49096F08445B49496F00EB57
:10265000010A5948C06F5849896F40EA0120504526
:1026600091D1554890F8300054490870524890F87C
:102670003400534908700978504A127841EA022020
:1026800000E090E009F050FE4E4908604A48C06CF6
:102690004949896C40EA01204B490860202146489D
:1026A000FEF73EF9484800684849494A126841F82F
:1026B0002200474800681C2804D245480068401C96
:1026C0004349086043480068642801D142490860D2
:1026D00040480068912801D13F4908603D480068A2
:1026E000C82801D13C4908603A480068DC2801D17B
:1026F0003949086037480068F02801D13649086038
:1027000034480068B0F58C7F03D14FF48C703249A7
:10271000086030480068401C2E4908602C4800685A
:102720001C2840D12D480068E8BB01202B490860D7
:1027300000202B4908602B49086022E0234A2949E0
:102740000968491C52F82110264B1B6852F82320B7
:10275000881A09F0FBFA21F0004504462048006879
:1027600009F0F4FA064622462B4609F02BF880467B
:1027700009F0A8FA1A4908601A480068401C19496B
:10278000086013480068401E164909688842D5D879
:102790001C210E48FEF7C4F8114800681B21B0FB4D
:1027A000F1F00F49086008480068BDE8F0870000B4
:1027B0002C0200204C0200200812002038020020C9
:1027C000390200203C020020400200209811002025
:1027D0004402002050020020580200205402002031
:1027E00000020020C001002010B54FF4805001F01D
:1027F00013FA09224FF48051064801F0A5F8092286
:102800004FF48051044801F075F8034903A0FDF727
:102810008FFD10BD37040020348600200D0AB6C19C
:10282000B3F6B5C4CAFDBEDDCEAAAAA325730D0AB0
:102830000000000030B500228B071C0F0F2303FAA5
:1028400004F20B4B8C1053F824309343084C8D103A
:1028500044F8253023468C1053F824308C07240F7D
:1028600000FA04F42343024C8D1044F8253030BDA7
:10287000080001402DE9F041024600250026002015
:1028800000230024002791F803C00CF00F0591F8F5
:1028900003C00CF0100CBCF1000F03D091F802C083
:1028A0004CEA050591F800C0BCF1000F31D0146866
:1028B00000202BE04FF0010C0CFA00F3B1F800C03F
:1028C0000CEA03069E4220D183004FF00F0C0CFA55
:1028D00003F7BC4305FA03FC4CEA040491F803C077
:1028E000BCF1280F06D14FF0010C0CFA00FCC2F825
:1028F00014C00AE091F803C0BCF1480F05D14FF0B5
:10290000010C0CFA00FCC2F810C0401C0828D1D3FE
:102910001460B1F800C0BCF1FF0F34DD5468002032
:102920002EE000F1080C4FF0010808FA0CF3B1F8A2
:1029300000C00CEA03069E4221D183004FF00F0C29
:102940000CFA03F7BC4305FA03FC4CEA040491F8C3
:1029500003C0BCF1280F05D100F1080C08FA0CF8EF
:10296000C2F8148091F803C0BCF1480F07D100F100
:10297000080C4FF0010808FA0CF8C2F81080401C4F
:102980000828CED35460BDE8F08102460020936849
:102990000B400BB1012000E00020704741617047FF
:1029A0000161704710B50D4909780D4A127801EBA5
:1029B000022009F0B9FC0B4908600B4909780B4A61
:1029C000127801EB022009F0AFFC094908600022EF
:1029D0001146104601F07CFB10BD00009806002057
:1029E000980700206C01002098080020980900201A
:1029F0007001002010B500F0E3FB4FF400710448B3
:102A0000FFF7CCFF4FF480610148FFF7C7FF10BD0F
:102A10000018014000BFFEE770B50223E5228021C7
:102A2000434800F0D3F8424800784249086008461D
:102A30000068642190FBF1F03F4908603D48006860
:102A4000642190FBF1F201FB12003A49086038481A
:102A500040783A490860384909684FF4C84201FB98
:102A600002F009F05CF9364A03C232490968334A78
:102A7000126802EB012009F052F9324A03C23048D1
:102A80000CC80020304909F0B1F9044600222F4B50
:102A900008F054FF2A4A03C22A480CC800202A49D9
:102AA00009F0A4F904460022284B08F047FF254A04
:102AB00003C2244822490CC803C908F083FE244AF3
:102AC00003C20022234B224903C909F0CFFA204A4E
:102AD00003C21F48D0E900101F4AC2E900101F4A74
:102AE0001F4B1B4903C909F081F904461D4A1E4BBF
:102AF00009F0BCFA164A03C200221C4B144903C950
:102B000009F072FA04D200211848114AC2E90010F3
:102B1000002213460E4903C909F02CF903D2002103
:102B20000B4A116051600A4903C908F019FE70BDD3
:102B3000980C002078010020800100207C010020FA
:102B4000900100209801002000405F400000F0400C
:102B50008801002000001840A00100205C8FC2F511
:102B6000285CF73F46B6F3FDD4F815400000594005
:102B700021B1028842F48062028004E002884FF6AC
:102B8000FF331A400280704770B5024600240025CA
:102B900000230020958A138B1B0445EA030626F0C8
:102BA0007F4404EA01068E4201D1012000E00020AA
:102BB00070BD21B1028842F00102028004E0028867
:102BC0004FF6FE731A400280704700002DE9F04175
:102BD00005460F4616461C464FF4A030644908606F
:102BE0000AE063490868411E614A116020B9092062
:102BF00000F05EFABDE8F0814FF400315D4800F06E
:102C000091F90028EDD101215A4800F073F94FF4F1
:102C100080505749086009E055490868411E544AE8
:102C2000116018B90A2000F043FAE3E7524951480D
:102C3000FFF7AAFF0028EFD0002239464D4800F0E8
:102C40002BFA4FF480504A49086009E04849086867
:102C5000411E474A116018B90B2000F029FAC9E754
:102C600046494448FFF790FF0028EFD00121414832
:102C7000FFF79FFF31463F4800F017FA4FF48050AE
:102C80003B49086009E03A490868411E384A11602A
:102C900018B90C2000F00CFAACE73849891C35480B
:102CA000FFF772FF0028EED00121324800F022F930
:102CB0004FF480502E49086009E02D490868411EF4
:102CC0002B4A116018B90D2000F0F2F992E72A4959
:102CD0002848FFF759FF0028EFD001223946254840
:102CE00000F0DAF94FF480502149086009E02049EA
:102CF0000868411E1E4A116018B90E2000F0D8F96C
:102D000078E71D49491C1B48FFF73EFF0028EED01D
:102D100026E0012C07D100211648FFF729FF0121E9
:102D2000144800F0F3F84FF4A0301149086009E0AE
:102D30000F490868411E0E4A116018B9032000F0BF
:102D4000B7F957E70C493F310A48FFF71DFF002844
:102D5000EED0084800F09CF928706D1C601E84B20B
:102D6000002CD6D101210348FFF702FF012041E7E3
:102D7000800300200054004001000300820007008F
:102D800070B504460E46154601213C4800F0B2F8E5
:102D90004FF480503A4908600CE039490868411EF8
:102DA000374A116018B9002000F082F970BD002088
:102DB0003449086034493148FFF7E6FE0028ECD07A
:102DC000002231462D4800F067F94FF480502C491D
:102DD00008600CE02A490868411E294A116018B9A8
:102DE000012000F065F9E1E7012026490860274944
:102DF0002248FFF7C9FE0028ECD029461F4800F002
:102E000054F94FF480501E4908600CE01C490868D2
:102E1000411E1B4A116018B9022000F049F9C5E7AC
:102E20000220184908601949891C1448FFF7ACFEB4
:102E30000028EBD02178114800F037F94FF480508A
:102E40000F4908600CE00E490868411E0C4A1160E9
:102E500018B9032000F02CF9A8E7032009490860FD
:102E60000A49891C0548FFF78FFE0028EBD0012195
:102E7000024800F04BF8012098E7000000540040A1
:102E8000800300208403002001000300820007006B
:102E900010B500F009F800F0D9F840200149088089
:102EA00010BD00007C03002008B50121480500F09A
:102EB000BFFA0121082000F0CBFA4020ADF8000055
:102EC00003208DF802001C208DF803006946084895
:102ED000FFF7D0FC8020ADF8000003208DF8020041
:102EE0001C208DF8030069460148FFF7C3FC08BDAC
:102EF000000C014021B1028842F48072028004E09B
:102F000002884FF6FF631A400280704721B10288A1
:102F100042F40072028004E002884FF6FF531A4028
:102F2000028070470CB502460020002301930093F5
:102F300000920B0F019321F07F41019B1BB1009B7D
:102F40001433009303E0090C009B18330093009B9B
:102F50001B680B400BB1012000E000200CBD0000FD
:102F60002DE9F04385B004460D460026B1460427FE
:102F7000DFF8CC80A6884FF6C0700640684600F0A7
:102F800077FADDF808802F48B8FBF0F01FFA80F9D7
:102F900046EA0906A68020884FF6FE710840208088
:102FA00000262949286888420CD828684000B8FBC8
:102FB000F0F087B2042F00DA04273E4309F1010044
:102FC000208427E0E8884BF6FF71884206D1286804
:102FD00000EB4000B8FBF0F087B209E0286800EB96
:102FE000C00101EB0010B8FBF0F087B247F4804756
:102FF000C7F30B0008B947F0010747F40040064348
:103000004FF4967009FB00F04FF47A7190FBF1F0E9
:10301000401C2084A683208840F001002080268860
:103020004FF6F5300640A888698908430643268094
:10303000A88929890843208105B0BDE8F0830000F4
:1030400000127A0040420F00A08601001FB5002048
:10305000ADF804004BF6FF70ADF806000A20ADF89D
:1030600008004FF48060ADF80A000001ADF80C00D4
:103070000548009069460548FFF772FF01210348A3
:10308000FFF797FD1FBD0000A0860100005400401F
:103090000146088AC0B2704712B141F0010102E056
:1030A0004FF6FE731940018270470182704700009D
:1030B00010B50446214602A0FDF73AF9002010BDE4
:1030C00049324320776169742074696D6F7574208B
:1030D000216572726F72436F6465203D2025640024
:1030E00070B50446002503F0ABF8C4F3074000F0C8
:1030F00010F8C4F3072000F00CF804F0F80000F01A
:1031000008F8002000F005F8054603F09EF8284670
:1031100070BD10B50446204600F0A2FD10BD70B58C
:1031200004460D4603F08CF8C4F30740FFF7F1FFA7
:10313000C4F30720FFF7EDFF04F0F801091DC8B242
:10314000FFF7E7FF2846FFF7E4FF03F07EF870BDC6
:1031500070B505460C4645F2555000F02BF8284650
:1031600000F01CF8204600F01FF800F00FF800F007
:1031700001F870BD4CF6CC40014908607047000072
:103180000030004010B500F001F810BD4AF6AA204A
:103190000149086070470000003000400149486064
:1031A000704700000030004001498860704700000F
:1031B00000300040014908607047000000300040C6
:1031C00010B54FF480710748FFF7EAFB4FF4007128
:1031D0000448FFF7E5FB4FF480610248FFF7E0FB8E
:1031E00010BD0000001801404FF0000823E003F07C
:1031F000C5FB064608F066FD00F0FF0800F056F833
:10320000044600F067F8054641460BA0FDF790F82C
:1032100021460CA0FDF78CF829460EA0FDF788F892
:103220001048C0F8008010480460104805604FF452
:10323000FA7006F0C7FBDAE74E6F6973653A2564EA
:103240000D0A00006D6F74696F6E313A25640D0AC6
:10325000000000006D6F74696F6E323A25640D0ACC
:1032600000000000000500200405002008050020E3
:1032700000BFFEE70AE006A0FDF75AF801F030FEB5
:1032800002F07EFC4FF4FA7006F09CFBF3E70000BE
:10329000D6B4D0D04D6F64627573CAFDBEDDC9CFA0
:1032A000B4ABC8CECEF10D0A0000000010B510215D
:1032B0000648FFF76AFB012802D10549087002E0C1
:1032C0000020034908700248007810BD001001403A
:1032D0007803002010B520210648FFF756FB01288F
:1032E00002D10549087002E0002003490870024835
:1032F000007810BD0010014079030020704708B528
:1033000028208DF8000003208DF8010001208DF8A1
:1033100002008DF80300684600F002F808BD0000C6
:1033200070B5002100230F22C47804B3154C246823
:1033300004F4E064C4F5E064210AC1F10403CA4066
:10334000447804FA03F184781440214309010E4CB7
:103350000678A155047804F01F050124AC400578D7
:103360006D11AD0005F1E025C5F8004109E00478D4
:1033700004F01F050124AC40044D0678761145F891
:10338000264070BD0CED00E000E400E080E100E0CC
:1033900002490143024A1160704700000000FA052B
:1033A0000CED00E0024A0A400243024B1A607047EB
:1033B00080FFFF1F08ED00E010B562B60349C802A8
:1033C000FFF7F0FF01480249086010BD0000010846
:1033D00008ED00E010B503F035FC0121094801F0CB
:1033E00036FA03F007FC0021064801F030FA01220A
:1033F00040F22551034801F06DFA0121014801F026
:1034000026FA10BD004C004010B50248006808F0D4
:103410004FFF10BD3C02002001460020034A5068C7
:1034200020F4404008435060704700000010024004
:1034300029B1064AD2690243044BDA6104E0034A27
:10344000D2698243014BDA617047000000100240EC
:1034500029B1064A92690243044B9A6104E0034A87
:1034600092698243014B9A6170470000001002404C
:1034700030B500210022002400232D4D6D6805F099
:103480000C0121B1042905D0082923D105E0294DDB
:10349000056022E0274D05601FE0254D6D6805F4AD
:1034A0007012234D6D6805F48034022505EB9242BD
:1034B0001CB9214D554305600BE01D4D6D6805F4A9
:1034C00000351DB11C4D5543056002E0194D5543B3
:1034D000056002E0174D056000BF00BF144D6D6828
:1034E00005F0F0010909154D6B5C0568DD4045608C
:1034F0000F4D6D6805F4E061090A104D6B5C45687D
:10350000DD4085600A4D6D6805F46051C90A0B4DB8
:103510006B5C4568DD40C560054D6D6805F4404154
:10352000890B074D6B5CC568B5FBF3F5056130BDD4
:103530000010024000127A0000093D002000002027
:103540003000002008B501215020FFF781FF302016
:10355000ADF8000048208DF8030003208DF802002C
:1035600069461448FFF786F94FF4E060ADF80000B3
:1035700010208DF8030003208DF8020069460E48E4
:10358000FFF778F94FF480710B48FFF709FA4FF411
:1035900000710948FFF704FA4FF480610648FFF70D
:1035A000FFF910210348FFF7F9F920210148FFF73F
:1035B000F5F908BD001001400018014010B516A132
:1035C0001B48FDF7B1F8002825D01AA0FCF7B0FE83
:1035D000322001F04DFD04F097FA1022002122481C
:1035E00000F088F90C222021204800F083F91E49C0
:1035F0001FA0FCF79DFE2B4801782BA0FCF798FE3E
:103600001A4936A0FCF794FE322001F031FD404803
:10361000006806F0C9FB10BD41542B524541445F80
:103620004445564943455F434F4E46230000000042
:10363000963200202A2A2A2A2A2A2A2A2A2A2A2AAA
:103640002A2A2A44455649434520494E464F2A2AAC
:103650002A2A2A2A2A2A2A2A2A2A2A2A2A2A2A2ACA
:103660002A2A0D0A00000000DA880020EB880020DA
:103670002A20204465766963652020202049443A49
:1036800025732020202020202020202020202020E2
:103690002020202020202020202020202020200D3D
:1036A0000A000000900400202A2020446576696307
:1036B000652020414444523A2564202020202020C7
:1036C00020202020202020202020202020202020FA
:1036D000202020202020200D0A0000002A20204544
:1036E000746865726E6574204D41433A25732020DD
:1036F00020202020202020202020202020202020CA
:1037000020202020202020202020200D0A00000042
:103710001800002010B504F0F7F9102200210D4820
:1037200000F0E8F8FEF7BAFC0C2220210A4800F06D
:10373000E1F805F03BFD074908A0FCF7F9FD0C484E
:1037400001780CA0FCF7F4FD03490FA0FCF7F0FD95
:1037500010BD0000DA880020EB88002044657669FF
:1037600063652020202049443A25730D0A0000009B
:1037700090040020446576696365202041444452EA
:103780003A25640D0A00000045746865726E657420
:10379000204D41433A25730D0A00000000B587B063
:1037A00001218803FFF744FE01214CF20800FFF7D6
:1037B0004FFE4FF48050ADF8040003208DF8060052
:1037C00010208DF8070001A92448FFF753F84FF4A3
:1037D0000050ADF8040018208DF8070001A91F481B
:1037E000FFF748F84FF48040ADF8040001A91B48EA
:1037F000FFF740F84FF40040ADF8040001A9174866
:10380000FFF738F84FF480511448FFF7C9F800204B
:10381000ADF808004FF48270ADF80A000020ADF852
:103820000C000220ADF80E000120ADF8100040029F
:10383000ADF812000820ADF814000020ADF8160015
:103840000720ADF8180002A9054800F061FA01212F
:10385000034800F043F807B000BD0000000C014031
:103860000038004010B504464FF4805019490860F4
:103870000AE018490868411E164A116020B9002064
:1038800000F064FAC0B210BD0221134800F032FA11
:103890000028EED02146104800F038FA4FF480504E
:1038A0000C4908600AE00B490868411E094A11608A
:1038B00020B9012000F04AFAC0B2E4E7012106482D
:1038C00000F018FA0028EED0034800F01CFAC0B24D
:1038D000D9E70000200400200038004021B1028810
:1038E00042F04002028004E002884FF6BF731A40A3
:1038F0000280704770B505460C4616464FF480515D
:103900001048FFF74BF80320FFF7ACFFC4F3074064
:10391000FFF7A8FFC4F30720FFF7A4FFE0B2FFF70B
:10392000A1FF04E0FF20FFF79DFF28706D1C300011
:10393000A6F101018EB2F5D14FF480510148FFF795
:103940002FF870BD000C01402DE9F05F07460E46D0
:1039500014464FF00008C146C2460025AB4606F0AB
:10396000FF0ACAF10000C5B22046E11704EB11615D
:10397000C1F30728E11704EB11610912A4EB01213F
:1039800001F0FF09BAF1000F20D1B8F1000F05D105
:1039900022463146384600F0EFF864E009E04FF483
:1039A00080723146384600F0E7F806F5807607F574
:1039B00080775FEA0800A8F1010101F0FF08EED16D
:1039C0004A463146384600F0D7F84CE0B8F1000FCF
:1039D00018D1A94510DDA9EB050000F0FF0B2A4620
:1039E0003146384600F0C8F82E442F445A46314636
:1039F000384600F0C1F836E022463146384600F03D
:103A0000BBF830E0601B84B22046E11704EB116183
:103A1000C1F30728E11704EB11610912A4EB01219E
:103A200001F0FF092A463146384600F0A5F82E4439
:103A30002F4409E04FF480723146384600F09CF87C
:103A400006F5807607F580775FEA0800A8F10101A6
:103A500001F0FF08EED1B9F1000F04D04A4631461B
:103A6000384600F089F8BDE8F09F000000B587B047
:103A700001217420FFF7ECFC01210803FFF7E8FCAB
:103A80002020ADF8040003208DF8060018208DF8E2
:103A9000070001A93548FEF7EDFE4020ADF804000F
:103AA00001A93248FEF7E6FE8020ADF8040001A926
:103AB0002E48FEF7DFFE1020ADF804008DF8070059
:103AC00001A92A48FEF7D6FE1020ADF804008DF8B3
:103AD000070001A92648FEF7CDFE40F60270ADF8BA
:103AE000040010208DF8070001A92148FEF7C2FE4E
:103AF0004FF480711E48FEF753FF4FF400711C48CD
:103B0000FEF74EFF4FF480611948FEF749FF02218E
:103B10001748FEF743FF4FF400611548FEF73EFFDC
:103B20000020ADF808004FF48270ADF80A000020C4
:103B3000ADF80C000220ADF80E000120ADF8100029
:103B40004002ADF812000820ADF814000020ADF8D6
:103B500016000720ADF8180002A9064800F0D8F8B2
:103B600001210448FFF7BAFE07B000BD000801407C
:103B7000001801400030014070B505460C4616465D
:103B800000F0A6F84FF480511548FEF707FF022019
:103B9000FFF768FEC4F30740FFF764FEC4F3072095
:103BA000FFF760FEE0B2FFF75DFEB6F5807F04DD53
:103BB0004FF480760BA0FCF7BBFB03E02878FFF7FF
:103BC00051FE6D1C3000A6F101018EB2F6D14FF40A
:103BD00080510348FEF7E4FE00F05EF870BD00007F
:103BE000000C01403C3C2D464C4153482D4552525F
:103BF0004F522D3E3E205350495F464C4153485F43
:103C000050616765577269746520746F6F206C61CD
:103C1000726765210A00000010B5044600F058F8EC
:103C200000F03AF84FF480510C48FEF7B7FE202020
:103C3000FFF718FEC4F30740FFF714FEC4F3072094
:103C4000FFF710FEE0B2FFF70DFE4FF4805103487E
:103C5000FEF7A6FE00F020F810BD0000000C0140A9
:103C600010B5044600BF02210A4800F043F80028BE
:103C7000F9D02146074800F049F800BF0121054866
:103C800000F038F80028F9D0024800F03CF8C0B243
:103C900010BD00000030014010B500244FF48051E9
:103CA0000A48FEF77BFE0520FFF7DCFD00BFFF2082
:103CB000FFF7D8FD044604F001000028F7D14FF4C7
:103CC00080510248FEF76CFE10BD0000000C014060
:103CD00010B54FF480510648FEF760FE0620FFF74E
:103CE000C1FD4FF480510248FEF75AFE10BD00009E
:103CF000000C01400246002013890B400BB101204B
:103D000000E0002070470146888970478181704734
:103D100010B50022028802F441520B884C882343DC
:103D20008C882343CC8823430C8923434C89234329
:103D30008C892343CC8923431A430280838B4FF21F
:103D4000FF74234083830B8A038210BD10B50446A1
:103D5000214602A0FCF7ECFA002010BD3C3C2D46A9
:103D60004C4153482D4552524F522D3E3E20535008
:103D70004920B5C8B4FDB3ACCAB1216572726F7287
:103D8000436F6465203D2025640A000010B500F0F3
:103D900001F810BD0CB50020019000903348006878
:103DA00040F480303149086000BF3048006800F4BA
:103DB000003000900198401C0190009818B90198BB
:103DC000B0F5A06FF1D12948006800F4003010B1BF
:103DD0000120009001E0002000900098012843D1CC
:103DE0002348006840F01000214908600846006838
:103DF00020F0030008600846006840F002000860F8
:103E00001A484068194948600846406848600846B2
:103E1000406840F4806048600846406820F47C10A8
:103E200048600846406840F4E8104860084600686A
:103E300040F08070086000BF0C48006800F000701F
:103E40000028F9D00948406820F00300074948607D
:103E50000846406840F00200486000BF03484068E0
:103E600000F00C000828F9D10CBD00000010024041
:103E700000200240042808D14FF0E021096941F0F8
:103E800004014FF0E022116107E04FF0E0210969E1
:103E900021F004014FF0E0221161704710B507F0E6
:103EA0003BF9012801D006F0BDFD10BD10B5134847
:103EB000006840F001001149086008464068104958
:103EC00008400E494860084600680E4908400B4902
:103ED00008600846006820F48020086008464068B2
:103EE00020F4FE0048604FF41F008860FFF74EFF8B
:103EF0004FF000600449086010BD0000001002404F
:103F00000000FFF8FFFFF6FE08ED00E00EB501210E
:103F10000846FFF78DFA4FF47A70ADF80400472099
:103F2000ADF800000020ADF80600ADF802006946CB
:103F30004FF0804000F07AF80121880700F048F83F
:103F400001221146900700F066F80121880700F071
:103F500045F800210120FFF76BFA0EBD10B50121D5
:103F6000880700F047F828B105F080FA012188079A
:103F700000F031F810BD08B51C208DF800000120BC
:103F80008DF8010003208DF8020001208DF8030058
:103F90006846FFF7C5F908BD10B50121054800F0D6
:103FA00029F828B10121034800F015F803F082FC3C
:103FB00010BD00000008004021B1028842F08002DC
:103FC000028004E002884FF67F731A400280704737
:103FD000CA4302827047CA430282704721B10288F5
:103FE00042F00102028004E002884FF6FE731A409C
:103FF0000280704730B50246002000230024158A55
:1040000005EA0103958905EA010413B10CB1012009
:1040100000E0002030BD1AB183890B43838102E0A8
:1040200083898B4383817047818470470022028893
:104030001D4B98420ED01D4B98420BD0B0F1804FD3
:1040400008D01B4B984205D01A4B984202D01A4B0D
:10405000984204D14FF68F731A404B881A43174B7E
:10406000984207D0164B984204D04FF6FF431A40AF
:10407000CB881A4302808B8883850B8803850A4B83
:1040800098420BD0094B984208D00E4B984205D06D
:104090000D4B984202D00D4B984201D10B7A03860A
:1040A0000123838270470000002C0140003401404E
:1040B0000004004000080040000C004000100040D8
:1040C000001400400040014000440140004801400D
:1040D00070B504460D46164615B1012D0AD104E00F
:1040E00047F217509849086009E040F6E770964992
:1040F000086004E04FF480609349086000BF00BF8F
:1041000024B99148006800018F4908608F48006811
:1041100008F0EAF880B28C4909684843800A8C4963
:1041200008608C48006808F0DFF880B286490968AA
:104130004843800A8849086000208849086084480C
:10414000006840B184480068800281490968B0FB7A
:10415000F1F08249086081480068401C40088049AD
:10416000086016B1012E6BD16BE07D480068002815
:104170000CDB7B480068402808DC4FF4F970794973
:1041800008604FF4DF707849086059E074480068AF
:10419000802808DC4FF405707249086040F2D12095
:1041A000714908604CE06E480068C02808DC40F2A5
:1041B0003F206C49086040F27B306B4908603FE06B
:1041C00067480068B0F5807F08DC4FF41C706549D3
:1041D000086040F2FE306449086031E060480068E1
:1041E000B0F59C7F08DC40F26F105E4908604FF428
:1041F000FE705D49086023E059480068B0F5CD7F46
:1042000006DCD22057490860FB205749086017E0B8
:104210005348006840F29A21884206DC1820514930
:1042200008601220504908600AE04D48006840F2DA
:104230009A21884204DD00204A4908604A49086002
:1042400060E04748006800280CDB454800684328C8
:1042500008DC4FF401704349086040F2AD10424958
:1042600008604FE03E480068852808DC4FF40A707B
:104270003C49086040F2C1203B49086042E03848B0
:104280000068C82808DC40F253203649086040F234
:1042900063303549086035E031480068B0F5857F06
:1042A00008DC40F282202F49086040F2DF302E49BE
:1042B000086027E02A480068B0F5A77F08DA40F2D6
:1042C00077102849086040F2DD102749086019E09E
:1042D00023480068B0F5CD7F08DC40F20110214989
:1042E000086040F22710204908600BE01C48006875
:1042F00040F29A21884205DC37201A4908602B20B9
:104300001949086000BF1248006816490968484307
:1043100011490968144A126801FB12001349086028
:1043200008460068002801DA002008600F4800688D
:1043300000F500500D4908600846006880130C49DC
:1043400008600846006870BD340100206C01002040
:104350003C010020700100203801002040010020B5
:104360005401002044010020480100204C0100209D
:104370005001002008B501214020FFF769F840F600
:104380000200ADF8000010208DF8030003208DF826
:10439000020069460448FEF76DFA40F60201024841
:1043A000FEF7FCFA08BD00000018014010B5FFF749
:1043B000E1FF4FF4967000F05BFE80225221074827
:1043C000FEF7DEFC812252210548FEF7D9FC862249
:1043D00052210448FEF7D4FC10BD00005901002012
:1043E0005A0100205B01002010B502238C225221CB
:1043F0000A48FEF7EBFB01238D2252210848FEF705
:10440000E5FB01238E2252210648FEF7DFFB012344
:104410008F2252210448FEF7D9FB10BD98060020D8
:1044200098070020980800209809002010B5FFF791
:10443000DBFFFEF7B7FA0148006810BD500100200D
:104440002DE9F0470223E32280213148FEF7BEFB2D
:104450002F48007800022F4908602D4840782E49E7
:1044600008602C4909682C4A1268881807F074FF04
:104470002A4908600846006807F0E2FE8046284A9C
:10448000284B07F0B3FC06460022274B07F056FAEC
:10449000044607F065F9254908600846006807F0FA
:1044A000CFFE0646224A234B07F0E0FD044607F004
:1044B00057F91E490860084600681F4908601B48F4
:1044C000006807F0BDFE06461C4A1D4B07F08EFC37
:1044D00004461C4A1C4B07F0C9FD804607F040F912
:1044E0001249086019491148006808F049F802D2D9
:1044F00016480E49086016490C48006807F040FF4E
:1045000002D213480949086008480068BDE8F087EE
:10451000980A0020A8010020AC010020B40100206E
:10452000D7A3703D0AF765400000F040B0010020BD
:10453000CDCCCCCCCC6C4740B8010020713D0AD723
:10454000A370F03FED9E3C2CD49A1A400000C84264
:10455000000020C200B587B00121C804FEF768FF43
:1045600001211020FEF774FF18208DF80B004FF486
:104570008060ADF8080003208DF80A0002A91848F1
:10458000FEF778F904208DF80B004002ADF8080022
:1045900002A91348FEF76EF94FF41650039000205D
:1045A000ADF818000C20ADF816000020ADF814008E
:1045B000ADF81200ADF8100003A90A4800F0B0F9F8
:1045C00034208DF8040001208DF8070002208DF8BA
:1045D00005008DF8060001A8FEF7A2FE07B000BD99
:1045E00000100140004C004010B510E020210C48A4
:1045F00000F004F90A4800F0FFF90A490A4A127863
:1046000041F8220008480078401C07490870202122
:10461000034800F028F90028E8D1FDF7A5FF10BDF8
:10462000004C0040081200202C02002008B540F287
:104630002551094800F024F960B12021064800F016
:10464000DDF8054800F0D8F9C0B20090694603488B
:10465000FCF7EBF808BD000000500040962A00204F
:1046600008B50CE02021154800F0C8F8134800F008
:10467000C3F9C0B2009069461148FCF7D6F840F281
:1046800025510E4800F0FCF80028EBD10DA10C4894
:10469000FCF74AF880B10EA0FBF74AFE124800680A
:1046A00006F056FF012C07D134B120070F490860EE
:1046B000BFF34F8FBFF36F8F08BD0000003801407C
:1046C0009632002041542B4F50454E2300000000ED
:1046D000B2CECAFDC5E4D6C3C8CECEF1D2D1BFAAF0
:1046E000C6F40D0A000000001800002004ED00E0F0
:1046F00010B540F22551144800F0C2F8012806D147
:1047000003F0E0F840F225510F4800F080F840F245
:1047100026610D4800F0B4F8012806D103F0DAF85C
:1047200040F22661084800F072F80821064800F0BF
:104730009AF8012806D10821034800F05FF80248E2
:1047400000F05AF910BD00000048004000B587B0E5
:1047500001210805FEF76CFE01213020FEF778FEEE
:104760004FF48050ADF8180018208DF81B0003207E
:104770008DF81A0006A91E48FEF77CF80420ADF853
:1047800018008DF81B0006A91A48FEF773F84FF4BD
:10479000165002900020ADF80C00ADF80E00ADF8F8
:1047A0001000ADF814000C20ADF8120002A9124858
:1047B00000F0B6F84FF4A060FEF7EAFD35208DF862
:1047C000040000208DF805008DF8060001208DF80A
:1047D000070001A8FEF7A4FD012240F2255106487A
:1047E00000F078F80121044800F031F807B000BD6E
:1047F00000100140001401400050004001F400721C
:10480000B2F5007F00D100BFCA430280704710B5E7
:104810000022002340F66A14A14200D100BF0A1210
:1048200001249440A3B2DC43048010BD10B50246BD
:104830000020108A4FF2FF0318400B884C88234356
:104840008C882343CC8823431843108210BD21B1A8
:10485000828942F40052828104E082894DF6FF731E
:104860001A408281704702460020B1F5007F00D1D6
:1048700000BF13880B400BB1012000E000207047FF
:1048800070B50246002400230025002040F66A1679
:10489000B14200D100BFC1F3421501F01F03012650
:1048A00006FA03F3012D02D19689334006E0022D6A
:1048B00002D1168A334001E0968A33400C12012659
:1048C00006FA04F41688344013B10CB1012000E05C
:1048D000002070BDF0B5034600240026002500200E
:1048E00040F66A17B94200D100BF1846C1F342141E
:1048F00001F01F06012707FA06F5012C01D10C3043
:1049000004E0022C01D1103000E014301AB1076825
:104910002F43076002E00768AF430760F0BD000067
:104920002DE9F04786B005460E460024A24600BF9A
:10493000A1460027B08900B100BF2F462C8A4CF653
:10494000FF700440F08804432C82AC894EF6F310CB
:104950000440B08831890843718908430443AC811D
:10496000AC8A4FF6FF400440B0890443AC8201A8F2
:10497000FEF77EFD1F48874202D1DDF810A001E05E
:10498000DDF80CA0A88900F4004040B10AEBCA0091
:1049900000EB0A1031684900B0FBF1F807E00AEBC0
:1049A000CA0000EB0A1031688900B0FBF1F86420FE
:1049B000B8FBF0F004012009642101FB1089A889EB
:1049C00000F4004040B1322000EBC900B0FBF1F030
:1049D00000F00700044308E0322000EB09106421D6
:1049E000B0FBF1F000F00F0004432C8106B0BDE8ED
:1049F000F08700000038014001468888C0F30800B5
:104A00007047C1F308028280704700BFFEE70000D4
:104A100010B50EA11248FBF787FEA8B1102210496D
:104A200012311048FBF7A3FF0020FFF7F5F8102222
:104A300000210C48FEF788FF0A490BA0FBF778FC21
:104A40000F48006805F0B0F910BD000041542B5725
:104A5000524954455F4445564943455F4944000027
:104A6000963200209204002057726974655F446595
:104A7000766963655F49443A25730D0A00000000BA
:104A800018000020490050EAC12018BF04204A0D38
:104A900018BF40F0010040F2FF72B2EB515F08BF57
:104AA00040F00200012808BF052070472DE9F041C1
:104AB0004F1E00EBC7010446D1E9000115461E4612
:104AC00037F006020DD02A46334607F08FF97F1ED5
:104AD00004EBC703D3E9002306F074FE37F00602A7
:104AE000F1D1022F25D0042F13D0062F18BFBDE817
:104AF000F0812A46334607F079F9D4E90A2306F013
:104B000061FE2A46334607F071F9D4E9082306F01E
:104B100059FE2A46334607F069F9D4E9062306F020
:104B200051FE2A46334607F061F9D4E9042306F022
:104B300049FE2A46334607F059F9D4E9022306F024
:104B400041FE2A46334607F051F9D4E90023BDE877
:104B5000F04106F037BE000000221346104601491E
:104B600006F0ECBE0000F03F012207F06EBD00220F
:104B700013461046114606F0E1BE30380A2801D22D
:104B8000012070470020704710B51B4800780328AB
:104B900026DA1A4800681A49096888422AD900208A
:104BA0001649086008460068401D1549086012480B
:104BB0000078401C1049087012480078012804D081
:104BC000022805D0042809D105E003F0BBF906E06E
:104BD00003F06AFC03E003F067FC00E000BF09E0BB
:104BE00003F00EF901200849087003F0ABF9012029
:104BF0000449087010BD0000AD02002068030020C9
:104C0000B4020020AC020020AE02002070B50546C0
:104C10000024284601F0A9FA48B1284601F07BFAA1
:104C2000061E0DDD304601F02DFF044608E000238E
:104C300044220221032004F08FF808B9012070BD3E
:104C400044480078052875D2DFE800F003111E39CA
:104C5000570000204049087003F0D2F803F072F9C1
:104C600000203E49087001203A49087066E0022C95
:104C700007D103F0C5F803F017FC0220354908708E
:104C800001E0FFF781FF59E0052C0DD103F0B8F8E2
:104C900000F070F818B103202E490870CFE701200A
:104CA0002C4908700420CAE7062C05D103F0A8F8A7
:104CB00001202849087001E0FFF766FF3EE0284820
:104CC0000068401CC0B12748006825490968B0EB5E
:104CD000510F11D90024244824490968096801604A
:104CE00023480068401C2249086003F0DDFB0420D3
:104CF0001849087003F084F820E0052C0ED1042236
:104D00001A4801681848FBF721FD08B1032096E70F
:104D100003F076F803200F4908700AE0062C06D14C
:104D200003F06EF801200B49087002E002E0FFF783
:104D30002BFF03E000200749087000BF00BF0648B2
:104D40000078012804D1002002490870022076E78B
:104D5000002074E7AC020020AE020020BC0200205C
:104D6000B002002068030020A80200209C0200205E
:104D7000C002002008B541F2883000900748112297
:104D800007A10368032003F0CBFD20B1012003F04D
:104D90003DFA002008BD0120FCE700009C02002035
:104DA000434845434B5F49505F434F4E464C494350
:104DB0005400000010B504464FF4847101EB441018
:104DC0001021FEF7ACF900BF4FF4847101EB4410E1
:104DD000FEF786F90028F7D14FF4027101EB441079
:104DE000FF21FEF79CF910BD2DE9F04105460C4668
:104DF00016462078FF2808D16078FF2805D1A078D2
:104E0000FF2802D1E078FF2808D0207828B9607800
:104E100018B9A07808B9E07800B10EB900275CE0B5
:104E20000127217840F6084202EB4510FEF777F99A
:104E3000617840F6085202EB4510FEF770F9A17850
:104E400040F6086202EB4510FEF769F9E17840F69A
:104E5000087202EB4510FEF762F9310A41F20802CE
:104E600002EB4510FEF75BF9F1B241F2081202EBDA
:104E70004510FEF754F94FF4847101EB45100421FD
:104E8000FEF74DF900BF4FF4847101EB4510FEF7BA
:104E900027F90028F7D117E04FF4427101EB4510D4
:104EA000FEF71EF9172800D116E0284601F02AF96E
:104EB00000F0080040B14FF4027101EB45100821E9
:104EC000FEF72DF9002707E04FF4427101EB451082
:104ED000FEF706F91528DFD100BF3846BDE8F0819E
:104EE00010B500203049488041208880C020C8800B
:104EF000A8200881012048810F2088812B48007854
:104F0000C8812A4840780882284880784882274803
:104F1000C078888225480079C8822448407908836F
:104F2000234800684FF6FF7101EA20401E4948837C
:104F30001F48008888831F480088C8831E4800884F
:104F400008841E4800884884002088841C491D4825
:104F5000006807F049FA044607F0C6F91249C88408
:104F600017491948006807F03FFA044607F0BCF9F2
:104F70000D49088500204885888514480088C88523
:104F800013480088088600204886888611480088D3
:104F9000C88611480078A1F858002C21024801F079
:104FA000B3F901F05FF810BD34060020440300207F
:104FB00034020020F004002000050020F40400204A
:104FC0000000C842F8040020FC0400200405002072
:104FD000080500208C040020900400202DE9F047F3
:104FE00004460D4600BFA046A9460022084B2046B5
:104FF000294607F03BF804460D4646460022134674
:105000003046494606F0F2FDEDD1BDE8F0870000DC
:105010000000F03F10B50420FEF72CFF1048006898
:105020001049B0FBF1F0104908700D4800680D49B7
:10503000B0FBF1F44FF47A70444301200B4908802F
:105040004FF0E020006940F002004FF0E0210861DD
:1050500008464461006940F00100086110BD00008D
:105060003400002040420F00FC030020FE0300201B
:1050700070B5044606F050F8012810D00B4800889F
:10508000844206D309480088B4FBF0F5284604F0B2
:1050900099FC06480088B4FBF0F100FB11444FF482
:1050A0007A7104FB01F000F003F870BDFE030020EC
:1050B00070B5034600224FF0E02675690D4E367834
:1050C00003FB06F44FF0E026B16910E04FF0E02654
:1050D000B06988420BD0884202D20E1A324402E0F4
:1050E0002E1A0E4432440146A24200D300E0EDE7FE
:1050F00000BF70BDFC03002038B5122400202849F1
:1051000008600CE02748005D30382749244A1268BF
:105110008854641C22480068401C214908602148CA
:10512000005D3B28EED11E480068012804D002280B
:1051300007D0032820D10FE01B4800781B490870D6
:105140001BE0194840781849097801EB810100EB10
:1051500041001649087010E0134800786421484364
:105160001149497801EB810100EB41000E49897832
:1051700008440E49087000E000BF00BF0B480178EA
:105180000BA0FBF7D5F800204FF416530122009036
:1051900006480178002000F051FC00F0ABF938BD62
:1051A000B404002096320020B004002091040020B6
:1051B0006465766963655F616464725F7772697460
:1051C000655F6275663D25640D0A000010B504F048
:1051D00043F910BD10B5002401201B490870FFF7EA
:1051E000F5FF1A480078012804D101F039F80020B1
:1051F000164908700320FFF709FD044634B1022C5C
:1052000005D0032C04D0042C1BD10DE01AE019E0CA
:1052100001200F49087003F03FFC0EA0FBF788F84F
:105220000120144908600DE013A0FBF781F800206D
:105230001749087017A0FBF77BF800200449087095
:1052400000E000BF00BF10BD62030020BD020020CF
:105250006303002020D2D1B4D344484350B7FECEDC
:10526000F1C6F7B3C9B9A6BBF1B5C34950B5D8D695
:10527000B70D0A008402002020B4D344484350BB39
:10528000F1C8A14950B5D8D6B7CAA7B0DC0D0A00FD
:10529000AC02002020D6D8CAD4D6D00D0A00000017
:1052A00010B5012000F061FF30B1132810D017288D
:1052B00015D01C2834D12FE01A4802880088401CE1
:1052C000184B188020230121084603F045FD27E0F4
:1052D0001548028815490120FFF786FD20E00120CE
:1052E00000F010FF00F0010018B10121084603F0A2
:1052F000C7FB012000F00FFF0D4908800846008819
:10530000002808DD03200B490860094802880A4983
:10531000012002F009FC03E00120FFF74BFD00BF74
:1053200000BF10BD5A030020600300205C03002072
:1053300030030020C80200203E2600202DE9F04165
:1053400080460C4615461E460027FCF749FF0A20FA
:105350000B490870334607222946204605F028F9F4
:10536000012801D0032706E044F6206005F0B8F9D3
:10537000012800D00327FCF738FF3846BDE8F0814C
:10538000270100202DE9F04104460D46164600276E
:10539000FCF726FF13480088FF2800DC04E09D226C
:1053A00011A119A0FBF780F90E480088032813DB30
:1053B0000C4801881E48006802F06BFA60B91C486E
:1053C00000680078207007480088801E30801848E8
:1053D0000068401C286000E00527FCF706FF3846FF
:1053E000BDE8F0811C0100202E2E5C5372635C6DC1
:1053F0006F646275735C61736369695C6D6261732C
:105400006369692E630000007573526376427566A6
:10541000666572506F73203C204D425F5345525F6A
:105420005044555F53495A455F4D415800000000B4
:10543000180100202DE9F04104460D4616464FF0B4
:105440000008FCF7CDFE1748007818BB681E164907
:105450000860012015490880134800680470084658
:10546000008830440880084601880F48006802F030
:1054700010FA07460D490888411C0C4A11800C4956
:1054800009680F5401200B4908700121002004F025
:10549000C3F801E04FF00508FCF7A7FE4046BDE861
:1054A000F0810000150100202001002024010020CF
:1054B000180100201401002010B5FCF791FE002116
:1054C000012004F0A9F8002003490870FCF78DFEC4
:1054D000002005F057F810BD1501002010B5FCF7AD
:1054E0007FFE0021084604F097F804F0CBF8FCF7A3
:1054F0007CFE10BD10B5002406480078012806D1B6
:1055000005480068804700200249087000E0062432
:10551000204610BD5E000020640000202DE9F05FF1
:1055200006460D464FF0000B2888052848D17078B4
:105530004FEA0029B07840EA090909F101001FFA91
:1055400080F9F078040230790443012C35DBB4F59E
:10555000FA6F32DA374600202880012007F8010B65
:105560002888401C288004F0070040B12046E1173D
:1055700004EB5171C910491C01F0FF0805E02046F9
:10558000E11704EB5171C1F3C70807F8018B2888B4
:10559000401C2880002322464946384600F086FCFD
:1055A0008246BAF1000F04D0504602F025F9834636
:1055B00008E028884044288004E04FF0030B01E015
:1055C0004FF0030B5846BDE8F09F2DE9F05F06460B
:1055D0000D464FF0000B2888052847D170784FEA18
:1055E0000029B07840EA090909F101001FFA80F9A1
:1055F000F078040230790443012C34DBB4F5FA6FFF
:1056000031DA374600202880022007F8010B28886D
:10561000401C288004F0070040B12046E11704EB4D
:105620005171C910491C01F0FF0805E02046E1173F
:1056300004EB5171C1F3C70807F8018B2888401C9F
:10564000288022464946384600F034FC8246BAF1AA
:10565000000F04D0504602F0CFF8834608E02888B7
:105660004044288004E04FF0030B01E04FF0030BAF
:105670005846BDE8F09F2DE9F04705460C464FF02F
:10568000000A2088052837D168784FEA0028A878D2
:1056900040EA080808F101001FFA80F8E8780602DD
:1056A0002E79012E25DB7D2E23DC2F460020208045
:1056B000032007F8010B2088401C20807006000E94
:1056C00007F8010B2088401C208000233246414609
:1056D000384600F0F3FB8146B9F1000F04D048468C
:1056E00002F08AF8824609E0208800EB460020801C
:1056F00004E04FF0030A01E04FF0030A5046BDE812
:10570000F0872DE9F04705460C464FF0000A208847
:10571000052837D168784FEA0028A87840EA0808B9
:1057200008F101001FFA80F8E8780602287906439C
:10573000012E24DB7D2E22DA2F460020208004203B
:1057400007F8010B2088401C20807006000E07F827
:10575000010B2088401C208032464146384600F02C
:10576000F7FB8146B9F1000F04D0484602F044F837
:10577000824609E0208800EB4600208004E04FF0DC
:10578000030A01E04FF0030A5046BDE8F0872DE917
:10579000FC5F04460D460020009028880A285DDB47
:1057A00060784FEA002AA07840EA0A0A0AF101006C
:1057B0001FFA80FAE07806022079064360794FEA02
:1057C000002BA07940EA0B0B0BF101001FFA80FBC4
:1057D000E0790702207A0743607A0190012E3BDBD3
:1057E0007D2E39DC012F37DB792F35DC79000198EC
:1057F000814231D101233A46594604F10A0000F0B2
:105800005DFB8146B9F1000F1ED1A0460020288023
:10581000172008F8010B2888401C28807006000E0D
:1058200008F8010B2888401C288000233246514686
:10583000404600F043FB8146B9F1000F04D12888AF
:10584000022101FB06002880B9F1000F06D048466E
:1058500001F0D2FF009001E0032000900098BDE825
:10586000FC9F000070B505460C46064802880649B4
:10587000681CFAF7E6FF03480088401C20800020DF
:1058800070BD000048000020140500202DE9F843F9
:1058900004460F464FF000083888052829D1607863
:1058A0000502A0780543681C85B22079F0B9E0783C
:1058B000FF2801D0E078C8B900208DF80100E07819
:1058C000FF2803D101208DF8000002E000208DF8B0
:1058D000000001231A462946684600F0E7FA06460A
:1058E0004EB1304601F088FF804604E04FF00308D7
:1058F00001E04FF003084046BDE8F8832DE9F04190
:1059000004460F464FF000083888052812D1607809
:105910000502A0780543681C85B201231A46294672
:10592000E01C00F0CBFA064636B1304601F064FFC9
:10593000804601E04FF003084046BDE8F0812DE9C4
:10594000F05F05460E464FF0000B3088052839DD24
:1059500068780702A8780743781C87B2E8780402C1
:105960002879044395F805A004F0070040B12046CB
:10597000E11704EB5171C910491C01F0FF0805E063
:105980002046E11704EB5171C1F3C708012C16DB67
:10599000B4F5F66F13DCD04511D101232246394608
:1059A000A81D00F083FA8146B9F1000F04D04846E3
:1059B00001F022FF834607E00520308004E04FF02D
:1059C000030B01E04FF0030B5846BDE8F09F2DE9B3
:1059D000F04704460E464FF0000A3088062828DBC0
:1059E00060780702A0780743781C87B2E078050248
:1059F0002079054394F80590012D17DB782D15DCEF
:105A00006806000E484511D101232A463946A01DDB
:105A100000F054FA8046B8F1000F04D0404601F07F
:105A2000EBFE824607E00520308004E04FF0030AD9
:105A300001E04FF0030A5046BDE8F0872DE9F0473A
:105A400005460C4616461F46DDF820904FF000082C
:105A50001CB1012C01DBF72C02DD4FF0020859E0EC
:105A60002E48047015B1012D42D120E02C482D495B
:105A700008602D482D4908602D482E4908602E48A1
:105A80002E49086000202E4908602E482E490860E3
:105A90002E482F4908602F482F4908604B463A4648
:105AA00031461E48007800F007F9804623E02B4875
:105AB0001C4908602A481D4908602A481D49086099
:105AC00029481E49086000201D49086027481E49D2
:105AD000086027481E49086026481F4908604B4651
