:020000040800F2
:1000000020F7002065010008493600084B3600083B
:100010004F3600085336000857360008000000002D
:100020000000000000000000000000005B36000837
:100030005D360008000000005F36000861360008E9
:100040007F0100087F0100087F0100087F01000890
:100050007F0100087F0100087F0100087F01000880
:100060007F0100087F0100087F0100087F01000870
:100070007F0100087F0100087F0100087F01000860
:100080007F0100087F0100086F4800087F01000819
:100090007F0100087F0100087F0100087F01000840
:1000A0007F0100087F0100087F0100087F01000830
:1000B000633600087F0100087F0100087F01000807
:1000C0007F0100087F0100087F0100087F01000810
:1000D0007F010008B5420008A7430008CB43000891
:1000E000555200087F0100087F0100087F010008C9
:1000F0007F0100087F0100087F0100087F010008E0
:100100007F0100087F0100087F0100087F010008CF
:10011000BB8D0008E54500087F0100087F0100084D
:100120007F0100087F0100087F0100087F010008AF
:10013000DFF80CD009F08AFD00480047333300088F
:1001400020F70020EFF30980704780F3098870479B
:10015000EFF30880704780F30888704740BA704713
:10016000C0BA70470648804706480047FEE7FEE7EA
:10017000FEE7FEE7FEE7FEE7FEE7FEE7FEE7FEE757
:1001800067020008310100080CB5002001900090C2
:100190006C48006840F480306A49086000BF6948D4
:1001A000006800F4003000900198401C0190009815
:1001B00018B90198B0F5A06FF1D16248006800F459
:1001C000003010B10120009001E000200090009864
:1001D000012843D15C48006840F010005A4908608B
:1001E0000846006820F0030008600846006840F0F8
:1001F0000200086053484068524948600846406819
:1002000048600846406840F480604860084640689E
:1002100020F47C1048600846406840F4E8104860CC
:100220000846006840F08070086000BF45480068DC
:1002300000F000700028F9D04248406820F0030028
:10024000404948600846406840F00200486000BFEE
:100250003C48406800F00C000828F9D10CBD10B5EE
:10026000FFF792FF10BD10B53648006840F001005E
:1002700034490860084640683449084031494860BC
:1002800008460068324908402E4908600846006860
:1002900020F4802008600846406820F4FE00486092
:1002A0004FF41F008860FFF7DAFF4FF00060294924
:1002B000086010BD10B5002100200022214B5B68B2
:1002C00003F00C0121B1042906D0082928D107E048
:1002D000214B224C236027E01F4B204C236023E05E
:1002E000184B5B6803F47010164B5B6803F48032A4
:1002F000022303EB904022B9194B4343174C236070
:100300000DE0104B5B6803F4003323B1144B4343FF
:10031000124C236003E0104B4343104C236003E076
:100320000D4B0E4C236000BF00BF064B5B68C3F350
:1003300003130C4CE15C094B1B68CB40074C23605A
:1003400010BD000000100240002002400000FFF835
:10035000FFFFF6FE08ED00E000127A00000000202A
:1003600000093D000400002031490143314A116079
:10037000704770B5002100230F22C47804B32D4CC0
:10038000246804F4E064C4F5E064210AC1F10403C4
:10039000CA40447804FA03F18478144021430901E7
:1003A000254C0678A155047804F01F050124AC40C3
:1003B00005786D11AD0005F1E025C5F8004109E0B3
:1003C000047804F01F050124AC401C4D067876111A
:1003D00045F8264070BD1A4A0A400243154B1B1FC0
:1003E0001A60704739B1134A121D12680243114B4B
:1003F0001B1D1A6006E00F4A121D126882430D4B46
:100400001B1D1A607047042808D14FF0E0210969CC
:1004100041F004014FF0E022116107E04FF0E021CC
:10042000096921F004014FF0E022116170470000DA
:100430000000FA050CED00E000E400E080E100E0DF
:1004400080FFFF1F002044490860091D0860091D46
:100450000860091D086041483F4914310860704731
:1004600000213D498279002A3AD00A461268036881
:100470009A430B461A600A1D126803689A430B1DC3
:100480001A60027911440A6803681A430A60324A02
:100490000832126803689A432F4B08331A601A1DFA
:1004A000126803689A432C4B0C331A604279102A65
:1004B0000ED11A1F126803681A43274B08331A60BB
:1004C0001A1D126803681A43234B0C331A600DE09F
:1004D0002149427911440A6803681A430A6005E019
:1004E000027911440A6803689A430A607047002140
:1004F000016001710C214171002181717047164921
:10050000103109680143144A1032116070470146E6
:100510000020114A143212680A400AB1012000E09A
:10052000002070470C4914310860704701460020D4
:100530000022094B1B6803EA0102074B14331B68B6
:100540000B4013B10AB1012000E0002070470249BE
:10055000143108607047000000040140FFFF0F00E5
:1005600010B50446CC48844208D10121042000F093
:100570002DFB0021042000F029FB46E0C7488442FF
:1005800008D10121082000F021FB0021082000F003
:100590001DFB3AE0C248844208D10121102000F03E
:1005A00015FB0021102000F011FB2EE0BD48844215
:1005B00008D10121202000F009FB0021202000F0BB
:1005C00005FB22E0B848844208D10121402000F018
:1005D000FDFA0021402000F0F9FA16E0B348844209
:1005E00008D10121802000F0F1FA0021802000F0E4
:1005F000EDFA0AE0AE48844207D10121801500F0EF
:10060000E5FA0021A01500F0E1FA10BD10B50121B6
:10061000084600F0DBFA0021012000F0D7FA10BDF7
:100620002DE9F04102460025002600200023002489
:10063000002791F803C00CF00F0591F803C00CF0EF
:10064000100CBCF1000F03D091F802C04CEA050574
:1006500091F800C0BCF1000F31D0146800202BE0ED
:100660004FF0010C0CFA00F3B1F800C00CEA0306DD
:100670009E4220D183004FF00F0C0CFA03F7BC43CD
:1006800005FA03FC4CEA040491F803C0BCF1280FFE
:1006900006D14FF0010C0CFA00FCC2F814C00AE0BD
:1006A00091F803C0BCF1480F05D14FF0010C0CFAD2
:1006B00000FCC2F810C0401C0828D1D31460B1F867
:1006C00000C0BCF1FF0F34DD546800202EE000F1C3
:1006D000080C4FF0010808FA0CF3B1F800C00CEA5E
:1006E00003069E4221D183004FF00F0C0CFA03F752
:1006F000BC4305FA03FC4CEA040491F803C0BCF1C6
:10070000280F05D100F1080C08FA0CF8C2F8148083
:1007100091F803C0BCF1480F07D100F1080C4FF06D
:10072000010808FA0CF8C2F81080401C0828CED343
:100730005460BDE8F0814FF6FF71018002218170A5
:100740000421C17070470246002093680B400BB132
:10075000012000E0002070470146886880B27047A1
:1007600002460020D3680B400BB1012000E00020BE
:1007700070470146C86880B27047016170474161A7
:1007800070470AB1016100E041617047C160704784
:100790004FF480320A438261816182618269826999
:1007A000704702460020434B18684FF6807318408C
:1007B00040EA021008433F4B186070473E49C86149
:1007C0007047F0B50A46002300240021002500F000
:1007D0000046B6F1004F02D1364EF16901E0354EC8
:1007E0007168C0F3034583B200F44016B6F5401FAC
:1007F00008D121F070612F4E766826F070662D4F7B
:100800007E6012E000F48016B6F5801F06D1032644
:1008100006FA05F4A14341F0706106E0460D360189
:1008200003FA06F6B14341F0706122B1460D36017C
:1008300003FA06F6314300F00046B6F1004F02D14C
:100840001C4EF16101E01B4E7160F0BD30B500221D
:100850008B071C0F0F2303FA04F2164B08338C107E
:1008600053F824309343134C08348D1044F825304A
:1008700023468C1053F824308C07240F00FA04F41C
:1008800023430C4C08348D1044F8253030BD0A4900
:10089000DC3108607047000000080140000C014096
:1008A000001001400014014000180140001C0140EC
:1008B000002001400000014000002042DF480068A5
:1008C00040F00100DD49086008464068DC49084006
:1008D000DA49486008460068DA490840D7490860A4
:1008E0000846006820F4802008600846406820F42C
:1008F000FE0048604FF41F0088607047CF490968C8
:1009000021F48031CD4A11601146096821F480211B
:100910001160B0F5803F03D0B0F5802F0ED106E016
:10092000C649096841F48031C44A116007E0C349EF
:10093000096841F4A021C14A116000E000BF00BF76
:10094000704710B501460022002300204A11012AF9
:1009500002D1BA4C236806E0022A02D1B74C236ABE
:1009600001E0B64C636A01F01F02012494401C4070
:100970000CB1012000E0002010BD38B5002000902F
:100980000024002500BF3120FFF7DBFF054600985B
:10099000401C00900098B0F5A06F01D0002DF2D05F
:1009A0003120FFF7CEFF08B1012400E000242046EB
:1009B00038BD01460020A14A106820F0F80040EA46
:1009C000C10010607047A0490860704702460020CF
:1009D0009A4B586820F47C1042EA01031843974B65
:1009E0005860704798490866704701460020934A4E
:1009F000506820F003000843506070478F484068FB
:100A000000F00C007047014600208C4A506820F02E
:100A1000F00008435060704701460020874A506844
:100A200020F4E06008435060704701460020834A8C
:100A3000506820F4605040EAC1005060704729B10E
:100A40007E4A527A02437D4B5A7204E07B4A527AC4
:100A500082437A4B5A7270477B49D831086070479D
:100A600001460020754A506820F440400843506019
:100A700070470021714A20321170704A82F82010AC
:100A8000012802D004280AD104E001216B4A203257
:100A9000117005E00521694A2032117000E000BFA5
:100AA00000BF70476949086070476449096A01439B
:100AB000624A11627047654944390860704730B531
:100AC00000210022002400235C4D6D6805F00C011C
:100AD00021B1042905D0082923D105E05C4D05602A
:100AE00022E05B4D05601FE0544D6D6805F4701207
:100AF000524D6D6805F48034022505EB92421CB915
:100B0000544D554305600BE04C4D6D6805F40035C0
:100B10001DB1504D5543056002E04D4D55430560F4
:100B200002E04B4D056000BF00BF444D6D6805F00D
:100B3000F0010909484D6B5C0568DD4045603F4D9B
:100B40006D6805F4E061090A434D6B5C4568DD4062
:100B500085603A4D6D6805F46051C90A3E4D6B5C85
:100B60004568DD40C560354D6D6805F44041890B31
:100B70003A4D6B5CC568B5FBF3F5056130BD29B135
:100B80002E4A526902432D4B5A6104E02B4A5269A6
:100B900082432A4B5A61704729B1284A926902431D
:100BA000264B9A6104E0254A92698243234B9A615D
:100BB000704729B1214AD2690243204BDA6104E02F
:100BC0001E4AD26982431D4BDA61704729B11B4A24
:100BD000D2680243194BDA6004E0184AD2688243B3
:100BE000164BDA60704729B1144A12690243134B5D
:100BF0001A6104E0114A12698243104B1A6170476E
:100C000012494039086070470F49C86470470B4962
:100C1000C87170470948406A40F0807007494862CF
:100C2000704701460020054A92680A400AB1012037
:100C300000E00020704701498872704700100240B0
:100C40000000FFF8FFFFF6FE00004242800442422F
:100C500000127A0000093D0014000020240000204A
:100C600010B50446BE48844208D101218014FFF724
:100C7000ADFF0021A014FFF7A9FF16E0B948844298
:100C800008D101210014FFF7AEFF00212014FFF767
:100C9000AAFF0AE0B448844207D10121C013FFF73C
:100CA000A2FF0021E013FFF79EFF10BD10B5002248
:100CB000028802F441520B884C8823438C882343DA
:100CC000CC8823430C8923434C8923438C892343B9
:100CD000CC8923431A430280838B4FF2FF74234055
:100CE00083830B8A038210BD2DE9F04F85B0054642
:100CF0000C464FF0000902274FF000084FF0010B9F
:100D00000026B246A88B4FF240010840A88302207B
:100D10002884B5F81C90A068022801D100BF38E0F3
:100D2000A08810B94FF0010B01E04FF0020B8D4885
:100D3000854200D100E000BF6846FFF7C0FEDDF845
:100D400000A0E088B0F5007F0AD14FEA1A2000EB3E
:100D500080004000A168B0FBF1F0401D86B20BE0BE
:100D60004FEA4B10BAFBF0F000EB80004000A168A6
:100D7000B0FBF1F0401D86B20A20B6FBF0F606F09B
:100D80000108A6EB0800C0F34F074FF6FF7000EA1A
:100D90000828022F01DBFF2F02DD02274FF0000899
:100DA000E08840EA080038432884A088A1890843E5
:100DB000618808432188084340F4006040EA09093B
:100DC000A5F81C9005B0BDE8F08F0021018041809E
:100DD0008180C180018141818181C181072101829E
:100DE00070470021018041808180C18002218160A3
:100DF00000218181704721B1028842F040020280C7
:100E000004E002884FF6BF731A400280704721B198
:100E1000828B42F48062828304E0828B4FF6FF3340
:100E20001A408283704730B5002400230C1101253D
:100E3000A540ABB21AB185881D43858002E0858844
:100E40009D43858030BD1AB183880B43838002E0C7
:100E500083888B43838070478181704701468889EE
:100E600070474FF6FF62914204D0028842F48072CC
:100E7000028004E002884FF6FF631A400280704748
:100E800021B1828842F00402828004E082884FF619
:100E9000FB731A408280704702884FF2FF731A403A
:100EA000028002880A4302807047018841F4805121
:100EB0000180704721B1028842F40052028004E0B0
:100EC00002884DF6FF731A400280704702460020E8
:100ED000012901D0108B00E0908A70470146088AF2
:100EE0007047B1F5804F04D1028842F480420280FD
:100EF00004E002884BF6FF731A40028070470246F6
:100F0000002013890B400BB1012000E00020704746
:100F1000CA4302817047F0B5024600200024002336
:100F2000002501F00F070126BE40B4B20B110126C7
:100F30009E40B3B2968806EA03051689264016B18C
:100F40000DB1012000E00020F0BD10B5002201F03D
:100F50000F040123A3409AB2D343038110BD0000C4
:100F60000030014000380040003C004010B504460D
:100F7000FE48844208D10121C014FFF727FE00215A
:100F8000E014FFF723FEC4E0B4F1804F08D1012143
:100F90000846FFF728FE00210120FFF724FEB8E0F5
:100FA000F348844208D101210220FFF71CFE0021F2
:100FB0000220FFF718FEACE0EE48844208D1012180
:100FC0000420FFF710FE00210420FFF70CFEA0E034
:100FD000E948844208D101210820FFF704FE0021DE
:100FE0000820FFF700FE94E0E448844208D1012184
:100FF0001020FFF7F8FD00211020FFF7F4FD88E036
:10100000DF48844208D101212020FFF7ECFD0021B8
:101010002020FFF7E8FD7CE0DA48844208D1012176
:101020004014FFF7D3FD00216014FFF7CFFD70E0FF
:10103000D548844209D10121C804FFF7C7FD00212A
:101040004FF40020FFF7C2FD63E0D048844209D18D
:1010500001210805FFF7BAFD00214FF48010FFF7CA
:10106000B5FD56E0CA48844209D101214805FFF781
:10107000ADFD00214FF40010FFF7A8FD49E0C54881
:10108000844208D101214020FFF7ADFD002140201E
:10109000FFF7A9FD3DE0C048844208D1012180202E
:1010A000FFF7A1FD00218020FFF79DFD31E0BB4847
:1010B000844208D101218015FFF795FD0021A0157C
:1010C000FFF791FD25E0B648844209D101210804CB
:1010D000FFF77CFD00214FF48030FFF777FD18E02B
:1010E000B048844209D101214804FFF76FFD002177
:1010F0004FF40030FFF76AFD0BE0AB48844208D1A3
:1011000001218804FFF762FD00214FF48020FFF7E2
:101110005DFD10BD00220288944B98420ED0994B81
:1011200098420BD0B0F1804F08D0914B984205D037
:10113000904B984202D0904B984204D14FF68F7357
:101140001A404B881A438D4B984207D08C4B9842DB
:1011500004D04FF6FF431A40CB881A4302808B8895
:1011600083850B880385814B98420BD0854B984231
:1011700008D08B4B984205D08A4B984202D08A4BBC
:10118000984201D10B7A038601238382704770B5A0
:10119000002400220023058C4FF6FE76354005849E
:1011A000028C8388048B4FF68F752C40B51E2C4023
:1011B0000D882C43751E2A400D892A434D882A43E9
:1011C0006A4DA8420BD06F4DA84208D0744DA8427A
:1011D00005D0744DA84202D0734DA84213D14FF6EA
:1011E000F7752A404D892A434FF6FB752A408D88B2
:1011F0002A434FF6FF652B404FF6FF552B408D8954
:101200002B43CD892B4383800483CD88858602843C
:1012100070BD70B5002400220023058C4FF6EF76D8
:1012200035400584028C8388048B48F6FF752C407A
:101230004FF6FF452C400D884FF6FF7606EA052550
:101240002C434FF6DF752A400D8906EA05152A431F
:101250004D8806EA05152A43444DA84202D0494D5F
:10126000A8421DD14FF67F752A404D894FF6FF7673
:1012700006EA05152A434FF6BF752A408D8806EA0F
:1012800005152A434FF6FF352B404FF2FF752B40D3
:101290008D8906EA85052B43CD8906EA85052B4312
:1012A00083800483CD880587028470BD70B50024D7
:1012B00000220023058C4FF6FF6635400584028C22
:1012C0008388848B4FF68F752C404FF6FC752C402D
:1012D0000D882C434FF6FF552A400D894FF6FF76B7
:1012E00006EA05252A434D8806EA05252A431F4DAF
:1012F000A84202D0234DA8421DD14FF2FF752A40CB
:101300004D894FF6FF7606EA05252A434FF6FF354D
:101310002A408D8806EA05252A434EF6FF752B40A4
:101320004DF6FF752B408D8906EA05152B43CD89B7
:1013300006EA05152B4383808483CD888587028444
:1013400070BD70B5002200230024058C4EF6FF7698
:1013500035400584038C8488828B48F6FF752A40CB
:101360004FF6FF452A400D8820E00000002C014088
:101370000004004000080040000C00400010004045
:101380000014004000340140004C01400050014076
:101390000054014000180040001C004000200040A4
:1013A0000040014000440140004801404FF6FF76F4
:1013B00006EA05252A434DF6FF752B400D8906EAFE
:1013C00005352B434D8806EA05352B43FA4DA842D7
:1013D00002D0FA4DA84208D14BF6FF752C408D89FA
:1013E0004FF6FF7606EA85152C4384808283CD88EC
:1013F000A0F84050038470BD828B4FF2FF331A4037
:101400008283828B4FF6FF7303EA01231A438283A0
:101410007047F0B50C461546002200210026078CC7
:101420004EF6FF7C07EA0C070784828B018C4FF68F
:10143000FF7707EA043640F6FF473A404FF6FF775A
:1014400007EA05273A434FF6FF7707EA03373A439F
:10145000D94FB8420ED0D94FB8420BD0B0F1804F1F
:1014600008D0D74FB84205D0D64FB84202D0D64F99
:10147000B84206D14DF6FF77394046F480573943DC
:1014800005E047F6FF57394044F4805739438283DB
:101490000184F0BD828B4FF6F3731A408283828BF6
:1014A0000A4382837047F0B50C461546002200219E
:1014B0000026078C4FF6FF6C07EA0C070784828B27
:1014C000018C4FF6FF7707EA04264FF60C773A4077
:1014D0004FF6FF7707EA03172F433A43B64FB84258
:1014E0000ED0B64FB8420BD0B0F1804F08D0B44FF9
:1014F000B84205D0B34FB84202D0B34FB84206D17C
:101500004FF6FF57394046F48077394305E04FF2F4
:10151000FF57394044F48077394382830184F0BD1A
:10152000028B4FF2FF331A400283028B4FF6FF7398
:1015300003EA01231A4302837047F0B50C461546AF
:10154000002200210026078C4FF6EF7C07EA0C07EB
:101550000784028B018C4FF6FF7707EA041640F6EA
:10156000FF473A404FF6FF7707EA03373A434FF613
:10157000FF7707EA05273A438F4FB8420ED08F4FC7
:10158000B8420BD0B0F1804F08D08D4FB84205D093
:101590008C4FB84202D08C4FB84206D14FF6DF775D
:1015A000394046F01007394305E04FF65F77394080
:1015B00044F01007394302830184F0BD028B4FF6DB
:1015C000F3731A400283028B0A4302837047F0B51B
:1015D0000C46154600220021068C4FF6FE773E4051
:1015E0000684028B018C4FF60C7632407E1C06EA94
:1015F00003162E433243704EB0420ED06F4EB042AF
:101600000BD0B0F1804F08D06D4EB04205D06D4E7A
:10161000B04202D06C4EB04206D14FF6FD7631405A
:1016200044F00106314305E04FF6F576314044F0D1
:101630000106314302830184F0BD70B505460C46B6
:101640005D4885420ED05D4885420BD0B5F1804F94
:1016500008D05B48854205D05A48854202D05A4896
:10166000854200D100E000BF208850B92389A288BC
:1016700061882846FFF7ABFFE1882846FFF79EFF09
:1016800025E0208804280AD12389A2886188284679
:10169000FFF753FFE1882846FFF742FF17E0208855
:1016A00008280AD12389A28861882846FFF7FBFE13
:1016B000E1882846FFF7EEFE09E02389A2886188C9
:1016C0002846FFF7A6FEE1882846FFF795FE70BD85
:1016D0002DE9F04105460C4600260127608808B92F
:1016E000022600E00026A088012801D1022700E0A0
:1016F00001272088A0B92389A28861882846FFF79E
:1017000066FFE1882846FFF759FF23893A463146AC
:101710002846FFF712FFE1882846FFF701FF13E094
:101720002389A28861882846FFF707FFE1882846B9
:10173000FFF7F6FE23893A4631462846FFF747FF72
:10174000E1882846FFF73AFFBDE8F0810A884B8818
:101750001A438B881A43CB881A430B891A434B8947
:101760001A438B891A43A0F8442070474FF6FF7143
:10177000818000210180C180418001727047002179
:10178000018041808180C180018141818181C1814D
:101790007047002101804180012181800021C180AA
:1017A000018170470021018041808180C1800181D9
:1017B0004181818170470000002C014000340140CC
:1017C0000004004000080040000C004021B10288E5
:1017D00042F00102028004E002884FF6FE731A40D4
:1017E0000280704731B1B0F8442042F40042A0F8C2
:1017F000442005E0B0F84420C2F30E02A0F84420D3
:1018000070471AB183890B43838102E083898B433C
:10181000838170478182704741EA0203A0F8483013
:1018200070471AB183890B43838102E083898B431C
:101830008381704701894FF6F8721140018170472A
:101840000A46002101894FF68F7319401143018127
:10185000704730B504460D4629462046FFF7F0FF95
:10186000208940F00700208130BD2DE9F041044679
:101870000D4616461F46602D06D13B4601223146D5
:101880002046FFF75AFE05E03B460122314620463E
:10189000FFF79DFE29462046FFF7D2FF208940F042
:1018A00007002081BDE8F08130B50C460021018998
:1018B000C9B24FF6FF7505EA0325154325432943B1
:1018C000018130BD2DE9F04105460E461746984688
:1018D000002443463A4631462846FFF7E5FF2C8967
:1018E0004FF6F870044044F007044FF68F70044040
:1018F00044F070042C81BDE8F081F0B504460D463B
:1019000016461F463B46324629462046FFF7CCFF87
:10191000208940F480402081F0BD0185828270479B
:101920000A46002101884FF68F7319401143018048
:101930007047F0B50C4615461E46002100220023D4
:101940000189028B038C4FF6F877394021434FF61B
:10195000FC473A4040F201173A434FF6DD773B40EF
:101960004FF6FF7707EA06172F433B4301810283B7
:101970000384F0BD0A460021018B4FF68F73194096
:101980001143018370470A460021018B48F6FF731B
:1019900019404FF6FF7303EA02231943018370478E
:1019A0000A460021818B4FF68F73194011438183C2
:1019B00070470A460021818B48F6FF7319404FF6A5
:1019C000FF7303EA022319438183704721B1028820
:1019D00042F08002028004E002884FF67F731A40D2
:1019E0000280704721B1828842F00402828004E0C4
:1019F00082884FF6FB731A408280704721B182883B
:101A000042F00802828004E082884FF6F7731A40A1
:101A10008280704721B1828842F00102828004E016
:101A200082884FF6FE731A40828070470A46002172
:101A3000018B4FF6F77319401143018370470A4633
:101A40000021018B4FF2FF7319404FF6FF7303EA39
:101A500002231943018370470A460021818B4FF608
:101A6000F77319401143818370470A460021818B27
:101A70004FF2FF7319404FF6FF7303EA0223194335
:101A8000818370470A460021018B4FF6FB73194092
:101A90001143018370470A460021018B4FF6FF3343
:101AA00019404FF6FF7303EA02231943018370477D
:101AB0000A460021818B4FF6FB7319401143818345
:101AC00070470A460021818B4FF6FF3319404FF6CD
:101AD000FF7303EA02231943818370470A460021FA
:101AE000018B4FF67F7319401143018370470A46FB
:101AF0000021018BC1F30E014FF6FF7303EA0223AD
:101B00001943018370470A460021818B4FF67F738A
:101B100019401143818370470A460021818BC1F32C
:101B20000E014FF6FF7303EA0223194381837047C6
:101B30000A460021018C4FF6FD73194011430184C0
:101B400070470A460021018C4FF6F7731940114384
:101B5000018470470A460021018C4FF6DF7319405B
:101B60004FF6FF7303EA02131943018470470A46D4
:101B70000021018C4FF67F7319404FF6FF7303EA83
:101B800002131943018470470A460021018C4FF665
:101B9000FF5319404FF6FF7303EA022319430184F0
:101BA00070470A460021018C4FF2FF7319404FF62F
:101BB000FF7303EA02231943018470470A46002198
:101BC000018C4DF6FF7319404FF6FF7303EA0233A1
:101BD00019430184704730B5002301248C40A3B21F
:101BE000048C9C430484048C02FA01F5ADB22C43AE
:101BF000048430BD30B5002304248C40A3B2048C8F
:101C00009C430484048C02FA01F5ADB22C43048495
:101C100030BD70B503460020002418461830012559
:101C20008D40ACB21D8CA5431D8409B1082909D192
:101C300000EB6100056825F0700505600568154337
:101C400005600EE00D1FC5F34E052844056825F418
:101C5000E045056005684FF6FF7606EA0226354343
:101C6000056070BD21B1028842F00202028004E0EA
:101C700002884FF6FD731A400280704721B1028836
:101C800042F00402028004E002884FF6FB731A401F
:101C90000280704721B1828842F08002828004E095
:101CA00082884FF67F731A408280704702884FF611
:101CB000F7731A40028002880A43028070478288C4
:101CC0004FF68F731A40828082880A438280704761
:101CD00002894FF6F8731A40028102890A43028191
:101CE000704702894FF67F731A40028102890A43C6
:101CF0000281704781847047818570478186704773
:101D00000187704781877047A0F8401070470288AC
:101D10004FF6FF431A40028002880A430280704750
:101D20000146888E70470146088F70470146888FAC
:101D300070470146B1F8400070470146888C7047F3
:101D40000146088D704702460020138A0B400BB1F4
:101D5000012000E000207047CA430282704730B57E
:101D60000246002000230024158A05EA0103958914
:101D700005EA010413B10CB1012000E0002030BDE0
:101D8000CA4302827047000010B50446FB488442F3
:101D900009D101218803FEF719FF00214FF480408B
:101DA000FEF714FF32E0F648844209D101214804CD
:101DB000FEF719FF00214FF40030FEF714FF25E075
:101DC000F048844209D101218804FEF70CFF00216C
:101DD0004FF48020FEF707FF18E0EB48844209D15A
:101DE0000121C804FEF7FFFE00214FF40020FEF79A
:101DF000FAFE0BE0E548844208D101210805FEF710
:101E0000F2FE00214FF48010FEF7EDFE10BD2DE92B
:101E1000F04786B005460E460024A24600BFA14604
:101E20000027B08900B100BF2F462C8A4CF6FF7006
:101E30000440F08804432C82AC894EF6F310044031
:101E4000B08831890843718908430443AC81AC8A66
:101E50004FF6FF400440B0890443AC8201A8FEF76E
:101E60002EFEC648874202D1DDF810A001E0DDF861
:101E70000CA0A88900F4004040B10AEBCA0000EBB6
:101E80000A1031684900B0FBF1F807E00AEBCA001C
:101E900000EB0A1031688900B0FBF1F86420B8FB50
:101EA000F0F004012009642101FB1089A88900F4E5
:101EB000004040B1322000EBC900B0FBF1F000F06F
:101EC0000700044308E0322000EB09106421B0FB56
:101ED000F1F000F00F0004432C8106B0BDE8F0875C
:101EE0004FF41651016000218180C18001810C21D5
:101EF000418100218181704710B502460020108A7F
:101F00004FF2FF0318400B884C8823438C882343EF
:101F1000CC8823431843108210BD002101804180EA
:101F20008180C180704721B1828942F40052828150
:101F300004E082894DF6FF731A4082817047F0B544
:101F40000346002400260025002040F66A17B94207
:101F500000D100BF1846C1F3421401F01F0601274B
:101F600007FA06F5012C01D10C3004E0022C01D156
:101F7000103000E014301AB107682F43076002E008
:101F80000768AF430760F0BD1AB1838A0B438382B1
:101F900002E0838A8B4383827047028A4FF6F07394
:101FA0001A400282028A0A430282704782894FF2F3
:101FB000FF731A40828182890A438281704721B16E
:101FC000828942F00202828104E082894FF6FD7329
:101FD0001A4082817047028A4FF6DF731A400282EC
:101FE000028A0A430282704721B1028A42F4804287
:101FF000028204E0028A4BF6FF731A4002827047A5
:10200000C1F308028280704701468888C0F3080047
:102010007047818941F0010181817047028BD2B202
:102020000283028B42EA012202837047028B02F490
:102030007F420283028B0A430283704721B1828A66
:1020400042F02002828204E0828A4FF6DF731A4057
:102050008282704721B1828A42F01002828204E0BB
:10206000828A4FF6EF731A408282704721B1828ACA
:1020700042F00802828204E0828A4FF6F7731A4027
:102080008282704721B1828942F40042828103E05A
:102090008289C2F30E028281704721B1828A42F4A2
:1020A0000062828204E0828A4FF2FF731A408282C9
:1020B0007047828A4FF6FB731A408282828A0A43F3
:1020C0008282704721B1828A42F00202828204E059
:1020D000828A4FF6FD731A408282704702460020C2
:1020E000B1F5007F00D100BF13880B400BB1012078
:1020F00000E00020704701F40072B2F5007F00D1CB
:1021000000BFCA430280704770B502460024002316
:102110000025002040F66A16B14200D100BFC1F38D
:10212000421501F01F03012606FA03F3012D02D127
:102130009689334006E0022D02D1168A334001E031
:10214000968A33400C12012606FA04F416883440AD
:1021500013B10CB1012000E0002070BD10B50022C9
:10216000002340F66A14A14200D100BF0A120124E4
:102170009440A3B2DC43048010BD0000003801404D
:102180000044004000480040004C00400050004027
:1021900010B50446F748844209D101214805FEF7ED
:1021A00022FD00214FF40010FEF71DFD08E0012183
:1021B0008805FEF718FD00214FF48000FEF713FD9F
:1021C00010BD2DE9F04385B004460D460026B1460A
:1021D0000427DFF8A483A6884FF6C070064068463F
:1021E000FEF76DFCDDF80880E448B8FBF0F01FFA5C
:1021F00080F946EA0906A68020884FF6FE7108405D
:1022000020800026DE49286888420CD828684000D3
:10221000B8FBF0F087B2042F00DA04273E4309F13F
:102220000100208427E0E8884BF6FF71884206D140
:10223000286800EB4000B8FBF0F087B209E028689E
:1022400000EBC00101EB0010B8FBF0F087B247F4DF
:102250008047C7F30B0008B947F0010747F4004077
:1022600006434FF4967009FB00F04FF47A7190FB2F
:10227000F1F0401C2084A683208840F001002080DB
:1022800026884FF6F5300640A8886989084306433A
:102290002680A88929890843208105B0BDE8F083FC
:1022A00041F288310160002181804BF6FF71C180CD
:1022B0000021018141814FF480418181704721B12A
:1022C000028842F00102028004E002884FF6FE73A9
:1022D0001A400280704721B1828842F400628280F5
:1022E00004E082884FF2FF731A408280704721B168
:1022F000828842F48052828004E082884EF6FF7326
:102300001A408280704721B1028842F480720280B4
:1023100004E002884FF6FF631A400280704721B143
:10232000028842F40072028004E002884FF6FF53F4
:102330001A400280704721B1028842F48062028014
:1023400004E002884FF6FF331A40028070470A46C5
:10235000002181894FF60173194002F0FE031943F1
:102360008181704721B1828942F00102828104E0BB
:1023700082894FF6FE731A408281704721B102882C
:1023800042F04002028004E002884FF6BF731A4018
:10239000028070471AB183880B43838002E08388F0
:1023A0008B4383807047018270470146088AC0B220
:1023B000704712B141F0010102E04FF6FE7319407F
:1023C0000182704708B502460020009000920098F4
:1023D000084400900098008808BD21B1028842F4AA
:1023E0000042028003E00288C2F30E0202807047BE
:1023F000B1F5006F04D1028842F40062028004E06B
:1024000002884FF2FF731A4002807047B1F5005FF7
:1024100004D1028842F40052028004E002884DF6A2
:10242000FF731A400280704721B1028842F4805243
:10243000028004E002884EF6FF731A400280704763
:10244000B1F5006F04D1028842F40062028004E01A
:1024500002884FF2FF731A400280704721B1028850
:1024600042F02002028004E002884FF6DF731A4037
:10247000028070470146088B0012704721B1028824
:1024800042F01002028004E002884FF6EF731A4017
:102490000280704721B9028842F08002028004E085
:1024A00002884FF67F731A4002807047B1F5804F63
:1024B00005D0828B4BF6FF731A40828303E0828B38
:1024C00042F480428283704770B5024600240025A2
:1024D00000230020958A138B1B0445EA030626F08F
:1024E0007F4404EA01068E4201D1012000E0002071
:1024F00070BD10B501460020002300228B8A0A8B94
:10250000120443EA020424F07F4010BD0CB50246D9
:10251000002000230193009300920B0F019321F000
:102520007F41019B1BB1009B1433009303E0090C16
:10253000009B18330093009B1B680B400BB10120DC
:1025400000E000200CBD002221F07F42D3438382B3
:10255000704730B5024600200023948801F0E06502
:1025600004EA154321F07F41948A0C4054B14BB1E9
:10257000012008E00054004000127A0040420F00A1
:10258000A0860100002030BD002221F07F42D3430D
:10259000838270470E49086070470D494860704754
:1025A0000B49886070474AF6AA20094908607047BD
:1025B0004CF6CC4006490860704701460020044AAA
:1025C000D2680A400AB1012000E0002070470000F4
:1025D0000030004010B50446FA48844208D1012179
:1025E0004015FEF7F3FA00216015FEF7EFFA17E049
:1025F000F548844208D101210015FEF7E7FA0021D1
:102600002015FEF7E3FA0BE0F048844208D10121DF
:10261000C803FEF7DBFA00214FF40040FEF7D6FABC
:1026200010BD30B50246002000235068E84C204021
:102630000D790C6844EA0524204350609068E54C0D
:102640002040D1E902542C434D7944EA450420430B
:102650009060D06A20F470000C7C641EE4B22343C6
:1026600040EA0350D06230BD002101600171417128
:102670008160C16001210174704721B1826842F01C
:102680000102826003E0826822F0010282607047EA
:1026900021B1826842F48072826003E0826822F491
:1026A00080728260704710B50023CBB21AB14468C3
:1026B0001C43446002E044689C43446010BD816850
:1026C00041F0080181607047014600208A6802F0ED
:1026D00008020AB1012000E000207047816841F043
:1026E000040181607047014600208A6802F00402FC
:1026F0000AB1012000E00020704721B1826842F455
:10270000A002826003E0826822F4A0028260704727
:10271000014600208A6802F480020AB1012000E02C
:102720000020704710B50A4600210023416821F4BB
:102730006041531E41EA4331416010BD21B14268FE
:1027400042F40062426003E0426822F400624260A8
:102750007047F0B504460D4600200021092D11DD1B
:10276000E068A5F10A0606EB4607072606FA07F118
:102770008843A5F10A0606EB460603FA06F108436C
:10278000E0600CE0206905EB4507072606FA07F133
:10279000884305EB450603FA06F108432061072A42
:1027A0000FDA606B561E06EB86071F2606FA07F146
:1027B0008843561E06EB860605FA06F10843606359
:1027C00022E00D2A0FDA206BD61F06EB86071F26A4
:1027D00006FA07F18843D61F06EB860605FA06F1CE
:1027E0000843206310E0E06AA2F10D0606EB8607BD
:1027F0001F2606FA07F18843A2F10D0606EB8606AE
:1028000005FA06F10843E062F0BD21B1826842F4A6
:102810008012826003E0826822F480128260704736
:102820000146C86C80B2704766484C3000687047FB
:1028300021B1426842F48062426003E0426822F4BF
:1028400080624260704721B1426842F48052426027
:1028500003E0426822F48052426070470A46002139
:10286000816821F4E04111438160704721B18268A1
:1028700042F40042826003E0826822F400428260F7
:10288000704721B1826842F40212826003E08268DC
:1028900022F4021282607047014600208A6802F426
:1028A00000120AB1012000E000207047F0B5044694
:1028B0001546002000220026092911DDE068A1F15B
:1028C0000A0707EB470C072707FA0CF29043A1F120
:1028D0000A0707EB470703FA07F21043E0600CE032
:1028E000206901EB410C072707FA0CF2904301EB3A
:1028F000410703FA07F210432061A06BC0F30156B1
:10290000EF1C06F1010CA7EB0C0707EB870C1F2748
:1029100007FA0CF29043EF1C06F1010CA7EB0C0731
:1029200007EB870701FA07F21043A063F0BD10B56B
:102930000A4600210023816B21F44011531E41EA15
:102940000351816310BD08B5002300930090009BE4
:102950000B440093009B1A6008BD08B50246002096
:102960000090009201F12800009B1844009000980C
:10297000006880B208BD0A4600214168164B194024
:102980001143416070474162826270470A460021EC
:10299000416821F01F0111434160704740B109496E
:1029A0000831096841F40001064A0832116007E065
:1029B00004490831096821F40001024A0832116013
:1029C000704700000024014000280140003C014005
:1029D000FFFEF0FFFDF7F1FFFFFD3FFF0246002085
:1029E00013680B400BB1012000E000207047CA4380
:1029F0000260704770B502460020002300240B12CD
:102A00005568CEB205EA060415681D4015B10CB133
:102A1000012000E0002070BD00220A12D3430360B1
:102A20007047000010B545E004F0BAFEF0480168B8
:102A3000F0A007F049F9EE480068401CEC49086036
:102A40004FF48071EC48FDF79AFE4FF40071EA48AC
:102A5000FDF795FE4FF48061E748FDF790FE01F029
:102A600049FA4FF47A7003F043FDE14800682428E6
:102A700020DDE2A007F028F90020DD490860E748E2
:102A80000068401CE549086008460068022811DD1E
:102A9000E3A007F019F900BFE548006800F4E06022
:102AA000E4490843001DE2490860BFF3408F00BFBE
:102AB00000BFFEE7E04800680028B5D0DBA007F0C3
:102AC00003F910BD08B502F028FE02F048FE02F03E
:102AD00014FE02F06BFDD949D94803F043F9D9A09F
:102AE00007F0F2F8E448C0780090E3488378427831
:102AF0000178E2A007F0E8F8E6480188E6A007F0D0
:102B0000E3F8E9A007F0E0F8F6A007F0DDF8FAA096
:102B100007F0DAF84FF48071B748FDF72EFE4FF456
:102B20000071B548FDF729FE4FF48061B248FDF70A
:102B300024FE4FF40071B048FDF721FE08BD10B52A
:102B40004021F548FDF71BFE4FF48061F348FDF787
:102B500016FE4FF4FA7003F0CBFC4021EE48FDF76F
:102B60000CFE4FF48061ED48FDF707FE10BD30B557
:102B7000A3B00121EA48FDF700FEEA48D0E90010C1
:102B8000E94AC2E90010E948D0E90010C2E90210A0
:102B9000E748006806F0BFFEE34AC2E904010021ED
:102BA0009161D16106F0C3F9044606F0B4FEDE4A35
:102BB000C2E9080106F048F9044606F0ACFEDA4A1C
:102BC000C2E90A0105F0A4FD044606F059FED64A02
:102BD000C2E90C0105F066FD044606F051FED24A3A
:102BE000C2E90E01D349D1E91001C2E91001D1496E
:102BF000D1E91201C2E91201CF48D0E90010C2E9BF
:102C0000141000219165D165002010665066CB48F4
:102C1000CB49CDE920101146D1E91801CDE91E01BB
:102C20001146D1E91601CDE91C011146D1E9140183
:102C3000CDE91A01C34811461890D1E91201CDE936
:102C400016011146D1E91001CDE914011046C16BFE
:102C5000806BCDE912011146D1E90C01CDE91001DB
:102C60001046C16A806ACDE90E011046416A006AC9
:102C7000CDE90C011046C1698069CDE90A01104611
:102C800041690069CDE908011046C1688068CDE955
:102C90000601114603C9CDE90401AB48AB49AC4A72
:102CA000AC4BCDE900210290AB4AAC49AC4807F0EF
:102CB0001BF8AB49ABA007F007F800219E4D296037
:102CC0000A461046696006F051FE994904460860BC
:102CD00006F021FE954A03C2924A03C203F058FE51
:102CE00064219F4806F0C1FB14218F4806F0BDFB0C
:102CF000A1A2ABA19A4806F0F7FF03F049FE6421B8
:102D0000974806F0B2FB23B030BD10B50A24A5A148
:102D1000A74806F0C1FB002823D0A6A006F0D4FFE8
:102D200003E04FF47A7003F0E3FB2000A4F101010B
:102D3000CCB2F6D1A448007801280AD0A248007885
:102D4000032806D0A0480078072802D09FA006F0EC
:102D5000BBFF00209C4908704FF48061944806F046
:102D600084FB10BD10B59FA1914806F095FB20B1E2
:102D70009FA006F0A9FF04F068FF10BD10B5A2A146
:102D80008B4806F089FB10B1A2A006F09DFF10BD94
:102D900010B5A6A1864806F07FFB20B1A6A006F0DC
:102DA00093FF01F0ABFC10BD10B5A8A1804806F060
:102DB00073FB30B1A8A006F087FFACA1AEA001F074
:102DC000EFFF10BD10B5AFA1794806F065FB20B14B
:102DD000AFA006F079FF05F057FB10BD10B5032436
:102DE000B0A1734806F058FB002800D062E187E1EB
:102DF0002C00002020256400001801400D0A4448E2
:102E0000435020474554204950204661696C2C5757
:102E10006169742052657472790D0A0030000020D7
:102E200053797374656D2052657365740D0A0000E3
:102E30000CED00E00000FA05C4010020AD01002007
:102E4000A50100200D0AB5E7C4D4D7F7CEAA544394
:102E500050B7FECEF1C6F72CC8C35735353030D742
:102E6000F7CEAA20544350BFCDBBA7B6CBC8A5C14F
:102E7000ACBDD30D0A00000092010020B7FECEF1D8
:102E8000C6F749503A25642E25642E25642E256404
:102E90000D0A000096010020BCE0CCFDB6CBBFDAE5
:102EA0003A2564200D0A0000C1ACBDD3B3C9B9A650
:102EB000BAF3A3ACB7FECEF1C6F7B7A2CBCDCAFD2D
:102EC000BEDDB8F85735353030A3AC573535303026
:102ED000BDABB7B5BBD8B6D4D3A6CAFDBEDD0D0A0F
:102EE00000000000D3A6D3C3B3CCD0F2D6B4D0D068
:102EF000D6D00D0A00000000506C65617365205744
:102F00006169742061626F75742033332073656367
:102F10006F6E640D0A0000000010014000140140B3
:102F2000000C01405803002000040020A0000020F5
:102F3000C800002038070020500300208300002034
:102F40007E0000207A000020590200205E0100204F
:102F5000590000204F0000204A00002040AA00082D
:102F6000D00600200D0A446174612053656E643AF6
:102F700025730D0A000000000D0A2D2D2D2D2D2D7D
:102F80002D2D2D3E3E3E3E3E3E2045746865726EC0
:102F900065742054455354204F4B0D0A0000000027
:102FA0002573000054455354234B45592A00000013
:102FB000F60700202D2D2D3E3E3E4B455920544511
:102FC00053540D0A000000007D0100202D2D2D3EE0
:102FD0003E3E4B65792054455354204641494C0DA3
:102FE0000A0000005445535423464C4153482A00DC
:102FF0000D0A2D2D2D3E3E3E464C41534820544552
:1030000053540D0A000000005445535423555341B6
:1030100052542A000D0A2D2D2D3E3E3E555341524D
:10302000542054455354204F4B0D0A0054455354DB
:103030002342542A000000000D0A2D2D2D3E3E3E55
:10304000425420544553540D0A0000005445535433
:1030500023574946492A00000D0A2D2D2D3E3E3E9C
:103060005749464920544553540D0A005A51575167
:10307000415A3132330000004D616465696E436826
:10308000696E610054455354234949432A000000A6
:103090000D0A2D2D2D3E3E3E4949432054455354A3
:1030A0000D0A0000544553542345544845524E459B
:1030B000542A0000EDA006F007FE10E0AFF248121F
:1030C000AFF22411EF4806F00FFE03F061FC4FF45D
:1030D0008061EC4806F0C9F9C82003F009FA200025
:1030E000A4F10101CCB2E9D1012002F06AFD172858
:1030F00003D0E5A006F0E8FD02E0EAA006F0E4FD5A
:1031000010BD70B505460E46EDA006F0DDFD0024AD
:103110000FE0295DECA006F0D7FD295DEB48FEF736
:103120006FFF00BF8021E948FEF7D8FF0028F9D0E3
:10313000641CB442EDDBDAA006F0C6FD70BD10B52C
:10314000E348006858B3E2480068132827D8E148EC
:10315000006835284BD105F00FFD044606F090FBC2
:10316000DD4A03C205F025FE044606F089FBDB4A72
:1031700003C20022DA4BD94903C906F092FAD94AB0
:1031800003C20721D848FFF7BCFF0020D7490860D9
:10319000D7490860D7490860CE49086027E0CD4884
:1031A0000068B0F58C7F22D105F0E6FC044606F0FD
:1031B00067FBC94A03C205F0FCFD044606F060FB4C
:1031C000C64A03C20022C64BC44903C906F069FAC5
:1031D000C44A03C20721C448FFF793FF0020C34934
:1031E0000860C3490860C3490860BA49086010BD57
:1031F00070B50324C0A1C44806F04EF9002878D069
:1032000072E005F0B9FC054606F03AFBB24A03C28B
:1032100005F0CFFD054606F033FBB04A03C2BBA064
:1032200006F052FDC048D0E908532A46BFA006F078
:103230004BFDBD48D0E90A532A46BFA006F044FD25
:1032400005F033FA06F0D7F8054606F00BFBBD494A
:1032500008600846006806F05EFB05462A460B46F5
:10326000B9A006F031FD9C480CC8BAA006F02CFDB0
:103270009A480CC8BAA006F027FD01F01EFBBB4A15
:1032800003C2BA480CC8BAA006F01EFD2021BC48F3
:10329000FDF759FA012808D1BAA006F015FD002162
:1032A000BB48BC4AC2E9101006E0BBA006F00CFD0A
:1032B0000020B84A106450641021B148FDF743FA69
:1032C000012808D1B7A006F0FFFC0021B048B14AA0
:1032D000C2E9121006E0B6A006F0F6FC0021AD4AE5
:1032E0009164D164FFF743FC2000A4F10101CCB24A
:1032F00087D170BD10B5B1A1834806F0CDF820B1DB
:10330000B2A006F0E1FC04F04CFE10BD10B5B6A072
:1033100006F0DAFC00F007FE00F03CFE00F065FE6F
:10332000B648007820B102F084F80020B349087054
:1033300010BDFCF798FF00F06DFF00F0EAFF01F010
:1033400056F801F0A3F801F0E7F8AD49ADA006F09A
:10335000BBFCAEA006F0B8FC482003F0ADF805F0C9
:1033600003FA02F09CF801F010FB00F0A6FA04F05A
:1033700082FEAFF2843006F0A7FC04F066FC04F095
:1033800010FE04F01AFE40F63541062000F0A0FDC4
:1033900005F0A9FE05F02AF9FFF7D1FB0A2003F09A
:1033A000C3F800F0A7FD01214848FEF7BCFD072146
:1033B0004D48FFF7A6FE00214448FEF7B4FD012268
:1033C00040F225514148FEF7BAFD01213F48FEF782
:1033D000AAFDAFF29C3006F077FC01F08FF9AFF256
:1033E000503006F071FC05F04FF820A006F06CFCA0
:1033F000FFF768FB39E08B48007820B98A480078ED
:10340000401C894908708848007802280AD18548FC
:10341000007838B97948007820B9002082490870CE
:1034200005F0C6FAFFF771FCFFF79CFCFFF7B0FC54
:10343000FFF7BAFCFFF7A2FCFFF7C4FCFFF7CEFCD6
:10344000FFF763FCFFF7D4FEFFF754FF04F0E7FD3E
:103450004FF480612C4806F008F800F04BFD73A093
:1034600006F032FC012003F05FF8C4E70D0A2D2DB1
:103470002D3E3E3E45746865726E6574205445531A
:10348000540D0A00D00600202D2D2D3E3E3E4574E1
:103490006865726E65742054455354204641494C0A
:1034A0000D0A00002D2D2D3E3E3E45746865726E5E
:1034B00065742054455354204F4B0D0A0000000002
:1034C000636F6D6D616E640020257800004C0040D4
:1034D0000803002068030020500300205803002048
:1034E0000000244090000020B80000206403002069
:1034F0004003002060030020544553542353454E9D
:10350000534F522A00000000F60700200D0A2D2D0F
:103510002D2D2D2D2D2D3E3E3E53656E736F722049
:1035200056616C75650D0A000004002054656D70CD
:103530003D252E32660D0A0048756D693D252E32F7
:10354000660D0A00C80000204C75783A252E3266B8
:103550000D0A0000504D322E353D252E660D0A0015
:10356000447573743D252E660D0A0000A0000020EE
:10357000736F756E643D252E32660D0A00000000E3
:10358000001001404D6F74696F6E313D310D0A00BE
:103590000000F03F380700204D6F74696F6E313DB9
:1035A000300D0A004D6F74696F6E323D310D0A00A7
:1035B0004D6F74696F6E323D300D0A0041542B52CD
:1035C0004541445F4554484D414323002D2D2D3E38
:1035D0003E3E526561642045746865726E65742074
:1035E0004D41430D0A0000002A2A2A2A2A2A2A2AA3
:1035F0002A2A2A2A2A2A0D0A00000000780100201F
:103600004F00002049443A25730D0A002D2D2D3E10
:103610003E3E55534152542054455354204F4B0D78
:103620000A000000B0000020AC000020576169745F
:103630002052656365697665205465737420436F15
:103640006D6D616E640D0A00704700BFFEE700BF3C
:10365000FEE700BFFEE700BFFEE770477047704718
:10366000704710B501218807FEF779FB28B102F0F9
:1036700022F901218807FEF783FB10BD00B587B052
:1036800001217420FDF788FA01210803FDF784FA6F
:103690002020ADF8040003208DF8060018208DF8D6
:1036A000070001A94248FCF7BBFF4020ADF8040029
:1036B00001A93F48FCF7B4FF8020ADF8040001A940
:1036C0003B48FCF7ADFF1020ADF804008DF8070073
:1036D00001A93748FCF7A4FF1020ADF804008DF8CD
:1036E000070001A93348FCF79BFF40F60270ADF8D4
:1036F000040010208DF8070001A92E48FCF790FF68
:103700004FF480712B48FDF738F84FF400712948C9
:10371000FDF733F84FF480612648FDF72EF80221BB
:103720002448FDF72CF84FF400612248FDF727F8F4
:103730000020ADF808004FF48270ADF80A000020B8
:10374000ADF80C000220ADF80E000120ADF810001D
:103750004002ADF812000820ADF814000020ADF8CA
:1037600016000720ADF8180002A91348FDF79EFACD
:1037700001211148FDF73FFB07B000BD10B504461D
:1037800000BF02210C48FDF7BAFB0028F9D0214602
:103790000948FDF761FB00BF01210748FDF7AFFBBA
:1037A0000028F9D00448FDF759FBC0B210BD000055
:1037B00000080140001801400030014008B54FF4F6
:1037C000E060FCF7D1FD1C208DF8000000208DF892
:1037D000010003208DF8020001208DF803006846E7
:1037E000FCF7C7FD08BD0EB501210846FDF7E1F95C
:1037F0004FF47A70ADF804004720ADF800000020C7
:10380000ADF80600ADF8020069464FF08040FDF7C4
:1038100081FC01218807FEF79FFA012211469007DB
:10382000FDF7EFFF01218807FDF7D0FF0021012000
:10383000FDF7BFF90EBD000008B501214805FDF7F1
:10384000B8F901210820FDF7A7F94020ADF80000E4
:1038500003208DF802001C208DF803006946FC4807
:10386000FCF7DEFE8020ADF8000003208DF802009A
:103870001C208DF803006946F548FCF7D1FE08BD11
:103880001FB50020ADF804004BF6FF70ADF8060040
:103890000A20ADF808004FF48060ADF80A0000017E
:1038A000ADF80C00EB4800906946EB48FEF789FC48
:1038B0000121E948FEF703FD1FBD10B5FFF7BCFF6E
:1038C000FFF7DEFF4020E549088010BD10B5044633
:1038D0002146E3A006F0F8F9002010BD70B50446BB
:1038E0000E4615460121DC48FEF70DFD4FF48050D1
:1038F000E649086009E0E5490868411EE34A1160AD
:1039000018B90020FFF7E2FF70BDE149D248FEF789
:10391000DBFD0028EFD000223146CF48FEF749FDFD
:103920004FF48050D949086009E0D8490868411E21
:10393000D64A116018B90120FFF7C8FFE4E7D5495E
:10394000C548FEF7C1FD0028EFD02946C248FEF762
:103950002AFD4FF48050CD49086009E0CB49086842
:10396000411ECA4A116018B90220FFF7AFFFCBE72A
:10397000C849891CB848FEF7A7FD0028EED0217879
:10398000B548FEF710FD4FF48050C049086009E0CB
:10399000BE490868411EBD4A116018B90320FFF7EF
:1039A00095FFB1E7BB49891CAB48FEF78DFD0028A8
:1039B000EED00121A848FEF7B2FC0120A4E770B5C3
:1039C00005460E4614464FF4A030B049086009E0A1
:1039D000AE490868411EAD4A116018B90920FFF7C9
:1039E00075FF70BD4FF400319B48FEF78FFD002836
:1039F000EED101219848FEF786FC4FF48050A34990
:103A0000086009E0A1490868411EA04A116018B980
:103A10000A20FFF75BFFE4E79D498F48FEF754FD5E
:103A20000028EFD08D48017800228B48FEF7C1FCBA
:103A30004FF480509549086009E094490868411E98
:103A4000924A116018B90B20FFF740FFC9E791496E
:103A50008148FEF739FD0028EFD001217E48FEF7AE
:103A60002EFC31467C48FEF79EFC4FF4805087497F
:103A7000086009E085490868411E844A116018B948
:103A80000C20FFF723FFACE78249891C7248FEF740
:103A90001BFD0028EED001216F48FEF734FC4FF4E7
:103AA00080507A49086009E078490868411E774AE1
:103AB000116018B90D20FFF709FF92E774496648B5
:103AC000FEF702FD0028EFD0644801780122624829
:103AD000FEF76FFC4FF480506C49086009E06B49B9
:103AE0000868411E694A116018B90E20FFF7EEFE02
:103AF00077E76749491C5848FEF7E6FC0028EED0F6
:103B000026E0012C07D100215348FEF714FC0121C7
:103B10005148FEF704FC4FF4A0305C49086009E00E
:103B20005A490868411E594A116018B90320FFF725
:103B3000CDFE56E756493F314748FEF7C5FC002801
:103B4000EED04548FEF731FC28706D1C601E84B233
:103B5000002CD6D101214048FEF7EDFB012040E7C3
:103B60002DE9F04105460F4616461C464FF4A0309D
:103B7000464908600AE045490868411E434A116009
:103B800020B90920FFF7A2FEBDE8F0814FF4003113
:103B90003148FEF7BBFC0028EDD101212E48FEF78D
:103BA000B2FB4FF480503949086009E03749086892
:103BB000411E364A116018B90A20FFF787FEE3E775
:103BC00033492548FEF780FC0028EFD00022394613
:103BD0002148FEF7EEFB4FF480502C49086009E0C5
:103BE0002A490868411E294A116018B90B20FFF7BD
:103BF0006DFEC9E727491848FEF766FC0028EFD09C
:103C000001211548FEF75BFB31461348FEF7CBFB5D
:103C10004FF480501D49086009E01C490868411EA6
:103C20001A4A116018B90C20FFF750FEACE7194989
:103C3000891C0948FEF748FC0028EED001210648FF
:103C4000FEF761FB4FF48050104908602EE0000041
:103C5000000C0140A086010000540040CC00002070
:103C60003C3C2D454550524F4D2D4552524F522D03
:103C70003E3E20493243204552524F5220466C610D
:103C800067203D2025640D0A0A000000D0000020B6
:103C9000010003008200070087490868411E864A28
:103CA000116018B90D20FFF711FE6DE783498448B4
:103CB000FEF70AFC0028EFD0012239468048FEF7C3
:103CC00078FB4FF480507C49086009E07A49086825
:103CD000411E794A116018B90E20FFF7F7FD53E72E
:103CE0007649491C7648FEF7EFFB0028EED026E027
:103CF000012C07D100217248FEF71DFB01217048FD
:103D0000FEF70DFB4FF4A0306B49086009E06A49EB
:103D10000868411E684A116018B90320FFF7D6FDF4
:103D200032E766493F316648FEF7CEFB0028EED009
:103D30006348FEF73AFB28706D1C601E84B2002CAD
:103D4000D6D101215E48FEF7F6FA01201CE708B53E
:103D50000020009000BF01215948FEF7D4FA142139
:103D60005748FEF72FFB0090564801780022544830
:103D7000FEF71FFB14215248FEF724FB00F002005F
:103D80000028E8D050494E48FEF7DDFB01214C48A1
:103D9000FEF7C5FA08BD2DE9F04104460F46154669
:103DA0001E464FF4A030444908600AE042490868C2
:103DB000411E414A116020B90420FFF787FDBDE88C
:103DC000F0814FF400313E48FEF7A0FB0028EDD112
:103DD00001213B48FEF797FA4FF4805036490860BE
:103DE00009E035490868411E334A116018B90520B9
:103DF000FFF76CFDE3E731493148FEF765FB00282A
:103E0000EFD0002239462E48FEF7D3FA4FF4805007
:103E10002949086009E028490868411E264A1160BE
:103E200018B90620FFF752FDC9E728492448FEF7D4
:103E30004BFB0028EFD029462148FEF7B4FA4FF497
:103E400080501D49086009E01B490868411E1A4A54
:103E5000116018B90720FFF739FDB0E71B49891C2D
:103E60001748FEF731FB0028EED01AE021781448FD
:103E7000FEF799FA641C4FF480500F49086009E07E
:103E80000D490868411E0C4A116018B90820FFF757
:103E90001DFD94E70D49891C0948FEF715FB002814
:103EA000EED03000A6F10101CEB2DFD101210448ED
:103EB000FEF735FA012082E7D00000200100030060
:103EC00000540040CC0000200004001082000700D5
:103ED00070B505460C4645F25550FEF75BFB28468B
:103EE000FEF75BFB2046FEF75BFBFEF75CFBFEF795
:103EF0005FFB70BD10B5FEF756FB10BD2DE9F0411C
:103F00000746FCF7DBFC72B64FF0006005684468BA
:103F1000002080F3148800BF2846FCF71CF92646D1
:103F2000B047BDE8F08110B56D496EA005F0CCFE3C
:103F3000704B71A274A1764805F0D6FE74496848AA
:103F400005F0AAFA00281AD003F038FF01207149C1
:103F500008604FF47A7002F0CBFA6FA005F0B4FE5F
:103F600076A000F0C4FE7C480021018081704FF4EF
:103F70007A7002F0BDFA03F0F0FF00F0A2F810BD75
:103F800010B562B67549C802FCF725FA7348744942
:103F9000086010BD1CB573A05649734B73A2CDE9E0
:103FA000001076A1784805F09FFE77494C4805F04F
:103FB00073FAC8B1002003F0E2FD4FF4405003F063
:103FC000DEFD72A0684B72A273A10090744805F0E8
:103FD0008BFE4FF47A7002F08BFA714800F087FE86
:103FE00003F0BBFF00F06DF81CBD08B51E223C4974
:103FF0006C4805F063FA6CA26DA16E4805F074FE82
:104000006C49684805F048FA002859D00DE034485A
:1040100069490968415C68480068801F674A115413
:1040200065480068401C644908602D486249096879
:10403000405C2C28EBD100205F4908605F4805F008
:1040400049FA5F490860084601685EA005F03CFE39
:1040500012E05B480068C01D2149085C5D49564A72
:104060001268885456480068401C554908605248F8
:104070000068401C5049086051480068C01D18493C
:10408000085C2A28E5D14D4953A005F01DFE514991
:1040900055A005F019FE03F008FF3CA0154B57A2F0
:1040A0003DA10090594805F01FFE4FF47A7002F0D0
:1040B0001FFA564800F01BFE03F04FFF00F001F816
:1040C00008BD2748001D006800F4E060504908431F
:1040D000001D2349091D0860BFF3408F00BFFEE7A4
:1040E000F6070020726563656976653A2025730DD1
:1040F0000A000000590200204E6565645570677221
:104100006164652300000000257325730000000032
:10411000D8070020D40000202D2D2D2D2D2D2D3E33
:104120003E204A756D7020746F2049415020426FC7
:104130006F746C6F616465720D0A00004A756D7072
:1041400020746F2049415020426F6F746C6F61641E
:1041500065720D0A00000000F60F00200000010843
:1041600008ED00E02A0000004F0000204865726D55
:104170006573436F6D6D616E640000002573257378
:104180002C25732573000000681100204F4B2A0076
:10419000434C454152505700257325732C2573001D
:1041A000E0110020FA1000204D4143494423000053
:1041B0002573000022110020D80000209A11002051
:1041C000DC0000205365727665724C656E3A25649A
:1041D0000D0A0000B81100205365727665725F49C0
:1041E000503A25730D0A00005365727665725F5070
:1041F0006F72743A25730D0A000000004368616E07
:10420000676553657276657223000000C211002055
:104210000000FA0500B587B001210420FCF7BCFCC2
:1042200001218803FCF7B8FC4FF40070ADF81800CA
:1042300018208DF81B0003208DF81A0006A9DF480E
:10424000FCF7EEF94FF48060ADF8180004208DF80B
:104250001B0006A9D948FCF7E3F925208DF80400D6
:1042600000208DF805008DF8060001208DF807006C
:1042700001A8FCF77EF84FF4E13002900020ADF881
:104280000C00ADF80E00ADF81000ADF814000C20D5
:10429000ADF8120002A9CA48FDF7B9FD012240F2AB
:1042A0002551C748FDF74BFE0121C548FDF73BFEF0
:1042B00007B000BD08B540F22551C148FDF724FF05
:1042C00048B1BF48FDF7A0FEC0B200906946BD48A6
:1042D00005F0D6F800BF08BD70B504460D46E1B242
:1042E000B748FDF78DFE00BF8021B548FDF7F6FE0B
:1042F0000028F9D0204670BD10B5044600BF20212B
:10430000B148FDF7EBFE0028F9D0AF48FDF77CFE81
:1043100010BD00B587B001214804FCF74AFC042019
:10432000ADF8180003208DF81A0018208DF81B0036
:1043300006A9A248FCF774F90820ADF8180004207B
:104340008DF81B0006A99D48FCF76AF926208DF818
:10435000040003208DF805008DF8060001208DF87B
:10436000070001A8FCF705F84FF4E13002900020A7
:10437000ADF80C00ADF80E00ADF81000ADF814006B
:104380000C20ADF8120002A99048FDF740FD012273
:1043900040F225518D48FDF7D2FD01218B48FDF7F4
:1043A000C2FD07B000BD08B540F225518748FDF7B2
:1043B000ABFE48B18548FDF727FEC0B200906946C4
:1043C000804805F05DF800BF08BD08B540F22551F2
:1043D0007D48FDF799FE48B17B48FDF715FEC0B258
:1043E00000906946774805F04BF800BF08BD00B55E
:1043F00087B001218804FCF7DCFB01210820FCF7D1
:10440000CBFB18208DF80B004FF48060ADF808004E
:1044100003208DF80A0002A96D48FCF701F9042079
:104420008DF80B004002ADF8080002A96848FCF7BF
:10443000F7F84FF4E13003900020ADF818000C209D
:10444000ADF816000020ADF81400ADF81200ADF87C
:10445000100003A95C48FDF7DAFC27208DF8040062
:1044600001208DF807008DF805008DF8060001A8E1
:10447000FBF77FFF012240F225515348FDF75FFD16
:1044800001215148FDF74FFD07B000BD00B587B0D1
:104490000121C804FCF78DFB01211020FCF77CFBF7
:1044A00018208DF80B004FF48060ADF80800032051
:1044B0008DF80A0002A94748FCF7B2F804208DF8ED
:1044C0000B004002ADF8080002A94248FCF7A8F82A
:1044D0004FF4165003900020ADF818000C20ADF8F2
:1044E00016000020ADF81400ADF81200ADF8100071
:1044F00003A93948FDF78BFC34208DF80400012016
:104500008DF8070002208DF805008DF8060001A83F
:10451000FBF72FFF07B000BD00B587B001210805EC
:10452000FCF747FB01213020FCF736FB4FF48050AD
:10453000ADF8180018208DF81B0003208DF81A0024
:1045400006A92448FCF76CF80420ADF818008DF893
:104550001B0006A92148FCF763F84FF4165002909F
:104560000020ADF80C00ADF80E00ADF81000ADF86D
:1045700014000C20ADF8120002A91948FDF747FC01
:104580004FF4A060FBF7F0FE35208DF8040000200A
:104590008DF805008DF8060001208DF8070001A8B0
:1045A000FBF7E7FE012240F225510D48FDF7C7FC5D
:1045B00001210B48FDF7B7FC07B000BD0008014022
:1045C00000380140F6070020004800400044004049
:1045D000000C014000100140004C0040001401405C
:1045E0000050004008B540F225514A48FDF78CFDC7
:1045F00060B120214748FDF77EFD4648FDF704FDE8
:10460000C0B200906946444804F03AFF08BD10B5B6
:1046100010214248FCF7B3F84FF4FA7001F068FF3C
:1046200010213E48FCF7A9F810BD2DE9F0470446DB
:10463000894616461F46214639A005F045FB4FF432
:10464000967001F055FF204604F044FF8246514623
:1046500037A005F039FB4FF000083FE000250BE0E4
:10466000615D2C48FDF7CCFC00BF80212948FDF797
:1046700035FD0028F9D06D1C204604F02BFFA84220
:10468000EED8304601F034FF31A1234804F004FF96
:1046900070B100BF3048006800F4E0602F49084363
:1046A000001D2D490860BFF3408F00BF00BFFEE72B
:1046B0004946194804F0F0FE68B129A005F004FB52
:1046C0002BA005F001FB4FF40061134804F0CDFE70
:1046D0000020BDE8F08700BF08F10108B845BDDB48
:1046E000214628A005F0F0FA2CA005F0EDFA4FF4D1
:1046F0000061094804F0B9FE0120EAE710B5FFF7B0
:1047000086FF01234FF4FA622AA12BA0FFF78DFF49
:1047100010BD0000005000400812002000180140A9
:104720002D2D2D3E3E73656E642025730000000024
:104730002D2D2D3E3E73656E6420636F6D6D616E31
:1047400064206C656E6774683A25640D0A00000089
:104750002B57414B450000000CED00E00000FA052E
:104760002D2D2D3C3C736574206F6B0D0A000000ED
:104770002D2D2D3E3E3E42542054455354204F4B48
:104780000D0A00002D2D2D3E3E73656E64203A25E6
:1047900073206661696C210D0A0000002D2D2D3EED
:1047A0003E3E2042542054455354204641494C0D2E
:1047B0000A0000004F4B000041542B534C4545501C
:1047C0000D0A000008B501211020FCF7E5F90120D1
:1047D000ADF8000000208DF8030069466E48FBF735
:1047E0001FFF08BD00B585B001218802FCF7D4F990
:1047F000002000908DF8040001208DF805004FF492
:10480000602002900020039001208DF8100069467E
:104810006248FDF706FF4FF44040FCF721F90523FD
:1048200001220A215D48FDF794FF01224FF408712F
:104830005A48FDF738FF01215848FDF71EFF574839
:10484000FDF73DFF00BF5548FDF73EFF0028FAD1B8
:104850005248FDF743FF00BF5048FDF744FF0028D2
:10486000FAD101214D48FDF748FF05B000BD10B554
:104870004FF408714948FEF7BDF8012804D14748B4
:10488000FDF7CEFF464908804FF408714348FEF714
:10489000C3F810BD2DE9F04104460D4616461F46EB
:1048A00032463B462046294605F048F801D23446B8
:1048B0003D4620462946BDE8F0812DE9F041002122
:1048C000384A1160516000203749086035E0002106
:1048D000364A116051600020354908601BE02F48BE
:1048E000FDF79EFF3349324A126841F82200304AF0
:1048F000126851F8220004F0C3FF044622460B461A
:104900002A4903C9FFF7C6FF284A03C2284800689E
:10491000401C2749086026480068B0F57A7FDEDD34
:10492000224820490CC803C904F014FE1D4A03C2E2
:104930001D480068401C1C4908601B480068052889
:10494000C5DB4FF47A711B4804F08FFD00221A4B2F
:10495000144903C904F017FF144A03C2134903C9D9
:1049600005F004F815490860104903C905F09AFEDE
:1049700006464FF06632124B04F093FE0446114A8D
:10498000114B04F088FEBDE8F08110B5FFF71AFF67
:10499000FFF728FF10BD0000001001400028014073
:1049A000E0000020F0000020E4000020F8000020DB
:1049B000E8000020081A0020000014400001002038
:1049C00066A636407B14AE47E11A514010B54FF44D
:1049D0008071FE48FBF7D3FE4FF4FA7001F088FDBA
:1049E0004FF48071F948FBF7C8FE10BD2DE9F04780
:1049F0000446894616461F46204604F06BFD824653
:104A00005146F3A005F060F94FF000082DE00025B5
:104A10000BE0615DF348FDF7F3FA00BF8021F14838
:104A2000FDF75CFB0028F9D06D1C204604F052FD18
:104A3000A842EED8304601F05BFDEB49EBA005F053
:104A400043F94946E84804F027FD58B12146EAA059
:104A500005F03AF94FF40061E34804F006FD002048
:104A6000BDE8F08700BF08F10108B845CFDBE6A03C
:104A700005F02AF90120F3E72DE9F04704468946BD
:104A800016461F46204604F025FD82465146D0A01A
:104A900005F01AF92146E0A005F016F94FF00008DC
:104AA00028E000250BE0615DCE48FDF7A9FA00BFC4
:104AB0008021CC48FDF712FB0028F9D06D1C204660
:104AC00004F008FDA842EED8304601F011FD494639
:104AD000C54804F0E1FC50B1D3A005F0F5F84FF45F
:104AE0000061C14804F0C1FC0020BDE8F08700BFB0
:104AF00008F10108B845D4DBC3A005F0E5F80120B2
:104B0000F3E72DE9F0470546894616461F464FF064
:104B1000000839E000240BE0295DB248FDF770FA87
:104B200000BF8021AF48FDF7D9FA0028F9D0641CF6
:104B3000284604F0CFFCA042EED8304601F0D8FC65
:104B40001122A9491C31BC4804F0B8FC4FF4FA709A
:104B500001F0CEFCB849B9A005F0B6F84946A24824
:104B600004F09AFC68B1B0A005F0AEF8B6A005F06C
:104B7000ABF84FF400619C4804F077FC0020BDE8DE
:104B8000F08700BF08F10108B845C3DB9EA005F01F
:104B90009BF8B3A005F098F80120F0E72DE9F04765
:104BA0000446894616461F46204604F093FC82467A
:104BB000514687A005F088F821468FA005F084F8BB
:104BC0004FF0000846E000250BE0615D8548FDF7E9
:104BD00017FA00BF80218348FDF780FA0028F9D03A
:104BE0006D1C204604F076FCA842EED8304601F059
:104BF0007FFC0F227C4918319F4804F05FFC0CE0D9
:104C00009D489E490968405C9D499C4A12688854A9
:104C10009A480068401C9949086097489749096874
:104C2000405C2228ECD1964996A005F04DF8494603
:104C30006D4804F031FC50B17BA005F045F84FF40D
:104C40000061694804F011FC0020BDE8F08700BF56
:104C500008F10108B845B6DB6BA005F035F8012076
:104C6000F3E72DE9F0470446894616461F462046DD
:104C700004F030FC8246514655A005F025F84FF06F
:104C800000082CE000250BE0615D5648FDF7B8F9FF
:104C900000BF80215348FDF721FA0028F9D06D1C90
:104CA000204604F017FCA842EED8304601F020FC64
:104CB00049464D4804F0F0FB70B1214676A005F05E
:104CC00003F859A005F000F84FF40061464804F0DD
:104CD000CCFB0020BDE8F08700BF08F10108B84513
:104CE000D0DB214670A004F0EFFF0120F2E770B5A1
:104CF000054600240BE0295D3A48FDF781F900BF25
:104D000080213848FDF7EAF90028F9D0641C2846CC
:104D100004F0E0FBA042EED870BD70B504464FF43D
:104D2000C871674804F0A1FB204604F0D3FB054698
:104D30002A4664A1624804F0D7FF00BF0123642221
:104D400064A15F48FFF752FE0028F7D100BF01239E
:104D50004FF4FA7260A12046FFF748FE0028F6D112
:104D600070BD10B500BF03234FF4FA725CA15DA0C3
:104D7000FFF73CFE0028F6D110BD10B503236422D6
:104D800057A15CA0FFF732FE48B100BF03234FF4E8
:104D90007A725CA14A48FFF729FE0028F6D110BDBF
:104DA00070B504460D46FFF7A5F8FFF70FFE032385
:104DB0004FF4FA724AA155A0FFF75EFE0323642266
:104DC00047A154A0FFF758FE0323ABE000080140C1
:104DD000636F6D6D616E64206C656E6774683A25F3
:104DE000640D0A0000440040F60700202D2D2D3CE4
:104DF0003C25730D0A0000002D2D2D3E3E73656E7F
:104E0000642025730D0A00002D2D2D3E3E6661693C
:104E10006C210D0A000000002D2D2D3E3E73656EA5
:104E200064202573000000002D2D2D3C3C7365741B
:104E3000206F6B0D0A000000DA2900202440257342
:104E400040230D0A000000002D2D2D3E3E3E205730
:104E50004946492054455354204F4B0D0A00000049
:104E60002D2D2D3E3E3E5749464920544553542052
:104E70004641494C0D0A0000782C002074010020A6
:104E80005E0100202D2D2D3C3C65737049503A2069
:104E900025730D0A000000002D2D2D3E73656E64F4
:104EA0002025730D0A0000002D2D2D3E73656E64C4
:104EB000203A2573206661696C210D0A000000000C
:104EC0004005002041542B43495053454E443D2555
:104ED000640D0A003E00000053454E44204F4B0035
:104EE0004F4B000041542B434950434C4F53450D09
:104EF0000A00000041542B434950434C4F53453D59
:104F00003F0D0A00434F4E4E4543540041540D0A95
:104F10000000000041542B43574D4F44453D330D95
:104F20000A0000006422AFF248018BA0FFF7E9FD00
:104F30004FF400618C4804F098FA4FF4C8718B4824
:104F400004F093FAFEF7D6FF142001F0D1FA70BDF9
:104F50002DE9F0410646884617460FE0C821304645
:104F600004F083FA804801193A46304604F0A6FA64
:104F7000641C6E2C00DD0024E019451E41463046BD
:104F800004F08AFA0028E9D0FEF7B4FF00E0641CC0
:104F90007548005D0D28FAD17349601C085C0A2829
:104FA000F5D1601B821C08464119304604F086FA90
:104FB00032466FA16F4804F097FE3221304604F06C
:104FC00054FA621B6B49304604F078FABDE8F08170
:104FD00010B5FEF78FFFFFF7F9FC4FF40061624850
:104FE00004F043FA15E0142001F082FA62A0FFF702
:104FF0007EFE142001F07CFA5FA0FFF778FE1420FB
:1050000001F076FA5CA0FFF772FE4FF4FA6001F04F
:105010006FFA03234FF47A72AFF23C11AFF214101F
:10502000FFF71FFE0028DED154A004F04DFE00BFA4
:1050300001234FF4FA72AFF25811AFF23010FFF7BC
:1050400010FE0028F4D100BF01234FF4FA72AFF232
:10505000701150A0FFF705FE0028F5D100BF012315
:105060006422AFF284114EA0FFF706FD0028F6D1AE
:1050700000BF01236422AFF2981137A0FFF741FD72
:105080000028F6D100BF012341F27072AFF2B011D7
:1050900047A0FFF7E6FD0028F5D14FF47A7001F044
:1050A00027FA4FF47A7001F023FA4FF47A7001F086
:1050B0001FFAFEF71FFF49E02B4942A004F004FE4F
:1050C000294804F007FA0446214642A004F0FCFDFA
:1050D0004FF47A7001F00CFA4FF47A7001F008FA8C
:1050E000214804F0F7F964282ED93DA004F0ECFD26
:1050F000052243A14448FFF72BFF434943A004F096
:10510000E3FD414804F0E6F90446214644A004F0DA
:10511000DBFD1E21454804F0A8F9092244A14748B7
:10512000FFF716FF454946A004F0CEFD434804F0C2
:10513000D1F9044621463AA004F0C6FD4FF40061BF
:10514000094804F092F904E0FEF7D4FE064800286E
:10515000B2D100BF10BD000041542B4349505354FD
:10516000414D41433F0D0A00F60700204005002055
:1051700025730000A82900202B2B2B00736D617272
:1051800074636F6E66696720697320646F696E6708
:105190000D0A000041542B5253540D0A0000000028
:1051A00041542B43574D4F44453D310D0A000000FB
:1051B00041542B43575354415254534D4152540D73
:1051C0000A000000726563656976653A25730D0A09
:1051D000000000002D2D2D3C3C3C3A25640D0A00BA
:1051E000526563656976652050617373776F7244A9
:1051F000202620535349442049530D0A0000000043
:10520000737369643A000000400100202D3C3C3C6F
:1052100020202020535349443A2025730D0A0000D2
:105220006C656E74683A2025640D0A00742B0020AA
:1052300070617373776F72643A0000008E2A0020E9
:105240002D3C3C3C50617373776F72643A20257338
:105250000D0A000010B54FF40060FBF767F9002855
:105260007ED003F017FC4FF47A7001F041F94FF44F
:1052700000619E48FBF767FA002872D14FF47A70FC
:1052800001F036F94FF47A7001F032F94FF4006111
:105290009648FBF758FA002866D10A20944908700E
:1052A00000240AE003F007FCC82001F021F903F014
:1052B0000EFCC82001F01CF9641C032CF2DB4FF437
:1052C00000618A48FBF73FFA01280BD1002088498A
:1052D000087088A004F0F8FC03208F4908700120B2
:1052E0008E49087000240CE04FF400617F48FBF702
:1052F0002AFA012800D106E04FF47A7001F0F8F89C
:10530000641C032CF0DB00BF4FF400617748FBF70F
:105310001AFA00286AD114207549087000240AE09E
:1053200003F0F6FBC82001F0E3F803F002FCC8200C
:1053300001F0DEF8641C032CF2DB4FF400616B48D3
:10534000FBF701FA012810D100206949087074A008
:1053500004F0BAFC0720704908704FF47A7001E03D
:1053600066E037E001F0C4F840E04FF400615F48C8
:10537000FBF7E9F9002839D100240CE04FF4006173
:105380005A48FBF7E0F9012800D106E04FF47A70A3
:1053900001F0AEF8641C022CF0DB00BF4FF400619A
:1053A0005248FBF7D0F908BB00240AE003F0C5FB24
:1053B000C82001F09DF803F0D1FBC82001F098F857
:1053C000641C032CF2DB5FA004F07EFC0920524930
:1053D00008700BE04FF400614448FBF7B4F928B1C2
:1053E00061A004F071FC01204B490870404800782E
:1053F0000A2808D13FA004F067FC03204649087042
:105400000120464908703A480078142809D144A080
:1054100004F05AFC0720404908704FF47A7001F0FC
:1054200067F80020324908704FF40060FBF78FF8EE
:1054300010BDFFF7CDFD02F008FC02F076FD002460
:1054400002E003F0B5FA641C032CFADB01204F499B
:105450000870FEF74FFD02F080FD00BF4C48006869
:1054600000F4E0604B490843001D49490860BFF360
:10547000408F00BF00BFFEE708B54FF4C060FAF7E9
:1054800073FF28208DF8000001208DF801008DF8B1
:1054900002008DF803006846FAF76BFF08BD0EB5F1
:1054A00001210520FBF778FBFFF7E6FF4FF40060D2
:1054B000ADF8080004208DF80B0002A90B48FBF79B
:1054C000AFF80B210020FBF7C1F94FF4006000900A
:1054D00000208DF804000C208DF8050001208DF8C7
:1054E00006006846FAF7BCFF0EBD00000008014048
:1054F0007A0100200D0A2D2D2D3E3E3E4B65792070
:105500005468726565205365636F6E6420546573DB
:1055100074204F4B0D0A00007D010020780100200F
:105520000D0A2D2D2D3E3E3E4B6579205365766547
:105530006E205365636F6E642054657374204F4B07
:105540000D0A00000D0A2D2D2D3E3E3E4B657920A3
:105550004E696E65205365636F6E64205465737485
:10556000204F4B0D0A0000000D0A2D2D2D3E3E3E12
:105570004B6579204F6E65205365636F6E642054D0
:10558000657374204F4B0D0A000000007901002064
:105590000CED00E00000FA0510B50A2000F0A8FFAD
:1055A00010BD10B50A2000F0CAFF10BD08B5D248E2
:1055B000D2490A68026089888180D1490968C0F8A7
:1055C0000610D0490968C0F80A10CF490968C0F828
:1055D0000E10CE490968C0F81210CD48007810B9F5
:1055E000CCA004F071FBCA480078022825D1FFF74F
:1055F000D8FFCF480078D8B9CD484078082817D1CF
:10560000CB488078DC2813D1CAA004F05DFBBA48EF
:10561000C749D1F80610C0F80610C549D1F80A10DC
:10562000C0F80A10C249D1F80E10C0F80E1004E0FC
:10563000C5A004F049FBFFF7AFFFB548007801288B
:1056400022D1CF480078012818D1CEA004F03CFB2D
:10565000A948D049D1F80610C0F80610CD49D1F8B4
:105660000A10C0F80A10CB49D1F80E10C0F80E107D
:10567000C849D1F81210C0F8121005E0C6A004F015
:1056800023FBA4A004F020FB01209B498876002185
:105690009948C1760A3000F005FA97480E3000F0BC
:1056A000F1F99548801D00F00FFA954800F027FAAF
:1056B0009348C07800909248837842780178BEA0E1
:1056C00004F002FB8F4800F008FA8E48C078009082
:1056D0008C48837842780178BFA004F0F5FA8A48B4
:1056E00000F0D8F98848C0780090874883784278DD
:1056F0000178C1A004F0E8FA08BD10B57E487F49E2
:105700000A6802608988818000F0D5F9A1487B4948
:105710000A6802608988818010BD10B5FDF7AEFF70
:1057200001214FF48870FBF737FA10BD10B504461D
:1057300024B91021B848FBF722F805E0012C03D169
:105740001021B548FBF719F810BD10B50020FFF780
:10575000EDFF10BD10B50120FFF7E8FF10BD10B53B
:105760004FF40041AD48FBF70AF8022000F0E7FED5
:105770004FF40041A948FBF700F84FF4C86000F06F
:10578000B7FE10BD10B504462046FDF7F7FF10BD6B
:1057900070B504460D46FFF7D8FFC4F30740FFF786
:1057A000F1FFC4F30720FFF7EDFF04F0F801091D36
:1057B000C8B2FFF7E7FF2846FFF7E4FFFFF7CAFF8D
:1057C00070BD70B504460025FFF7BFFFC4F3074066
:1057D000FFF7D8FFC4F30720FFF7D4FF04F0F80069
:1057E000FFF7D0FF0020FFF7CDFF0546FFF7B2FF20
:1057F000284670BD2DE9F04104460F4615460026A7
:1058000015B987A004F060FAFFF79FFFC4F30740C3
:10581000FFF7B8FFC4F30720FFF7B4FF04F0F80167
:10582000091DC8B2FFF7AEFF002604E0B85DFFF720
:10583000A9FF701C86B2AE42F8DBFFF78BFF28464B
:10584000BDE8F0812DE9F04104460F4615460026DB
:1058500015B973A004F038FAFFF777FFC4F30740D7
:10586000FFF790FFC4F30720FFF78CFF04F0F80068
:10587000FFF788FF002605E00020FFF783FFB855FB
:10588000701C86B2AE42F7DBFFF764FF2846BDE826
:10589000F08110B5FDF7A7FFFDF790FF0121084645
:1058A000FBF787F910BD10B5FFF7F3FF10BD10B57A
:1058B000FFF7EFFF10BD60480068401C5E490860BC
:1058C00008460068B0F57A7F0BD3002008605B487B
:1058D0000068401C5949086059480078401C5849E4
:1058E0000870704770B557A004F0EEF900204468C6
:1058F0002546A84770BD00008C2C002044000020E5
:105900008001002084010020880100208C010020FB
:1059100098010020CAB9D3C3B6A8D2E5B5C449508E
:10592000D0C5CFA2C5E4D6C357353530300D0A00F7
:10593000A82C002049502066726F6D2045455052BA
:105940004F4D0D0A00000000454550524F4DCEB45A
:10595000C5E4D6C32CCAB9D3C3B6A8D2E5B5C449E9
:1059600050D0C5CFA2C5E4D6C357353530302CB2A0
:10597000A2D0B4C8EB454550524F4D0D0A0000006F
:105980009901002049502066726F6D2044484350B1
:105990000D0A00000AE1002044484350D7D3B3CC9D
:1059A000D0F2CEB4D4CBD0D02CBBF2D5DFB2BBB3C7
:1059B000C9B9A60D0A0000005735353030204950CE
:1059C000B5D8D6B72020203A2025642E25642E2570
:1059D000642E25640D0A0000573535303020D7D3AA
:1059E000CDF8D1DAC2EB203A2025642E25642E258D
:1059F000642E25640D0A0000573535303020CDF86F
:105A0000B9D820202020203A2025642E25642E2578
:105A1000642E25640D0A00000008014000180140B2
:105A2000556E657870656374656432206C656E6769
:105A3000746820300D0A00009C010020A0010020A5
:105A4000A401002020CFB5CDB3D6D8C6F4D6D0A1BE
:105A5000ADA1AD0D0A00000010B50446214600209E
:105A6000FFF796FE10BD10B58020FFF7F5FF10BDC3
:105A70000146DC4830F8110070470146DA4830F83A
:105A80001100704710B50446042221469001FFF72B
:105A9000B1FE10BD10B50446042221469001FFF767
:105AA000D1FE10BD10B50446042221464FF4A0607B
:105AB000FFF7A0FE10BD10B50446062221464FF4A4
:105AC0001060FFF797FE10BD10B504460422214672
:105AD0004FF47060FFF78EFE10BD10B5044604222F
