:020000040801F1
:10000000902500205D02010889260108831E010851
:1000100085260108F5180108B73C0108000000001A
:10002000000000000000000000000000D9310108BD
:10003000D91A010800000000E9270108013401086D
:1000400077020108770201087702010877020108A8
:100050007702010877020108770201087702010898
:100060007702010877020108770201087702010888
:100070007702010877020108770201087702010878
:100080007702010877020108770201087702010868
:100090007702010877020108770201087702010858
:1000A0007702010877020108770201087702010848
:1000B0007702010877020108770201087702010838
:1000C0007702010877020108770201087702010828
:1000D000770201087702010801390108D5390108C2
:1000E0007702010877020108770201087702010808
:1000F00077020108770201087702010877020108F8
:1001000077020108770201087702010877020108E7
:1001100035360108B1370108770201087702010876
:1001200077020108770201087702010877020108C7
:1001300000F002F800F073F80AA090E8000C824486
:100140008344AAF10107DA4501D100F068F8AFF263
:10015000090EBAE80F0013F0010F18BFFB1A43F0A5
:1001600001031847FC4F00001C5000000A444FF0E8
:10017000000C10F8013B13F0070408BF10F8014B06
:100180001D1108BF10F8015B641E05D010F8016B4B
:10019000641E01F8016BF9D113F0080F1EBF10F8AF
:1001A000014BAD1C0C1B09D16D1E58BF01F801CBD2
:1001B000FAD505E014F8016B01F8016B6D1EF9D555
:1001C0009142D6D37047000000230024002500266A
:1001D000103A28BF78C1FBD8520728BF30C148BFAA
:1001E0000B607047662904F03487642900F0A28010
:1001F000782900F0DB80632900F0A584732900F0E2
:10020000AA84002070471FB500F0E4FC0400002021
:10021000002104F013F9E0601FBD10B510BD00F01F
:10022000D9FD1146FFF7EFFF03F0C6FD00F0F7FD23
:1002300003B4FFF7F2FF03BC03F061FDEFF30980A5
:10024000704780F309887047EFF30880704780F3A8
:100250000888704740BA7047C0BA7047094880475D
:1002600009480047FEE7FEE7FEE7FEE7FEE7FEE798
:10027000FEE7FEE7FEE7FEE704480549054A064BB0
:10028000704700000934010831010108901F002067
:100290009025002090210020902100207047000030
:1002A0000FB4044910B503AA029800F059FC10BC21
:1002B0005DF814FBB40000200FB41CB5074B06AA70
:1002C0007B4469460090059800F01BFC00206946BD
:1002D00000F02AFC1CBC5DF814FB0000650800005F
:1002E00070B50C460546012A05D02878800600D551
:1002F000EA69002302E0012305E05B1C934202D27D
:10030000E05C0028F9D1A869E618C01AA861286A3B
:10031000184428622846AFF3008004E0D5E90121A3
:1003200014F8010B9047B442F8D32846AFF300808D
:1003300070BD00002DE9F0410646002410687529C3
:10034000314616A510D0AFF30080002802DA4042F3
:1003500013A507E031688A0701D512A502E0490715
:1003600004D511A5012401E0AFF3008000210A2289
:1003700006F1240709E0B0FBF2FCB0FBF2F302FB4C
:100380001C00303078541846491C0028F3D123460D
:100390002A463046BDE8F04100F047B900000000B1
:1003A0002D0000002B0000002000000070B5044666
:1003B0000D4621461068AFF300802188090502D55B
:1003C0000F4A7A4402E00E4A7A440E32002104F1C8
:1003D000240305E000F00F060009965D5E54491CF9
:1003E0000028F7D120780023000704D5702D02D013
:1003F00009B1022311322046BDE8704000F015B962
:10040000904C00002DE9F0474FF0000A8946044661
:10041000C0F820A02046E1688847002876D025282B
:1004200006D0D4E901219047206A401C2062F1E700
:10043000E168204600268847C4F81CA0054600272E
:10044000C4F818A02A2D09D0284603F051FC38B36F
:1004500004EB8708303DC8F8185019E059F8041B20
:10046000204604EB87029161E1688847012F054629
:1004700018D1E069002820DA26F020061DE0D8F81F
:10048000180000EB800005EB40003038C8F8180079
:100490002046E1688847054603F02AFC0028EED193
:1004A000012F0AD02E2D08D12046E16888477F1CF5
:1004B0000546022F46F02006C4DBA069002803DAB7
:1004C000404246F00106A061F00701D026F0100678
:1004D0006C2D0AD0682D08D04C2D39D06A2D35D01E
:1004E000742D35D07A2D33D016E0E1682F462046A2
:1004F0008847B84205460AD16C2F27D04FF4806058
:10050000E168064320468847054605E027E06C2F52
:100510001AD04FF4807006430DB3A5F1410019289D
:1005200002D8203546F400664A4629462046266011
:100530004E46FFF757FE80B101280BD0F61D26F07E
:10054000070000F1080965E74020E4E78020D7E7CD
:100550000020D5E706F104095CE7284661E7206A38
:10056000BDE8F08730B505460B462A4613F8014B27
:1005700012F8010B08B1A042F8D01CB1002802D03B
:100580006D1CF1E7284630BD10B5431C02E010F8A1
:10059000011B71B18107FAD14FF0013202C88C1AE8
:1005A0008C4314EAC211F9D0C01A0A0603D0C01E47
:1005B00010BDC01A10BD0A0401D0801E10BD090272
:1005C000FCD0401E10BD421E12F8013F002BFBD193
:1005D00011F8013B002B02F8013BF9D170474FF0B5
:1005E00000020429C0F0128010F0030C00F0CC824D
:1005F000CCF1040CBCF1020F18BF00F8012BA8BF0E
:1006000020F8022BA1EB0C0100F0BEBA5FEAC17C1E
:1006100024BF00F8012B00F8012B48BF00F8012B84
:10062000704770477047704770472DE9F0470D4697
:1006300099469246044600F124080168880604D5CC
:10064000E06921F01001216000E00120A84201DDF5
:10065000471B00E00027A1697A1902EB0900081A7C
:10066000A0612078C00602D42046AFF300800026A7
:1006700008E0D4E901211AF806009047206A401CDE
:10068000761C20624E45F4DB2078C0060AD5204651
:10069000AFF3008006E0D4E9012130209047206AC2
:1006A000401C2062381EA7F10107F4DC07E0D4E902
:1006B000012118F805009047206A401C2062281E7E
:1006C000A5F10105F3DC2046AFF300802078000699
:1006D00002D50220BDE8F0870120FBE770472DE935
:1006E000FF4F0C461E464FF0FF378BB0D2E900019A
:1006F000DDF860800A908A46C1F30A5505B93D4687
:10070000002108464FF00000BAF1000F00F440004D
:1007100005DA00EB80004FF4400101EA50004FEA97
:100720009059B9F1010F00DDB9460A9850EA4A0024
:100730000ED044F61050A5F2FF3545432F14B8F102
:10074000000F1ED07542291E1EDDC9F100021CE0FB
:10075000B8F1010F4FF0000001D0302103E0F24367
:1007600005E02154401CB042FBDB30460022002152
:1007700021540B99C1F80880C1E900200FB0BDE8F1
:10078000F08FBD1B6D1CDEE74A4600DA694206A801
:1007900000F0AAFA06AB93E8070003AB83E8070072
:1007A00050460A9900F082FB8DE80700A0F5005042
:1007B0001F3800900398002D09DD42F21F014A46C0
:1007C000084403A90390684600F0E1FD08E0A0F5A5
:1007D00000504A461F3803A90390684600F0EBFD1D
:1007E0008DE807000004000C03D04FF0FF304108F3
:1007F00000E01046B8F1000F03D000220092154629
:100800001EE0751E05D400F0E9F9303262556D1E08
:10081000F9D5B3460122084302D000227F1C04E030
:100820002078302801D100227F1E002A099786D027
:100830001DE0112D07DA00F0D1F9303262556D1C40
:1008400050EA0102F5D1084302D00098C8B10EE089
:100850000021681E05E0235C625C63542254401E44
:10086000491C8142F7DBAB46A81B401E09900020C3
:1008700004F80B000B98099AC0F80880C0E9002B17
:100880007CE711264FF0000859E72DE9F04F884624
:100890000446D21D22F0070191B0D1E90001CDE953
:1008A0000A0103F011FA02460B98C00F01D02D2067
:1008B00007E02068810701D52B2002E0202101EA12
:1008C000C000032A099001D0072A05DB03464146F0
:1008D000204600F0C9F90BE12078800601D5E069D7
:1008E00000E00620B8F1650F814606D0B8F1660F2A
:1008F00018D0B8F1670F70D131E00020B9F1110FB5
:10090000009001DB112301E009F101030AAA01A90A
:100910000CA8FFF7E4FEDDE90C70002609F10105E3
:10092000834647E001204B4600904FF000470AAA5B
:1009300001A90CA8FFF7D3FEDDE90DB00C995D46C7
:10094000002610B909F101000D18B9EB050003D418
:10095000C0F1FF3609F10105A5EB09002BE0B9F163
:10096000010F01DA4FF001090020B9F1110F0090D9
:10097000484601DD112300E003460AAA01A90CA89C
:10098000FFF7ADFEDDE90C704D460026834620786A
:1009900000070AD4AB4500DA5D4601A8012D04DD4D
:1009A000411911F8011C302907D04F4502DA17F11F
:1009B000040F04DA012082460FE06D1EEEE7002FDF
:1009C00002DCED1B3E4403E0781CA84200DD7D1CE8
:1009D000B81B00F1010A4FF000472078000703D44C
:1009E000AA4501DB4FF0FF3A0021B7F1004F0DF1AE
:1009F00043088DF8431024D002202B23002F01DA66
:100A00007F422D230A21021EA0F1010000DC5FB10C
:100A100097FBF1FC97FBF1F201FB1C7C17460CF1F4
:100A2000300C08F801CDEEE7A8F101000370218831
:100A3000090501D5452100E06521A0F1010800F874
:100A4000011C09980FA9A1EB0807FF1D00B10120A7
:100A5000411901EBEA70A1693844081A401EA061EF
:100A60002078C00602D42046AFF30080099828B150
:100A7000D4E901219047206A401C20622078C006FA
:100A800022D52046AFF300801EE0002E04DBB345E4
:100A900002DD01A8805D00E03020D4E9012190470B
:100AA000206A401C2062761CAAF101005FEA000A5D
:100AB0000AD100F08FF8C0680168405CD4E90121D8
:100AC0009047206A401C2062281EA5F10105DCDC4D
:100AD00007E0D4E9012118F8010B9047206A401C77
:100AE0002062381EA7F10107F3DC2046AFF3008037
:100AF000032011B043E6000001694A1C0261087836
:100B0000704700B58FB0CDE901310021059105494D
:100B10007944CDE9031011466846FFF773FC0FB026
:100B200000BD0000E5FFFFFF0A6802F8010B0A6044
:100B3000704710B5436913B1AFF3008001E0FFF7D0
:100B4000CFFB012010BD127800F124010A700022B1
:100B50004A700122EDE711684FF0FF32E9E700002B
:100B6000074B70B50D467B44FFF7CBFF0446284684
:100B700000F028F910B14FF0FF3070BD204670BD75
:100B80002B3200004FF0000200B513469446964603
:100B9000203922BFA0E80C50A0E80C50B1F1200190
:100BA000BFF4F7AF090728BFA0E80C5048BF0CC03E
:100BB0005DF804EB890028BF40F8042B08BF70479C
:100BC00048BF20F8022B11F0804F18BF00F8012B0E
:100BD00070470000004870474C1F002030B5B0F14E
:100BE0000A024FEA900E71F100034EEA817EB0EBEB
:100BF0000E0061EB91014FEA101E4EEA017E10EBF0
:100C00000E0041EB11114FEA102E4EEA016E10EB6F
:100C10000E0041EB11214FEA104E4EEA014E10EB4F
:100C20000E0041EB1141401841F100014FEAD000A4
:100C300040EA41704FEAD10110EB80054FEA810490
:100C400044EA907444EB01046D1944EB0404521B14
:100C5000A3414FF0000348BF0A3200D530BD401C0D
:100C600041F1000130BD00002DE9F0411F4604466E
:100C700003260168072A01F4006004DB08B116A509
:100C800005E016A503E008B115A500E015A521F0C3
:100C900010002060A069C01EA0610FB1401EA061BD
:100CA0002046AFF300804FB1D4E901213846904788
:100CB000206A401C2062C01C206206E0206AFAE71D
:100CC000D4E9012115F8010B9047761EF8D2204691
:100CD000AFF30080BDE8F0814E414E006E616E00C2
:100CE000494E4600696E66002DE9F047814616467A
:100CF0008AB0334878440DC88DE80D0030487844F8
:100D0000801C03AC0DC884E80D0041F69B300844FC
:100D1000372190FBF1F290FBF1F5A5F1800501FB85
:100D200012041B3C02D56442012000E00020DFF8E1
:100D300090A080460027FA44AAF1BE0A0DE0E00721
:100D400009D03246684607EB47010AEB810100F003
:100D500032FB8DE8070064107F1C002CEFD1184F88
:100D60007F44AC3F18E0E80714D007EB04100DF106
:100D7000180A90E80E008AE80E00C068F04201D11F
:100D800098190890324606A903A800F014FB03AB9B
:100D900083E807006D10641C002DE4D132466946DB
:100DA000B8F1000F03A802D000F0F1FA01E000F062
:100DB00002FBC9E90001C9F808200AB0BDE8F087C4
:100DC00004440000007B00F080007047004870473A
:100DD0002C1F00207546FFF7F9FFAE460500694657
:100DE000534620F00700854618B020B5FFF744FAB7
:100DF000BDE820404FF000064FF000074FF000081C
:100E00004FF0000B21F00701AC46ACE8C009ACE89C
:100E1000C009ACE8C009ACE8C0098D46704704467B
:100E2000AFF300802046FFF703FA00004FF0013CCB
:100E300050F8042B51F8043B9A4221D1A2EB0C0349
:100E4000934313EACC1317D150F8042B51F8043B09
:100E50009A4215D1A2EB0C03934313EACC130BD1A6
:100E600050F8042B51F8043B9A4209D1A2EB0C0331
:100E7000934313EACC13DBD04FF00000704700BF60
:100E8000D01A01BAB1FA81F101F0180122FA01F089
:100E9000CB40C1F12001DBB2C0B2C01A2CFA01F381
:100EA000D11A914311EAC311E6D170475FEA400CB1
:100EB00008BF91F0000F4FEA8C234FEAC12243EAAA
:100EC00051514FEA1C5018BF00F5F0404FEA300076
:100ED00018BF41F000415FEA6C5C00F02980BCF172
:100EE000FF3F08BF40F080407047130C06BF12045C
:100EF0004FF0100C4FF0000C130E04BF12020CF157
:100F0000080C130F04BF12010CF1040C930F04BF63
:100F100092000CF1020CD30F04BF52000CF1010C33
:100F200011464FF00002A0F11F00A0EB0C0070472B
:100F300011F0004F08BF704731F000413FF4D5AFCA
:100F40000B0C06BF09044FF0100C4FF0000C0B0EF9
:100F500004BF09020CF1080C0B0F04BF09010CF1CE
:100F6000040C8B0F04BF89000CF1020CCB0F04BFE3
:100F700049000CF1010CCCF12003A0EB0C0022FA8B
:100F800003F302FA0CF241EA030100F10100704799
:100F900020F07F4C80EA030023F07F47ACEB07038F
:100FA00003F57C5300F0004003F1FF032DE9804975
:100FB0004FEA154B09B44FEA144325EA0B4E24EAD5
:100FC00003480FF2042606EB132749083E785FEA30
:100FD000320203FB0667C7F5000707FB06F64FEA78
:100FE00054374FEAD64606F1020607FB066CCCF1F1
:100FF000005C4FEA1C472CEA074C07FB06F40CFB8D
:1010000006F504EB15464FEA961634BF00204FF064
:1010100000404FEAD13706FB07FC4FEA1C4C0CFBA3
:101020000BF7D21B03FB0CF761EB07010CFB0EF770
:10103000B0EB074072EB17420CFB08F734BFA2EB92
:101040000742B2EB074261EB17414FEA0C444FEA0B
:10105000910706FB07FC4FEA1C4C0CFB0BF7B0EBAF
:10106000C74072EB573203FB0CF734BFA2EBC74209
:10107000B2EBC74261EB57310CFB0EF7B0EBC70088
:1010800072EB57720CFB08F734BFA2EBC702B2EB4E
:10109000C70261EB5771039F4FEA816141EA9211E8
:1010A00004EBCC044FEAD1374FEA826206FB07FC1F
:1010B00042EA90124FEA80604FEA1C4C0CFB0BF79F
:1010C000D21B03FB0CF761EB07010CFB0EF7B0EB37
:1010D000074072EB17420CFB08F734BFA2EB074244
:1010E000B2EB074261EB17414FEA8C554FEA91078B
:1010F00004EB9C2406FB07FC4FEA1C4C0CFB0BF793
:10110000B0EBC74072EB573203FB0CF734BFA2EBD6
:10111000C742B2EBC74261EB57310CFB0EF7B0EBA5
:10112000C70072EB57720CFB08F734BFA2EBC70283
:10113000B2EBC70261EB577115EB4C254FEA8161A9
:1011400041EA92114FEA82624FEAD13742EA9012A5
:1011500006FB07FC44F100044FEA80604FEA1C4C98
:101160000CFB0BF7D21B03FB0CF761EB07010CFB2D
:101170000EF7B0EB074072EB17420CFB08F734BFD9
:10118000A2EB0742B2EB074261EB174115EB1C15CE
:101190004FEA813141EA92414FEA823242EA90427B
:1011A0004FEA80304FEA0C7644F1000448EA0343EA
:1011B0004EEA0B484FF0000EB2EB080C71EB030740
:1011C00024BF624639464EEB0E0E4FF0000B00185E
:1011D000524149414BEB0B0BB2EB080C71EB03078F
:1011E0007BF1000B24BF624639464EEB0E0E4FF0EA
:1011F000000B0018524149414BEB0B0BB2EB080CB2
:1012000071EB03077BF1000B24BF624639464EEBBE
:101210000E0E51EA020718BF46F0010616EB0E76D5
:1012200055F1000254F1000103D5BDE88901BDE884
:101230000088BDE88901BDE80048B619524141EB7C
:101240000101A3F10103704780807F7E7D7C7B7A62
:101250007978777676757473727171706F6E6E6D62
:101260006C6C6B6A6A696868676666656464636308
:1012700062616160605F5F5E5E5D5D5C5C5B5B5A8E
:101280005A595958585757565655555554545353FB
:1012900052525251515050504F4F4F4E4E4D4D4D56
:1012A0004C4C4C4B4B4B4A4A4A49494948484847A1
:1012B00047474746464645454544444444434343DF
:1012C0004342424242414141002B26D4770021D083
:1012D0001CB54FEA370703B44FF010004FF0100170
:1012E0004FF000000FBCBDE810400BF1010BBBF14B
:1012F000010F08BF5FEA170722BF12F1010211F1C7
:1013000001014FF0004143F1000300F0004043EAC7
:1013100000007047F9D35708DAE746EA064613F1AA
:10132000400F4FEA16461FDD13F1200FDFBF1643B3
:101330000A46002120335B42C8D0C3F1200746EAA9
:10134000064602FA07F74FEA164646EA0706C3F1D1
:10135000200722FA03F201FA07F721FA03F14FF00E
:10136000000342EA0702B1E746EA020646EA0646F9
:101370004FEA164646EA0106BCBF46EA0646360C68
:101380004FF000034FF000024FF000019EE72DE9FF
:10139000C048934630B491E8380007C831EA400CA1
:1013A00048BF34EA430C03D5FFF7F2FDFFF78CFF8B
:1013B000F0BCBDE800882DE9C048934630B491E800
:1013C000380007C810F0804F08BF13F0804F03D1DA
:1013D00000F005F8FFF778FFF0BCBDE8008820F0CA
:1013E0007F4780EA030023F07F4C07EB0C03A3F553
:1013F0007C5300F00040A3F1FE0392F0000F00F0D8
:10140000B38095F0000F00F077802DE901494FEA95
:1014100011404FEA144621EA004800FB06FC24EA8A
:10142000064708FB06F607FB08F800FB07F718EB72
:1014300006484CEB164C4FEA124B18EB07484FEAA4
:1014400015464CEB174022EA0B4E0BFB06FC25EA37
:1014500006470EFB06F607FB0EFE0BFB07F71EEB1F
:10146000064E4CEB164C4FF000061EEB074E4CEBB5
:10147000174B18EB0B0840F1000018EB0E0B58EB64
:10148000000840F100008F1A4FF000013CBFC94333
:10149000661B14BFB5EB040C00213CBFC943F61B0F
:1014A0004FEA17444EEA8E0E27EA04454FEA1C47DE
:1014B00004FB07622CEA074C05FB07F70CFB05F65B
:1014C00004FB0CFC16EB074642EB174216EB0C46EE
:1014D00042EB1C421BEB060658EB0202414146EA76
:1014E0009E0601D5BDE80189B619524141EB0101C3
:1014F000A3F10103BDE801894FEA14454FEA114702
:1015000024EA054621EA074C05FB07F406FB07F72A
:101510000CFB06F105FB0CFC11EB074144EB1744F7
:101520004FEA124711EB0C4144EB1C4422EA074CF2
:1015300005FB07F206FB07F70CFB06F605FB0CFCA8
:1015400016EB074642EB174216EB0C4642EB1C45E6
:101550006A1854F1000148BF7047B619524141EB77
:101560000101A3F10103704795F0000F37D04FEA56
:1015700011424FEA144721EA024624EA074C02FBD3
:1015800007F106FB07F70CFB06F402FB0CFC14EB5F
:10159000074441EB17414FEA154714EB0C4441EB6C
:1015A0001C4125EA074C02FB07F506FB07F70CFB7D
:1015B00006F602FB0CFC16EB074645EB174516EB4F
:1015C0000C4645EB1C42121951F1000148BF70470F
:1015D000B619524141EB0101A3F1010370474FEAF3
:1015E00014454FEA114724EA054621EA074C05FB5A
:1015F00007F106FB07F70CFB06F24FF0000605FBB0
:101600000CFC12EB074241EB174112EB0C4251EB81
:101610001C4148BF7047921841EB0101A3F101033F
:10162000704721B1826842F00102826003E0826863
:1016300022F001028260704721B1826842F4807218
:10164000826003E0826822F4807282607047014603
:1016500000208A6802F004020AB1012000E00020A4
:101660007047014600208A6802F008020AB1012092
:1016700000E000207047000030B502460020002343
:1016800050680F4C20400D790C6844EA0524204333
:10169000506090680B4C2040D1E902542C434D79A6
:1016A00044EA450420439060D06A20F470000C7C2A
:1016B000641EE4B2234340EA0350D06230BD000010
:1016C000FFFEF0FFFDF7F1FFF0B504460D460020E8
:1016D0000021092D11DDE068A5F10A0606EB460799
:1016E000072606FA07F18843A5F10A0606EB460627
:1016F00003FA06F10843E0600CE0206905EB4507BA
:10170000072606FA07F1884305EB450603FA06F1BA
:1017100008432061072A0FDA606B561E06EB860726
:101720001F2606FA07F18843561E06EB860605FAC1
:1017300006F10843606322E00D2A0FDA206BD61F02
:1017400006EB86071F2606FA07F18843D61F06EB2D
:10175000860605FA06F10843206310E0E06AA2F16C
:101760000D0606EB86071F2606FA07F18843A2F14D
:101770000D0606EB860605FA06F10843E062F0BDA9
:10178000816841F008018160704721B1826842F4AC
:10179000A002826003E0826822F4A00282607047A7
:1017A000816841F0040181607047000008B50121A3
:1017B000102001F047F80220ADF8000000208DF85D
:1017C00003006946014800F0CDFA08BD0010014051
:1017D00010B5FFF7EBFF00F001F810BD00B591B0B8
:1017E0000121084601F00EF80121480201F02AF813
:1017F000334800F0ADF83348069033480790002096
:1018000008900120099000200A900B904FF48070FE
:101810000C9080000D9020200E9000020F90002070
:10182000109006A9264800F039F90121244800F05B
:1018300083F8002001908DF8080001208DF8090040
:101840004FF4602003900020049001208DF81400D4
:1018500001A91C484C38FFF70FFF4FF4404000F03F
:10186000C5FF052301220B2116484C38FFF72CFF3A
:10187000012114484C38FFF7DFFE012111484C3894
:10188000FFF7CFFE0F484C38FFF77AFF00BF0D4837
:101890004C38FFF7E6FE0028F9D10A484C38FFF72C
:1018A0007FFF00BF07484C38FFF7D1FE0028F9D171
:1018B000012104484C38FFF768FF11B000BD00005B
:1018C000080002404C2401406C00002010B500BF0D
:1018D00003234FF47A7203A103A002F035FC002821
:1018E000F6D110BD4F4B000041542B534C45455091
:1018F0000D0A000000BFFEE70148006870470000C5
:10190000D40000202DE9F04108494979074A1279AD
:1019100041EA022003F009F80646054A054B03F0A8
:101920001BF8044602F0D2FFBDE8F0819E0E0020B5
:101930009A9999999999B93F21B1026842F00102A7
:10194000026004E002684FF6FE731A4002607047BE
:1019500001684FF6FE721140016000210160416094
:101960008160C1604B49884208D14A4908394968B9
:1019700041F00F01474A083A51608AE04549143165
:10198000884208D143490839496841F0F001414A89
:10199000083A51607DE03F492831884208D13D49ED
:1019A0000839496841F470613A4A083A516070E078
:1019B00038493C31884208D136490839496841F4F0
:1019C0007041344A083A516063E0324950318842EC
:1019D00008D130490839496841F470212D4A083A44
:1019E000516056E02B496431884208D129490839B1
:1019F000496841F47001274A083A516049E0254995
:101A00007831884208D123490839496841F070612A
:101A1000204A083A51603CE01F49884206D1011F24
:101A2000096841F00F01021F116032E01A491431B8
:101A3000884208D11849091F096841F0F001164A87
:101A4000121F116025E014492831884208D112493B
:101A5000091F096841F470610F4A121F116018E0F4
:101A60000D493C31884208D10B49091F096841F4EE
:101A70007041094A121F11600BE00749503188423A
:101A800007D10549091F096841F47021024A121F54
:101A900011607047080002400804024010B500229F
:101AA000026847F6F0739A430C6A8B6823430C690B
:101AB00023434C6923438C692343CC6923434C6AF9
:101AC00023438C6A23431A430260CB6843600B684C
:101AD00083604B68C36010BD704700B500F002F82A
:101AE00000BD0000002211480068114B1867114822
:101AF0000068401C0F4B1860184600681C2801DD68
:101B00000020186000210AE0094B481C53F820000F
:101B100043F82100184650F821000244491C1C29B2
:101B2000F2DB02EB82004000704700001C01002045
:101B3000040F0020E000002010B51D2200211948EC
:101B400000F0EAFF1D222021174800F0E5FF1549AB
:101B500016A0FEF7A5FB1348FEF716FD0446214626
:101B600017A0FEF79DFB104910A0FEF799FB0E4849
:101B7000FEF70AFD0446214611A0FEF791FB1D2247
:101B80004021124800F0C8FF104908A0FEF788FB6A
:101B90000E48FEF7F9FC0446214609A0FEF780FB3B
:101BA00010BD00005405002072050020B6C1B3F638
:101BB000B5C4CAFDBEDDCEAAA3BA25730D0A0000C6
:101BC0004C656E74683A25640D0A0000900500208B
:101BD00010B501F011F9314908604FF47A7002F044
:101BE000B3F801F029F92E4908602C48026808462C
:101BF00001682CA0FEF754FB29480068364988424A
:101C00004BD1002001F042F9302001F03FF91D22B4
:101C10000021324800F0AAFF1D222021304800F0A8
:101C2000A5FF1D2240212F4800F0A0FF2D492EA026
:101C3000FEF736FB1D2200212F4800F06DFF2E49D4
:101C40002EA0FEF72DFB2C48FEF79EFC04462146F5
:101C500031A0FEF725FB1D222021324800F05CFF59
:101C6000304931A0FEF71CFB2E48FEF78DFC0446E0
:101C7000214629A0FEF714FB1D224021314800F027
:101C80004BFF304930A0FEF70BFB2E48FEF77CFCE3
:101C90000446214620A0FEF703FB10BDE80100200A
:101CA000EC010020466C6173684944206973203060
:101CB0007825582C4D616E75666163747572657216
:101CC0002044657669636520494420697320307833
:101CD00025580D0A000000001740EF00DC16002018
:101CE000FA16002022050020526561645F49503ACF
:101CF0002025730D0A00000054050020B6C1B3F67C
:101D0000B5C4CAFDBEDDCEAA2020202053534944CD
:101D1000A3BA2573200000004C656E74683A2564F0
:101D20000D0A000072050020B6C1B3F6B5C4CAFDA5
:101D3000BEDDCEAA2020506173737264A3BA2573EE
:101D40002000000090050020B6C1B3F6B5C4CAFD5E
:101D5000BEDDCEAA2020202020204950A3BA257322
:101D6000200000002DE9F041024600250026002059
:101D700000230024002791F803C00CF00F0591F810
:101D800003C00CF0100CBCF1000F03D091F802C09E
:101D90004CEA050591F800C0BCF1000F31D0146881
:101DA00000202BE04FF0010C0CFA00F3B1F800C05A
:101DB0000CEA03069E4220D183004FF00F0C0CFA70
:101DC00003F7BC4305FA03FC4CEA040491F803C092
:101DD000BCF1280F06D14FF0010C0CFA00FCC2F840
:101DE00014C00AE091F803C0BCF1480F05D14FF0D0
:101DF000010C0CFA00FCC2F810C0401C0828D1D31A
:101E00001460B1F800C0BCF1FF0F34DD546800204D
:101E10002EE000F1080C4FF0010808FA0CF3B1F8BD
:101E200000C00CEA03069E4221D183004FF00F0C44
:101E30000CFA03F7BC4305FA03FC4CEA040491F8DE
:101E400003C0BCF1280F05D100F1080C08FA0CF80A
:101E5000C2F8148091F803C0BCF1480F07D100F11B
:101E6000080C4FF0010808FA0CF8C2F81080401C6A
:101E70000828CED35460BDE8F0814161704701610C
:101E8000704700BFFEE7000070B50223E522802105
:101E90002E4800F09DF82D4800782D49086008462E
:101EA0000068642190FBF1F02A4908602848006826
:101EB000642190FBF1F201FB1200254908602348E0
:101EC000407825490860234909684FF4C84201FB5E
:101ED00002F002F02AFD214A03C21D4909681E4A88
:101EE000126802EB012002F020FD1D4A03C21B48CC
:101EF0000CC800201B4902F02FFD044600221A4B9B
:101F000002F08CFB154A03C215480CC80020154985
:101F100002F022FD04460022134B02F07FFB104A20
:101F200003C20F480D490CC803C902F0CFFA0F4A8B
:101F300003C200220E4B0D4903C902F00BFE0B4AEF
:101F400003C20A4903C902F08FFA70BDDC110020F8
:101F50003001002038010020340100204801002019
:101F60005001002000405F400000F0404001002090
:101F70000000184021B1028842F48062028004E02F
:101F800002884FF6FF331A400280704770B5024650
:101F90000024002500230020958A138B1B0445EAAA
:101FA000030626F07F4404EA01068E4201D1012097
:101FB00000E0002070BD21B1028842F001020280E1
:101FC00004E002884FF6FE731A400280704700005A
:101FD0002DE9F04105460F4616461C464FF42040B9
:101FE000644908600AE063490868411E614A11605B
:101FF00020B9092000F0D6F9BDE8F0814FF4003196
:102000005D4800F009F90028EDD101215A4800F09F
:10201000EBF84FF480505749086009E055490868CB
:10202000411E544A116018B90A2000F0BBF9E3E7D9
:1020300052495148FFF7AAFF0028EFD00022394645
:102040004D4800F0A3F94FF480504A49086009E078
:1020500048490868411E474A116018B90B2000F032
:10206000A1F9C9E746494448FFF790FF0028EFD09F
:1020700001214148FFF79FFF31463F4800F08FF9AB
:102080004FF480503B49086009E03A490868411E16
:10209000384A116018B90C2000F084F9ACE73849CF
:1020A000891C3548FFF772FF0028EED00121324825
:1020B00000F09AF84FF480502E49086009E02D494D
:1020C0000868411E2B4A116018B90D2000F06AF90A
:1020D00092E72A492848FFF759FF0028EFD001224C
:1020E0003946254800F052F94FF4805021490860E4
:1020F00009E020490868411E1E4A116018B90E20E7
:1021000000F050F978E71D49491C1B48FFF73EFFD6
:102110000028EED026E0012C07D100211648FFF759
:1021200029FF0121144800F06BF84FF420401149B9
:10213000086009E00F490868411E0E4A116018B98D
:10214000032000F02FF957E70C493F310A48FFF709
:102150001DFF0028EED0084800F014F928706D1C0F
:10216000601E84B2002CD6D101210348FFF702FF84
:10217000012041E7640000200054004001000300FA
:102180008200070010B500F009F800F0D9F84020EF
:102190000149088010BD00006000002008B5012141
:1021A000480500F03FFB0121082000F04BFB4020D8
:1021B000ADF8000003208DF802001C208DF803000C
:1021C00069460848FFF7CEFD8020ADF800000320E7
:1021D0008DF802001C208DF8030069460148FFF7C6
:1021E000C1FD08BD000C014021B1028842F480729B
:1021F000028004E002884FF6FF631A4002807047B5
:1022000021B1028842F40072028004E002884FF695
:10221000FF531A40028070470CB50246002000238D
:102220000193009300920B0F019321F07F41019BDA
:102230001BB1009B1433009303E0090C009B18337F
:102240000093009B1B680B400BB1012000E00020B5
:102250000CBD00002DE9F04385B004460D46002674
:10226000B1460427DFF8CC80A6884FF6C070064040
:10227000684600F01DFBDDF808802F48B8FBF0F041
:102280001FFA80F946EA0906A68020884FF6FE71FB
:102290000840208000262949286888420CD82868F0
:1022A0004000B8FBF0F087B2042F00DA04273E4369
:1022B00009F10100208427E0E8884BF6FF7188428D
:1022C00006D1286800EB4000B8FBF0F087B209E0C7
:1022D000286800EBC00101EB0010B8FBF0F087B2FA
:1022E00047F48047C7F30B0008B947F0010747F4EC
:1022F000004006434FF4967009FB00F04FF47A71EA
:1023000090FBF1F0401C2084A683208840F001005F
:10231000208026884FF6F5300640A8886989084352
:1023200006432680A88929890843208105B0BDE895
:10233000F083000000127A0040420F00A0860100E6
:102340001FB50020ADF804004BF6FF70ADF8060095
:102350000A20ADF808004FF48060ADF80A000001D3
:10236000ADF80C000548009069460548FFF772FF7C
:1023700001210348FFF71FFE1FBD0000A0860100DA
:10238000005400400146088AC0B2704712B141F0C3
:10239000010102E04FF6FE7319400182704701828D
:1023A0007047000010B50446214602A0FDF778FFF3
:1023B000002010BD3C3C2D454550524F4D2D4552FF
:1023C000524F522D3E3E204932432077616974209E
:1023D00074696D6F757420216572726F72436F64DA
:1023E00065203D2025640A0070B505460C4645F27F
:1023F000555000F02BF8284600F01CF8204600F05D
:102400001FF800F00FF800F001F870BD4CF6CC405A
:1024100001490860704700000030004010B500F02E
:1024200001F810BD4AF6AA20014908607047000073
:102430000030004001494860704700000030004013
:102440000149886070470000003000400149086081
:1024500070470000003000402DE9F041074600F0D1
:1024600001FA72B64FF0006005684468002080F3FE
:10247000148800BF2846FDF7EAFE2646B047BDE8AF
:10248000F081000008B50121742000F0DBF94FF461
:102490008070ADF8000010208DF8030003208DF847
:1024A000020069464A48FFF75DFC4FF40070ADF842
:1024B000000069464648FFF755FC4FF48060ADF8D0
:1024C000000069464248FFF74DFC2020ADF80000AF
:1024D00069464048FFF746FC2020ADF800006946F9
:1024E0003D48FFF73FFC0220ADF8000069463B483D
:1024F000FFF738FC0220ADF8000069463448FFF7CA
:1025000031FC4FF40060ADF8000069463048FFF739
:1025100029FC4FF48050ADF8000069462C48FFF7C5
:1025200021FC4FF40050ADF8000069462848FFF741
:1025300019FC4020ADF8000069462648FFF712FC60
:102540004FF48060ADF8000069462348FFF70AFCAD
:102550000820ADF8000069461F48FFF703FC102073
:10256000ADF8000069461B48FFF7FCFB1020ADF8F2
:10257000000069461648FFF7F5FB4FF480711448D8
:10258000FFF77DFC4FF400711148FFF778FC4FF422
:1025900080610F48FFF773FC20210F48FFF76FFCA5
:1025A0004FF400610A48FFF768FC02210848FFF772
:1025B00064FC4FF480510648FFF761FC4FF4005172
:1025C0000348FFF75CFC10210148FFF758FC08BDE9
:1025D00000180140001001400014014000080140B3
:1025E00010B51FA0FDF75CFE022405E01F48015D49
:1025F0001FA0FDF755FE641C142CF7DB1DA0FDF792
:102600004FFE1A48407D412810D1162400BF1748BC
:10261000015DA4F11600184A1154641C1348005DB2
:1026200020B11249601C085C2D28F0D10F48FDF73D
:10263000ABFF0A280ED200BF1048006800F4E0602B
:102640000F490843001D0D490860BFF3408F00BFCC
:1026500000BFFEE71E210548FDF7C1FF10BD0000C9
:102660002D2D2D3C3C4D616320000000D60500203F
:10267000256300000D0A0000220500200CED00E09B
:102680000000FA0500BFFEE77047000070B50021AA
:1026900000230F22C47804B3154C246804F4E064CA
:1026A000C4F5E064210AC1F10403CA40447804FA85
:1026B00003F184781440214309010E4C0678A1559A
:1026C000047804F01F050124AC4005786D11AD00BD
:1026D00005F1E025C5F8004109E0047804F01F0584
:1026E0000124AC40044D0678761145F8264070BDB3
:1026F0000CED00E000E400E080E100E0024901436D
:10270000024A1160704700000000FA050CED00E07D
:10271000024A0A400243024B1A60704780FFFF1FC3
:1027200008ED00E010B562B60349C802FFF7F0FFFC
:1027300001480249086010BD0000010808ED00E0F2
:1027400010B50FA11248FDF70DFFC0B101201149CE
:1027500008604FF47A7001F0F7FA0FA0FDF7A0FDC2
:1027600016A001F04BFE1C480021018081704FF43F
:102770007A7001F0E9FA4FF00060FFF76DFE10BDCE
:10278000234150505F555047524144452A000000B4
:10279000D6050020AC0000202D2D2D2D2D2D2D3EF9
:1027A0003E204A756D7020746F2049415020426F61
:1027B0006F746C6F616465720D0A00004A756D700C
:1027C00020746F2049415020426F6F746C6F6164B8
:1027D00065720D0A00000000D60D00200148006857
:1027E00070470000180100207047000001460020DB
:1027F000034A506820F4404008435060704700008E
:102800000010024029B1064A52690243044B5A6142
:1028100004E0034A52698243014B5A617047000049
:102820000010024029B1064AD2690243044BDA6122
:1028300004E0034AD2698243014BDA617047000029
:102840000010024029B1064A92690243044B9A6182
:1028500004E0034A92698243014B9A617047000089
:10286000001002400F48006840F001000D49086068
:10287000084640680C4908400A4948600846006814
:102880000A490840074908600846006820F480208B
:1028900008600846406820F4FE0048604FF41F00BE
:1028A00088607047001002400000FFF8FFFFF6FE4E
:1028B00030B500210022002400232D4D6D6805F065
:1028C0000C0121B1042905D0082923D105E0294DA7
:1028D000056022E0274D05601FE0254D6D6805F479
:1028E0007012234D6D6805F48034022505EB924289
:1028F0001CB9214D554305600BE01D4D6D6805F475
:1029000000351DB11C4D5543056002E0194D55437E
:10291000056002E0174D056000BF00BF144D6D68F3
:1029200005F0F0010909154D6B5C0568DD40456057
:102930000F4D6D6805F4E061090A104D6B5C456848
:10294000DD4085600A4D6D6805F46051C90A0B4D84
:102950006B5C4568DD40C560054D6D6805F4404120
:10296000890B074D6B5CC568B5FBF3F5056130BDA0
:102970000010024000127A0000093D00B80000205B
:10298000C800002010B501460022002300204A1193
:10299000012A02D1094C236806E0022A02D1074C21
:1029A000236A01E0054C636A01F01F020124944090
:1029B0001C400CB1012000E0002010BD00100240BE
:1029C00010B51EA0FDF76CFC00F086F800BF0323D5
:1029D00040F6C4121EA11FA001F03AFB0028F6D158
:1029E00000BF012340F6C41219A11BA001F030FB67
:1029F0000028F6D100BF012340F6C41214A11CA088
:102A000001F026FB0028F6D100BF032341F28832F3
:102A10000FA11DA001F01CFB0028F6D100BF03236D
:102A20004FF47A620AA124A001F012FB0028F6D12B
:102A300024A0FDF735FCFFF7F1FC10BD0D0A527420
:102A40006C5F576966695F496E6974200D0A000002
:102A50004F4B00002B2B2B004154235374614944EE
:102A6000202D73415254544553540D0A0000000068
:102A7000415423537461536563202D6B31323334D9
:102A8000353637380D0A0000415423536F636B65A8
:102A900074202D4330202D5430202D4D31202D41D8
:102AA0003137322E32342E3131312E34202D503503
:102AB0003030300D0A000000415423457869740D10
:102AC0000A0000005769666920436F6E6E65637483
:102AD000204F4B0D0A00000010B502210748FFF7F8
:102AE000CCF94FF47A7001F02FF902210348FFF777
:102AF000C6F94FF47A7001F027F910BD00080140C3
:102B000021B1028842F04002028004E002884FF6C0
:102B1000BF731A400280704770B505460C461646D2
:102B20004FF480511048FFF7A8F9032000F0D2F9C4
:102B3000C4F3074000F0CEF9C4F3072000F0CAF94F
:102B4000E0B200F0C7F904E0FF2000F0C3F92870FC
:102B50006D1C3000A6F101018EB2F5D14FF4805109
:102B60000148FFF78CF970BD000C01402DE9F05FC2
:102B700007460E4614464FF00008C146C2460025DF
:102B8000AB4606F0FF0ACAF10000C5B22046E117C5
:102B900004EB1161C1F30728E11704EB116109127D
:102BA000A4EB012101F0FF09BAF1000F20D1B8F127
:102BB000000F05D122463146384600F0CDF864E0DA
:102BC00009E04FF480723146384600F0C5F806F54A
:102BD000807607F580775FEA0800A8F1010101F02F
:102BE000FF08EED14A463146384600F0B5F84CE0D1
:102BF000B8F1000F18D1A94510DDA9EB050000F0D0
:102C0000FF0B2A463146384600F0A6F82E442F44E2
:102C10005A463146384600F09FF836E022463146A3
:102C2000384600F099F830E0601B84B22046E11786
:102C300004EB1161C1F30728E11704EB11610912DC
:102C4000A4EB012101F0FF092A463146384600F085
:102C500083F82E442F4409E04FF480723146384601
:102C600000F07AF806F5807607F580775FEA0800CD
:102C7000A8F1010101F0FF08EED1B9F1000F04D075
:102C80004A463146384600F067F8BDE8F09F00003C
:102C900000B587B001218803FFF7C4FD01214CF284
:102CA0000800FFF7CFFD4FF48050ADF8040003207B
:102CB0008DF8060010208DF8070001A92448FFF7C1
:102CC00051F84FF40050ADF8040018208DF80700BB
:102CD00001A91F48FFF746F84FF48040ADF8040003
:102CE00001A91B48FFF73EF84FF40040ADF804007F
:102CF00001A91748FFF736F84FF480511448FFF741
:102D0000BEF80020ADF808004FF48270ADF80A005C
:102D10000020ADF80C000220ADF80E000120ADF847
:102D200010004002ADF812000820ADF81400002099
:102D3000ADF816000720ADF8180002A9054800F00C
:102D400041F901210348FFF7DBFE07B000BD000099
:102D5000000C01400038004070B505460C46164690
:102D600000F010F94FF480511548FFF786F8022063
:102D700000F0B0F8C4F3074000F0ACF8C4F307204B
:102D800000F0A8F8E0B200F0A5F8B6F5807F04DD09
:102D90004FF480760BA0FDF783FA03E0287800F06B
:102DA00099F86D1C3000A6F101018EB2F6D14FF4F6
:102DB00080510348FFF763F800F0C8F870BD0000C9
:102DC000000C01403C3C2D464C4153482D4552528D
:102DD0004F522D3E3E205350495F464C4153485F71
:102DE00050616765577269746520746F6F206C61FC
:102DF000726765210A00000010B500244FF480516D
:102E00000C48FFF73AF8AB2000F064F8FF2000F020
:102E100061F8FF2000F05EF8FF2000F05BF8FF2073
:102E200000F058F804464FF480510248FFF727F8A5
:102E3000204610BD000C01402DE9F0410024002582
:102E4000002600274FF480510F48FFF716F89F2007
:102E500000F040F8FF2000F03DF80546FF2000F0AC
:102E600039F80646FF2000F035F807464FF4805148
:102E70000548FFF704F8280440EA062040EA070462
:102E80002046BDE8F0810000000C014010B504466A
:102E900000F078F800F05AF84FF480510C48FEF733
:102EA000ECFF202000F016F8C4F3074000F012F801
:102EB000C4F3072000F00EF8E0B200F00BF84FF476
:102EC00080510348FEF7DBFF00F040F810BD000022
:102ED000000C014010B504464FF4805019490860B9
:102EE0000AE018490868411E164A116020B90020FE
:102EF00000F086F8C0B210BD0221134800F054F86B
:102F00000028EED02146104800F05AF84FF48050C7
:102F10000C4908600AE00B490868411E094A116023
:102F200020B9012000F06CF8C0B2E4E701210648A6
:102F300000F03AF80028EED0034800F03EF8C0B2A6
:102F4000D9E70000B00100200038004010B500248F
:102F50004FF480510A48FEF790FF0520FFF7BAFFB3
:102F600000BFFF20FFF7B6FF044604F00100002871
:102F7000F7D14FF480510248FEF781FF10BD0000E9
:102F8000000C014010B54FF480510648FEF775FF64
:102F90000620FFF79FFF4FF480510248FEF76FFFB6
:102FA00010BD0000000C01400246002013890B40B8
:102FB0000BB1012000E0002070470146888970476E
:102FC0008181704710B50022028802F441520B88BB
:102FD0004C8823438C882343CC8823430C89234388
:102FE0004C8923438C892343CC8923431A43028091
:102FF000838B4FF2FF74234083830B8A038210BDBF
:1030000010B50446214602A0FDF74AF9002010BD84
:103010003C3C2D464C4153482D4552524F522D3E7B
:103020003E2053504920B5C8B4FDB3ACCAB12165A8
:1030300072726F72436F6465203D2025640A000040
:1030400010B5FFF749FD00BF032340F6C41239A1B4
:1030500039A001F003F90028F6D14FF47A7000F09E
:1030600073FE4FF47A7000F06FFE4FF47A7000F048
:103070006BFE4FF480613148FDF7B1FA012340F651
:10308000B8322CA12EA001F061F9304930A0FDF733
:1030900007F92E4B31A234A13548FDF70DF934491B
:1030A00034A0FDF7FDF83248FDF76EFA04462146DC
:1030B00035A0FDF7F5F814212448FDF790FA012317
:1030C00040F6B8321BA133A001F040F91F4934A0EB
:1030D000FDF7E6F81D4B36A223A13848FDF7ECF8C2
:1030E000364924A0FDF7DCF83448FDF74DFA0446D4
:1030F000214625A0FDF7D4F800BF032340F6B832DF
:103100000CA12FA001F0AAF80028F6D1FFF768FA69
:1031100000BF032341F2883206A12CA001F09EF8E3
:103120000028F6D114210948FDF759FAFFF776F97E
:1031300010BD00004F4B00002B2B2B00D6050020AC
:1031400041542353746149440D0A000018170020AC
:10315000535349443A2025730D0A00004154235328
:1031600074614944200000002573257300000000AD
:10317000DC1600202D2D2D3E3E737472696E673A69
:1031800020257320000000004C656E74683A2564A9
:103190000D0A00004154235374615365630D0A0006
:1031A00050617373776F72643A2025730D0A0000C3
:1031B000415423537461536563200000FA160020C4
:1031C0004154234E574B0D0A000000004154234543
:1031D0007869740D0A000000704710B500F002F81D
:1031E00010BD00000CB5002001900090334800682D
:1031F00040F480303149086000BF3048006800F476
:10320000003000900198401C0190009818B9019876
:10321000B0F5A06FF1D12948006800F4003010B17A
:103220000120009001E0002000900098012843D187
:103230002348006840F010002149086008460068F3
:1032400020F0030008600846006840F002000860B3
:103250001A4840681949486008464068486008466E
:10326000406840F4806048600846406820F47C1064
:1032700048600846406840F4E81048600846006826
:1032800040F08070086000BF0C48006800F00070DB
:103290000028F9D00948406820F003000749486039
:1032A0000846406840F00200486000BF034840689C
:1032B00000F00C000828F9D10CBD000000100240FD
:1032C0000020024010B5FFF707FC032340F6C412AC
:1032D00024A125A000F0BCFE032340F6C41221A1C6
:1032E00022A000F0B5FE03234FF47A621DA122A0B4
:1032F00000F0AEFE4FF47A7000F026FD4FF47A70C5
:1033000000F022FD4FF47A7000F01EFD4FF40061D2
:103310001C48FDF764F91CA0FCF7C2FF0EE0194938
:103320001FA0FCF7BDFF4FF480611648FDF757F969
:103330004FF4FA7000F008FDFFF770F81DA1114876
:10334000FDF710F90028EAD00E4915A0FCF7A8FFF8
:103350001BA0FCF7A5FF4FF480610A48FDF73FF979
:1033600010BD00004F4B00002B2B2B00415423536A
:103370004D544346470D0A00415423457869740D66
:103380000A000000D605002020736D617274636F1F
:103390006E66696720697320646F696E670D0A0045
:1033A00072656365697665203C3C3C3A2025730D67
:1033B0000A000000535441205374617274000000ED
:1033C00020736D617274636F6E66696720736574D4
:1033D000206F6B200D0A0000042808D14FF0E02177
:1033E000096941F004014FF0E022116107E04FF05C
:1033F000E021096921F004014FF0E02211617047DA
:1034000010B500F0B7F810BD10B51348006840F0D3
:1034100001001149086008464068104908400E49FB
:103420004860084600680E4908400B490860084695
:10343000006820F4802008600846406820F4FE0000
:1034400048604FF41F008860FFF7C7FE4FF0006030
:103450000449086010BD0000001002400000FFF8A1
:10346000FFFFF6FE08ED00E010B50248006801F02D
:10347000E9FC10BDAC0100202DE9F04100F026F878
:1034800007460C4901F070FD044601F04DFC05466D
:103490002A460B4608A0FCF703FFFEF7F5FC06469C
:1034A00001F042FC044622460B4607A0FCF7F8FE5A
:1034B000BDE8F0810000A040726573756C743D2515
:1034C0002E31662C00000000252E66002DE9F04705
:1034D0000223E32280211D48FEF77AFD1B48007875
:1034E00000021B490860194840781A4908601849C9
:1034F0000968184A1268881801F0D8FC1649086053
:103500000846006801F010FC0646144A144B01F00E
:1035100023FA04460022134B01F080F8804600F0A5
:10352000A3FF114908600846006801F0FDFB06464C
:103530000E4A0F4B01F00EFB044600F095FF0A49BE
:10354000086008460068BDE8F0870000DC0F002036
:10355000580100205C01002064010020D7A3703DC9
:103560000AF765400000F04060010020CDCCCCCCD3
:10357000CC6C47400448006820B103480068401EF6
:1035800001490860704700006800002000B587B05E
:103590000121C804FFF746F901211020FFF752F975
:1035A00018208DF80B004FF48060ADF80800032060
:1035B0008DF80A0002A91D48FEF7D4FB04208DF8FF
:1035C0000B004002ADF8080002A91848FEF7CAFB3C
:1035D0004FF4165003900020ADF818000C20ADF801
:1035E00016000020ADF81400ADF81200ADF8100080
:1035F00003A90F4800F0EAFA34208DF804000120F6
:103600008DF8070003208DF805008DF8060001A84D
:10361000FFF73CF8012240F22551054800F0B0FACE
:103620000121034800F069FA07B000BD0010014015
:10363000004C004010B50FE02021544800F054FA2F
:10364000524800F02FFB5249524A12788854514890
:103650000078401C4F49087020214C4800F059FA6E
:103660000028E9D14B4800781F2805DD0020494992
:1036700008700120484908704748007801287DD12A
:10368000002045490870424800784149497808447B
:103690003F49897808443E49C97808443C4909793A
:1036A00008443B49497908443949897908443849EB
:1036B000C97908443649097A08443549497A0844A1
:1036C0003349897A08443249C97A08443049097B28
:1036D00008442F49497B08442D49897B08442C49DB
:1036E000C97B08442A49097C08442949497C084483
:1036F0002749897C08442649C97C08442449097D16
:1037000008442349497D08442149897D08442049CA
:10371000C97D08441E49097E08441D49497E084464
:103720001B49897E08441A49C97E08441849097F03
:1037300008441749497F44181548C07F1449897FB8
:1037400040EA0120A0421FD11148007B13490870B4
:103750000F48407B124908700978104A127841EAF4
:10376000022001F08BFB0F4908600948C07C084922
:10377000897C40EA01200C49086000E004E00B4825
:103780000068401C0949086010BD0000004C004062
:10379000780F0020140100202801002015010020CE
:1037A00016010020180100201C010020200100202B
:1037B00008B540F22551094800F0B8F960B1202160
:1037C000064800F091F9054800F06CFAC0B200908C
:1037D00069460348FCF7F7FE08BD000000500040B2
:1037E0002C17002000B585B001210420FFF72AF82E
:1037F00001218803FFF726F84FF40070ADF81000A0
:1038000018208DF8130003208DF8120004A9134826
:10381000FEF7A8FA4FF48060ADF8100004208DF890
:10382000130004A90D48FEF79DFA4FF4E130009013
:103830000020ADF80400ADF80600ADF80800ADF8C2
:103840000C000C20ADF80A006946054800F0BEF9EE
:103850000121034800F051F905B000BD0008014006
:103860000038014000B587B001214804FEF7DAFFB7
:103870000420ADF8180003208DF81A0018208DF8E8
:103880001B0006A91C48FEF76DFA0820ADF81800C9
:1038900004208DF81B0006A91748FEF763FA2620BE
:1038A0008DF8040003208DF805008DF80600012036
:1038B0008DF8070001A8FEF7E9FE4FF4E130029011
:1038C0000020ADF80C00ADF80E00ADF81000ADF81A
:1038D00014000C20ADF8120002A9084800F076F997
:1038E000012240F22551054800F04AF90121034820
:1038F00000F003F907B000BD00080140004400409B
:1039000008B540F22551074800F010F948B10548C4
:1039100000F0C8F9C0B2009069460348FCF753FEB6
:1039200000BF08BD00440040D605002000B587B0A8
:1039300001218804FEF776FF01210820FEF782FFAF
:1039400018208DF80B004FF48060ADF808000320BC
:103950008DF80A0002A91D48FEF704FA04208DF82C
:103960000B004002ADF8080002A91848FEF7FAF96A
:103970004FF4165003900020ADF818000C20ADF85D
:1039800016000020ADF81400ADF81200ADF81000DC
:1039900003A90F4800F01AF927208DF80400012030
:1039A0008DF807008DF805008DF8060001A8FEF7D8
:1039B0006DFE012240F22551054800F0E1F8012199
:1039C000034800F09AF807B000BD0000000C014069
:1039D0000048004010B520210F4800F09AF878B157
:1039E00020210D4800F080F80B4800F05BF90B49EE
:1039F0000B4A127888540A480078401C084908701D
:103A000007480078082802DD00200549087005A055
:103A1000FCF746FC10BD0000004C00409E0E00204C
:103A2000D000002078787878787878787878787806
:103A3000787878787878780000B587B00121080523
:103A4000FEF7F0FE01213020FEF7FCFE4FF480501F
:103A5000ADF8180018208DF81B0003208DF81A000F
:103A600006A91E48FEF77EF90420ADF818008DF86F
:103A70001B0006A91A48FEF775F94FF4165002907C
:103A80000020ADF80C00ADF80E00ADF81000ADF858
:103A900014000C20ADF8120002A9124800F096F8AC
:103AA0004FF4A060FEF72AFE35208DF804000020B8
:103AB0008DF805008DF8060001208DF8070001A89B
:103AC000FEF7E4FD012240F22551064800F058F8C7
:103AD0000121044800F011F807B000BD00100140BA
:103AE000001401400050004001F40072B2F5007F64
:103AF00000D100BFCA430280704721B1828942F4DD
:103B00000052828104E082894DF6FF731A4082815F
:103B1000704702460020B1F5007F00D100BF138836
:103B20000B400BB1012000E00020704770B5024649
:103B3000002400230025002040F66A16B14200D17F
:103B400000BFC1F3421501F01F03012606FA03F37B
:103B5000012D02D19689334006E0022D02D1168A4A
:103B6000334001E0968A33400C12012606FA04F431
:103B70001688344013B10CB1012000E0002070BD64
:103B8000F0B50346002400260025002040F66A1701
:103B9000B94200D100BF1846C1F3421401F01F061C
:103BA000012707FA06F5012C01D10C3004E0022CA4
:103BB00001D1103000E014301AB107682F430760BC
:103BC00002E00768AF430760F0BD00002DE9F04751
:103BD00086B005460E460024A24600BFA146002737
:103BE000B08900B100BF2F462C8A4CF6FF7004400C
:103BF000F08804432C82AC894EF6F3100440B08860
:103C000031890843718908430443AC81AC8A4FF67B
:103C1000FF400440B0890443AC8201A8FEF748FE8F
:103C20001F48874202D1DDF810A001E0DDF80CA0AA
:103C3000A88900F4004040B10AEBCA0000EB0A106A
:103C400031684900B0FBF1F807E00AEBCA0000EB6D
:103C50000A1031688900B0FBF1F86420B8FBF0F07D
:103C600004012009642101FB1089A88900F40040A7
:103C700040B1322000EBC900B0FBF1F000F00700CA
:103C8000044308E0322000EB09106421B0FBF1F09E
:103C900000F00F0004432C8106B0BDE8F08700005F
:103CA0000038014001468888C0F308007047C1F31E
:103CB00008028280704700BFFEE7000001480068EC
:103CC00070470000D8000020490050EAC12018BF0A
:103CD00004204A0D18BF40F0010040F2FF72B2EB21
:103CE000515F08BF40F00200012808BF052070475F
:103CF00030380A2801D2012070470020704700BFE9
:103D00007047000010B56FF00400FFF765FB0A482C
:103D100000680A49B0FBF1F00949087008460078CC
:103D200000EB4001C1EBC0104FF6FF7101EAC0008B
:103D30000449088010BD00004C00002000127A00E9
:103D4000B0000020B20000200146114A12884A4308
:103D50004FF0E0235A6100229A611A46126942F03C
:103D600001021A6100BF4FF0E022106900F0010269
:103D70001AB100F48032002AF5D04FF0E022126927
:103D800022F001024FF0E0231A6100229A6170478D
:103D9000B200002070B504460D46E1B20548FFF7B9
:103DA00086FF00BF80210348FFF7B3FE0028F9D04B
:103DB000204670BD00380140FFF726FBFFF712FDDB
:103DC000FFF750FDFFF7B2FDFFF7E0FBFFF734FE12
:103DD000FFF798FFFEF756FBFDF7FAFCFEF7D2F966
:103DE00023A0FCF75DFA7D20FEF7CCFD10B125A0E5
:103DF000FCF756FA40F635410620FEF7F5FAFEF7D5
:103E000091FCFEF745FFFDF797FE21480078412819
:103E10000BD01F480078542807D0FFF753FAFFF75C
:103E20000FF9FDF7D5FEFEF7F9FA4FF4FA70FFF738
:103E30008BFFFEF7C5FD17A000F0E0FAFDF746FD89
:103E4000C820FFF781FF194919A0FCF729FA0EE0F5
:103E5000FFF712FB00F038F81AA0FCF721FA4FF434
:103E6000FA70FFF771FFFEF76BFCFEF7D7FAEFE78A
:103E70004150502069732052756E6E696E670D0A4D
:103E8000000000004957444720524553540D0A0092
:103E900054050020205468652041707020557064DE
:103EA000617465204F6B200D0A0000002205002080
:103EB00049505F416464726573733A2025730D0A3B
:103EC000000000003B0D0A0010B5A0B0FDF705FE94
:103ED000044600F02AFD524A03C25248006800F02E
:103EE00023FF4F4AC2E90201FFF7BEFA044600F081
:103EF0001CFD4B4AC2E9040100219161D161FFF729
:103F0000E5FA044600F010FF454AC2E90801FDF752
:103F1000BBFF044600F008FF414AC2E90A01FDF771
:103F2000EBFC044600F001FD3D4AC2E90C01FFF73D
:103F3000C5FE044600F0F9FC394AC2E90E01002032
:103F4000106450649064D064FEF748FC044600F0AE
:103F5000EBFE334AC2E91401FDF7D4FC044600F03D
:103F6000E4FC2F4AC2E916010020106650662E4874
:103F70002E49CDE91E101046416E006ECDE91C01A0
:103F80001046C16D806DCDE91A011146D1E91401C9
:103F9000CDE91801264811461690D1E91201CDE964
:103FA00014011046416C006CCDE912011046C16B42
:103FB000806BCDE910011046416B006BCDE90E011D
:103FC0001046C16A806ACDE90C011146D1E90801A9
:103FD000CDE90A011046C1698069CDE908011146A1
:103FE000D1E90401CDE906011046C1688068CDE938
:103FF0000401114603C9CDE902010E480E490F4BD9
:104000000F4ACDE900100F490F48FCF755F90E484B
:1040100000F0F4F90DA000F0F1F920B010BD00009F
:1040200050040020480000203D00002038000020FF
:104030003400002022000020220500201300002070
:104040000400002014510108EC0300200D0A0000B8
:104050002DE9F0470446894616461F462046FCF7E0
:1040600093FA8246514620A0FCF71AF94FF0000857
:104070002CE000250BE0615D2348FFF718FE00BF30
:1040800080212148FFF745FD0028F9D06D1C20460E
:10409000FCF77AFAA842EED8B0B2FFF755FE4946CF
:1040A0001A48FCF75FFA70B1214619A0FCF7F8F83E
:1040B0001BA0FCF7F5F84FF400611448FCF78FFAE9
:1040C0000020BDE8F08700BF08F10108B845D0DB4B
:1040D000214617A0FCF7E4F84FF400610B48FCF709
:1040E0007EFA0120EDE700002D2D2D3E3E73656E1A
:1040F0006420636F6D6D616E64206C656E677468BB
:104100003A25640D0A00000000440040D605002056
:104110002D2D2D3E3E73656E64202573000000003A
:104120002D2D2D3C3C736574206F6B0D0A00000033
:104130002D2D2D3E3E73656E64203A2573206661F9
:10414000696C210D0A0000002DE9F04704468946FC
:1041500016461F462046FCF717FA8246514624A011
:10416000FCF79EF84FF0000834E000250FE0615D99
:104170002748FFF79CFD615D26A0FCF791F800BF82
:1041800080212348FFF7C5FC0028F9D06D1C20468C
:10419000FCF7FAF9A842EAD8B0B2FFF7D5FD1E49FC
:1041A0001EA0FCF77DF849461B48FCF7DBF970B10F
:1041B00021461CA0FCF774F81EA0FCF771F84FF420
:1041C00000611548FCF70BFA0020BDE8F08700BF3E
:1041D00008F10108B845C8DB21461AA0FCF760F8D1
:1041E0004FF400610C48FCF7FAF90120EDE70000FC
:1041F0002D2D2D3E3E73656E6420636F6D6D616E77
:1042000064206C656E6774683A25640D0A000000CE
:1042100000500040256300002C1700207878782596
:10422000730000002D2D2D3E3E73656E64202573B6
:10423000000000002D2D2D3C3C736574206F6B0D2C
:104240000A0000002D2D2D3E3E73656E64203A2538
:1042500073206661696C210D0A0000002DE9F047AA
:104260000446894616461F462046FCF78DF98246CD
:10427000514620A0FCF714F84FF0000836E0002566
:104280000BE0615D2348FFF712FD00BF802121484C
:10429000FFF73FFC0028F9D06D1C2046FCF774F9AD
:1042A000A842EED8B0B2FFF74FFD49461A48FCF7D6
:1042B00059F920B92046FCF767F9082813D12046A0
:1042C000FCF762F9042804D9214614A0FBF7E8FFA3
:1042D00006E0214615A0FBF7E3FF18A0FBF7E0FF7F
:1042E0000020BDE8F08700BF08F10108B845C6DB33
:1042F0000120F6E72D2D2D3E3E73656E6420636F21
:104300006D6D616E64206C656E6774683A25640D2E
:104310000A00000000440040D60500202D2D2D3E4F
:104320003E73656E64202573000000002D2D2D3E28
:104330003E73656E642025730D0A00002D2D2D3C03
:104340003C736574206F6B0D0A0000002DE9F04787
:104350000546894616461F46294620A0FBF7A0FFC2
:104360004FF0000834E000240BE0295D1F48FFF700
:104370009EFC00BF80211D48FFF7CBFB0028F9D031
:10438000641C2846FCF700F9A042EED8B0B2FFF753
:10439000DBFC112403E0002015490855641CB4F52A
:1043A000006FF8DB002404E01148005D1149085556
:1043B000641C0F48FCF7E8F8A042F5D84FF4006100
:1043C0000B48FCF70CF900200B49086008F10108C4
:1043D000B845C8DB0020BDE8F08700002D2D2D3E3C
:1043E0003E73656E642025730D0A00000044004092
:1043F000D605002018170020A800002070B505463B
:1044000000240BE0295D0B48FFF751FC00BF802121
:104410000848FFF77EFB0028F9D0641C2846FCF70B
:10442000B3F8A042EED84FF400610348FCF7D7F888
:10443000012070BD00440040D605002010B50029C1
:104440000AD00878002807D005487844FCF7EEFC2D
:10445000002801D0002010BD0248784410BD0000A3
:10446000360D00002E0D000021F00042A2F1605236
:10447000B2F5801F01F0004328BFD2F17F6C0BD949
:104480005FEA001C43EAC20242EB507018BF70475B
:1044900028BF20F001007047B2F5801FBCBF18464E
:1044A00070474FEA410C1CF5001F02D2084600F08D
:1044B00056BD70B500F0FAFA00000089FFF7F6BFAC
:1044C0004FF00040A0F580007047000010B591EA61
:1044D000030F48BF83F0004300F14483841A71EB5B
:1044E000030C05D2121943EB0C03001B61EB0C010A
:1044F000DFF824E14FEA1154A4EB135C1EEA430FEA
:1045000018BF9EEA445F73D023EA0E03DCF1200E4D
:1045100021EA045143F4801332D322FA0CFE10EB4B
:104520000E0023FA0CFE41EB0E01CCF1200E03FA33
:104530000EFE10EB0E0051F10001B1F5801FCCF121
:10454000200E32D201EB045112FA0EF2BDE81040F7
:1045500058BF7047401C38BF5FEA420218BF70471F
:10456000002814BF20F0010041F100014FEA41038F
:1045700013F5001F38BF7047A1F1C04100F0E4BA45
:10458000012A43EB0302ACF1200CDCF11F0E32BF19
:104590004FF0000E23FA0CF310EB030041EB045133
:1045A000B4EB115FD0D0A1EB045101F580114908A3
:1045B0005FEA300001EB04510ED350F1000038BF28
:1045C00012FA0EFE08D1BDE81040C9E7401C38BF02
:1045D0005FEA4202CAD1C3E7BDE810404FEA410397
:1045E00013F5001F38BF7047A1F1C04100F0ACBA0D
:1045F0009EEA445F08D011EA5E0FBDE8104004BF98
:1046000001F0004100207047BDE8104070B500F097
:104610004DFA00BF64FBBE3E0000E0FF2DE9C04143
:1046200030B4DFF8A0C23CEA111418BF3CEA1314FE
:1046300000F0EC8081EA03051CEA111444EAD57409
:1046400018BF1CEA131500F0C780A4EB05044FF057
:10465000004545EAC12145EAC32341EA505143EAF6
:10466000525304F17F74994204F500344FEAC0209C
:104670004FEAC22208BF904200F09C804FEA1365C7
:104680000FF24016765D4FEA134506FB05F7C7F1BA
:10469000807706FB07F74FEAD737A7FB0368764218
:1046A000C8F58038A7FB06CE38BFA8F1010807FB84
:1046B00008E64FF0000EA6FB028CE6FB03CEDCF111
:1046C000000CCEF1004E38BFAEF1010EA6FB0C5827
:1046D0004FF000074FF00005E6FB0E87A1FB08C670
:1046E000A0FB07CE16EB0E0645F10005E1FB0765C2
:1046F00015F1E04E7EBFA4F580345FEA46066D41B9
:1047000016F1800745F100054FEA17274FEA0666C4
:1047100047EA0567A6F1DE46B6F1805F4FEA152548
:104720001FD9384624F0010C05EBC471BCF1FE6FB3
:1047300001EB0C1102D8F0BCBDE8008124425CBF43
:1047400001F5801E9EEAC47F02D4F0BCBDE8008162
:10475000244238D4F0BCA1F1C041BDE8004100F0D2
:10476000F3B94FEAD22242EA43524FEAD323A7FBDE
:1047700002864FEAD02040EA415007FB03661EEA5A
:104780000E0F4FEAD12105FB026658BFA6EB00567B
:10479000B6EB00564FEA520E4EEAC37E18EB0E0EF1
:1047A00056EB530EBDD518EB02085E417F1C55F148
:1047B0000005B6E74FF480154FF000074FF00006F4
:1047C0004FF00008ADE7F0BC4FF0000001F1C04130
:1047D00001F00041BDE8008111EA0C1F0CEA13153D
:1047E00000D00CE013EA0C1F00F025804FF0000011
:1047F000F0BC81EA030101F00041BDE80081F0BC9A
:10480000BDE8004181EA030100F09EB9F0BCBDE8BB
:10481000004170B500F04AF9097EFC3E00F007B88F
:1048200081EA03014FF0000001F00041704781EA86
:10483000030100F089B9F0BCBDE800414FF0000071
:1048400021497047FFFDFBF9F7F5F4F2F0EEEDEBCF
:10485000E9E8E6E4E3E1E0DEDDDBDAD8D7D5D4D37E
:10486000D1D0CFCDCCCBCAC8C7C6C5C4C2C1C0BFCA
:10487000BEBDBCBBBAB9B8B7B6B5B4B3B2B1B0AFD0
:10488000AEADACABAAA9A8A8A7A6A5A4A3A3A2A1B4
:10489000A09F9F9E9D9C9C9B9A999998979796956F
:1048A00095949393929191908F8F8E8E8D8C8C8B0B
:1048B0008B8A898988888787868585848483838293
:1048C000828181800000FF070000F87F4FEA4103EA
:1048D0004FEA5353A3F58063D3F11E03C8BFD3F14E
:1048E000210C0CDD4FF0004242EAC12242EA505254
:1048F00032FA03FC8CEAE17CACEBE1707047102BE0
:10490000C4BF0020704703F5787CBCF1FF3F04D0A2
:104910006FF0004282EA2100704770B500F0C6F8DF
:104920004992248000207047F2E710F0004248BF0F
:104930004042B0FA80F310FA03F10AD0C3F11D032C
:1049400003F580634FEA415002EB035202EBD121A1
:1049500070474FF000007047DFF848C170B51CEA9F
:10496000111E1EBF1CEA13159EEA0C0F95EA0C0FD0
:1049700000F06F8081EA030423EA4C134EEAD47EF0
:1049800021EA4C1141F4801143F48013AE44A1FBA1
:10499000024CA0FB0365AEF17F7E361955EB0C058A
:1049A000A1FB034C4CF10003A0FB021C16EB0C0610
:1049B000654153F10003094218BF46F0010613F4A4
:1049C000007F0BD14FEA03314FEA0530340341EA4F
:1049D000155140EA16506FF003020AE04FEAC32176
:1049E0004FEAC520F40241EA555140EA56506FF0B3
:1049F000020202EB2E4201EB025585EACE710AD08B
:104A00005FEA440C18BF24F0004450F1000041F16B
:104A1000000120EAD47040F2FE7C624500D270BDF5
:104A2000A84214BF4FF080444FF04044002E08BF0E
:104A30000024BEF1806FA8BFA1F1C041BDE8704065
:104A400080F282804FF0000001F1C04101F000418E
:104A500070479EEA0C0F0CEA131518BF95EA0C0F6D
:104A600006D04FF0000081EA030E0EF0004170BD49
:104A700000F01CF88900013E00F007B800F009B80A
:104A80004FEA430C5FEA5C5C08D081EA030100F066
:104A90005BB84FEA410C5FEA5C5CF6D14FF0000076
:104AA000014970470000FF070000F87F0EF1020E79
:104AB0002EF0030E5EF8046B364205D4012A43EB58
:104AC000030515F5001F12D8012841EB010C1CF558
:104AD000001F0CD80ED14FEAD17C15F5001F0CEB4E
:104AE0004C0C0CF1020C08BF4CEBD37C04E04FF0F3
:104AF000080C01E04FEAD37C0CEB4C0526FA05F6D6
:104B000006F00706B6F1040C06D20EEB860CBDE8E3
:104B100070404CF0010C6047DFE80CF0090B02021A
:104B20004FF000414FF00000A1F5002170BD194683
:104B30001046012851EB010418BFD4F5001484BFBE
:104B4000002001F0004170BD0808A0F500114FEAF7
:104B50003101704710B591EA030F48BF83F000435D
:104B60003FF5BCAC841A71EB030C07D212198CF020
:104B7000004C43EB0C03001B61EB0C01DFF8A4E1DC
:104B80004FEA1154A4EB135C1EEA430F18BF9EEAD0
:104B9000445F00F0B08023EA6E03524221EA0451E0
:104BA000C3EB6E0338BF5B1EDCF1200E25D322FA67
:104BB0000CFE10EB0E0043FA0CFE41EB0E01CCF1A3
:104BC000200E03FA0EFE10EB0E0051F10001CCF1A5
:104BD000200E29D412FA0EF201EB0451BDE8104068
:104BE00058BF7047401C1CBFB2F1004F70470028EF
:104BF0000CBF491C20F00100704712EB020E43EB82
:104C0000030218BF4FF0010E4EEA4202ACF1200C35
:104C1000DCF11E0E54D943FA0CFE10EB0E0051F1DC
:104C2000FF31CCF11E0ED5D50EF1010E12FA0EFE9B
:104C3000404141EB010101EB445C5FEA5C5C10D94F
:104C400010EBDE7001EB045138BFBEF1004FBDE840
:104C5000104018BF704700280CBF491C20F001000D
:104C6000704730D24FEAD42C11F5001124F40064BF
:104C70001BD0B1FA81F20B3AA41AA41ED2F1200380
:104C8000914030FA03F31943904001EBCC71002CB2
:104C900001EB0451BDE81040A8BF704701F1C041CD
:104CA0004FF0000001F000417047B0FA80F310FAB5
:104CB00003F100D110BDE41A173C4805C90AE4E726
:104CC00001EB045110BD491001EB0451BDE8104047
:104CD0004FEA300002E04FF0000170474A0008BF81
:104CE0000042F8D0B2F5001F28BF704701F0004124
:104CF0004FF0000070479EEA445F07D011EA5E0F54
:104D0000BDE8104004BF002100207047BDE81040FE
:104D100070B5FFF7CBFE00BF40DFF63E83F00041E9
:104D2000104670470000E0FF43004FEAD30C4FEA03
:104D30003C0C43401FBF40070CF1605113F0FE4F85
:104D400070471CF0006F03D100200CF00041704749
:104D50000CF0004343EA507010B540EACC0000F07C
:104D6000B8F800BF000000924FEA0001FFF7ECBE68
:104D70004FF000414FF00000A1F500217047000006
:104D800090EA010F48BF81F0004100F1F480421A1F
:104D90003CBF801A89184FEAD0524FF07F4C1CEA72
:104DA000410FA2EBD15318BF9CEA026F00F03B8089
:104DB0004FF0004C4CEA00204CEA012121FA03FCA0
:104DC00010EB0C0C1ED202F1FF325FEA1C2040EB0C
:104DD000C25038BF70471CF07F0F4FEA400C18BF1D
:104DE000BCF17F4F38BF7047C3F12003994008BF23
:104DF00020F00100BCF17F4F38BF7047A0F1C040E8
:104E000000F0ADB84FEA3C00000A40EBC25028BFAA
:104E10001CF0FF0F4FEA400CE6D018BFBCF17F4FEB
:104E200038BF7047EAE79CEA026F05D010EA5C0FD2
:104E300008BF00F00040704710B500F04AF800BF0E
:104E400064FBBE3E41000B0ED3F19E0208D950F424
:104E500000034FEA032323FA02F048BF40427047A1
:104E600010B500F036F800BF49922480002070474A
:104E70006FF0004282EA20007047000010F000410D
:104E800048BF4042B0FA80F310FA03F2C3F19D0329
:104E90000BD051EAC35101EB1220530638BF7047C3
:104EA00000F1010008BF20F001007047B0FA80F364
:104EB00010FA03F2C3F19D030AD0D90501EB1220C9
:104EC000530638BF704700F1010008BF20F0010011
:104ED00070470EF1020E2EF0030E5EF8044B2442D2
:104EE00004D44FEA4102B2F17F4F11D84FEA400398
:104EF000B3F17F4F0CD80ED14FEAD07CB2F17F4F87
:104F00000CEB4C0C0CF1020C08BF4CEBD17C04E018
:104F10004FF0080C01E04FEAD17C0CEB4C0324FA73
:104F200003F404F00704B4F1040C06D20EEB840C75
:104F3000BDE810404CF0010C6047DFE80CF00708BA
:104F400002024FF00040A0F5800010BD084642006C
:104F500018BFD2F1807288BF00F0004010BDFF2161
:104F600041EAD050C005704790EA010F48BF81F078
:104F700000413FF50CAF421A04D882F00042A0EB8A
:104F8000020011444FEAD0524FF07F4C1CEA410F0F
:104F9000A2EBD15318BF9CEA026F4AD04FF0004CED
:104FA0004CEA00204CEA012121FA03FCB0EB0C0C86
:104FB0000FD412F0FE0F36D05FEA4C001DD5001260
:104FC00040EBC25038BF70471CF03F0F18BF70470E
:104FD0000BE0A2F101025FEA1C2040EBC25038BF97
:104FE00070471CF07F0F18BF7047C3F12003994032
:104FF00014BF401E20F00100704780084FEA1223C2
:1050000008BF7047B0FA80FCA2EB0C02CCF1280C70
:1050100060FA0CF093EA122F04BF00EBC250704705
:105020004FEAC3707047130A5FEADC1008BF70478D
:10503000F6E79CEA026F04D010EA5C0F08BF00207C
:10504000704710B5FFF745FF40DFF63E81F00040A6
:105050007047FBF71ABC30313233343536373839C4
:1050600041424344454640305800303132333435B4
:105070003637383961626364656640307800000015
:1050800002400000000000A00000000005400000F9
:10509000000000C8000000000C4000000000409C20
:1050A00000000000194000000020BCBE000000000D
:1050B00034400000BFC91B8E00000004B540000052
:1050C000504BCFD06607E2CF010000006C410000DA
:1050D0003E8251AADFEEA73401000000D942000051
:1050E000DCB5A0E23A301F97FFFFFFFFB445000098
:1050F000FD25A0C8E9A3C14FFFFFFFFFFF3F000050
:105100000000008000000000FF3F00000000008061
:105110000000000025732C25732C25732C25732C7F
:10512000252E662C252E662C252E662C252E662CEB
:10513000252E32662C252E32662C252E662C252E09
:10514000662C252E662C252E662C25732C252E6686
:105150002C252E662C252E662C25732C25730000FD
:105160009C51010800000020F40100006C010108BE
:1051700088520108F40100209C230000C8010108A6
:105180001C00000043000000F8FFFFFF0C000000BF
:105190000E0000000F0000002E000000327D100FF6
:1051A000504D323523445654352D31303030124174
:1051B000100D3137322E32372E33352E3132101258
:1051C00033343A30303A38613A65313A34343A322D
:1051D00065145631383D6E756C6C05222A82108438
:1051E000A24A0450090102030406070809A2A058B4
:1051F0000C4154235374614944202D730C3F536573
:1052000063202D6B0D180D6F636B6574202D43307B
:10521000202D5404164D31202D4134202D500213E1
:105220001629646968051202040608499A293C3265
:1052300019321432155A17085A181C29082910292E
:105240000C291C01782303031EECEDEEEF8008010E
:105250001922A0101DB9ABB0E5A3BA4865726D65FF
:105260007320466C6173682054657374204F4B0D36
:105270000A100D3137322E32372E33352E31321D92
:085280003530303014F100005C
:0400000508010131BC
:00000001FF
