:020000040800F2
:1000000000F40020C9260008190900081B0900088F
:100010001F09000823090008270900080000000044
:100020000000000000000000000000002B09000894
:100030002D090008000000002F0900083109000800
:10004000E3260008E3260008E3260008E32600086C
:10005000E3260008E3260008E3260008E32600085C
:10006000E3260008E3260008E3260008E32600084C
:10007000E3260008E3260008E3260008E32600083C
:10008000E3260008E3260008E3260008E32600082C
:10009000E3260008E3260008E3260008E32600081C
:1000A000E3260008E3260008E3260008E32600080C
:1000B000E3260008E3260008E3260008E3260008FC
:1000C000E3260008E3260008E3260008E3260008EC
:1000D000E32600080D020008AD0100084D010008EC
:1000E000110D0008E3260008E3260008E3260008B7
:1000F000E3260008E3260008E3260008E3260008BC
:10010000E3260008E3260008E3260008E3260008AB
:10011000E3260008E3260008E3260008E32600089B
:10012000E3260008E3260008E3260008E32600088B
:10013000DFF80CD003F0CEFE004800479102000823
:1001400000F4002080F308887047000038B5FA48B2
:10015000007801280FD140F22551F84803F074F8D7
:1001600048B1F64802F0F0FFC0B200906946F4488A
:1001700003F034FE00BFF0480078B0B9EF480088C3
:1001800000F0200088B1ED48001D0088C4B2ED48A1
:100190000088B0F5504F08DAEB48EA490988445422
:1001A000E8480088401CE749088038BD38B5E74872
:1001B000007801280FD140F22551E54803F044F8BA
:1001C00048B1E34802F0C0FFC0B200906946E14880
:1001D00003F004FE00BFDD480078B0B9DC480088B9
:1001E00000F0200088B1DA48001D0088C4B2D5486C
:1001F0000088B0F5504F08DAD348D24909884454F2
:10020000D0480088401CCF49088038BD38B5D24856
:10021000007801280FD140F22551D04803F014F89E
:1002200048B1CE4802F090FFC0B200906946C9487C
:1002300003F0D4FD00BFC8480078B0B9C7480088B3
:1002400000F0200088B1C548001D0088C4B2BD4838
:100250000088B0F5504F08DABB48BA4909884454C1
:10026000B8480088401CB749088038BD10B502F076
:1002700074F860B1BAA003F079FEC148406800F09C
:100280007F40B0F1006F02D1BD4803F064FD10BDA6
:1002900008B500270025002662B64FF4A06002F0E2
:1002A00025FA4FF4E13001F04EFC01F098FC00F02B
:1002B00017FE01F0DEFC01F0C1FB00F02BFC4FF05B
:1002C0000061084602F049FA02F0CEF801F0FAFDAA
:1002D00001F037FE01F059FE02F0BAF87D2002F07D
:1002E00064FC10B1A7A003F041FE40F635410620A2
:1002F00001F03CFDFFF7BAFF002402E000F0A2FC91
:10030000641C032CFADB4FF4FA7001F0D4FB0024D8
:1003100002E000F097FC641C032CFADB4FF4FA7047
:1003200001F0C9FB002402E000F08CFC641C032CEB
:10033000FADB00F076FC02F054F801F029FD6420AD
:1003400001F0B9FB642001F0B6FB642001F0B3FBBF
:100350008FA000F0F7FF4FF4FA7001F0ACFB4FF400
:10036000FA7001F0A8FB4FF4FA7001F0A4FB91A021
:1003700003F0FCFD012098490860002076490870D0
:1003800096A003F0F3FD0020704908709EA003F0D2
:10039000EDFD0121A74802F024FBA7A1674801F069
:1003A000C6FC0121A34802F01EFB00206249087030
:1003B000ADA003F0DBFD60E24FF4FA7001F07BFBCF
:1003C0004FF4FA7001F077FB4FF4FA7001F073FB11
:1003D0005C48008800283CD05B4890F86400002806
:1003E00037D0594890F86500002832D05548008829
:1003F00087422CD1534805880027002051490880A6
:10040000A4A003F0B3FDA5F11801A7A003F0AEFD71
:100410000120514908704D49087047490870A7A04C
:1004200000F090FFA5F11802AAA1AB4803F0AEFDC1
:10043000AAA000F087FFA84800F084FFAAA000F05F
:1004400081FF4FF47A7001F036FB012601E03D4850
:100450000788012E2FD1002D23D0A5A000F072FF18
:10046000A8A003F083FDAE48406800F07F40B0F1E3
:10047000006F0CD1AA1E3449414803F03BFCA9A0EF
:1004800000F060FFADA003F071FD022613E0B3A001
:1004900000F058FFB6A003F069FD01F0CDFF00F0B9
:1004A0001BFAB9A000F04EFFBDA003F05FFD01F004
:1004B000C3FF00F011FA022E2CD13148406800F041
:1004C0007F40B0F1006F14D1BCA000F03BFFC1A091
:1004D00003F04CFD01F06FFF642001F0ECFA01F035
:1004E00026FF01F0A9FF264803F035FC01F050FC7F
:1004F00010E0C0A000F026FFC5A003F037FD01F01A
:100500005AFF642001F0D7FA01F011FF01F094FFC7
:1005100000F0E2F93048006801280CD1C4A0C54BB6
:10052000C5A2C9A10090CA4803F030FDC84800F038
:1005300009FFC7498EE193E12A00002000480040EE
:10054000620B0020CE0000200010002029000020B7
:1005500000440040620300202800002000380140D1
:100560002D2D2D2D2D2D3E456E7465722054686500
:10057000204150502050726F6772616D0D0A00006B
:10058000000001084957444720524553540D0A00C2
:100590002D2D2D2D2D2D3E49415020426F6F746C15
:1005A0006F61642065722069732052756E6E696E8A
:1005B000670D0A002D2D2D2D2D2D3E494150204235
:1005C0006F6F746C6F616465722069732052756E11
:1005D0006E696E670D0A0000140000202D2D2D2D70
:1005E0002D2D3E5573617274312049415020426F68
:1005F0006F746C6F616465722069732052756E6EE2
:10060000696E670D0A0000002D2D2D2D2D2D3E55F4
:1006100073617274322049415020426F6F746C6F65
:10062000616465722069732052756E6E696E670D24
:100630000A000000000C0140416C6C6F772055707F
:1006400064617465205468652050726F6772616DD3
:10065000205468726F75676820546865205253345F
:1006600038350D0A000000002D2D2D2D2D2D3E5565
:1006700073617274332049415020426F6F746C6F04
:10068000616465722069732052756E6E696E670DC4
:100690000A000000D3C3BBA7B3CCD0F2BDD3CAD5E8
:1006A000CDEAB3C9210D0A00B4FAC2EBB3A4B6C8AF
:1006B0003A256442797465730D0A000042696E2020
:1006C00046696C65205265636569766564204F6B89
:1006D0000D0A000025640000BE010020436F646520
:1006E000204C656E74680000427974650D0A000044
:1006F00042656967696E20746F2055706772616426
:10070000650D0A002D2D2D2D2D2D3E426569676941
:100710006E20746F20557067726164650D0A000069
:10072000001000205570677261646520697320664F
:10073000696E6973686564210D0A00002D2D2D2DE9
:100740002D2D3E557067726164652069732066695E
:100750006E69736865640D0A00000000B7C7464CF7
:10076000415348D3A6D3C3B3CCD0F2210D0A000025
:10077000B7C7464C415348D3A6D3C3B3CCD0F2211C
:100780002020350D0A000000C3BBD3D0BFC9D2D48E
:10079000B8FCD0C2B5C4B9CCBCFE210D0A00000023
:1007A000C3BBD3D0BFC9D2D4B8FCD0C2B5C4B9CCB6
:1007B000BCFE212020360D0A0000000041505020D0
:1007C0007761697420746F2072756E6E696E670D43
:1007D0000A0000002D2D2D2D2D2D3E41505020774B
:1007E00061697420746F2072756E6E696E670D0A90
:1007F00000000000B7C7464C415348D3A6D3C3B34B
:10080000CCD0F22CCEDEB7A8D6B4D0D0210D0A00C1
:10081000B7C7464C415348D3A6D3C3B3CCD0F22C70
:10082000CEDEB7A8D6B4D0D0212020390D0A0000E2
:100830002A0D0A00D80E0020526561647955706750
:100840007261646523000000257325732573000021
:10085000A001002027A003F089FB002028490860A0
:1008600028480068401C274908600846006814288A
:1008700001D100F031F801F08BFA9DE570B5024628
:100880004FF6FF700025204E35601CE01E4D2D6890
:10089000555D684001251D4E35600BE000F00104F8
:1008A000400814B14AF201056840184D2D686D1CCE
:1008B000164E3560154D2D68082DEFD9124D2D6857
:1008C0006D1C114E3560104D2D688D42DED3030A2C
:1008D00043EA002080B270BD0D48006800F4E0607B
:1008E0000C490843001D0A490860BFF3408F00BF50
:1008F000FEE700002D2D2D2D2D2D3E25730D0A0018
:1009000014000020180000202000002024000020F7
:100910000CED00E00000FA05704700BFFEE700BFE5
:10092000FEE700BFFEE700BFFEE770477047704775
:10093000704700000CB50020019000906C480068E2
:1009400040F480306A49086000BF6948006800F4DC
:10095000003000900198401C0190009818B901984F
:10096000B0F5A06FF1D16248006800F4003010B11A
:100970000120009001E0002000900098012843D160
:100980005C48006840F010005A490860084600685A
:1009900020F0030008600846006840F0020008608C
:1009A00053484068524948600846406848600846D5
:1009B000406840F4806048600846406820F47C103D
:1009C00048600846406840F4E810486008460068FF
:1009D00040F08070086000BF4548006800F000707B
:1009E0000028F9D04248406820F0030040494860A0
:1009F0000846406840F00200486000BF3C4840683C
:100A000000F00C000828F9D10CBD10B5FFF792FFDB
:100A100010BD10B53648006840F001003449086048
:100A20000846406834490840314948600846006833
:100A3000324908402E4908600846006820F48020AA
:100A400008600846406820F4FE0048604FF41F002C
:100A50008860FFF7DAFF4FF000602949086010BD99
:100A600010B5002100200022214B5B6803F00C012F
:100A700021B1042906D0082928D107E0214B224CB6
:100A8000236027E01F4B204C236023E0184B5B685A
:100A900003F47010164B5B6803F48032022303EBFF
:100AA000904022B9194B4343174C23600DE0104B83
:100AB0005B6803F4003323B1144B4343124C2360AF
:100AC00003E0104B4343104C236003E00D4B0E4CEE
:100AD000236000BF00BF064B5B68C3F303130C4CDD
:100AE000E15C094B1B68CB40074C236010BD000044
:100AF00000100240002002400000FFF8FFFFF6FE59
:100B000008ED00E000127A002C00002000093D00F2
:100B10003000002008B501214C2002F071F921209D
:100B2000ADF8000010208DF8030003208DF80200BE
:100B30006946744801F0A8FE2021724801F051FF77
:100B40004FF4E460ADF8000069466F4801F09CFE88
:100B500020216D4801F045FF40F20110ADF8000082
:100B600069466A4801F090FE0121684801F039FFAA
:100B70004FF48071644801F034FF4FF40071624813
:100B800001F02FFF4FF480615F4801F02AFF08BD9C
:100B900010B54FF480715C4801F023FF4FF40071F1
:100BA000594801F020FF4FF48061574801F019FFC8
:100BB000C82000F080FF4FF40071534801F011FF8E
:100BC000C82000F078FF10BD10B54FF480714E487A
:100BD00001F007FF4FF400714B4801F002FF4FF4A2
:100BE0008061494801F0FFFEC82000F064FF4FF427
:100BF0008061454801F0F5FEC82000F05CFF10BDA3
:100C000010B54FF48071404801F0EDFE4FF40071D3
:100C10003D4801F0E8FE4FF480613B4801F0E3FEFF
:100C200010BD10B54FF48071374801F0DAFE4FF473
:100C30000071354801F0D5FE4FF48061324801F073
:100C4000D0FE10BD10B54FF400712F4801F0CBFE5F
:100C50004FF480612C4801F0C6FEC82000F02BFF45
:100C6000FFF7DFFFC82000F026FF10BD10B54FF4DE
:100C70000071254801F0B5FE4FF48061224801F073
:100C8000B0FE10BD10B54FF480711F4801F0ABFEEF
:100C90004FF400711C4801F0A4FE4FF480611A4823
:100CA00001F09FFE10BD10B5FFF7BBFF10BD10B5E2
:100CB0004FF48071144801F094FE4FF40071124813
:100CC00001F091FE4FF480610F4801F08AFE10BDE3
:100CD00010B5FFF7A6FF10BD10B54FF480710A489C
:100CE00001F07FFE4FF40071074801F07AFE4FF4E7
:100CF0008061054801F077FE10BD10B5FFF791FF48
:100D000010BD0000000C0140001801400008014027
:100D100010B54FF4006002F0D3FF002879D0FFF740
:100D200080FF4FF47A7000F0C6FE4FF400618648F1
:100D300001F03DFE00286DD14FF47A7000F0BBFE4B
:100D40004FF47A7000F0B7FE4FF400617E4801F076
:100D50002EFE00285CD10A207C49087000240AE09D
:100D6000FFF770FFC82000F0A6FEFFF77FFFC82046
:100D700000F0A1FE641C032CF2DB4FF4006172480A
:100D800001F015FE01280BD100207049087070A0F9
:100D900003F0ECF84FF4805001F0A8FA00F0C6F828
:100DA00000240CE04FF40061674801F000FE0128C8
:100DB00000D106E04FF47A7000F07DFE641C032C35
:100DC000F0DB00BF4FF400615F4801F0F0FD002848
:100DD00060D114205D49087000240AE0FFF767FF26
:100DE000C82000F068FEFFF773FFC82000F063FE24
:100DF000641C032CF2DB4FF40061534801F0D7FD73
:100E0000012808D100205149087053A003F0AEF822
:100E100040E050E031E04FF400614B4801F0C7FD85
:100E2000002837D100240CE04FF40061464801F05F
:100E3000BEFD012800D106E04FF47A7000F03BFEC1
:100E4000641C022CF0DB00BF4FF400613E4801F04F
:100E5000AEFDF8B900240AE0FFF73EFFC82000F01D
:100E60002AFEFFF74AFFC82000F025FE641C032C71
:100E7000F2DB01F0E1FA00F059F84FF4006132487A
:100E800001F095FD30B139A003F070F801F0D4FA0B
:100E900000F04CF82D4800780A2805D137A003F05F
:100EA00065F801203B4908700020284908704FF47C
:100EB000006002F016FF10BD08B54FF4A06001F00D
:100EC00015FC28208DF8000000208DF801008DF819
:100ED000020001208DF80300684601F00CFC08BDFB
:100EE0000EB50121052001F08BFFFFF7E5FF4FF460
:100EF0000060ADF8080004208DF80B0002A912482C
:100F000001F0C2FC0B21002001F0D4FD4FF4006081
:100F1000009000208DF804000C208DF805000120C1
:100F20008DF80600684602F065FE0EBD1A4800689E
:100F300000F4E06019490843001D17490860BFF339
:100F4000408F00BFFEE70000000801404200002083
:100F50000D0A0D0A000000000D0ABBD6B8B4B3F6A6
:100F6000B3A7C9E8D6C30D0A000000000D0AB0B44B
:100F7000BCFCB8B4CEBB0D0A000000000D0A5761DE
:100F8000697420656E746572207768696C650D0AF6
:100F900000000000400000200CED00E00000FA0519
:100FA0000146088870472DE9F04105460E46174670
:100FB000002407E036F81410284602F0F0FAAD1CC1
:100FC000601C84B2BC42F5DBBDE8F08130B503465D
:100FD0000C461546002207E01846FFF7E1FF24F80B
:100FE00012009B1C501C82B2AA42F5DB30BD2DE9D9
:100FF000F05F80468A461746B8F1006F02D3374843
:10100000804501D3BDE8F09F02F081F9A8F1006BA3
:101010004FEADB25CBF34909C9F58064A74200DC20
:101020003C464DE04FF0006101EBC5204A142C49CD
:10103000FFF7CCFF00260BE009EB0600284931F84A
:1010400010004FF6FF71884200D003E0701C86B29A
:10105000A642F1DB00BFA6421BDA4FF0006101EBB4
:10106000C52002F099F9002608E03AF8160006EBD0
:1010700009011B4A22F81100701C86B2A642F4DB5B
:101080004FF0006101EBC5204A141549FFF78BFFB3
:1010900004E0224651464046FFF785FFA74200D1B3
:1010A0000FE06D1C4FF000090AEB440AA044381B06
:1010B00087B2B7F5806F02DD4FF4806400E03C46F4
:1010C000B0E700BF02F02FF900BF9BE713B504465D
:1010D000012201A92046FFF78AFF1CBD0000080875
:1010E00000E0002010B54FF48071FC4801F07BFC5B
:1010F0004FF4FA7000F0DFFC4FF48071F74801F014
:1011000070FC10BD2DE9F0470446894616461F467F
:10111000204602F08DFE82465146F1A002F026FFE5
:101120004FF000082DE000250BE0615DF14802F072
:1011300007F800BF8021EF4802F070F80028F9D0CE
:101140006D1C204602F074FEA842EED8B0B200F04A
:10115000B2FCE949E9A002F009FF4946E64802F07D
:1011600049FE58B12146E8A002F000FF4FF40061AB
:10117000E14802F028FE0020BDE8F08700BF08F13A
:101180000108B845CFDBE4A002F0F0FE0120F3E750
:101190002DE9F0470446894616461F46204602F0D0
:1011A00047FE82465146CEA002F0E0FE2146D6A080
:1011B00002F0DCFE4FF0000828E000250BE0615D46
:1011C000CC4801F0BDFF00BF8021CA4802F026F8DC
:1011D0000028F9D06D1C204602F02AFEA842EED865
:1011E000B0B200F068FC4946C34802F003FE50B1BB
:1011F000CDA002F0BBFE4FF40061BF4802F0E3FD5A
:101200000020BDE8F08700BF08F10108B845D4DB35
:10121000C1A002F0ABFE0120F3E72DE9F047044640
:10122000894616461F46204602F002FE8246514677
:10123000ABA002F09BFE2146B3A002F097FE4FF058
:10124000000832E000250BE0615DAA4801F078FF5C
:1012500000BF8021A74801F0E1FF0028F9D06D1CF4
:10126000204602F0E5FDA842EED8B0B200F023FC23
:101270001122A1491C31B04802F0CEFDAE49AFA009
:1012800002F074FE49469C4802F0B4FD50B1A6A09D
:1012900002F06CFE4FF40061974802F094FD0020CC
:1012A000BDE8F08700BF08F10108B845CADB9AA085
:1012B00002F05CFE0120F3E72DE9F0470446894681
:1012C00016461F46204602F0B3FD8246514684A0D2
:1012D00002F04CFE4FF000082CE000250BE0615DB1
:1012E000844801F02DFF00BF8021824801F096FF65
:1012F0000028F9D06D1C204602F09AFDA842EED8D5
:10130000B0B200F0D8FB49467B4802F073FD70B1E3
:1013100021468EA002F02AFE83A002F027FE4FF4A1
:101320000061754802F04FFD0020BDE8F08700BF66
:1013300008F10108B845D0DB214688A002F016FE6E
:101340000120F2E770B5054600240BE0295D6948ED
:1013500001F0F6FE00BF8021664801F05FFF002823
:10136000F9D0641C284602F063FDA042EED870BD9F
:1013700070B504464FF4C8717E4802F024FD204643
:1013800002F056FD05462A467BA17A4802F0FEFD92
:1013900000BF012364227CA17648FFF7B3FE00283A
:1013A000F7D100BF01234FF4FA7278A12046FFF76E
:1013B000A9FE0028F6D170BD10B500BF03234FF47D
:1013C000FA7274A174A0FFF79DFE0028F6D110BD3B
:1013D00010B5032364226FA173A0FFF793FE48B1F9
:1013E00000BF03234FF47A7273A16248FFF78AFEAD
:1013F0000028F6D110BD70B505460E46FFF742FC39
:101400006FA002F0B3FDFFF76DFE75A0FFF79AFF26
:10141000142000F050FB72A0FFF794FF142000F09E
:101420004AFB6FA0FFF78EFF142000F044FB00BFC3
:1014300003234FF4FA7257A16AA0FFF7A9FE002810
:10144000F6D100BF03234FF4FA7252A167A0FFF751
:101450009FFE0028F6D100BF032364224DA166A0A1
:10146000FFF796FE0028F7D100BF0323642249A1AD
:1014700065A0FFF7D2FE0028F7D14FF4C8713D48B0
:1014800002F0A1FC64A13B4802F0D9FC294639488E
:1014900002F0A4FC63A1374802F0A0FC31463548B5
:1014A00002F09CFC60A1334802F098FC00BF0123CD
:1014B00040F6B8325DA12F48FFF76AFE0028F6D14A
:1014C0004FF400610C4802F07EFC4FF4C8712948CB
:1014D00002F079FC00F05CFCAEE000000008014086
:1014E000636F6D6D616E64206C656E6774683A251C
:1014F000640D0A0000440040620300202D2D2D3CA5
:101500003C25730D0A0000002D2D2D3E3E73656EA7
:10151000642025730D0A00002D2D2D3E3E66616965
:101520006C210D0A000000002D2D2D3C3C736574CC
:10153000206F6B0D0A000000F80B00202D2D2D3CB4
:101540003C4D41433A2025730D0A00002D2D2D3EC0
:1015500073656E642025730D0A0000002D2D2D3E4D
:1015600073656E64203A2573206661696C210D0AEB
:1015700000000000D201002041542B434950534544
:101580004E443D25640D0A003E00000053454E4484
:10159000204F4B004F4B000041542B434950434CCC
:1015A0004F53450D0A00000041542B434950434C12
:1015B0004F53453D3F0D0A00434F4E4E45435400A7
:1015C0002A2A2A2A2A2A776966692069732073657C
:1015D0007474696E672A2A2A2A2A2A0D0A000000D2
:1015E0002B2B2B0041540D0A0000000041542B52BC
:1015F00053540D0A0000000041542B43574D4F44F3
:10160000453D330D0A00000041542B4349505354CB
:10161000414D41433F0D0A0041542B43574A41502D
:101620003D220000222C2200220D0A005749464983
:1016300020474F5420495000ACA1B14802F0FFFBB5
:10164000B0A1AF4802F0CAFBB2A1AD4802F0C6FBA0
:1016500000BF012341F27072AFF2A401A848FFF766
:1016600097FD0028F5D100BF03236422AFF2DC010F
:10167000ABA0FFF78DFD0028F6D100BF0323642245
:10168000AFF2FC01AAA0FFF783FD0028F6D1AC4918
:101690000870ACA002F06AFC002402E0FFF778FAC0
:1016A000641C032CFADBFFF7BCFA142000F003FAE9
:1016B00070BD2DE9F0410646884617460FE0C82167
:1016C000304602F080FBA64801193A46304602F047
:1016D000A3FB641C6E2C00DD0024E019451E41466E
:1016E000304602F087FB0028E9D000F051FB00E013
:1016F000641C9B48005D0D28FAD19949601C085C68
:101700000A28F5D1601B821C08464119304602F0B8
:1017100083FB324693A1944802F038FC32213046D4
:1017200002F051FB621B9049304602F075FBBDE8A8
:10173000F08170B54FF480618C4801F054F9FFF7E7
:10174000D1FC11E0142000F0B6F9AFF26C10FFF7F5
:10175000F9FD142000F0AFF9AFF27C10FFF7F2FDB5
:101760004FF4FA6000F0A7F903234FF4FA72AFF2D6
:10177000DC11AFF29010FFF79FFD0028E2D17CA0B2
:1017800002F0F4FB00BF03234FF4FA72AFF2FC1136
:10179000AFF2B010FFF790FD0028F4D100BF032393
:1017A0004FF4FA72AFF21421AFF2C010FFF784FDCC
:1017B0000028F4D100BF03236422AFF2282172A0D5
:1017C000FFF7E6FC0028F6D100BF03236422AFF246
:1017D0003C21AFF2CC10FFF720FD0028F5D100BF6F
:1017E000012341F27072AFF254216BA0FFF764FD48
:1017F0000028F5D14FF47A7000F05DF94FF47A705B
:1018000000F059F94FF47A7000F055F968E0544946
:1018100066A002F0ABFB524802F00AFB05462946DF
:1018200066A002F0A3FB4FF47A7000F044F94FF485
:101830007A7000F040F94A4802F0FAFA64284DD96B
:1018400061A002F093FB052267A16948FFF731FF11
:10185000674968A002F08AFB654802F0E9FA05468C
:10186000294669A002F082FB1E216A4802F0ABFA09
:10187000092269A16B48FFF71CFF6A496AA002F0C0
:1018800075FB684802F0D4FA054629465EA002F0CE
:101890006DFB4FF48071354801F0A3F8002410E08F
:1018A000C82000F008F94FF40071304801F09BF8AF
:1018B000C82000F000F94FF400712C4801F091F8B5
:1018C000641C052CECDB4FF40071284801F08BF808
:1018D0004FF40061224802F076FA04E000F058FA72
:1018E0001F48002893D100BF70BD000041542B4316
:1018F000495053544152543D22544350222C22000B
:10190000D20100203139322E3136382E34332E3187
:1019100034310000222C383434330D0A000000002A
:1019200041542B4349504D4F44453D310D0A000071
:1019300041542B43495053454E440D0A00000000CA
:10194000400000202A2A2A2A2A2A77696669206903
:1019500073206F6B2A2A2A2A2A2A0D0A0000000007
:101960006203002025730000C60B00200018014010
:10197000736D617274636F6E66696720697320644A
:101980006F696E670D0A000041542B43574D4F4459
:10199000453D310D0A00000041542B43575354413B
:1019A0005254534D4152540D0A0000007265636554
:1019B0006976653A25730D0A000000002D2D2D3C37
:1019C0003C3C3A25640D0A005265636569766520E2
:1019D00050617373776F724420262053534944201B
:1019E00049530D0A00000000737369643A00000057
:1019F0007A0C00202D3C3C3C2020202053534944AD
:101A00003A2025730D0A00006C656E74683A202533
:101A1000640D0A007E0D002070617373776F72642D
:101A20003A000000980C00202D3C3C3C5061737340
:101A3000776F72643A2025730D0A000010B56FF0BD
:101A4000040000F0A2FE344800683449B0FBF1F015
:101A5000334908700846007800EB4001C1EBC01024
:101A60004FF6FF7101EAC0002E49088010BD014603
:101A70002B4A12784A434FF0E0235A6100229A61C0
:101A80001A46126942F001021A6100BF4FF0E022CB
:101A9000106900F001021AB100F48032002AF5D07A
:101AA0004FF0E022126922F001024FF0E0231A61A8
:101AB00000229A61704701461A4A12884A434FF041
:101AC000E0235A6100229A611A46126942F001022B
:101AD0001A6100BF4FF0E022106900F001021AB154
:101AE00000F48032002AF5D04FF0E022126922F093
:101AF00001024FF0E0231A6100229A61704730B56D
:101B00000446002504E04FF47A70FFF7D4FF6D1C03
:101B1000A542F8DB30BD00002C00002000127A0046
:101B2000C2000020C4000020014600BF704700BF73
:101B3000894A128802F04002002AF9D0C2B2864BCC
:101B40001B1D1A80704710B586B00446012144F26F
:101B5000040001F055F94FF40070ADF814000320B3
:101B60008DF8160018208DF8170005A97B4800F0A5
:101B70008BFE4FF48060ADF8140004208DF8170040
:101B800005A9764800F080FE25208DF8000002208F
:101B90008DF801008DF8020001208DF803006846E1
:101BA00000F0A9FD01940020ADF80800ADF80A008E
:101BB000ADF80C00ADF810000C20ADF80E0001A936
:101BC000654801F0C4F9012240F22551624801F054
:101BD00056FA0121604801F046FA06B010BD00B582
:101BE00087B00121480401F018F90420ADF818006D
:101BF00003208DF81A0018208DF81B0006A95748FD
:101C000000F042FE0820ADF8180004208DF81B00FB
:101C100006A9524800F038FE26208DF80400032063
:101C20008DF805008DF8060001208DF8070001A849
:101C300000F061FD4FF4E13002900020ADF80C009F
:101C4000ADF80E00ADF81000ADF814000C20ADF8A2
:101C5000120002A9424801F07AF9012240F225510E
:101C60003F4801F00CFA01213D4801F0FCF907B0B2
:101C700000BD00B587B00121880401F0CEF8012134
:101C8000082001F0BDF818208DF80B004FF480609B
:101C9000ADF8080003208DF80A0002A9314800F0D1
:101CA000F3FD04208DF80B004002ADF8080002A9F6
:101CB0002C4800F0E9FD4FF4165003900020ADF8D9
:101CC00018000C20ADF816000020ADF81400ADF897
:101CD0001200ADF8100003A9234801F038F92720BD
:101CE0008DF8040001208DF807008DF805008DF8AF
:101CF000060001A800F0FFFC012240F225511A481D
:101D000001F0BDF90121184801F0ADF907B000BD9F
:101D100070B504460D462946204601F011FA00BF71
:101D20008021204601F07AFA0028F9D070BD70B504
:101D300006460C46002500BF615D3046FFF7E8FF10
:101D40006D1C605D0028F7D100BF4021304601F0D6
:101D500065FA0028F9D070BD003801400008014044
:101D600000440040000C01400048004070B50546AA
:101D70000C4645F2555001F089FD284601F089FDD9
:101D8000204601F089FD01F08AFD01F08DFD70BD56
:101D900010B501F084FD10BD10B5034607E01878BA
:101DA0000C78A04201D0002010BD5B1C491C100023
:101DB000A2F10104A2B2F2D10120F5E710B5044668
:101DC0002146F3A002F0D2F8002010BD10B5044661
:101DD0004FF48050FA4908600AE0F9490868411E4A
:101DE000F74A116020B90020FFF7E8FFC0B210BD2C
:101DF0000221F44801F0B9FE0028EED02146F14856
:101E000001F060FE4FF48050ED4908600AE0EC49B3
:101E10000868411EEA4A116020B90120FFF7CEFF91
:101E2000C0B2E4E70121E74801F09FFE0028EED0B0
:101E3000E44801F049FEC0B2D9E72DE9F0410024A1
:101E40000025002600274FF48051DF4800F0CBFD2D
:101E50009F20FFF7BBFFFF20FFF7B8FF0546FF20DD
:101E6000FFF7B4FF0646FF20FFF7B0FF07464FF429
:101E70008051D54800F0B5FD280440EA062040EA2C
:101E800007042046BDE8F08110B500244FF48051CE
:101E9000CD4800F0A8FDAB20FFF798FFFF20FFF72B
:101EA00095FFFF20FFF792FFFF20FFF78FFFFF2036
:101EB000FFF78CFF04464FF48051C34800F091FDBA
:101EC000204610BD10B5FFF7DFFFC04908604FF492
:101ED0007A70FFF7F0FDFFF7B0FFBD490860BB481F
:101EE000026808460168BBA002F040F8B8480068E4
:101EF00010BD70B505460C4616464FF48051B248E9
:101F000000F071FD0320FFF761FFC4F30740FFF706
:101F10005DFFC4F30720FFF759FFE0B2FFF756FF5C
:101F200004E0FF20FFF752FF28706D1C3000A6F17F
:101F300001018EB2F5D14FF48051A34800F051FD5C
:101F400070BD10B51D220021AF48FFF7D2FFAE498A
:101F5000AEA002F00BF8AC4801F06AFF044621463F
:101F6000B1A002F003F810222021B448FFF7C1FF0E
:101F7000B249B3A001F0FAFFB04801F059FF04469E
:101F80002146B6A001F0F2FF10BD10B510224FF4AB
:101F9000C041B748FFF7ADFFB549B6A001F0E6FF75
:101FA00010224FF4E041BB48FFF7A3FFB949BAA0A4
:101FB00001F0DCFF10BD10B500244FF480518248C1
:101FC00000F011FD0520FFF701FF00BFFF20FFF724
:101FD000FDFE044604F001000028F7D14FF48051C3
:101FE000794800F0FEFC10BD10B54FF480517648E2
:101FF00000F0F9FC0620FFF7E9FE4FF4805172482B
:1020000000F0EFFC10BD70B505460C461646FFF714
:10201000EBFF4FF480516C4800F0E5FC0220FFF725
:10202000D5FEC4F30740FFF7D1FEC4F30720FFF746
:10203000CDFEE0B2FFF7CAFEB6F5807F04DD4FF4B7
:1020400080769DA001F092FF03E02878FFF7BEFEA6
:102050006D1C3000A6F101018EB2F6D14FF4805113
:10206000594800F0BEFCFFF7A6FF70BD2DE9F05FF8
:1020700007460E4614464FF00008C146C2460025EA
:10208000AB4606F0FF0ACAF10000C5B22046E117D0
:1020900004EB1161C1F30728E11704EB1161091288
:1020A000A4EB012101F0FF09BAF1000F20D1B8F132
:1020B000000F05D1224631463846FFF7A4FF64E001
:1020C00009E04FF4807231463846FFF79CFF06F571
:1020D000807607F580775FEA0800A8F1010101F03A
:1020E000FF08EED14A4631463846FFF78CFF4CE0F8
:1020F000B8F1000F18D1A94510DDA9EB050000F0DB
:10210000FF0B2A4631463846FFF77DFF2E442F4409
:102110005A4631463846FFF776FF36E022463146CA
:102120003846FFF770FF30E0601B84B22046E117AD
:1021300004EB1161C1F30728E11704EB11610912E7
:10214000A4EB012101F0FF092A4631463846FFF78A
:102150005AFF2E442F4409E04FF48072314638462E
:10216000FFF751FF06F5807607F580775FEA0800F4
:10217000A8F1010101F0FF08EED1B9F1000F04D080
:102180004A4631463846FFF73EFFBDE8F09F000063
:102190003C3C2D464C4153482D4552524F522D3E0A
:1021A0003E2053504920B5C8B4FDB3ACCAB1216537
:1021B00072726F72436F6465203D2025640A0000CF
:1021C000D000002000380040000C01407C010020BD
:1021D00080010020466C6173684944206973203097
:1021E0007825582C4D616E756661637475726572E1
:1021F00020446576696365204944206973203078FE
:1022000025580D0A000000007E000020B6C1B3F67C
:10221000B5C4CAFDBEDDCEAA2020202053534944B8
:10222000A3BA25730D0A00002020535349445F4C84
:10223000656E74683A25640D0A0000009C00002059
:10224000B6C1B3F6B5C4CAFDBEDDCEAA202050612A
:1022500073737264A3BA25730D0A0000506173731F
:1022600072645F4C656E74683A25640D0A00000064
:1022700030010020B6C1B3F6B5C4CAFDBEDDCEAA9A
:10228000202020205365727665725F4950A3BA25DD
:10229000730D0A004C010020B6C1B3F6B5C4CAFDE7
:1022A000BEDDCEAA20205365727665725F506F72D4
:1022B00074A3BA25730D0A003C3C2D464C4153488B
:1022C0002D4552524F522D3E3E205350495F464CB1
:1022D0004153485F50616765577269746520746F38
:1022E0006F206C61726765210A00000010B504461A
:1022F000FFF77AFEFFF75FFE4FF48051CA4800F007
:1023000072FB2020FFF762FDC4F30740FFF75EFD7C
:10231000C4F30720FFF75AFDE0B2FFF757FD4FF473
:102320008051C14800F05DFBFFF745FE10BD10B5C0
:102330004FF40050FFF7DAFF0F224FF40051BB4873
:10234000FFF794FE0F224FF40051B948FFF7D1FD7B
:10235000B849B9A001F00AFE10BD70B509224FF4CA
:102360008051B448FFF7C5FDB249B8A001F0FEFDA9
:10237000BCA001F0FBFD002405E0AE48015DBEA05D
:1023800001F0F4FD641C092CF7DBAFA001F0EEFDB9
:10239000A8484078FF280CD0A6484078302808D0BC
:1023A000A448C078FF2804D0A248C078302800D0C4
:1023B0000125E8B270BD10B54FF48050FFF796FFCD
:1023C00009224FF48051AD48FFF750FE09224FF427
:1023D00080519848FFF78DFD964997A001F0C6FD02
:1023E00010BD10B5A64AA7A1A74801F0CFFDA64988
:1023F000A6A001F0BBFD4FF4A040FFF777FF1D2220
:102400004FF4A041A048FFF731FE1D224FF4A04138
:10241000A248FFF76EFDA14987A001F0A7FD10BDFE
:1024200010B51D224FF4A0419C48FFF762FD9B4967
:1024300081A001F09BFD10BD10B54FF48040FFF767
:1024400055FF07224FF480419548FFF70FFE10BD5E
:1024500010B508224FF410419248FFF74AFD914908
:1024600091A001F083FD10BD00B587B00121880364
:1024700000F0D3FC01214CF2080000F0C1FC4FF445
:102480008050ADF8040003208DF8060010208DF870
:10249000070001A9644800F0F7F94FF40050ADF8C7
:1024A000040018208DF8070001A95F4800F0ECF93E
:1024B0004FF48040ADF8040001A95B4800F0E4F956
:1024C0004FF40040ADF8040001A9574800F0DCF9D2
:1024D0004FF48051544800F084FA0020ADF8080011
:1024E0004FF48270ADF80A000020ADF80C00022015
:1024F000ADF80E000120ADF810004002ADF812005A
:102500000820ADF814000020ADF816000720ADF843
:10251000180002A96A4801F0FFF90121684801F09A
:10252000A0FA07B000BD10B5FFF75EFD4FF4805173
:102530003D4800F058FAC720FFF748FC4FF480519F
:10254000394800F04EFAFFF736FD10BD10B50446CD
:102550004FF48051344800F046FA0320FFF736FC70
:10256000C4F30740FFF732FCC4F30720FFF72EFC4B
:10257000E0B2FFF72BFC10BD10B5FF20FFF726FCE3
:1025800010BD10B504464FF480504E49086009E074
:102590004C490868411E4B4A116018B90220FFF7E8
:1025A0000DFC10BD0221464801F0DFFA0028EFD0F3
:1025B0002146434801F086FA4FF4805041490860B3
:1025C00009E040490868411E3E4A116018B90320DD
:1025D000FFF7F4FBE5E70121394801F0C6FA0028CE
:1025E000EFD0374801F070FADBE710B54FF48051B7
:1025F0000D4800F0F8F9B920FFF7E8FB4FF48051DF
:10260000094800F0EEF910BD10B54FF480510648AE
:1026100000F0E9F9AB20FFF7D9FB4FF480510248F5
:1026200000F0DFF910BD0000000C01400F01002098
:102630009E0E0020820E0020B6C1B3F6B5C4CAFDBE
:10264000BEDDCEAAA3BA25730D0A0000B1A3B4E67D
:10265000B5C4464C4147CAFDBEDDA3BA25730D0A79
:1026600000000000CAAEBDF8D6C6BDD3CAD5CAFDAB
:10267000BEDD3A20000000002564000005010020B6
:10268000F80B002025730000BA0E00204D41435F77
:1026900049443A2025730D0A00000000D80E00209E
:1026A00068010020560F002045746865726E6574DD
:1026B0005F4275666665723A25730D0A0000000078
:1026C00000380040D00000200648804706480047F8
:1026D000FEE7FEE7FEE7FEE7FEE7FEE7FEE7FEE7D2
:1026E000FEE7FEE7130A0008310100083149014303
:1026F000314A1160704770B5002100230F22C47861
:1027000004B32D4C246804F4E064C4F5E064210AA9
:10271000C1F10403CA40447804FA03F184781440F8
:1027200021430901254C0678A155047804F01F05C2
:102730000124AC4005786D11AD0005F1E025C5F828
:10274000004109E0047804F01F050124AC401C4D51
:102750000678761145F8264070BD1A4A0A400243B1
:10276000154B1B1F1A60704739B1134A121D1268AE
:102770000243114B1B1D1A6006E00F4A121D12681E
:1027800082430D4B1B1D1A607047042808D14FF07F
:10279000E021096941F004014FF0E022116107E0F6
:1027A0004FF0E021096921F004014FF0E0221161AE
:1027B000704700000000FA050CED00E000E400E0C6
:1027C00080E100E080FFFF1F10B50446CC48844242
:1027D00008D10121042000F02DFB0021042000F08D
:1027E00029FB46E0C748844208D10121082000F0B7
:1027F00021FB0021082000F01DFB3AE0C248844282
:1028000008D10121102000F015FB0021102000F05C
:1028100011FB2EE0BD48844208D10121202000F0A8
:1028200009FB0021202000F005FB22E0B84884428B
:1028300008D10121402000F0FDFA0021402000F0E5
:10284000F9FA16E0B348844208D10121802000F053
:10285000F1FA0021802000F0EDFA0AE0AE4884424F
:1028600007D10121801500F0E5FA0021A01500F044
:10287000E1FA10BD10B50121084600F0DBFA002195
:10288000012000F0D7FA10BD2DE9F04102460025E5
:102890000026002000230024002791F803C00CF03C
:1028A0000F0591F803C00CF0100CBCF1000F03D021
:1028B00091F802C04CEA050591F800C0BCF1000F88
:1028C00031D0146800202BE04FF0010C0CFA00F31B
:1028D000B1F800C00CEA03069E4220D183004FF0FD
:1028E0000F0C0CFA03F7BC4305FA03FC4CEA040492
:1028F00091F803C0BCF1280F06D14FF0010C0CFA7F
:1029000000FCC2F814C00AE091F803C0BCF1480F03
:1029100005D14FF0010C0CFA00FCC2F810C0401CAD
:102920000828D1D31460B1F800C0BCF1FF0F34DD2A
:10293000546800202EE000F1080C4FF0010808FA5E
:102940000CF3B1F800C00CEA03069E4221D18300CB
:102950004FF00F0C0CFA03F7BC4305FA03FC4CEAEA
:10296000040491F803C0BCF1280F05D100F1080C54
:1029700008FA0CF8C2F8148091F803C0BCF1480FB3
:1029800007D100F1080C4FF0010808FA0CF8C2F862
:102990001080401C0828CED35460BDE8F0814FF66B
:1029A000FF710180022181700421C17070470246CD
:1029B000002093680B400BB1012000E0002070471D
:1029C0000146886880B2704702460020D3680B40F9
:1029D0000BB1012000E0002070470146C86880B2BA
:1029E000704701617047416170470AB1016100E0C1
:1029F00041617047C16070474FF480320A43826181
:102A00008161826182698269704702460020434B7E
:102A100018684FF68073184040EA021008433F4B95
:102A2000186070473E49C8617047F0B50A460023F8
:102A300000240021002500F00046B6F1004F02D12D
:102A4000364EF16901E0354E7168C0F3034583B23B
:102A500000F44016B6F5401F08D121F070612F4EEA
:102A6000766826F070662D4F7E6012E000F48016C6
:102A7000B6F5801F06D1032606FA05F4A14341F0FE
:102A8000706106E0460D360103FA06F6B14341F0E7
:102A9000706122B1460D360103FA06F6314300F0AB
:102AA0000046B6F1004F02D11C4EF16101E01B4E11
:102AB0007160F0BD30B500228B071C0F0F2303FAA5
:102AC00004F2164B08338C1053F824309343134C04
:102AD00008348D1044F8253023468C1053F82430E8
:102AE0008C07240F00FA04F423430C4C08348D1097
:102AF00044F8253030BD0A49DC31086070470000D9
:102B000000080140000C0140001001400014014089
:102B100000180140001C014000200140000001405D
:102B200000002042DF48006840F00100DD490860F5
:102B300008464068DC490840DA49486008460068B1
:102B4000DA490840D74908600846006820F4802028
:102B500008600846406820F4FE0048604FF41F00FB
:102B600088607047CF49096821F48031CD4A1160EF
:102B70001146096821F480211160B0F5803F03D02F
:102B8000B0F5802F0ED106E0C649096841F48031C6
:102B9000C44A116007E0C349096841F4A021C14A51
:102BA000116000E000BF00BF704710B50146002271
:102BB000002300204A11012A02D1BA4C236806E002
:102BC000022A02D1B74C236A01E0B64C636A01F0D5
:102BD0001F02012494401C400CB1012000E00020A1
:102BE00010BD38B5002000900024002500BF312022
:102BF000FFF7DBFF05460098401C00900098B0F5F9
:102C0000A06F01D0002DF2D03120FFF7CEFF08B128
:102C1000012400E00024204638BD01460020A14ADE
:102C2000106820F0F80040EAC10010607047A04929
:102C300008607047024600209A4B586820F47C10C8
:102C400042EA01031843974B586070479849086659
:102C5000704701460020934A506820F00300084363
:102C6000506070478F48406800F00C007047014684
:102C700000208C4A506820F0F000084350607047F4
:102C800001460020874A506820F4E0600843506005
:102C9000704701460020834A506820F4605040EAA3
:102CA000C1005060704729B17E4A527A02437D4B81
:102CB0005A7204E07B4A527A82437A4B5A727047C6
:102CC0007B49D8310860704701460020754A50683A
:102CD00020F440400843506070470021714A203280
:102CE0001170704A82F82010012802D004280AD1FD
:102CF00004E001216B4A2032117005E00521694A88
:102D00002032117000E000BF00BF704769490860C1
:102D100070476449096A0143624A11627047654914
:102D200044390860704730B5002100220024002398
:102D30005C4D6D6805F00C0121B1042905D008290E
:102D400023D105E05C4D056022E05B4D05601FE08E
:102D5000544D6D6805F47012524D6D6805F4803461
:102D6000022505EB92421CB9544D554305600BE01A
:102D70004C4D6D6805F400351DB1504D554305604F
:102D800002E04D4D5543056002E04B4D056000BF2C
:102D900000BF444D6D6805F0F0010909484D6B5CBA
:102DA0000568DD4045603F4D6D6805F4E061090A46
:102DB000434D6B5C4568DD4085603A4D6D6805F4B8
:102DC0006051C90A3E4D6B5C4568DD40C560354DBC
:102DD0006D6805F44041890B3A4D6B5CC568B5FBE5
:102DE000F3F5056130BD29B12E4A526902432D4BDE
:102DF0005A6104E02B4A526982432A4B5A61704758
:102E000029B1284A92690243264B9A6104E0254A77
:102E100092698243234B9A61704729B1214AD26952
:102E20000243204BDA6104E01E4AD26982431D4B03
:102E3000DA61704729B11B4AD2680243194BDA6044
:102E400004E0184AD2688243164BDA60704729B111
:102E5000144A12690243134B1A6104E0114A1269C1
:102E60008243104B1A61704712494039086070471D
:102E70000F49C86470470B49C87170470948406AD8
:102E800040F0807007494862704701460020054ABB
:102E900092680A400AB1012000E000207047014911
:102EA00088727047001002400000FFF8FFFFF6FE36
:102EB000000042428004424200127A0000093D00B4
:102EC000850100209501002010B50446FB4884428E
:102ED00009D101218803FFF7ADFF00214FF48040A5
:102EE000FFF7A8FF32E0F648844209D101214804E7
:102EF000FFF7ADFF00214FF40030FFF7A8FF25E0FA
:102F0000F048844209D101218804FFF7A0FF002185
:102F10004FF48020FFF79BFF18E0EB48844209D173
:102F20000121C804FFF793FF00214FF40020FFF7B1
:102F30008EFF0BE0E548844208D101210805FFF728
:102F400086FF00214FF48010FFF781FF10BD2DE9AF
:102F5000F04786B005460E460024A24600BFA146B3
:102F60000027B08900B100BF2F462C8A4CF6FF70B5
:102F70000440F08804432C82AC894EF6F3100440E0
:102F8000B08831890843718908430443AC81AC8A15
:102F90004FF6FF400440B0890443AC8201A8FFF71C
:102FA000C2FEC648874202D1DDF810A001E0DDF87C
:102FB0000CA0A88900F4004040B10AEBCA0000EB65
:102FC0000A1031684900B0FBF1F807E00AEBCA00CB
:102FD00000EB0A1031688900B0FBF1F86420B8FBFF
:102FE000F0F004012009642101FB1089A88900F494
:102FF000004040B1322000EBC900B0FBF1F000F01E
:103000000700044308E0322000EB09106421B0FB04
:10301000F1F000F00F0004432C8106B0BDE8F0870A
:103020004FF41651016000218180C18001810C2183
:10303000418100218181704710B502460020108A2D
:103040004FF2FF0318400B884C8823438C8823439E
:10305000CC8823431843108210BD00210180418099
:103060008180C180704721B1828942F400528281FF
:1030700004E082894DF6FF731A4082817047F0B5F3
:103080000346002400260025002040F66A17B942B6
:1030900000D100BF1846C1F3421401F01F060127FA
:1030A00007FA06F5012C01D10C3004E0022C01D105
:1030B000103000E014301AB107682F43076002E0B7
:1030C0000768AF430760F0BD1AB1838A0B43838260
:1030D00002E0838A8B4383827047028A4FF6F07343
:1030E0001A400282028A0A430282704782894FF2A2
:1030F000FF731A40828182890A438281704721B11D
:10310000828942F00202828104E082894FF6FD73D7
:103110001A4082817047028A4FF6DF731A4002829A
:10312000028A0A430282704721B1028A42F4804235
:10313000028204E0028A4BF6FF731A400282704753
:10314000C1F308028280704701468888C0F30800F6
:103150007047818941F0010181817047028BD2B2B1
:103160000283028B42EA012202837047028B02F43F
:103170007F420283028B0A430283704721B1828A15
:1031800042F02002828204E0828A4FF6DF731A4006
:103190008282704721B1828A42F01002828204E06A
:1031A000828A4FF6EF731A408282704721B1828A79
:1031B00042F00802828204E0828A4FF6F7731A40D6
:1031C0008282704721B1828942F40042828103E009
:1031D0008289C2F30E028281704721B1828A42F451
:1031E0000062828204E0828A4FF2FF731A40828278
:1031F0007047828A4FF6FB731A408282828A0A43A2
:103200008282704721B1828A42F00202828204E007
:10321000828A4FF6FD731A40828270470246002070
:10322000B1F5007F00D100BF13880B400BB1012026
:1032300000E00020704701F40072B2F5007F00D179
:1032400000BFCA430280704770B5024600240023C5
:103250000025002040F66A16B14200D100BFC1F33C
:10326000421501F01F03012606FA03F3012D02D1D6
:103270009689334006E0022D02D1168A334001E0E0
:10328000968A33400C12012606FA04F4168834405C
:1032900013B10CB1012000E0002070BD10B5002278
:1032A000002340F66A14A14200D100BF0A12012493
:1032B0009440A3B2DC43048010BD000000380140FC
:1032C0000044004000480040004C004000500040D6
:1032D00001460020FE4A106800F0380008431060E4
:1032E0007047FB49096821F00801F94A116011464D
:1032F0000968014311607047F549096821F0100120
:10330000F34A116011460968014311607047F148A2
:10331000EF494860F04848607047EE48EC49486023
:10332000ED4848607047EA48006940F08000E8498D
:1033300008617047E648006940F08000E449086190
:1033400070470420E249C96801F0010109B1012078
:103350000EE0DF49C96801F0040109B1022007E06D
:10336000DB49C96801F0100109B1032000E0042025
:10337000704700B502460423FFF7E3FF034603E06E
:10338000FFF7DFFF0346521E012B01D1002AF7D1C0
:1033900002B90523184600BD30B5044604254FF494
:1033A0003020FFF7E6FF0546042D17D1C848006915
:1033B00040F00200C649086108464461006940F0D7
:1033C000400008614FF43020FFF7D3FF0546C048A6
:1033D000006941F6FD710840BD490861284630BDCD
:1033E00010B504244FF43020FFF7C3FF0446042C2B
:1033F00016D1B748006940F00400B5490861084695
:10340000006940F0400008614FF43020FFF7B1FF41
:103410000446AF48006941F6FB710840AC490861B9
:10342000204610BD00B502460423FFF78AFF03467D
:1034300003E0FFF786FF0346521E012B01D1002A4D
:10344000F7D102B90523184600BD10B504244FF486
:103450003020FFF7E7FF0446042C16D19C48006992
:1034600040F004009A4908610846006940F04000B5
:1034700008614FF43020FFF7D5FF044694480069F7
:1034800041F6FB71084092490861204610BD0020BA
:103490008F49C96901F0020109B1012000E0002053
:1034A000704730B5A5250424FFF7F1FF00B10025D2
:1034B0004FF43020FFF75DFF0446042C3AD18548D5
:1034C00083498860844888600846006940F020008D
:1034D00008610846006940F0400008614FF4302060
:1034E000FFF747FF0446042C1BD17948006941F6D9
:1034F000DF710840764908610846006940F0100015
:10350000086176480580E002FFF733FF0446052C8A
:1035100010D06F48006941F6EF7108406C490861AE
:1035200008E0052C06D06A48006941F6EF710840B2
:1035300067490861204630BD78B506460C4604252B
:1035400000200090E802FFF714FF0546042D24D167
:103550005F48006940F001005D4908613480E8027D
:10356000FFF707FF0546042D10D1B01C0090200C7A
:1035700000990880E802FFF7FCFE05465448006900
:1035800041F6FE7108405249086106E05048006962
:1035900041F6FE7108404E490861284678BD70B575
:1035A00004460D460426F002FFF7E3FE0646042E0D
:1035B00011D14748006940F0010045490861258064
:1035C000F002FFF7D6FE06464148006941F6FE715B
:1035D00008403F490861304670BD70B505460E464B
:1035E0000424E002FFF7C5FE0446042C17D1394835
:1035F00037498860384888600846006940F0100004
:1036000008612E80E002FFF7B4FE0446052C06D0C8
:103610002F48006941F6EF7108402D4908612046A6
:1036200070BD2DE9F04304464FF6FF763746B046AD
:10363000B1460425E443E6B2C4F30727C4F30748C0
:103640004FEA1469E802FFF794FE0546042D49D1BC
:1036500020481F498860204888600846006940F07B
:1036600010000861FF2E06D01C4808300680E802D2
:10367000FFF77FFE0546042D08D1FF2F06D017481F
:103680000A300780E802FFF774FE0546042D0AD1D0
:10369000B8F1FF0F07D011480C30A0F80080E80205
:1036A000FFF767FE0546042D0AD1B9F1FF0F07D0D9
:1036B0000A480E30A0F80090E802FFF75AFE0546CF
:1036C000052D0FD00248006941F6EF71084007E070
:1036D0000020024023016745AB89EFCD00F8FF1FB2
:1036E000664908612846BDE8F08330B505460424E4
:1036F0004FF43020FFF73DFE0446042C41D16048D2
:103700005E4988605F4888600846006940F0200094
:1037100008610846006940F0400008614FF430201D
:10372000FFF727FE0446042C22D15448006941F6D5
:10373000DF710840514908610846006940F01000F7
:1037400008611DB100205049088002E0A5204E49C3
:1037500008804FF43020FFF70CFE0446052C10D0F3
:103760004648006941F6EF7108404449086108E0A5
:10377000052C06D04148006941F6DF7108403F49F9
:103780000861204630BDF0B505460E4617460424B4
:103790003B483A4988603B488860E002FFF7E9FD12
:1037A0000446042C19D13548006940F01000334913
:1037B000086147F0F800304328433349891C0880EA
:1037C000E002FFF7D6FD0446052C06D02B48006921
:1037D00041F6EF710840294908612046F0BD2748AD
:1037E000C069800870472548006A70470020234957
:1037F000096801F0200109B1012000E000207047B4
:1038000029B11E4A126902431C4B1A6104E01B4A8B
:1038100012698243194B1A61704701460020012941
:1038200008D1164AD26902F001020AB1012008E06B
:10383000002006E0114AD2680A400AB1012000E0E7
:10384000002070470D49C860704704200B49C968C3
:1038500001F0010109B101200EE00849C96801F039
:10386000040109B1022007E00449C96801F0100110
:1038700009B1032000E0042070470000002002404E
:1038800023016745AB89EFCD00F8FF1F0E490860A3
:1038900070470D49486070470B49886070474AF689
:1038A000AA200949086070474CF6CC4006490860D8
:1038B000704701460020044AD2680A400AB101203C
:1038C00000E00020704700000030004010B50446C2
:1038D000BE48844208D101218014FFF7ABFA0021D1
:1038E000A014FFF7A7FA16E0B948844208D10121D5
:1038F0000014FFF7ACFA00212014FFF7A8FA0AE041
:10390000B448844207D10121C013FFF7A0FA002177
:10391000E013FFF79CFA10BD10B50022028802F4F4
:1039200041520B884C8823438C882343CC88234303
:103930000C8923434C8923438C892343CC8923431B
:103940001A430280838B4FF2FF74234083830B8AD8
:10395000038210BD2DE9F04F85B005460C464FF0AF
:10396000000902274FF000084FF0010B0026B24675
:10397000A88B4FF240010840A88302202884B5F8A4
:103980001C90A068022801D100BF38E0A08810B9BF
:103990004FF0010B01E04FF0020B8D48854200D142
:1039A00000E000BF6846FFF7BEF9DDF800A0E08840
:1039B000B0F5007F0AD14FEA1A2000EB80004000EA
:1039C000A168B0FBF1F0401D86B20BE04FEA4B104E
:1039D000BAFBF0F000EB80004000A168B0FBF1F012
:1039E000401D86B20A20B6FBF0F606F00108A6EBF1
:1039F0000800C0F34F074FF6FF7000EA0828022FB7
:103A000001DBFF2F02DD02274FF00008E08840EACB
:103A1000080038432884A088A189084361880843A6
:103A20002188084340F4006040EA0909A5F81C9089
:103A300005B0BDE8F08F0021018041808180C18008
:103A4000018141818181C18107210182704700216B
:103A5000018041808180C1800221816000218181BB
:103A6000704721B1028842F04002028004E00288DF
:103A70004FF6BF731A400280704721B1828B42F427
:103A80008062828304E0828B4FF6FF331A40828388
:103A9000704730B5002400230C110125A540ABB2BE
:103AA0001AB185881D43858002E085889D43858005
:103AB00030BD1AB183880B43838002E083888B4337
:103AC00083807047818170470146888970474FF62F
:103AD000FF62914204D0028842F48072028004E0C6
:103AE00002884FF6FF631A400280704721B1828836
:103AF00042F00402828004E082884FF6FB731A4091
:103B00008280704702884FF2FF731A400280028859
:103B10000A4302807047018841F480510180704758
:103B200021B1028842F40052028004E002884DF67E
:103B3000FF731A400280704702460020012901D01D
:103B4000108B00E0908A70470146088A7047B1F5F3
:103B5000804F04D1028842F48042028004E002884F
:103B60004BF6FF731A40028070470246002013890B
:103B70000B400BB1012000E000207047CA430281D6
:103B80007047F0B50246002000240023002501F014
:103B90000F070126BE40B4B20B1101269E40B3B2FE
:103BA000968806EA03051689264016B10DB1012054
:103BB00000E00020F0BD10B5002201F00F04012349
:103BC000A3409AB2D343038110BD000000300140EE
:103BD00000380040003C0040002044490860091DB6
:103BE0000860091D0860091D086041483F491431FB
:103BF0000860704700213D498279002A3AD00A4680
:103C0000126803689A430B461A600A1D126803681B
:103C10009A430B1D1A60027911440A6803681A431B
:103C20000A60324A0832126803689A432F4B0833FD
:103C30001A601A1D126803689A432C4B0C331A60E1
:103C40004279102A0ED11A1F126803681A43274BB3
:103C500008331A601A1D126803681A43234B0C3389
:103C60001A600DE02149427911440A6803681A4339
:103C70000A6005E0027911440A6803689A430A6001
:103C800070470021016001710C2141710021817197
:103C900070471649103109680143144A1032116007
:103CA000704701460020114A143212680A400AB1D6
:103CB000012000E0002070470C4914310860704773
:103CC000014600200022094B1B6803EA0102074B52
:103CD00014331B680B4013B10AB1012000E000202F
:103CE0007047024914310860704700000004014029
:103CF000FFFF0F002DE9F05F06460F4690460024B7
:103D0000B3463D46A1461CE068784FEA002A287871
:103D100050441FFA80FAAD1C2046611C8CB21C492D
:103D200021F810A0B4F5806F07D100244FF4806211
:103D30005846FDF75CF90BF5006B09F102001FFA1C
:103D400080F9C145E0D324B1224611495846FDF718
:103D50004EF9BDE8F09F10B50446012080F31088AD
:103D600000BF20680B490840B0F1005F0FD10AA0E6
:103D700000F0FCF84FF47A70FDF79DFE60680D4985
:103D800008602068FCF7DEF90A480068804710BD2B
:103D900000E800200000FE2F2D2D2D2D2D2D3E4161
:103DA000707020576169742052756E6E696E670D70
:103DB0000A0000009C010020D2B201E000F8012BB3
:103DC000491EFBD270470022F6E710B513460A469B
:103DD00004461946FFF7F0FF204610BD421E12F8B8
:103DE000013F002BFBD111F8013B02F8013B002BF6
:103DF000F9D1704730B505462A460B4612F8010B3B
:103E000013F8014B08B1A042F8D01CB1002802D031
:103E10006D1CF1E7284630BD10B5044604E00B7870
:103E200000F8013B03B1491C521EF8D2204610BDD8
:103E3000421C10F8011B0029FBD1801A7047034671
:103E400011F8012B00F8012B002AF9D11846704710
:103E50002DE9F05F0546002092469B4688460646BF
:103E6000814640241BE0284641464746224600F052
:103E700020F853465A46C01A914110D311461846AD
:103E8000224600F039F82D1A67EB01084F4622460A
:103E90000120002100F030F817EB00094E41201EF0
:103EA000A4F10104DFDC484631462A464346BDE81A
:103EB000F09F202A04DB203A21FA02F0002170470B
:103EC00021FA02F3D040C2F1200291400843194682
:103ED00070470000064C074D06E0E06840F0010323
:103EE00094E8070098471034AC42F6D3FCF724F965
:103EF000A0420008C0420008202A04DB203A00FA51
:103F000002F1002070479140C2F1200320FA03F330
:103F100019439040704770B58C1810F8015B15F08C
:103F2000070301D110F8013B2A1106D110F8012B2B
:103F300003E010F8016B01F8016B5B1EF9D12B0750
:103F400005D40023521E0DD401F8013BFAE710F806
:103F5000013BCB1A921C03E013F8015B01F8015BF3
:103F6000521EF9D5A142D8D3002070BD0FB4054B25
:103F700010B503A9044A029800F02CF810BC5DF8B3
:103F800014FB00002F1B0008C80000200FB4084BD2
:103F900010B504A902AA039800F01CF8044602A96F
:103FA000002000F077F9204610BC5DF814FB0000FB
:103FB0009542000802E008C8121F08C1002AFAD181
:103FC00070477047002001E001C1121F002AFBD199
:103FD000704700002DE9FF4F8DB09B460F46044609
:103FE000002606E025280BD05A460F999047641CFE
:103FF000761C20780028F5D111B03046BDE8F08F4E
:104000000025A8460122984900E0054314F8013F25
:10401000203B02FA03F00842F7D120782E2817D16E
:1040200014F8010F45F004052A280ED06FF02F0276
:104030002078A0F1300109290AD808EB880102EBA9
:10404000410100EB0108641CF2E757F8048B641C83
:1040500020786C280DD004DC4C2812D06A2811D1AD
:1040600004E074280DD07A280CD10AE045F400153C
:1040700007E0617845F48015814202D1641C05F5A2
:104080008015641C2278692A45D008DC002AB3D048
:10409000582A69D0632A10D0642A08D13BE0702ADC
:1040A00067D0732A13D0752A5CD0782A5CD010466A
:1040B0005A460F999047761CD3E017F8040B8DF8F9
:1040C000000000208DF80100E946012003E057F8C8
:1040D000049B4FF0FF3069074FF0000501D40AE060
:1040E0006D1C45450DDA8542FADB19F805100029EB
:1040F000F6D106E06D1C8542FCDB19F8051000299D
:10410000F8D12E4404E019F8010B5A460F99904754
:104110006D1EF8D2A5E00A200021CDE90801C5F303
:10412000025002280DD001CFC117031E71F1000308
:104130000DDA4FF0000CD0EB0C006CEB01012D23DD
:1041400008E0FF1D27F00707F7E80201EDE72B0560
:1041500004D52B238DF8283001233BE0EB0739D021
:104160002023F7E70A2000E010200021CDE9080114
:1041700007E01020002145F00405CDE908014FF0CB
:104180000808C5F3025002280FD001CF00214FF0DC
:10419000000A2B071FD5702A0DD0DDE908C38CF06B
:1041A000100C5CEA030C0CD015E0FF1D27F007078C
:1041B000F7E80201EBE740228DF828204FF0010AD2
:1041C0000BE050EA010306D030238DF828308DF83B
:1041D000292002239A46582A04D024A20DF120094E
:1041E0000B9209E026A2F9E7DDE90823FFF730FE8C
:1041F0000B9B9B5C09F8013D50EA0102F4D1ADEB49
:10420000090020300890680701D44FF00108089990
:10421000884502DDA8EB010000E000208046002573
:1042200006E00AA85A46405D0F9990476D1C761C1F
:104230005545F6DB04E030205A460F999047761C2E
:10424000B8F10001A8F10108F5DC05E019F8010B4F
:104250005A460F999047761C0899481E08900029E5
:10426000F4DC641CC5E6000009280100303132335B
:1042700034353637383961626364656600000000A2
:10428000303132333435363738394142434445468C
:10429000000000000A68531C0B601070704700009B
:1042A000C042000800000020A0010000163F0008E6
:1042B000A8430008A001002060F20000C43F0008ED
:1042C0000128240101017CA24A0410800802030491
:1042D00006070809580C4154235374614944202DA2
:1042E000730C3F536563202D6B0D180D6F636B6569
:1042F00074202D4330202D5404164D31202D4114AF
:10430000202D500009164152545445535478080941
:104310001531323334353637381F1102141622A0C6
:10432000101DB9ABB0E5A3BA4865726D6573204640
:104330006C6173682054657374204F4B0D0A100D27
:104340003137322E32372E33352E31321D35303063
:104350003014100A415050555044415445480850BB
:10436000524F4752414D0E2B4F4B1A3A200D1D41D3
:104370002049534111F00E31302E3139392E36316A
:104380002E32353005183834343310084B45595F18
:104390005345545A310101112D01020304047009DF
:0843A0000607080902040608E3
:0400000508000131BD
:00000001FF
