:020000040801F1
:10000000D035002065010108693301086B33010810
:100010006F330108733301087733010800000000D3
:100020000000000000000000000000007B33010819
:100030007D330108000000007F330108813301088F
:100040007F0101087F0101087F0101087F0101088C
:100050007F0101087F0101087F0101087F0101087C
:100060007F0101087F0101087F0101087F0101086C
:100070007F0101087F0101087F0101087F0101085C
:100080007F0101087F010108FB4401087F0101088D
:100090007F0101087F0101087F0101087F0101083C
:1000A0007F0101087F0101087F0101087F0101082C
:1000B000833301087F0101087F0101087F010108E6
:1000C0007F0101087F0101087F0101087F0101080C
:1000D0007F0101081D4101080F4201083342010858
:1000E0008B5101087F0101087F0101087F01010890
:1000F0007F0101087F0101087F0101087F010108DC
:100100007F0101087F0101087F0101087F010108CB
:10011000238F0108E78301087F0101087F0101089F
:100120007F0101087F0101087F0101087F010108AB
:10013000DFF80CD009F0DAFF00480047BD2C0108B9
:10014000D0350020EFF30980704780F309887047AD
:10015000EFF30880704780F30888704740BA704713
:10016000C0BA70470648804706480047FEE7FEE7EA
:10017000FEE7FEE7FEE7FEE7FEE7FEE7FEE7FEE757
:1001800067020108310101080CB5002001900090C0
:100190006C48006840F480306A49086000BF6948D4
:1001A000006800F4003000900198401C0190009815
:1001B00018B90198B0F5A06FF1D16248006800F459
:1001C000003010B10120009001E000200090009864
:1001D000012843D15C48006840F010005A4908608B
:1001E0000846006820F0030008600846006840F0F8
:1001F0000200086053484068524948600846406819
:1002000048600846406840F480604860084640689E
:1002100020F47C1048600846406840F4E8104860CC
:100220000846006840F08070086000BF45480068DC
:1002300000F000700028F9D04248406820F0030028
:10024000404948600846406840F00200486000BFEE
:100250003C48406800F00C000828F9D10CBD10B5EE
:10026000FFF792FF10BD10B53648006840F001005E
:1002700034490860084640683449084031494860BC
:1002800008460068324908402E4908600846006860
:1002900020F4802008600846406820F4FE00486092
:1002A0004FF41F008860FFF7DAFF4FF00060294924
:1002B000086010BD10B5002100200022214B5B68B2
:1002C00003F00C0121B1042906D0082928D107E048
:1002D000214B224C236027E01F4B204C236023E05E
:1002E000184B5B6803F47010164B5B6803F48032A4
:1002F000022303EB904022B9194B4343174C236070
:100300000DE0104B5B6803F4003323B1144B4343FF
:10031000124C236003E0104B4343104C236003E076
:100320000D4B0E4C236000BF00BF064B5B68C3F350
:1003300003130C4CE15C094B1B68CB40074C23605A
:1003400010BD000000100240002002400000FFF835
:10035000FFFFF6FE08ED00E000127A00000000202A
:1003600000093D000400002031490143314A116079
:10037000704770B5002100230F22C47804B32D4CC0
:10038000246804F4E064C4F5E064210AC1F10403C4
:10039000CA40447804FA03F18478144021430901E7
:1003A000254C0678A155047804F01F050124AC40C3
:1003B00005786D11AD0005F1E025C5F8004109E0B3
:1003C000047804F01F050124AC401C4D067876111A
:1003D00045F8264070BD1A4A0A400243154B1B1FC0
:1003E0001A60704739B1134A121D12680243114B4B
:1003F0001B1D1A6006E00F4A121D126882430D4B46
:100400001B1D1A607047042808D14FF0E0210969CC
:1004100041F004014FF0E022116107E04FF0E021CC
:10042000096921F004014FF0E022116170470000DA
:100430000000FA050CED00E000E400E080E100E0DF
:1004400080FFFF1F002044490860091D0860091D46
:100450000860091D086041483F4914310860704731
:1004600000213D498279002A3AD00A461268036881
:100470009A430B461A600A1D126803689A430B1DC3
:100480001A60027911440A6803681A430A60324A02
:100490000832126803689A432F4B08331A601A1DFA
:1004A000126803689A432C4B0C331A604279102A65
:1004B0000ED11A1F126803681A43274B08331A60BB
:1004C0001A1D126803681A43234B0C331A600DE09F
:1004D0002149427911440A6803681A430A6005E019
:1004E000027911440A6803689A430A607047002140
:1004F000016001710C214171002181717047164921
:10050000103109680143144A1032116070470146E6
:100510000020114A143212680A400AB1012000E09A
:10052000002070470C4914310860704701460020D4
:100530000022094B1B6803EA0102074B14331B68B6
:100540000B4013B10AB1012000E0002070470249BE
:10055000143108607047000000040140FFFF0F00E5
:1005600010B50446CC48844208D10121042000F093
:100570002DFB0021042000F029FB46E0C7488442FF
:1005800008D10121082000F021FB0021082000F003
:100590001DFB3AE0C248844208D10121102000F03E
:1005A00015FB0021102000F011FB2EE0BD48844215
:1005B00008D10121202000F009FB0021202000F0BB
:1005C00005FB22E0B848844208D10121402000F018
:1005D000FDFA0021402000F0F9FA16E0B348844209
:1005E00008D10121802000F0F1FA0021802000F0E4
:1005F000EDFA0AE0AE48844207D10121801500F0EF
:10060000E5FA0021A01500F0E1FA10BD10B50121B6
:10061000084600F0DBFA0021012000F0D7FA10BDF7
:100620002DE9F04102460025002600200023002489
:10063000002791F803C00CF00F0591F803C00CF0EF
:10064000100CBCF1000F03D091F802C04CEA050574
:1006500091F800C0BCF1000F31D0146800202BE0ED
:100660004FF0010C0CFA00F3B1F800C00CEA0306DD
:100670009E4220D183004FF00F0C0CFA03F7BC43CD
:1006800005FA03FC4CEA040491F803C0BCF1280FFE
:1006900006D14FF0010C0CFA00FCC2F814C00AE0BD
:1006A00091F803C0BCF1480F05D14FF0010C0CFAD2
:1006B00000FCC2F810C0401C0828D1D31460B1F867
:1006C00000C0BCF1FF0F34DD546800202EE000F1C3
:1006D000080C4FF0010808FA0CF3B1F800C00CEA5E
:1006E00003069E4221D183004FF00F0C0CFA03F752
:1006F000BC4305FA03FC4CEA040491F803C0BCF1C6
:10070000280F05D100F1080C08FA0CF8C2F8148083
:1007100091F803C0BCF1480F07D100F1080C4FF06D
:10072000010808FA0CF8C2F81080401C0828CED343
:100730005460BDE8F0814FF6FF71018002218170A5
:100740000421C17070470246002093680B400BB132
:10075000012000E0002070470146886880B27047A1
:1007600002460020D3680B400BB1012000E00020BE
:1007700070470146C86880B27047016170474161A7
:1007800070470AB1016100E041617047C160704784
:100790004FF480320A438261816182618269826999
:1007A000704702460020434B18684FF6807318408C
:1007B00040EA021008433F4B186070473E49C86149
:1007C0007047F0B50A46002300240021002500F000
:1007D0000046B6F1004F02D1364EF16901E0354EC8
:1007E0007168C0F3034583B200F44016B6F5401FAC
:1007F00008D121F070612F4E766826F070662D4F7B
:100800007E6012E000F48016B6F5801F06D1032644
:1008100006FA05F4A14341F0706106E0460D360189
:1008200003FA06F6B14341F0706122B1460D36017C
:1008300003FA06F6314300F00046B6F1004F02D14C
:100840001C4EF16101E01B4E7160F0BD30B500221D
:100850008B071C0F0F2303FA04F2164B08338C107E
:1008600053F824309343134C08348D1044F825304A
:1008700023468C1053F824308C07240F00FA04F41C
:1008800023430C4C08348D1044F8253030BD0A4900
:10089000DC3108607047000000080140000C014096
:1008A000001001400014014000180140001C0140EC
:1008B000002001400000014000002042DF480068A5
:1008C00040F00100DD49086008464068DC49084006
:1008D000DA49486008460068DA490840D7490860A4
:1008E0000846006820F4802008600846406820F42C
:1008F000FE0048604FF41F0088607047CF490968C8
:1009000021F48031CD4A11601146096821F480211B
:100910001160B0F5803F03D0B0F5802F0ED106E016
:10092000C649096841F48031C44A116007E0C349EF
:10093000096841F4A021C14A116000E000BF00BF76
:10094000704710B501460022002300204A11012AF9
:1009500002D1BA4C236806E0022A02D1B74C236ABE
:1009600001E0B64C636A01F01F02012494401C4070
:100970000CB1012000E0002010BD38B5002000902F
:100980000024002500BF3120FFF7DBFF054600985B
:10099000401C00900098B0F5A06F01D0002DF2D05F
:1009A0003120FFF7CEFF08B1012400E000242046EB
:1009B00038BD01460020A14A106820F0F80040EA46
:1009C000C10010607047A0490860704702460020CF
:1009D0009A4B586820F47C1042EA01031843974B65
:1009E0005860704798490866704701460020934A4E
:1009F000506820F003000843506070478F484068FB
:100A000000F00C007047014600208C4A506820F02E
:100A1000F00008435060704701460020874A506844
:100A200020F4E06008435060704701460020834A8C
:100A3000506820F4605040EAC1005060704729B10E
:100A40007E4A527A02437D4B5A7204E07B4A527AC4
:100A500082437A4B5A7270477B49D831086070479D
:100A600001460020754A506820F440400843506019
:100A700070470021714A20321170704A82F82010AC
:100A8000012802D004280AD104E001216B4A203257
:100A9000117005E00521694A2032117000E000BFA5
:100AA00000BF70476949086070476449096A01439B
:100AB000624A11627047654944390860704730B531
:100AC00000210022002400235C4D6D6805F00C011C
:100AD00021B1042905D0082923D105E05C4D05602A
:100AE00022E05B4D05601FE0544D6D6805F4701207
:100AF000524D6D6805F48034022505EB92421CB915
:100B0000544D554305600BE04C4D6D6805F40035C0
:100B10001DB1504D5543056002E04D4D55430560F4
:100B200002E04B4D056000BF00BF444D6D6805F00D
:100B3000F0010909484D6B5C0568DD4045603F4D9B
:100B40006D6805F4E061090A434D6B5C4568DD4062
:100B500085603A4D6D6805F46051C90A3E4D6B5C85
:100B60004568DD40C560354D6D6805F44041890B31
:100B70003A4D6B5CC568B5FBF3F5056130BD29B135
:100B80002E4A526902432D4B5A6104E02B4A5269A6
:100B900082432A4B5A61704729B1284A926902431D
:100BA000264B9A6104E0254A92698243234B9A615D
:100BB000704729B1214AD2690243204BDA6104E02F
:100BC0001E4AD26982431D4BDA61704729B11B4A24
:100BD000D2680243194BDA6004E0184AD2688243B3
:100BE000164BDA60704729B1144A12690243134B5D
:100BF0001A6104E0114A12698243104B1A6170476E
:100C000012494039086070470F49C86470470B4962
:100C1000C87170470948406A40F0807007494862CF
:100C2000704701460020054A92680A400AB1012037
:100C300000E00020704701498872704700100240B0
:100C40000000FFF8FFFFF6FE00004242800442422F
:100C500000127A0000093D0014000020240000204A
:100C600010B50446BE48844208D101218014FFF724
:100C7000ADFF0021A014FFF7A9FF16E0B948844298
:100C800008D101210014FFF7AEFF00212014FFF767
:100C9000AAFF0AE0B448844207D10121C013FFF73C
:100CA000A2FF0021E013FFF79EFF10BD10B5002248
:100CB000028802F441520B884C8823438C882343DA
:100CC000CC8823430C8923434C8923438C892343B9
:100CD000CC8923431A430280838B4FF2FF74234055
:100CE00083830B8A038210BD2DE9F04F85B0054642
:100CF0000C464FF0000902274FF000084FF0010B9F
:100D00000026B246A88B4FF240010840A88302207B
:100D10002884B5F81C90A068022801D100BF38E0F3
:100D2000A08810B94FF0010B01E04FF0020B8D4885
:100D3000854200D100E000BF6846FFF7C0FEDDF845
:100D400000A0E088B0F5007F0AD14FEA1A2000EB3E
:100D500080004000A168B0FBF1F0401D86B20BE0BE
:100D60004FEA4B10BAFBF0F000EB80004000A168A6
:100D7000B0FBF1F0401D86B20A20B6FBF0F606F09B
:100D80000108A6EB0800C0F34F074FF6FF7000EA1A
:100D90000828022F01DBFF2F02DD02274FF0000899
:100DA000E08840EA080038432884A088A1890843E5
:100DB000618808432188084340F4006040EA09093B
:100DC000A5F81C9005B0BDE8F08F0021018041809E
:100DD0008180C180018141818181C181072101829E
:100DE00070470021018041808180C18002218160A3
:100DF00000218181704721B1028842F040020280C7
:100E000004E002884FF6BF731A400280704721B198
:100E1000828B42F48062828304E0828B4FF6FF3340
:100E20001A408283704730B5002400230C1101253D
:100E3000A540ABB21AB185881D43858002E0858844
:100E40009D43858030BD1AB183880B43838002E0C7
:100E500083888B43838070478181704701468889EE
:100E600070474FF6FF62914204D0028842F48072CC
:100E7000028004E002884FF6FF631A400280704748
:100E800021B1828842F00402828004E082884FF619
:100E9000FB731A408280704702884FF2FF731A403A
:100EA000028002880A4302807047018841F4805121
:100EB0000180704721B1028842F40052028004E0B0
:100EC00002884DF6FF731A400280704702460020E8
:100ED000012901D0108B00E0908A70470146088AF2
:100EE0007047B1F5804F04D1028842F480420280FD
:100EF00004E002884BF6FF731A40028070470246F6
:100F0000002013890B400BB1012000E00020704746
:100F1000CA4302817047F0B5024600200024002336
:100F2000002501F00F070126BE40B4B20B110126C7
:100F30009E40B3B2968806EA03051689264016B18C
:100F40000DB1012000E00020F0BD10B5002201F03D
:100F50000F040123A3409AB2D343038110BD0000C4
:100F60000030014000380040003C004010B504460D
:100F7000FE48844208D10121C014FFF727FE00215A
:100F8000E014FFF723FEC4E0B4F1804F08D1012143
:100F90000846FFF728FE00210120FFF724FEB8E0F5
:100FA000F348844208D101210220FFF71CFE0021F2
:100FB0000220FFF718FEACE0EE48844208D1012180
:100FC0000420FFF710FE00210420FFF70CFEA0E034
:100FD000E948844208D101210820FFF704FE0021DE
:100FE0000820FFF700FE94E0E448844208D1012184
:100FF0001020FFF7F8FD00211020FFF7F4FD88E036
:10100000DF48844208D101212020FFF7ECFD0021B8
:101010002020FFF7E8FD7CE0DA48844208D1012176
:101020004014FFF7D3FD00216014FFF7CFFD70E0FF
:10103000D548844209D10121C804FFF7C7FD00212A
:101040004FF40020FFF7C2FD63E0D048844209D18D
:1010500001210805FFF7BAFD00214FF48010FFF7CA
:10106000B5FD56E0CA48844209D101214805FFF781
:10107000ADFD00214FF40010FFF7A8FD49E0C54881
:10108000844208D101214020FFF7ADFD002140201E
:10109000FFF7A9FD3DE0C048844208D1012180202E
:1010A000FFF7A1FD00218020FFF79DFD31E0BB4847
:1010B000844208D101218015FFF795FD0021A0157C
:1010C000FFF791FD25E0B648844209D101210804CB
:1010D000FFF77CFD00214FF48030FFF777FD18E02B
:1010E000B048844209D101214804FFF76FFD002177
:1010F0004FF40030FFF76AFD0BE0AB48844208D1A3
:1011000001218804FFF762FD00214FF48020FFF7E2
:101110005DFD10BD00220288944B98420ED0994B81
:1011200098420BD0B0F1804F08D0914B984205D037
:10113000904B984202D0904B984204D14FF68F7357
:101140001A404B881A438D4B984207D08C4B9842DB
:1011500004D04FF6FF431A40CB881A4302808B8895
:1011600083850B880385814B98420BD0854B984231
:1011700008D08B4B984205D08A4B984202D08A4BBC
:10118000984201D10B7A038601238382704770B5A0
:10119000002400220023058C4FF6FE76354005849E
:1011A000028C8388048B4FF68F752C40B51E2C4023
:1011B0000D882C43751E2A400D892A434D882A43E9
:1011C0006A4DA8420BD06F4DA84208D0744DA8427A
:1011D00005D0744DA84202D0734DA84213D14FF6EA
:1011E000F7752A404D892A434FF6FB752A408D88B2
:1011F0002A434FF6FF652B404FF6FF552B408D8954
:101200002B43CD892B4383800483CD88858602843C
:1012100070BD70B5002400220023058C4FF6EF76D8
:1012200035400584028C8388048B48F6FF752C407A
:101230004FF6FF452C400D884FF6FF7606EA052550
:101240002C434FF6DF752A400D8906EA05152A431F
:101250004D8806EA05152A43444DA84202D0494D5F
:10126000A8421DD14FF67F752A404D894FF6FF7673
:1012700006EA05152A434FF6BF752A408D8806EA0F
:1012800005152A434FF6FF352B404FF2FF752B40D3
:101290008D8906EA85052B43CD8906EA85052B4312
:1012A00083800483CD880587028470BD70B50024D7
:1012B00000220023058C4FF6FF6635400584028C22
:1012C0008388848B4FF68F752C404FF6FC752C402D
:1012D0000D882C434FF6FF552A400D894FF6FF76B7
:1012E00006EA05252A434D8806EA05252A431F4DAF
:1012F000A84202D0234DA8421DD14FF2FF752A40CB
:101300004D894FF6FF7606EA05252A434FF6FF354D
:101310002A408D8806EA05252A434EF6FF752B40A4
:101320004DF6FF752B408D8906EA05152B43CD89B7
:1013300006EA05152B4383808483CD888587028444
:1013400070BD70B5002200230024058C4EF6FF7698
:1013500035400584038C8488828B48F6FF752A40CB
:101360004FF6FF452A400D8820E00000002C014088
:101370000004004000080040000C00400010004045
:101380000014004000340140004C01400050014076
:101390000054014000180040001C004000200040A4
:1013A0000040014000440140004801404FF6FF76F4
:1013B00006EA05252A434DF6FF752B400D8906EAFE
:1013C00005352B434D8806EA05352B43FA4DA842D7
:1013D00002D0FA4DA84208D14BF6FF752C408D89FA
:1013E0004FF6FF7606EA85152C4384808283CD88EC
:1013F000A0F84050038470BD828B4FF2FF331A4037
:101400008283828B4FF6FF7303EA01231A438283A0
:101410007047F0B50C461546002200210026078CC7
:101420004EF6FF7C07EA0C070784828B018C4FF68F
:10143000FF7707EA043640F6FF473A404FF6FF775A
:1014400007EA05273A434FF6FF7707EA03373A439F
:10145000D94FB8420ED0D94FB8420BD0B0F1804F1F
:1014600008D0D74FB84205D0D64FB84202D0D64F99
:10147000B84206D14DF6FF77394046F480573943DC
:1014800005E047F6FF57394044F4805739438283DB
:101490000184F0BD828B4FF6F3731A408283828BF6
:1014A0000A4382837047F0B50C461546002200219E
:1014B0000026078C4FF6FF6C07EA0C070784828B27
:1014C000018C4FF6FF7707EA04264FF60C773A4077
:1014D0004FF6FF7707EA03172F433A43B64FB84258
:1014E0000ED0B64FB8420BD0B0F1804F08D0B44FF9
:1014F000B84205D0B34FB84202D0B34FB84206D17C
:101500004FF6FF57394046F48077394305E04FF2F4
:10151000FF57394044F48077394382830184F0BD1A
:10152000028B4FF2FF331A400283028B4FF6FF7398
:1015300003EA01231A4302837047F0B50C461546AF
:10154000002200210026078C4FF6EF7C07EA0C07EB
:101550000784028B018C4FF6FF7707EA041640F6EA
:10156000FF473A404FF6FF7707EA03373A434FF613
:10157000FF7707EA05273A438F4FB8420ED08F4FC7
:10158000B8420BD0B0F1804F08D08D4FB84205D093
:101590008C4FB84202D08C4FB84206D14FF6DF775D
:1015A000394046F01007394305E04FF65F77394080
:1015B00044F01007394302830184F0BD028B4FF6DB
:1015C000F3731A400283028B0A4302837047F0B51B
:1015D0000C46154600220021068C4FF6FE773E4051
:1015E0000684028B018C4FF60C7632407E1C06EA94
:1015F00003162E433243704EB0420ED06F4EB042AF
:101600000BD0B0F1804F08D06D4EB04205D06D4E7A
:10161000B04202D06C4EB04206D14FF6FD7631405A
:1016200044F00106314305E04FF6F576314044F0D1
:101630000106314302830184F0BD70B505460C46B6
:101640005D4885420ED05D4885420BD0B5F1804F94
:1016500008D05B48854205D05A48854202D05A4896
:10166000854200D100E000BF208850B92389A288BC
:1016700061882846FFF7ABFFE1882846FFF79EFF09
:1016800025E0208804280AD12389A2886188284679
:10169000FFF753FFE1882846FFF742FF17E0208855
:1016A00008280AD12389A28861882846FFF7FBFE13
:1016B000E1882846FFF7EEFE09E02389A2886188C9
:1016C0002846FFF7A6FEE1882846FFF795FE70BD85
:1016D0002DE9F04105460C4600260127608808B92F
:1016E000022600E00026A088012801D1022700E0A0
:1016F00001272088A0B92389A28861882846FFF79E
:1017000066FFE1882846FFF759FF23893A463146AC
:101710002846FFF712FFE1882846FFF701FF13E094
:101720002389A28861882846FFF707FFE1882846B9
:10173000FFF7F6FE23893A4631462846FFF747FF72
:10174000E1882846FFF73AFFBDE8F0810A884B8818
:101750001A438B881A43CB881A430B891A434B8947
:101760001A438B891A43A0F8442070474FF6FF7143
:10177000818000210180C180418001727047002179
:10178000018041808180C180018141818181C1814D
:101790007047002101804180012181800021C180AA
:1017A000018170470021018041808180C1800181D9
:1017B0004181818170470000002C014000340140CC
:1017C0000004004000080040000C004021B10288E5
:1017D00042F00102028004E002884FF6FE731A40D4
:1017E0000280704731B1B0F8442042F40042A0F8C2
:1017F000442005E0B0F84420C2F30E02A0F84420D3
:1018000070471AB183890B43838102E083898B433C
:10181000838170478182704741EA0203A0F8483013
:1018200070471AB183890B43838102E083898B431C
:101830008381704701894FF6F8721140018170472A
:101840000A46002101894FF68F7319401143018127
:10185000704730B504460D4629462046FFF7F0FF95
:10186000208940F00700208130BD2DE9F041044679
:101870000D4616461F46602D06D13B4601223146D5
:101880002046FFF75AFE05E03B460122314620463E
:10189000FFF79DFE29462046FFF7D2FF208940F042
:1018A00007002081BDE8F08130B50C460021018998
:1018B000C9B24FF6FF7505EA0325154325432943B1
:1018C000018130BD2DE9F04105460E461746984688
:1018D000002443463A4631462846FFF7E5FF2C8967
:1018E0004FF6F870044044F007044FF68F70044040
:1018F00044F070042C81BDE8F081F0B504460D463B
:1019000016461F463B46324629462046FFF7CCFF87
:10191000208940F480402081F0BD0185828270479B
:101920000A46002101884FF68F7319401143018048
:101930007047F0B50C4615461E46002100220023D4
:101940000189028B038C4FF6F877394021434FF61B
:10195000FC473A4040F201173A434FF6DD773B40EF
:101960004FF6FF7707EA06172F433B4301810283B7
:101970000384F0BD0A460021018B4FF68F73194096
:101980001143018370470A460021018B48F6FF731B
:1019900019404FF6FF7303EA02231943018370478E
:1019A0000A460021818B4FF68F73194011438183C2
:1019B00070470A460021818B48F6FF7319404FF6A5
:1019C000FF7303EA022319438183704721B1028820
:1019D00042F08002028004E002884FF67F731A40D2
:1019E0000280704721B1828842F00402828004E0C4
:1019F00082884FF6FB731A408280704721B182883B
:101A000042F00802828004E082884FF6F7731A40A1
:101A10008280704721B1828842F00102828004E016
:101A200082884FF6FE731A40828070470A46002172
:101A3000018B4FF6F77319401143018370470A4633
:101A40000021018B4FF2FF7319404FF6FF7303EA39
:101A500002231943018370470A460021818B4FF608
:101A6000F77319401143818370470A460021818B27
:101A70004FF2FF7319404FF6FF7303EA0223194335
:101A8000818370470A460021018B4FF6FB73194092
:101A90001143018370470A460021018B4FF6FF3343
:101AA00019404FF6FF7303EA02231943018370477D
:101AB0000A460021818B4FF6FB7319401143818345
:101AC00070470A460021818B4FF6FF3319404FF6CD
:101AD000FF7303EA02231943818370470A460021FA
:101AE000018B4FF67F7319401143018370470A46FB
:101AF0000021018BC1F30E014FF6FF7303EA0223AD
:101B00001943018370470A460021818B4FF67F738A
:101B100019401143818370470A460021818BC1F32C
:101B20000E014FF6FF7303EA0223194381837047C6
:101B30000A460021018C4FF6FD73194011430184C0
:101B400070470A460021018C4FF6F7731940114384
:101B5000018470470A460021018C4FF6DF7319405B
:101B60004FF6FF7303EA02131943018470470A46D4
:101B70000021018C4FF67F7319404FF6FF7303EA83
:101B800002131943018470470A460021018C4FF665
:101B9000FF5319404FF6FF7303EA022319430184F0
:101BA00070470A460021018C4FF2FF7319404FF62F
:101BB000FF7303EA02231943018470470A46002198
:101BC000018C4DF6FF7319404FF6FF7303EA0233A1
:101BD00019430184704730B5002301248C40A3B21F
:101BE000048C9C430484048C02FA01F5ADB22C43AE
:101BF000048430BD30B5002304248C40A3B2048C8F
:101C00009C430484048C02FA01F5ADB22C43048495
:101C100030BD70B503460020002418461830012559
:101C20008D40ACB21D8CA5431D8409B1082909D192
:101C300000EB6100056825F0700505600568154337
:101C400005600EE00D1FC5F34E052844056825F418
:101C5000E045056005684FF6FF7606EA0226354343
:101C6000056070BD21B1028842F00202028004E0EA
:101C700002884FF6FD731A400280704721B1028836
:101C800042F00402028004E002884FF6FB731A401F
:101C90000280704721B1828842F08002828004E095
:101CA00082884FF67F731A408280704702884FF611
:101CB000F7731A40028002880A43028070478288C4
:101CC0004FF68F731A40828082880A438280704761
:101CD00002894FF6F8731A40028102890A43028191
:101CE000704702894FF67F731A40028102890A43C6
:101CF0000281704781847047818570478186704773
:101D00000187704781877047A0F8401070470288AC
:101D10004FF6FF431A40028002880A430280704750
:101D20000146888E70470146088F70470146888FAC
:101D300070470146B1F8400070470146888C7047F3
:101D40000146088D704702460020138A0B400BB1F4
:101D5000012000E000207047CA430282704730B57E
:101D60000246002000230024158A05EA0103958914
:101D700005EA010413B10CB1012000E0002030BDE0
:101D8000CA4302827047000010B50446FB488442F3
:101D900009D101218803FEF719FF00214FF480408B
:101DA000FEF714FF32E0F648844209D101214804CD
:101DB000FEF719FF00214FF40030FEF714FF25E075
:101DC000F048844209D101218804FEF70CFF00216C
:101DD0004FF48020FEF707FF18E0EB48844209D15A
:101DE0000121C804FEF7FFFE00214FF40020FEF79A
:101DF000FAFE0BE0E548844208D101210805FEF710
:101E0000F2FE00214FF48010FEF7EDFE10BD2DE92B
:101E1000F04786B005460E460024A24600BFA14604
:101E20000027B08900B100BF2F462C8A4CF6FF7006
:101E30000440F08804432C82AC894EF6F310044031
:101E4000B08831890843718908430443AC81AC8A66
:101E50004FF6FF400440B0890443AC8201A8FEF76E
:101E60002EFEC648874202D1DDF810A001E0DDF861
:101E70000CA0A88900F4004040B10AEBCA0000EBB6
:101E80000A1031684900B0FBF1F807E00AEBCA001C
:101E900000EB0A1031688900B0FBF1F86420B8FB50
:101EA000F0F004012009642101FB1089A88900F4E5
:101EB000004040B1322000EBC900B0FBF1F000F06F
:101EC0000700044308E0322000EB09106421B0FB56
:101ED000F1F000F00F0004432C8106B0BDE8F0875C
:101EE0004FF41651016000218180C18001810C21D5
:101EF000418100218181704710B502460020108A7F
:101F00004FF2FF0318400B884C8823438C882343EF
:101F1000CC8823431843108210BD002101804180EA
:101F20008180C180704721B1828942F40052828150
:101F300004E082894DF6FF731A4082817047F0B544
:101F40000346002400260025002040F66A17B94207
:101F500000D100BF1846C1F3421401F01F0601274B
:101F600007FA06F5012C01D10C3004E0022C01D156
:101F7000103000E014301AB107682F43076002E008
:101F80000768AF430760F0BD1AB1838A0B438382B1
:101F900002E0838A8B4383827047028A4FF6F07394
:101FA0001A400282028A0A430282704782894FF2F3
:101FB000FF731A40828182890A438281704721B16E
:101FC000828942F00202828104E082894FF6FD7329
:101FD0001A4082817047028A4FF6DF731A400282EC
:101FE000028A0A430282704721B1028A42F4804287
:101FF000028204E0028A4BF6FF731A4002827047A5
:10200000C1F308028280704701468888C0F3080047
:102010007047818941F0010181817047028BD2B202
:102020000283028B42EA012202837047028B02F490
:102030007F420283028B0A430283704721B1828A66
:1020400042F02002828204E0828A4FF6DF731A4057
:102050008282704721B1828A42F01002828204E0BB
:10206000828A4FF6EF731A408282704721B1828ACA
:1020700042F00802828204E0828A4FF6F7731A4027
:102080008282704721B1828942F40042828103E05A
:102090008289C2F30E028281704721B1828A42F4A2
:1020A0000062828204E0828A4FF2FF731A408282C9
:1020B0007047828A4FF6FB731A408282828A0A43F3
:1020C0008282704721B1828A42F00202828204E059
:1020D000828A4FF6FD731A408282704702460020C2
:1020E000B1F5007F00D100BF13880B400BB1012078
:1020F00000E00020704701F40072B2F5007F00D1CB
:1021000000BFCA430280704770B502460024002316
:102110000025002040F66A16B14200D100BFC1F38D
:10212000421501F01F03012606FA03F3012D02D127
:102130009689334006E0022D02D1168A334001E031
:10214000968A33400C12012606FA04F416883440AD
:1021500013B10CB1012000E0002070BD10B50022C9
:10216000002340F66A14A14200D100BF0A120124E4
:102170009440A3B2DC43048010BD0000003801404D
:102180000044004000480040004C00400050004027
:1021900010B50446F748844209D101214805FEF7ED
:1021A00022FD00214FF40010FEF71DFD08E0012183
:1021B0008805FEF718FD00214FF48000FEF713FD9F
:1021C00010BD2DE9F04385B004460D460026B1460A
:1021D0000427DFF8A483A6884FF6C070064068463F
:1021E000FEF76DFCDDF80880E448B8FBF0F01FFA5C
:1021F00080F946EA0906A68020884FF6FE7108405D
:1022000020800026DE49286888420CD828684000D3
:10221000B8FBF0F087B2042F00DA04273E4309F13F
:102220000100208427E0E8884BF6FF71884206D140
:10223000286800EB4000B8FBF0F087B209E028689E
:1022400000EBC00101EB0010B8FBF0F087B247F4DF
:102250008047C7F30B0008B947F0010747F4004077
:1022600006434FF4967009FB00F04FF47A7190FB2F
:10227000F1F0401C2084A683208840F001002080DB
:1022800026884FF6F5300640A8886989084306433A
:102290002680A88929890843208105B0BDE8F083FC
:1022A00041F288310160002181804BF6FF71C180CD
:1022B0000021018141814FF480418181704721B12A
:1022C000028842F00102028004E002884FF6FE73A9
:1022D0001A400280704721B1828842F400628280F5
:1022E00004E082884FF2FF731A408280704721B168
:1022F000828842F48052828004E082884EF6FF7326
:102300001A408280704721B1028842F480720280B4
:1023100004E002884FF6FF631A400280704721B143
:10232000028842F40072028004E002884FF6FF53F4
:102330001A400280704721B1028842F48062028014
:1023400004E002884FF6FF331A40028070470A46C5
:10235000002181894FF60173194002F0FE031943F1
:102360008181704721B1828942F00102828104E0BB
:1023700082894FF6FE731A408281704721B102882C
:1023800042F04002028004E002884FF6BF731A4018
:10239000028070471AB183880B43838002E08388F0
:1023A0008B4383807047018270470146088AC0B220
:1023B000704712B141F0010102E04FF6FE7319407F
:1023C0000182704708B502460020009000920098F4
:1023D000084400900098008808BD21B1028842F4AA
:1023E0000042028003E00288C2F30E0202807047BE
:1023F000B1F5006F04D1028842F40062028004E06B
:1024000002884FF2FF731A4002807047B1F5005FF7
:1024100004D1028842F40052028004E002884DF6A2
:10242000FF731A400280704721B1028842F4805243
:10243000028004E002884EF6FF731A400280704763
:10244000B1F5006F04D1028842F40062028004E01A
:1024500002884FF2FF731A400280704721B1028850
:1024600042F02002028004E002884FF6DF731A4037
:10247000028070470146088B0012704721B1028824
:1024800042F01002028004E002884FF6EF731A4017
:102490000280704721B9028842F08002028004E085
:1024A00002884FF67F731A4002807047B1F5804F63
:1024B00005D0828B4BF6FF731A40828303E0828B38
:1024C00042F480428283704770B5024600240025A2
:1024D00000230020958A138B1B0445EA030626F08F
:1024E0007F4404EA01068E4201D1012000E0002071
:1024F00070BD10B501460020002300228B8A0A8B94
:10250000120443EA020424F07F4010BD0CB50246D9
:10251000002000230193009300920B0F019321F000
:102520007F41019B1BB1009B1433009303E0090C16
:10253000009B18330093009B1B680B400BB10120DC
:1025400000E000200CBD002221F07F42D3438382B3
:10255000704730B5024600200023948801F0E06502
:1025600004EA154321F07F41948A0C4054B14BB1E9
:10257000012008E00054004000127A0040420F00A1
:10258000A0860100002030BD002221F07F42D3430D
:10259000838270470E49086070470D494860704754
:1025A0000B49886070474AF6AA20094908607047BD
:1025B0004CF6CC4006490860704701460020044AAA
:1025C000D2680A400AB1012000E0002070470000F4
:1025D0000030004010B50446FA48844208D1012179
:1025E0004015FEF7F3FA00216015FEF7EFFA17E049
:1025F000F548844208D101210015FEF7E7FA0021D1
:102600002015FEF7E3FA0BE0F048844208D10121DF
:10261000C803FEF7DBFA00214FF40040FEF7D6FABC
:1026200010BD30B50246002000235068E84C204021
:102630000D790C6844EA0524204350609068E54C0D
:102640002040D1E902542C434D7944EA450420430B
:102650009060D06A20F470000C7C641EE4B22343C6
:1026600040EA0350D06230BD002101600171417128
:102670008160C16001210174704721B1826842F01C
:102680000102826003E0826822F0010282607047EA
:1026900021B1826842F48072826003E0826822F491
:1026A00080728260704710B50023CBB21AB14468C3
:1026B0001C43446002E044689C43446010BD816850
:1026C00041F0080181607047014600208A6802F0ED
:1026D00008020AB1012000E000207047816841F043
:1026E000040181607047014600208A6802F00402FC
:1026F0000AB1012000E00020704721B1826842F455
:10270000A002826003E0826822F4A0028260704727
:10271000014600208A6802F480020AB1012000E02C
:102720000020704710B50A4600210023416821F4BB
:102730006041531E41EA4331416010BD21B14268FE
:1027400042F40062426003E0426822F400624260A8
:102750007047F0B504460D4600200021092D11DD1B
:10276000E068A5F10A0606EB4607072606FA07F118
:102770008843A5F10A0606EB460603FA06F108436C
:10278000E0600CE0206905EB4507072606FA07F133
:10279000884305EB450603FA06F108432061072A42
:1027A0000FDA606B561E06EB86071F2606FA07F146
:1027B0008843561E06EB860605FA06F10843606359
:1027C00022E00D2A0FDA206BD61F06EB86071F26A4
:1027D00006FA07F18843D61F06EB860605FA06F1CE
:1027E0000843206310E0E06AA2F10D0606EB8607BD
:1027F0001F2606FA07F18843A2F10D0606EB8606AE
:1028000005FA06F10843E062F0BD21B1826842F4A6
:102810008012826003E0826822F480128260704736
:102820000146C86C80B2704766484C3000687047FB
:1028300021B1426842F48062426003E0426822F4BF
:1028400080624260704721B1426842F48052426027
:1028500003E0426822F48052426070470A46002139
:10286000816821F4E04111438160704721B18268A1
:1028700042F40042826003E0826822F400428260F7
:10288000704721B1826842F40212826003E08268DC
:1028900022F4021282607047014600208A6802F426
:1028A00000120AB1012000E000207047F0B5044694
:1028B0001546002000220026092911DDE068A1F15B
:1028C0000A0707EB470C072707FA0CF29043A1F120
:1028D0000A0707EB470703FA07F21043E0600CE032
:1028E000206901EB410C072707FA0CF2904301EB3A
:1028F000410703FA07F210432061A06BC0F30156B1
:10290000EF1C06F1010CA7EB0C0707EB870C1F2748
:1029100007FA0CF29043EF1C06F1010CA7EB0C0731
:1029200007EB870701FA07F21043A063F0BD10B56B
:102930000A4600210023816B21F44011531E41EA15
:102940000351816310BD08B5002300930090009BE4
:102950000B440093009B1A6008BD08B50246002096
:102960000090009201F12800009B1844009000980C
:10297000006880B208BD0A4600214168164B194024
:102980001143416070474162826270470A460021EC
:10299000416821F01F0111434160704740B109496E
:1029A0000831096841F40001064A0832116007E065
:1029B00004490831096821F40001024A0832116013
:1029C000704700000024014000280140003C014005
:1029D000FFFEF0FFFDF7F1FFFFFD3FFF0246002085
:1029E00013680B400BB1012000E000207047CA4380
:1029F0000260704770B502460020002300240B12CD
:102A00005568CEB205EA060415681D4015B10CB133
:102A1000012000E0002070BD00220A12D3430360B1
:102A20007047000010B5A2B00121FE48FDF7A5FED9
:102A3000FD48D0E90010FD4AC2E90010FC48D0E989
:102A40000010C2E9021006F055FB044607F09FF99A
:102A5000F64AC2E9080106F0BAFB044607F097F906
:102A6000F24AC2E90A0105F067FD044607F032F9AF
:102A7000EE4AC2E90C0105F029FD044607F02AF9E7
:102A8000EA4AC2E90E01EB48D0E91010C2E9101081
:102A900000219164D164E84903C9C2E9140105F039
:102AA0006EFC044607F073F9E04AC2E91601E148FA
:102AB000D0E91410C2E91810E048E149CDE920102E
:102AC0001146D1E91801CDE91E011046C16D806D96
:102AD000CDE91C011046416D006DCDE91A01D948C0
:102AE00011461890D1E91201CDE916011046416C4A
:102AF000006CCDE914011146D1E90E01CDE91201B6
:102B00001146D1E90C01CDE910011046C16A806A75
:102B1000CDE90E011046416A006ACDE90C0110466C
:102B2000C1698069CDE90A01104641690069CDE9B2
:102B300008011046C1688068CDE90601114603C945
:102B4000CDE90401C048C149C14AC24BCDE90021C9
:102B50000290C14AC149C24807F016FB4FF47A708F
:102B600003F08CFCBE4802F03DF86421BC4806F03E
:102B7000A6FE22B010BD10B545E004F047FDB948EF
:102B80000168B9A007F0F0FAB6480068401CB549E2
:102B900008604FF48071B548FDF7F1FD4FF4007106
:102BA000B248FDF7ECFD4FF48061B048FDF7E7FD5A
:102BB00001F034F84FF47A7003F060FCA948006823
:102BC000242820DDAAA007F0CFFA0020A54908603C
:102BD000AF480068401CAE490860084600680228FB
:102BE00011DDACA007F0C0FA00BFAE48006800F4E9
:102BF000E060AD490843001DAA490860BFF3408F5B
:102C000000BF00BFFEE7A94800680028B5D0A4A017
:102C100007F0AAFA10BD08B502F02FFD02F04FFD33
:102C200002F01BFDA249A34803F062F8A2A007F03E
:102C30009BFAAE48C0780090AC488378427801781F
:102C4000ABA007F091FAB0480188B0A007F08CFA69
:102C5000B2A007F089FAC0A007F086FAC3A007F077
:102C600083FA4FF480718148FDF787FD4FF40071BE
:102C70007E48FDF782FD4FF480617C48FDF77DFDC5
:102C80004FF400717948FDF77AFD08BD10B5402179
:102C9000BE48FDF774FD4FF48061BD48FDF76FFD40
:102CA0004FF4FA7003F0EAFB4021B848FDF765FDE8
:102CB0004FF48061B648FDF760FD10BD1CB5FDF70F
:102CC000D2FA01F0DBF901F058FA01F0C4FA01F090
:102CD00012FB01F056FB00F0EBFF482003F0B2FBC3
:102CE00005F046FC02F073FB01F095FCA9A007F08B
:102CF0003BFA00F072FC05F0ACF804F0FAFFA949C9
:102D0000A9A007F031FA05F064F804F0E6FF05F039
:102D10003EF805F076F805F08CF804F0B3FF90B1BA
:102D2000A4A0A54BA5A2A8A10090A94807F02CFA41
:102D3000A749A6A007F018FA4FF47A7003F09EFB9B
:102D4000A34801F018FE04F097FF7D20FDF7F9FD80
:102D5000F0B1A0A1A14806F0C9FD20B14FF4804018
:102D600004F043FE14E09EA007F0FEF90020A34902
:102D7000087006E005F08EFEA0480078401C9F49D0
:102D800008709E4800780528F4DB01209C490870F3
:102D90009CA1844806F0AAFD30B19948007801282A
:102DA00002D005F0B8FD1DE096A17E4806F09EFD1C
:102DB000C0B993480078012814D005F0F4FC10E065
:102DC00093A007F0D1F99948007820B102F0C0F93A
:102DD00000209649087000F021FF4FF47A7003F04C
:102DE0004DFBEDE740F63541062000F005FF06F00B
:102DF000B4FC06F0F3FA05F021FB06F03CF80CE217
:102E000006F078F9044606F0C2FF084AC2E9080154
:102E100006F0DDF9044606F0BAFF044AC2E90A01E9
:102E200006E10000000C0140980000209003002003
:102E3000B000002068050020880000207D000020F0
:102E4000780000207400002002200020D222002000
:102E5000530000204900002044000020E0AE01089B
:102E6000020500202C0000202025640000180140ED
:102E70000D0A44484350204745542049502046619C
:102E8000696C2C576169742052657472790D0A005F
:102E90003000002053797374656D2052657365743A
:102EA0000D0A00000CED00E00000FA05AC01002066
:102EB0009D010020950100200D0AB5E7C4D4D7F785
:102EC000CEAA544350B7FECEF1C6F72CC8C357352F
:102ED000353030D7F7CEAA20544350BFCDBBA7B66C
:102EE000CBC8A5C1ACBDD30D0A00000084010020F1
:102EF000B7FECEF1C6F749503A25642E25642E253B
:102F0000642E25640D0A000088010020BCE0CCFD81
:102F1000B6CBBFDA3A2564200D0A0000C1ACBDD3A0
:102F2000B3C9B9A6BAF3A3ACB7FECEF1C6F7B7A240
:102F3000CBCDCAFDBEDDB8F85735353030A3AC5720
:102F400035353030BDABB7B5BBD8B6D4D3A6CAFD86
:102F5000BEDD0D0A00000000D3A6D3C3B3CCD0F26F
:102F6000D6B4D0D0D6D00D0A00000000506C6561F8
:102F7000736520576169742061626F757420333303
:102F8000207365636F6E640D0A000000001001403D
:102F90000014014076657273696F6E206973203189
:102FA000310D0A007A270020736D6172743A202572
:102FB000730D0A002A0D0A00E4270020557067727D
:102FC0006164654F6B230000257325732573000032
:102FD000940400204B45595F53455400842700203A
:102FE000495744472052455345542F7379737465AC
:102FF0006D204572726F7221210D0A00BE00002003
:10300000BD000020534D4152545F464C41470000E3
:103010000D0A7761697420736D617274636F6E66F7
:103020006967207365740D0A0000000065010020C7
:1030300006F001FC044606F04DFE784AC2E90401A0
:1030400005F09DF9044606F0A2FE744AC2E9160195
:1030500006F059FB044606F03DFE704AC2E906013F
:1030600005F037FA05F039FF044606F033FE6C4AE6
:1030700003C205F038FF044606F02CFE694A03C27D
:1030800001F061FA684A03C26448D0E90443224669
:1030900066A007F069F86148D0E90643224666A0B9
:1030A00007F062F86748006806F071FE04460B46B8
:1030B000654903C92246CDE9000164A007F054F830
:1030C0005649D1E90843224665A007F04DF8534818
:1030D000D0E90A43224666A007F046F850480CC8DB
:1030E00066A007F041F84F480CC867A007F03CF80D
:1030F0004D480CC867A007F037F84848D0E9164398
:10310000224668A007F030F805F0B8F810216848AA
:10311000FDF719FB012808D166A007F025F800216A
:103120006748684AC2E9101006E067A007F01CF87B
:103130000021644A1164516420215D48FDF703FBBE
:10314000012808D163A007F00FF800215C485D4A10
:10315000C2E9121006E05FA007F006F80021594A04
:103160009164D16401215E48FDF7EDFA012808D190
:103170005CA006F0F9FF00205149524AC2E914014F
:1031800006E05BA006F0F0FF00214E4A1165516594
:103190005AA006F0E9FF00F05AFD00F093FD00F0A0
:1031A000BFFD00F033FE5A48007810B100205849A6
:1031B00008704FF48061574806F081FB00F02EFD47
:1031C00055A006F0D1FF60480068012805DD002009
:1031D0005D4908605DA006F0C7FF5B480068401CC1
:1031E000594908605E48007820B95E480078401C64
:1031F0005C4908705B48007806280AD15848007876
:1032000038B94348007820B900205649087005F0C5
:10321000FCFB4FF4FA7003F031F9F1E59003002064
:103220008800002098000020B00000204C75783104
:103230003A252E32660D0A004C7578323A252E3228
:10324000660D0A00280300201003002072657375C4
:103250006C743D252E32662C252E32663B0D0A00FD
:103260005465616D703A252E32660D0A000000002B
:1032700048756D693A252E32660D0A00504D322E82
:10328000353A252E660D0A00647573743A252E664C
:103290000D0A00004E6F6973653A252E32660D0ADD
:1032A00000000000434F3A252E32660D0A00000050
:1032B000001001404D6F74696F6E313D310D0A0091
:1032C0000000F03F680500204D6F74696F6E313D5E
:1032D000300D0A004D6F74696F6E323D300D0A007B
:1032E00000180140536D6F6B653A310D0A00000004
:1032F000536D6F6B653A300D0A0000002A2A2A2AA6
:103300002A2A2A2A2A2A2A2A2A2A0D0A0000000002
:1033100065010020260600202A2A2A2A2A2A2A2A8B
:103320002A2A2A2A2A2A2A2A2A2A2A2A2A2A2A2AFD
:103330002A2A2A2A2A2A2A2A2A2A2A2A2A2A2A2AED
:103340002A2A2A0D0A000000D00000200D0A64611C
:103350007461206973207570646174650D0A0000E2
:10336000C0000020BC000020704700BFFEE700BF87
:10337000FEE700BFFEE700BFFEE7704770477047FB
:10338000704710B501218807FEF7E9FC28B102F06B
:1033900042FA01218807FEF7F3FC10BD00B587B0A3
:1033A00001217420FDF7F8FB01210803FDF7F4FB70
:1033B0002020ADF8040003208DF8060018208DF8B9
:1033C000070001A94248FDF72BF94020ADF80400A1
:1033D00001A93F48FDF724F98020ADF8040001A9B8
:1033E0003B48FDF71DF91020ADF804008DF80700EB
:1033F00001A93748FDF714F91020ADF804008DF845
:10340000070001A93348FDF70BF940F60270ADF84B
:10341000040010208DF8070001A92E48FDF700F9DF
:103420004FF480712B48FDF7A8F94FF4007129483B
:10343000FDF7A3F94FF480612648FDF79EF90221BC
:103440002448FDF79CF94FF400612248FDF797F9F5
:103450000020ADF808004FF48270ADF80A0000209B
:10346000ADF80C000220ADF80E000120ADF8100000
:103470004002ADF812000820ADF814000020ADF8AD
:1034800016000720ADF8180002A91348FDF70EFC3E
:1034900001211148FDF7AFFC07B000BD10B504468F
:1034A00000BF02210C48FDF72AFD0028F9D0214673
:1034B0000948FDF7D1FC00BF01210748FDF71FFDBA
:1034C0000028F9D00448FDF7C9FCC0B210BD0000C7
:1034D00000080140001801400030014008B54FF4D9
:1034E000E060FCF741FF1C208DF8000000208DF803
:1034F000010003208DF8020001208DF803006846CA
:10350000FCF737FF08BD0EB501210846FDF751FB5A
:103510004FF47A70ADF804004720ADF800000020A9
:10352000ADF80600ADF8020069464FF08040FDF7A7
:10353000F1FD01218807FEF70FFC012211469007DB
:10354000FEF75FF901218807FEF740F9002101200D
:10355000FDF72FFB0EBD000008B501214805FDF762
:1035600028FB01210820FDF717FB4020ADF80000E3
:1035700003208DF802001C208DF803006946FC48EA
:10358000FDF74EF88020ADF8000003208DF8020012
:103590001C208DF803006946F548FDF741F808BD89
:1035A0001FB50020ADF804004BF6FF70ADF8060023
:1035B0000A20ADF808004FF48060ADF80A00000161
:1035C000ADF80C00EB4800906946EB48FEF7F9FDBA
:1035D0000121E948FEF773FE1FBD10B5FFF7BCFFE0
:1035E000FFF7DEFF4020E549088010BD10B5044616
:1035F0002146E3A006F0B8FD002010BD70B50446DA
:103600000E4615460121DC48FEF77DFE4FF4805042
:10361000E849086009E0E7490868411EE54A116089
:1036200018B90020FFF7E2FF70BDE349D248FEF76A
:103630004BFF0028EFD000223146CF48FEF7B9FEFD
:103640004FF48050DB49086009E0DA490868411E00
:10365000D84A116018B90120FFF7C8FFE4E7D7493D
:10366000C548FEF731FF0028EFD02946C248FEF7D3
:103670009AFE4FF48050CF49086009E0CD490868B0
:10368000411ECC4A116018B90220FFF7AFFFCBE70B
:10369000CA49891CB848FEF717FF0028EED02178E8
:1036A000B548FEF780FE4FF48050C249086009E03B
:1036B000C0490868411EBF4A116018B90320FFF7CE
:1036C00095FFB1E7BD49891CAB48FEF7FDFE002818
:1036D000EED00121A848FEF722FE0120A4E770B534
:1036E00005460E4614464FF4A030B249086009E082
:1036F000B0490868411EAF4A116018B90920FFF7A8
:1037000075FF70BD4FF400319B48FEF7FFFE0028A7
:10371000EED101219848FEF7F6FD4FF48050A549FF
:10372000086009E0A3490868411EA24A116018B95F
:103730000A20FFF75BFFE4E79F498F48FEF7C4FECE
:103740000028EFD08D48017800228B48FEF731FE2B
:103750004FF480509749086009E096490868411E77
:10376000944A116018B90B20FFF740FFC9E793494D
:103770008148FEF7A9FE0028EFD001217E48FEF720
:103780009EFD31467C48FEF70EFE4FF4805089497D
:10379000086009E087490868411E864A116018B927
:1037A0000C20FFF723FFACE78449891C7248FEF721
:1037B0008BFE0028EED001216F48FEF7A4FD4FF4E8
:1037C00080507C49086009E07A490868411E794ABE
:1037D000116018B90D20FFF709FF92E77649664896
:1037E000FEF772FE0028EFD064480178012262489B
:1037F000FEF7DFFD4FF480506E49086009E06D4927
:103800000868411E6B4A116018B90E20FFF7EEFEE2
:1038100077E76949491C5848FEF756FE0028EED064
:1038200026E0012C07D100215348FEF784FD012139
:103830005148FEF774FD4FF4A0305E49086009E07E
:103840005C490868411E5B4A116018B90320FFF704
:10385000CDFE56E758493F314748FEF735FE002870
:10386000EED04548FEF7A1FD28706D1C601E84B2A5
:10387000002CD6D101214048FEF75DFD012040E734
:103880002DE9F04105460F4616461C464FF4A03080
:10389000484908600AE047490868411E454A1160E6
:1038A00020B90920FFF7A2FEBDE8F0814FF40031F6
:1038B0003148FEF72BFE0028EDD101212E48FEF7FE
:1038C00022FD4FF480503B49086009E039490868FF
:1038D000411E384A116018B90A20FFF787FEE3E756
:1038E00035492548FEF7F0FD0028EFD00022394683
:1038F0002148FEF75EFD4FF480502E49086009E034
:103900002C490868411E2B4A116018B90B20FFF79B
:103910006DFEC9E729491848FEF7D6FD0028EFD00B
:1039200001211548FEF7CBFC31461348FEF73BFD5D
:103930004FF480501F49086009E01E490868411E85
:103940001C4A116018B90C20FFF750FEACE71B4968
:10395000891C0948FEF7B8FD0028EED00121064871
:10396000FEF7D1FC4FF480501249086032E00000AD
:10397000000C0140A086010000540040E40000203B
:103980003C3C2D454550524F4D2D4552524F522DE6
:103990003E3E2049324320776169742074696D6F1F
:1039A000757420216572726F72436F6465203D20CB
:1039B00025640A00E80000200100030082000700DF
:1039C00087490868411E864A116018B90D20FFF723
:1039D0000DFE69E783498448FEF776FD0028EFD0A5
:1039E000012239468048FEF7E4FC4FF480507C49C0
:1039F000086009E07A490868411E794A116018B9DF
:103A00000E20FFF7F3FD4FE77649491C7648FEF795
:103A10005BFD0028EED026E0012C07D10021724882
:103A2000FEF789FC01217048FEF779FC4FF4A030C5
:103A30006B49086009E06A490868411E684A1160DC
:103A400018B90320FFF7D2FD2EE766493F316648DB
:103A5000FEF73AFD0028EED06348FEF7A6FC28707A
:103A60006D1C601E84B2002CD6D101215E48FEF789
:103A700062FC012018E708B50020009000BF01217A
:103A80005948FEF740FC14215748FEF79BFC009074
:103A90005648017800225448FEF78BFC1421524806
:103AA000FEF790FC00F002000028E8D050494E4894
:103AB000FEF749FD01214C48FEF731FC08BD2DE918
:103AC000F04104460F4615461E464FF4A0304449C7
:103AD00008600AE042490868411E414A116020B965
:103AE0000420FFF783FDBDE8F0814FF400313E482C
:103AF000FEF70CFD0028EDD101213B48FEF703FC49
:103B00004FF480503649086009E035490868411E85
:103B1000334A116018B90520FFF768FDE3E7314922
:103B20003148FEF7D1FC0028EFD0002239462E485C
:103B3000FEF73FFC4FF480502949086009E028490E
:103B40000868411E264A116018B90620FFF74EFD8D
:103B5000C9E728492448FEF7B7FC0028EFD02946DA
:103B60002148FEF720FC4FF480501D49086009E011
:103B70001B490868411E1A4A116018B90720FFF74F
:103B800035FDB0E71B49891C1748FEF79DFC00284E
:103B9000EED01AE021781448FEF705FC641C4FF4BF
:103BA00080500F49086009E00D490868411E0C4A21
:103BB000116018B90820FFF719FD94E70D49891C19
:103BC0000948FEF781FC0028EED03000A6F1010183
:103BD000CEB2DFD101210448FEF7A1FB012082E72C
:103BE000E80000200100030000540040E400002031
:103BF000000400108200070070B505460C4645F22F
:103C00005550FEF7C7FC2846FEF7C7FC2046FEF7D6
:103C1000C7FCFEF7C8FCFEF7CBFC70BD10B5FEF785
:103C2000C2FC10BD2DE9F0410746FCF747FE72B615
:103C30004FF0006005684468002080F3148800BFDE
:103C40002846FCF788FA2646B047BDE8F08110B553
:103C5000AC49ADA006F088FAAF4BB0A2B3A1B5480D
:103C600006F092FAB349B4A006F07EFAB149A5482D
:103C700005F03CFE00281AD003F0E8FF0120B1490E
:103C800008604FF47A7002F0F9FBAFA006F06CFA0E
:103C9000B6A000F070FEBC480021018081704FF496
:103CA0007A7002F0EBFB04F0A0F800F01CF910BDF4
:103CB00010B562B6B549C802FCF78DFBB348B449EC
:103CC000086010BD1CB5B3A09349B34BB3A2CDE9B6
:103CD0000010B6A1B84806F057FAB749894805F070
:103CE00005FEE0B1B5A006F03FFA002003F07DFE2E
:103CF0004FF4405003F079FEB5A0A74BB5A2B7A191
:103D00000090B84806F040FA4FF47A7002F0B6FB23
:103D1000B44800F030FE04F068F800F0E4F81CBD90
:103D200008B51E2277490A31AF4805F0F1FD7A4BFC
:103D3000AEA27EA1B14806F027FAB049B0A006F0C5
:103D400013FAA949B3A006F00FFAAC49A64805F04A
:103D5000CDFD002859D00DE06A48B4490968415C9E
:103D6000B24800682938B24A1154B0480068401C73
:103D7000AE4908606348AD490968405C2C28EBD126
:103D80000020AA490860AA4805F0CEFDA9490860AC
:103D900008460168A8A006F0E7F912E0A548006807
:103DA0002A305849085CA849A04A12688854A1489A
:103DB0000068401C9F4908609C480068401C9B4963
:103DC00008609C4800682A304E49085C2A28E5D1E2
:103DD00097499EA006F0C8F99B49A0A006F0C4F937
:103DE00003F0ABFF7AA04C4B80A27CA10090A048CE
:103DF00006F0CAF94FF47A7002F040FB9C4800F0DC
:103E0000BAFD03F0F2FF00F06EF808BD08B51E22FF
:103E10003C49754805F07CFD3F4B74A243A17748AF
:103E200006F0B2F97549704805F060FD002859D0D8
:103E30000DE034488F490968415C8E4800681F389E
:103E40007B4A11548B480068401C8A4908602D4801
:103E500088490968405C2C28EBD10020854908601E
:103E6000734805F061FD734908600846016872A057
:103E700006F07AF912E06F48006820302149085CAA
:103E800071497C4A126888546A480068401C694934
:103E9000086078480068401C7649086065480068FA
:103EA00020301849085C2A28E5D1614967A006F04E
:103EB0005BF9654969A006F057F903F03EFF44A09D
:103EC000154B4AA245A10090694806F05DF94FF4F0
:103ED0007A7002F0D3FA664800F04DFD03F085FFDA
:103EE00000F001F808BD2A48001D006800F4E060F9
:103EF00061490843001D2649091D0860BFF3408F32
:103F000000BFFEE726060020726563656976653AA4
:103F10002025730D0A000000022000204E65656414
:103F20005570677261646523000000002573257376
:103F30000000000008060020636F64653A25730DD9
:103F40000A000000EC0000202D2D2D2D2D2D2D3EE2
:103F50003E204A756D7020746F2049415020426F99
:103F60006F746C6F616465720D0A00004A756D7044
:103F700020746F2049415020426F6F746C6F6164F0
:103F800065720D0A00000000260E002000000108E6
:103F900008ED00E02A000000490000204865726D2D
:103FA0006573436F6D6D616E64000000257325734A
:103FB0002C25732573000000980F0020536572763E
:103FC000657220436C656172204F4B0D0A00000042
:103FD0004F4B2A00434C45415250570025732573DF
:103FE0002C257300101000202A0F00204368616EFA
:103FF000676553657276657223000000520F0020DA
:104000004C6F63616C5F4275666665723A25730D2D
:104010000A0000004D6F646966795F49505F504146
:104020005353574F52443A25730D0A00F0000020B5
:10403000CA0F0020F80000205365727665724C6547
:104040006E3A25640D0A0000E80F00205365727671
:1040500065725F49503A25730D0A00005365727608
:1040600065725F506F72743A25730D0A000000008C
:10407000F20F0020F40000200000FA0500B587B020
:1040800001210420FCF788FD01218803FCF784FD51
:104090004FF40070ADF8180018208DF81B000320B5
:1040A0008DF81A0006A9E048FCF7BAFA4FF48060D0
:1040B000ADF8180004208DF81B0006A9DA48FCF7BB
:1040C000AFFA25208DF8040000208DF805008DF84A
:1040D000060001208DF8070001A8FCF74AF94FF40B
:1040E000E13002900020ADF80C00ADF80E00ADF804
:1040F0001000ADF814000C20ADF8120002A9CB4856
:10410000FDF785FE012240F22551C848FDF717FF53
:104110000121C648FDF707FF07B000BD08B540F212
:104120002551C248FDF7F0FF48B1C048FDF76CFFCC
:10413000C0B200906946BE4805F0CCFB00BF08BD88
:1041400070B504460D46E1B2B848FDF759FF00BF0F
:104150008021B648FDF7C2FF0028F9D0204670BD87
:1041600010B5044600BF2021B248FDF7B7FF002874
:10417000F9D0B048FDF748FF10BD00B587B0012168
:104180004804FCF716FD0420ADF8180003208DF854
:104190001A0018208DF81B0006A9A348FCF740FA66
:1041A0000820ADF8180004208DF81B0006A99E48D1
:1041B000FCF736FA26208DF8040000208DF8050063
:1041C00001208DF806008DF8070001A8FCF7D1F852
:1041D0004FF4E13002900020ADF80C00ADF80E0075
:1041E000ADF81000ADF814000C20ADF8120002A9D3
:1041F0009148FDF70CFE012240F225518E48FDF753
:104200009EFE01218C48FDF78EFE07B000BD08B56B
:1042100040F225518848FDF777FF48B18648FDF701
:10422000F3FEC0B200906946814805F053FB00BF21
:1042300008BD08B540F225517E48FDF765FF48B13D
:104240007C48FDF7E1FEC0B200906946784805F071
:1042500041FB00BF08BD00B587B001218804FCF711
:10426000A8FC01210820FCF797FC18208DF80B0012
:104270004FF48060ADF8080003208DF80A0002A911
:104280006E48FCF7CDF904208DF80B004002ADF824
:10429000080002A96948FCF7C3F94FF4E130039024
:1042A0000020ADF818000C20ADF816000020ADF885
:1042B0001400ADF81200ADF8100003A95D48FDF739
:1042C000A6FD27208DF8040001208DF807008DF849
:1042D000050002208DF8060001A8FCF74AF801222B
:1042E00040F225515348FDF72AFE01215148FDF7C0
:1042F0001AFE07B000BD00B587B00121C804FCF765
:1043000058FC01211020FCF747FC18208DF80B0009
:104310004FF48060ADF8080003208DF80A0002A970
:104320004748FCF77DF904208DF80B004002ADF8FA
:10433000080002A94248FCF773F94FF416500390A5
:104340000020ADF818000C20ADF816000020ADF8E4
:104350001400ADF81200ADF8100003A93948FDF7BC
:1043600056FD34208DF8040001208DF8070002204E
:104370008DF805008DF8060001A8FBF7FAFF07B0DD
:1043800000BD00B587B001210805FCF712FC012132
:104390003020FCF701FC4FF48050ADF818001820D5
:1043A0008DF81B0003208DF81A0006A92448FCF79D
:1043B00037F90420ADF818008DF81B0006A9224833
:1043C000FCF72EF94FF4165002900020ADF80C00C7
:1043D000ADF80E00ADF81000ADF814000C20ADF8EB
:1043E000120002A91948FDF712FD4FF4A060FBF777
:1043F000BBFF35208DF8040004208DF80500032054
:104400008DF8060001208DF8070001A8FBF7B1FF29
:10441000012240F225510D48FDF791FD01210B4885
:10442000FDF781FD07B000BD0008014000380140E4
:10443000260600200048004000440040000C0140D7
:1044400000100140004C00400014014000500040AA
:1044500008B501211020FCF79FFB0120ADF80000FA
:1044600000208DF8030069466E48FCF7D9F808BDB6
:1044700000B585B001218802FCF78EFB002000907A
:104480008DF8040001208DF805004FF460200290A3
:104490000020039001208DF8100069466248FEF765
:1044A000C0F84FF44040FCF7DBFA052301220A2153
:1044B0005D48FEF74EF901224FF408715A48FEF7A5
:1044C000F2F801215848FEF7D8F85748FEF7F7F8F8
:1044D00000BF5548FEF7F8F80028FAD15248FEF719
:1044E000FDF800BF5048FEF7FEF80028FAD1012180
:1044F0004D48FEF702F905B000BD10B54FF4087144
:104500004948FEF777FA012804D14748FEF788F9B1
:10451000464908804FF408714348FEF77DFA10BD04
:104520002DE9F04104460D4616461F4632463B46ED
:104530002046294605F03EFC01D234463D46204641
:104540002946BDE8F0812DE9F0410021384A11608B
:10455000516000203749086035E00021364A11607B
:1045600051600020354908601BE02F48FEF758F9DC
:104570003349324A126841F82200304A126851F831
:10458000220005F0A7FB044622460B462A4903C930
:10459000FFF7C6FF284A03C228480068401C274985
:1045A000086026480068B0F57A7FDEDD22482049A1
:1045B0000CC803C905F0F8F91D4A03C21D4800687C
:1045C000401C1C4908601B4800680528C5DB4FF4E7
:1045D0007A711B4805F073F900221A4B144903C97C
:1045E00005F0FBFA144A03C2134903C905F012FC93
:1045F00015490860104903C906F0A4FA06464FF0B1
:104600006632124B05F077FA0446114A114B05F059
:104610006CFABDE8F08110B5FFF71AFFFFF728FF2D
:1046200010BD0000001001400028014000010020E2
:1046300010010020040100201801002008010020C2
:1046400030100020000014402001002066A63640F3
:104650007B14AE47E11A514010B54FF48071FE480B
:10466000FCF78DF8022001F025FF4FF48071FA4825
:10467000FCF783F810BD2DE9F0470446894616463D
:104680001F46204605F050F982465146F3A005F03A
:104690006BFD4FF0000828E000250BE0615DF44859
:1046A000FDF7AEFC00BF8021F148FDF717FD0028A3
:1046B000F9D06D1C204605F037F9A842EED83046F7
:1046C00001F0DCFEEB49ECA005F04EFD4946E9485F
:1046D00005F00CF930B12146EBA005F045FD0020B6
:1046E000BDE8F08700BF08F10108B845D4DBE9A0B8
:1046F00005F03AFD0120F3E72DE9F047044689462D
:1047000016461F46204605F00FF982465146D3A0B3
:1047100005F02AFD2146E3A005F026FD4FF0000834
:104720002AE000250BE0615DD148FDF769FC00BF80
:104730008021CF48FDF7D2FC0028F9D06D1C20461F
:1047400005F0F2F8A842EED8304601F097FE49464F
:10475000C84805F0CBF860B1D6A005F005FD0120F2
:10476000D8490870C102C34805F0A9F80020BDE887
:10477000F08700BF08F10108B845D2DBC5A005F0FD
:10478000F3FC0120F3E72DE9F0470446894616467D
:104790001F46204605F0C8F882465146AFA005F0F6
:1047A000E3FC2146BFA005F0DFFC4FF0000832E03B
:1047B00000250BE0615DAE48FDF722FC00BF8021C3
:1047C000AB48FDF78BFC0028F9D06D1C204605F0A6
:1047D000ABF8A842EED8304601F050FE1122A549B0
:1047E0001C31B94805F094F8B749B8A005F0BCFCF5
:1047F0004946A04805F07AF850B1AEA005F0B4FCE7
:104800004FF400619B4805F05AF80020BDE8F0879E
:1048100000BF08F10108B845CADB9EA005F0A4FC62
:104820000120F3E72DE9F0470446894616461F4666
:10483000204605F079F88246514688A005F094FCA0
:10484000214698A005F090FC4FF0000846E00025B6
:104850000BE0615D8648FDF7D3FB00BF80218448F3
:10486000FDF73CFC0028F9D06D1C204605F05CF8F3
:10487000A842EED8304601F001FE0F227D491831E2
:10488000964805F045F80CE0944895490968405C65
:104890009449934A1268885491480068401C904992
:1048A00008608E488E490968405C2228ECD18D4909
:1048B0008DA005F059FC49466E4805F017F850B137
:1048C0007CA005F051FC4FF400616A4804F0F7FF4A
:1048D0000020BDE8F08700BF08F10108B845B6DB4D
:1048E0006CA005F041FC0120F3E72DE9F0470446F8
:1048F000894616461F46204605F016F88246514660
:1049000056A005F031FC4FF000082CE000250BE02C
:10491000615D5748FDF774FB00BF80215448FDF7E7
:10492000DDFB0028F9D06D1C204604F0FDFFA842F5
:10493000EED8304601F0A2FD49464E4804F0D6FFBD
:1049400070B121466DA005F00FFC5AA005F00CFCDB
:104950004FF40061474804F0B2FF0020BDE8F08743
:1049600000BF08F10108B845D0DB214667A005F07B
:10497000FBFB0120F2E770B5054600240BE0295D42
:104980003B48FDF73DFB00BF80213948FDF7A6FB02
:104990000028F9D0641C284604F0C6FFA042EED8D7
:1049A00070BD70B504460D465EA005F0DDFBFFF757
:1049B00035F9FFF751FE63A0FFF7DDFF142001F08A
:1049C0005DFD60A0FFF7D7FF142001F057FD4FF405
:1049D0008061284804F073FF03234FF47A725AA1D0
:1049E0005AA0FFF789FE03234FF47A7256A159A00B
:1049F000FFF782FE03234FF47A7253A158A0FFF70A
:104A00007BFEFFF70BF93221594804F058FF59A1FA
:104A1000574804F09DFF2146554804F05BFF58A11C
:104A2000534804F057FF2946514804F053FF55A15D
:104A30004F4804F04FFF0A234FF47A7252A14C48BA
:104A4000FFF75AFEFFF7EAF84FF40061094804F057
:104A500036FF322146489DE000080140636F6D6DCE
:104A6000616E64206C656E6774683A25640D0A0097
:104A700000440040260600203C3C52656365697690
:104A8000653A25730D0A00003E3E53656E643A2573
:104A9000730D0A002D2D2D3E3E6661696C210D0AB5
:104AA000000000002D2D2D3E3E73656E64202573A1
:104AB0000D0A00002D2D2D3C3C736574206F6B0D8D
:104AC0000A00000064010020022000202D2D2D3C52
:104AD0003C4D41433A2025730D0A0000BE220020C0
:104AE00060010020D22200202D2D2D3C3C657370EA
:104AF00049503A2025730D0A000000002D2D2D3E4F
:104B000073656E642025730D0A0000002D2D2D3E67
:104B100073656E64203A2573206661696C210D0A05
:104B2000000000002A2A2A2A2A2A77696669206951
:104B3000732073657474696E672A2A2A2A2A2A0DDB
:104B40000A0000002B2B2B004F4B000041540D0A94
:104B50000000000041542B5253540D0A0000000085
:104B600041542B43574D4F44453D330D0A0000003F
:104B7000D004002041542B43574A41503D220000AD
:104B8000222C2200220D0A005749464920474F5443
:104B90002049500004F093FEEEA1F34804F0D8FE43
:104BA000F2A1F14804F096FEF6A1EF4804F092FE5F
:104BB0000020F74908700A234FF47A72F5A1EA48F9
:104BC000FFF79AFD4FF4C871E74804F078FEFFF74D
:104BD00025F8F2A005F0C8FAFFF720F8142001F03C
:104BE0004DFC70BD70B505463221DF4804F067FE0C
:104BF000284604F099FE06463246EFA1DA4805F051
:104C0000C3FA01234FF4FA72EFA1D748FFF733FD3F
:104C100001234FF47A72EDA12846FFF72CFD0128FD
:104C200019D1002402E003F035FF641C052CFADBE7
:104C3000E8A005F099FAEC49EC48FFF7B2FE002431
:104C400002E003F0E2FE641C032CFADB4FF4806107
:104C5000E74804F034FE6421284604F030FE70BDBD
:104C600010B500BF03234FF4FA72AFF22411E1A094
:104C7000FFF701FD0028F5D110BD10B50323642214
:104C8000AFF23C11DFA0FFF7F6FC48B100BF0323F1
:104C90004FF47A72BFA1B448FFF7EDFC0028F6D1BB
:104CA00010BD70B504460D46AFF2881005F05CFAF1
:104CB000FEF7B4FFFFF7D0FCAFF27810FFF75BFE12
:104CC000142001F0DBFBAFF28410FFF754FE142038
:104CD00001F0D4FB4FF48061C54804F0F0FD0323DC
:104CE0004FF4FA72AFF2A011AFF2A010FFF704FD7B
:104CF00003236422AFF2B011AFF29C10FFF7FCFC6B
:104D000000BF01236422AFF2C011C2A0FFF73BFD38
:104D10000028F6D14FF4C871934804F0D0FDAFF2EB
:104D2000AC11914804F014FE21468F4804F0D2FDE6
:104D30008CA18D4804F0CEFD29468B4804F0CAFDB5
:104D4000AFF2C011884804F0C5FD0A2340F6B8321E
:104D5000AFF2CC118448FFF7CFFC4FF40061A448B8
:104D600004F0ADFD3221804804F0A9FD79A17E4810
:104D700004F0EEFD7DA17C4804F0ACFD81A17A48F1
:104D800004F0A8FD0020824908700A2341F27072E5
:104D900080A17548FFF7B0FC3221734804F08FFD05
:104DA000FEF73CFF7A480078012807D103234FF42F
:104DB0007A72AFF26C219BA0FFF734FD002074499A
:104DC000087003234FF47A72AFF2842198A0FFF7A2
:104DD00093FC72A005F0C8F9FEF720FF142001F043
:104DE0004DFB70BD2DE9F0410646884617460FE0A1
:104DF000C821304604F063FD7D4801193A4630462B
:104E000004F086FD641C6E2C00DD0024E019451EB4
:104E10004146304604F06AFD0028E9D0FEF7FEFE68
:104E200000E0641C7248005D0D28FAD17049601CD6
:104E3000085C0A28F5D1601B821C084641193046DF
:104E400004F066FD32467EA17E4805F09DF93221D0
:104E5000304604F034FD621B7A49304604F058FDB8
:104E6000BDE8F08110B5FEF7D9FEFFF7F5FB4FF472
:104E700000615F4804F023FD73A005F075F900BFE1
:104E800001234FF4FA72AFF24031AFF24030FFF736
:104E900033FC0028F4D100BF01234FF47A72AFF243
:104EA0005831AFF25030FFF720FD0028F4D100BF99
:104EB00001236422AFF2703169A0FFF71DFC0028C6
:104EC000F6D10A2341F27072AFF2843168A0FFF785
:104ED0000CFD4FF47A7001F0D1FAFEF79FFE23E14A
:104EE000434968A005F040F9414804F01DFD04461F
:104EF000214668A005F038F94FF47A7001F0BEFA47
:104F00004FF47A7001F0BAFA394804F00DFD4628E2
:104F10001ED963A005F028F9052269A16A48FFF7A8
:104F200061FF694969A005F01FF9674804F0FCFCBE
:104F3000044621466AA005F017F91E216B4804F0CB
:104F4000BEFC09226AA16D48FFF74CFF6B49D7E010
:104F5000E8E0000041542B43495053544152543D22
:104F600022544350222C2200D00400206D6C627326
:104F700065727665722E666F78636F6E6E2E636FE4
:104F80006D000000222C313038300D0A0000000086
:104F900064010020434F4E4E454354002A2A2A2ADA
:104FA0002A2A77696669206973206F6B2A2A2A2A60
:104FB0002A2A0D0A0000000041542B434950534552
:104FC0004E443D25640D0A003E00000053454E440A
:104FD000204F4B0077696669206973207265636FA3
:104FE0006E6E6563740D0A0052200020342000208C
:104FF0002606002041542B434950434C4F53450D46
:105000000A00000041542B434950434C4F53453D47
:105010003F0D0A0041542B4349505354414D4143E5
:105020003F0D0A0041542B43494653520D0A0000DC
:1050300041542B4349504D4F44453D300D0A00002B
:1050400025730000D01F0020736D617274636F6E52
:1050500066696720697320646F696E670D0A0000D6
:1050600041542B43574D4F44453D310D0A0000003C
:1050700041542B43575354415254534D4152540DB4
:105080000A000000726563656976653A25730D0A4A
:10509000000000002D2D2D3C3C3C3A25640D0A00FB
:1050A000526563656976652050617373776F7244EA
:1050B000202620535349442049530D0A0000000084
:1050C000737369643A000000B62000202D3C3C3C1C
:1050D00020202020535349443A2025730D0A000014
:1050E0006C656E74683A2025640D0A00BA210020B0
:1050F00070617373776F72643A000000D4200020EF
:105100000CA005F031F8104804F00EFC04462146CE
:10511000AFF2340005F028F84FF400610B4804F0BA
:10512000CEFB05E0FEF77AFD084800287FF4D8AEF4
:1051300000BF10BD2D3C3C3C50617373776F7264AF
:105140003A2025730D0A0000D420002026060020F6
:10515000B8A005F009F8FFF785FE02F0ACFC02F0FC
:105160002CFE002402E003F050FC641C052CFADB4A
:105170004FF47A7001F082F90120B4490870FEF70B
:105180004DFD02F032FE00F048F910B5FEF746FD85
:105190004FF40060FBF7CAF900287CD003F0D5FA81
:1051A0004FF47A7001F06AF94FF40061A848FBF7F8
:1051B000CAFA002870D14FF47A7001F05FF94FF409
:1051C0007A7001F05BF94FF40061A148FBF7BBFA7C
:1051D000002879D10A209F49087000240AE003F0D2
:1051E0002DFDC82001F04AF903F048FDC82001F068
:1051F00045F9641C032CF2DB4FF400619448FBF783
:10520000A2FA01280BD1FEF709FD00209149087090
:1052100091A004F0A9FF03F025FBFFF799FF0024FC
:105220000CE04FF400618A48FBF78DFA012800D1A9
:1052300006E04FF47A7001F021F9641C032CF0DBD6
:1052400000BF4FF400618248FBF77DFA002878D157
:1052500014208049087000240AE003F061FDC82092
:1052600001F00CF903F08AFDC82001F007F9641C75
:10527000032CF2DB4FF400617548FBF764FA012858
:1052800019D1FEF7CBFC00207249087079A004F018
:105290006BFF002001E084E046E002F0A6FB4FF443
:1052A000405002F0A2FB02F0A0FD4FF47A7001F032
:1052B000E5F800F0B2F84FF400616548FBF743FAF7
:1052C00000283ED100240DE03BE04FF4006160482F
:1052D000FBF739FA012800D106E04FF47A7001F0AB
:1052E000CDF8641C022CF0DB00BF4FF4006158487D
:1052F000FBF729FA28BB00240AE003F049FDC82087
:1053000001F0BCF803F072FDC82001F0B7F8641C8E
:10531000032CF2DB5CA15F4804F0E8FA02F096FC93
:1053200002F063FD00F079F84FF400614848FBF7A4
:105330000AFA30B158A004F017FF02F056FD00F051
:105340006CF8444800780A280BD157A004F00CFFF1
:1053500041A004F009FF03F085FAFEF75FFCFFF7B8
:10536000F7FE3C480078142814D158A004F0FCFE45
:1053700040A004F0F9FE002002F037FB4FF440504B
:1053800002F033FB02F031FD4FF47A7001F076F851
:1053900000F043F800202F4908704FF40060FBF73D
:1053A000D6F810BD08B54FF4C060FAF7DDFF28202D
:1053B0008DF8000001208DF8010004208DF8020016
:1053C00001208DF803006846FAF7D3FF08BD0EB53B
:1053D00001210520FBF7E0FBFFF7E4FF4FF400603D
:1053E000ADF8080004208DF80B0002A91848FBF75F
:1053F00017F90B210020FBF729FA4FF40060009009
:1054000000208DF804000C208DF8050001208DF897
:1054100006006846FBF724F80EBD3548006800F426
:10542000E06034490843001D31490860BFF3408FF4
:1054300000BFFEE7456E7465722054686520536DA9
:10544000617274636F6E6669670D0A006601002001
:1054500000080140670100200D0A5761697420654A
:105460006E74657220736D617274636F6E666967C6
:105470000D0A00000D0ABBD6B8B4B3F6B3A7C9E84D
:10548000D6C30D0A000000003131313131313131E4
:1054900000000000882800200D0AB0B4BCFCB8B49D
:1054A000CEBB0D0A000000002D2D2D2D2D2D3E3ED2
:1054B0003E736D617274636F6E6669672077696CA5
:1054C0006C20646F696E670D0A0000002D2D2D2D74
:1054D0002D2D3E3E3E73797374656D5F696E697400
:1054E0002077696C6C20646F696E670D0A0000009C
:1054F0000CED00E00000FA0510B50A2000F0BEFF38
:1055000010BD10B50A2000F0E0FF10BD08B5D2486C
:10551000D2490A68026089888180D1490968C0F847
:105520000610D0490968C0F80A10CF490968C0F8C8
:105530000E10CE490968C0F81210CD48007810B995
:10554000CCA004F011FECA480078022825D1FFF74C
:10555000D8FFD0480078D8B9CE484078082817D16D
:10556000CC488078DC2813D1CBA004F0FDFDBA48EC
:10557000C849D1F80610C0F80610C649D1F80A107B
:10558000C0F80A10C349D1F80E10C0F80E1004E09C
:10559000C6A004F0E9FDFFF7AFFFB5480078012889
:1055A00022D1D0480078012818D1CFA004F0DCFD2A
:1055B000A948D149D1F80610C0F80610CE49D1F853
:1055C0000A10C0F80A10CC49D1F80E10C0F80E101D
:1055D000C949D1F81210C0F8121005E0C7A004F0B4
:1055E000C3FDCFA004F0C0FD01209B4988760021B7
:1055F0009948C1760A3000F01BFA97480E3000F047
:1056000007FA9548801D00F025FA954800F03DFA0C
:105610009348C07800909248837842780178C9A076
:1056200004F0A2FD8F4800F01EFA8E48C07800906A
:105630008C48837842780178CAA004F095FD8A48A6
:1056400000F0EEF98848C078009087488378427867
:105650000178CCA004F088FD08BD10B57E487F49D4
:105660000A6802608988818000F0EBF9A2487B49D2
:105670000A6802608988818010BD10B5FDF78EFE32
:1056800001214FF48870FBF787FA10BD10B504466E
:1056900024B91021C348FBF772F805E0012C03D1AF
:1056A0001021C048FBF769F810BD10B50020FFF7C6
:1056B000EDFF10BD10B50120FFF7E8FF10BD10B5DC
:1056C0004FF40041B848FBF75AF8022000F0FDFE05
:1056D0004FF40041B448FBF750F84FF4C86000F0B5
:1056E000CDFE10BD10B504462046FDF7D7FE10BD17
:1056F00070B504460D46FFF7D8FFC4F30740FFF727
:10570000F1FFC4F30720FFF7EDFF04F0F801091DD6
:10571000C8B2FFF7E7FF2846FFF7E4FFFFF7CAFF2D
:1057200070BD70B504460025FFF7BFFFC4F3074006
:10573000FFF7D8FFC4F30720FFF7D4FF04F0F80009
:10574000FFF7D0FF0020FFF7CDFF0546FFF7B2FFC0
:10575000284670BD2DE9F04104460F461546002647
:1057600015B992A004F000FDFFF79FFFC4F30740B6
:10577000FFF7B8FFC4F30720FFF7B4FF04F0F80108
:10578000091DC8B2FFF7AEFF002604E0B85DFFF7C1
:10579000A9FF701C86B2AE42F8DBFFF78BFF2846EC
:1057A000BDE8F0812DE9F04104460F46154600267C
:1057B00015B97EA004F0D8FCFFF777FFC4F30740CB
:1057C000FFF790FFC4F30720FFF78CFF04F0F80009
:1057D000FFF788FF002605E00020FFF783FFB8559C
:1057E000701C86B2AE42F7DBFFF764FF2846BDE8C7
:1057F000F08110B5FDF787FEFDF770FE0121084628
:10580000FBF7D7F910BD10B5FFF7F3FF10BD10B5CA
:10581000FFF7EFFF10BD6B480068401C6949086046
:1058200008460068B0F57A7F0BD300200860664810
:105830000068401C6449086064480078401C634963
:105840000870704770B562A004F08EFC00204468B8
:105850002546A84770BD0000E62200206C0100200C
:1058600072010020760100207A0100207E010020D4
:105870008A01002020CAB9D3C3B6A8D2E5B5C4496D
:1058800050D0C5CFA2C5E4D6C357353530300D0A48
:1058900000000000022300202049502066726F6D36
:1058A00020454550524F4D0D0A00000020454550FF
:1058B000524F4DCEB4C5E4D6C32CCAB9D3C3B6A893
:1058C000D2E5B5C44950D0C5CFA2C5E4D6C357353B
:1058D0003530302CB2A2D0B4C8EB454550524F4DB4
:1058E0000D0A00008B0100202049502066726F6D68
:1058F00020444843500D0A00642300202058585883
:1059000044484350D7D3B3CCD0F2CEB4D4CBD0D0CC
:105910002CBBF2D5DFB2BBB3C9B9A60D0A0000009B
:10592000205858585820CAB9D3C3B6A8D2E5B5C430
:105930004950D0C5CFA2C5E4D6C357353530300D58
:105940000A000000205735353030204950B5D8D6F0
:10595000B72020203A2025642E25642E25642E258C
:10596000640D0A0020573535303020D7D3CDF8D11B
:10597000DAC2EB203A2025642E25642E25642E25DC
:10598000640D0A0020573535303020CDF8B9D820C5
:10599000202020203A2025642E25642E25642E25E3
:1059A000640D0A000008014000180140556E65783A
:1059B00070656374656432206C656E67746820304E
:1059C0000D0A00008C0100209001002094010020AD
:1059D00020CFB5CDB3D6D8C6F4D6D0A1ADA1AD0DEC
:1059E0000A00000010B5044621460020FFF780FEA3
:1059F00010BD10B58020FFF7F5FF10BD0146DC4853
:105A000030F8110070470146DA4830F8110070474D
:105A100010B50446042221469001FFF79BFE10BDFD
:105A200010B50446042221469001FFF7BBFE10BDCD
:105A300010B50446042221464FF4A060FFF78AFE09
:105A400010BD10B50446062221464FF41060FFF742
:105A500081FE10BD10B50446042221464FF470604B
:105A6000FFF778FE10BD10B50446042221464FF41E
:105A7000A060FFF797FE10BD10B504460622214630
:105A80004FF41060FFF78EFE10BD10B504460422DF
:105A900021464FF47060FFF785FE10BD10B54FF43E
:105AA000A850FFF73EFE10BD10B50446210A4FF482
:105AB000C850FFF71DFEE1B24FF4D050FFF718FEBB
:105AC00010BD10B5044621464FF4D850FFF710FE24
:105AD00010BD70B50446FFF7E1FF60EA0400C5B2EF
