:020000040801F1
:10000000082E002065010108C9290108CB29010833
:10001000CF290108D3290108D729010800000000D1
:10002000000000000000000000000000DB290108C3
:10003000DD29010800000000DF290108E12901088D
:100040007F0101087F0101087F0101087F0101088C
:100050007F0101087F0101087F0101087F0101087C
:100060007F0101087F0101087F0101087F0101086C
:100070007F0101087F0101087F0101087F0101085C
:100080007F0101087F0101087F0101087F0101084C
:100090007F0101087F0101087F0101087F0101083C
:1000A0007F0101087F0101087F0101087F0101082C
:1000B000E32901087F0101087F0101087F01010890
:1000C0007F0101087F0101087F0101087F0101080C
:1000D0007F010108132B01087F0101087F0101083E
:1000E0007F0101087F0101087F0101087F010108EC
:1000F0007F0101087F0101087F0101087F010108DC
:100100007F0101087F0101087F0101087F010108CB
:100110007F010108B95A01087F0101087F01010828
:100120007F0101087F0101087F0101087F010108AB
:10013000DFF80CD006F076FE00480047672601087D
:10014000082E0020EFF30980704780F3098870477C
:10015000EFF30880704780F30888704740BA704713
:10016000C0BA70470648804706480047FEE7FEE7EA
:10017000FEE7FEE7FEE7FEE7FEE7FEE7FEE7FEE757
:1001800067020108310101080CB5002001900090C0
:100190006C48006840F480306A49086000BF6948D4
:1001A000006800F4003000900198401C0190009815
:1001B00018B90198B0F5A06FF1D16248006800F459
:1001C000003010B10120009001E000200090009864
:1001D000012843D15C48006840F010005A4908608B
:1001E0000846006820F0030008600846006840F0F8
:1001F0000200086053484068524948600846406819
:1002000048600846406840F480604860084640689E
:1002100020F47C1048600846406840F4E8104860CC
:100220000846006840F08070086000BF45480068DC
:1002300000F000700028F9D04248406820F0030028
:10024000404948600846406840F00200486000BFEE
:100250003C48406800F00C000828F9D10CBD10B5EE
:10026000FFF792FF10BD10B53648006840F001005E
:1002700034490860084640683449084031494860BC
:1002800008460068324908402E4908600846006860
:1002900020F4802008600846406820F4FE00486092
:1002A0004FF41F008860FFF7DAFF4FF00060294924
:1002B000086010BD10B5002100200022214B5B68B2
:1002C00003F00C0121B1042906D0082928D107E048
:1002D000214B224C236027E01F4B204C236023E05E
:1002E000184B5B6803F47010164B5B6803F48032A4
:1002F000022303EB904022B9194B4343174C236070
:100300000DE0104B5B6803F4003323B1144B4343FF
:10031000124C236003E0104B4343104C236003E076
:100320000D4B0E4C236000BF00BF064B5B68C3F350
:1003300003130C4CE15C094B1B68CB40074C23605A
:1003400010BD000000100240002002400000FFF835
:10035000FFFFF6FE08ED00E000127A00000000202A
:1003600000093D000400002031490143314A116079
:10037000704770B5002100230F22C47804B32D4CC0
:10038000246804F4E064C4F5E064210AC1F10403C4
:10039000CA40447804FA03F18478144021430901E7
:1003A000254C0678A155047804F01F050124AC40C3
:1003B00005786D11AD0005F1E025C5F8004109E0B3
:1003C000047804F01F050124AC401C4D067876111A
:1003D00045F8264070BD1A4A0A400243154B1B1FC0
:1003E0001A60704739B1134A121D12680243114B4B
:1003F0001B1D1A6006E00F4A121D126882430D4B46
:100400001B1D1A607047042808D14FF0E0210969CC
:1004100041F004014FF0E022116107E04FF0E021CC
:10042000096921F004014FF0E022116170470000DA
:100430000000FA050CED00E000E400E080E100E0DF
:1004400080FFFF1F10B50446CC48844208D101212B
:10045000042000F02DFB0021042000F029FB46E0E1
:10046000C748844208D10121082000F021FB002167
:10047000082000F01DFB3AE0C248844208D1012167
:10048000102000F015FB0021102000F011FB2EE0E1
:10049000BD48844208D10121202000F009FB002141
:1004A000202000F005FB22E0B848844208D1012159
:1004B000402000F0FDFA0021402000F0F9FA16E09B
:1004C000B348844208D10121802000F0F1FA0021D4
:1004D000802000F0EDFA0AE0AE48844207D1012105
:1004E000801500F0E5FA0021A01500F0E1FA10BD3A
:1004F00010B50121084600F0DBFA0021012000F0D0
:10050000D7FA10BD2DE9F041024600250026002053
:1005100000230024002791F803C00CF00F0591F888
:1005200003C00CF0100CBCF1000F03D091F802C016
:100530004CEA050591F800C0BCF1000F31D01468F9
:1005400000202BE04FF0010C0CFA00F3B1F800C0D2
:100550000CEA03069E4220D183004FF00F0C0CFAE8
:1005600003F7BC4305FA03FC4CEA040491F803C00A
:10057000BCF1280F06D14FF0010C0CFA00FCC2F8B8
:1005800014C00AE091F803C0BCF1480F05D14FF048
:10059000010C0CFA00FCC2F810C0401C0828D1D392
:1005A0001460B1F800C0BCF1FF0F34DD54680020C6
:1005B0002EE000F1080C4FF0010808FA0CF3B1F836
:1005C00000C00CEA03069E4221D183004FF00F0CBD
:1005D0000CFA03F7BC4305FA03FC4CEA040491F857
:1005E00003C0BCF1280F05D100F1080C08FA0CF883
:1005F000C2F8148091F803C0BCF1480F07D100F194
:10060000080C4FF0010808FA0CF8C2F81080401CE2
:100610000828CED35460BDE8F0814FF6FF71018009
:10062000022181700421C170704702460020936846
:100630000B400BB1012000E00020704701468868A4
:1006400080B2704702460020D3680B400BB10120F6
:1006500000E0002070470146C86880B27047016121
:100660007047416170470AB1016100E04161704724
:10067000C16070474FF480320A43826181618261B8
:1006800082698269704702460020434B18684FF622
:100690008073184040EA021008433F4B18607047CF
:1006A0003E49C8617047F0B50A4600230024002186
:1006B000002500F00046B6F1004F02D1364EF16938
:1006C00001E0354E7168C0F3034583B200F4401673
:1006D000B6F5401F08D121F070612F4E766826F0E4
:1006E00070662D4F7E6012E000F48016B6F5801F14
:1006F00006D1032606FA05F4A14341F0706106E035
:10070000460D360103FA06F6B14341F0706122B19D
:10071000460D360103FA06F6314300F00046B6F105
:10072000004F02D11C4EF16101E01B4E7160F0BD23
:1007300030B500228B071C0F0F2303FA04F2164B6F
:1007400008338C1053F824309343134C08348D1025
:1007500044F8253023468C1053F824308C07240F9E
:1007600000FA04F423430C4C08348D1044F825306F
:1007700030BD0A49DC3108607047000000080140C4
:10078000000C01400010014000140140001801401D
:10079000001C0140002001400000014000002042F8
:1007A000DF48006840F00100DD4908600846406805
:1007B000DC490840DA49486008460068DA490840E0
:1007C000D74908600846006820F480200860084681
:1007D000406820F4FE0048604FF41F0088607047B6
:1007E000CF49096821F48031CD4A1160114609686A
:1007F00021F480211160B0F5803F03D0B0F5802F47
:100800000ED106E0C649096841F48031C44A11603E
:1008100007E0C349096841F4A021C14A116000E022
:1008200000BF00BF704710B5014600220023002022
:100830004A11012A02D1BA4C236806E0022A02D1E9
:10084000B74C236A01E0B64C636A01F01F02012431
:1008500094401C400CB1012000E0002010BD38B5D0
:10086000002000900024002500BF3120FFF7DBFFAF
:1008700005460098401C00900098B0F5A06F01D08C
:10088000002DF2D03120FFF7CEFF08B1012400E0A7
:100890000024204638BD01460020A14A106820F0FF
:1008A000F80040EAC10010607047A0490860704736
:1008B000024600209A4B586820F47C1042EA01035B
:1008C0001843974B5860704798490866704701462F
:1008D0000020934A506820F003000843506070479E
:1008E0008F48406800F00C007047014600208C4A99
:1008F000506820F0F0000843506070470146002027
:10090000874A506820F4E060084350607047014611
:100910000020834A506820F4605040EAC1005060D3
:10092000704729B17E4A527A02437D4B5A7204E0E5
:100930007B4A527A82437A4B5A7270477B49D8314C
:100940000860704701460020754A506820F4404016
:100950000843506070470021714A20321170704A7C
:1009600082F82010012802D004280AD104E00121D5
:100970006B4A2032117005E00521694A203211705E
:1009800000E000BF00BF70476949086070476449D4
:10099000096A0143624A1162704765494439086037
:1009A000704730B500210022002400235C4D6D68A3
:1009B00005F00C0121B1042905D0082923D105E057
:1009C0005C4D056022E05B4D05601FE0544D6D6895
:1009D00005F47012524D6D6805F48034022505EB64
:1009E00092421CB9544D554305600BE04C4D6D6867
:1009F00005F400351DB1504D5543056002E04D4DE5
:100A00005543056002E04B4D056000BF00BF444DFB
:100A10006D6805F0F0010909484D6B5C0568DD4023
:100A200045603F4D6D6805F4E061090A434D6B5C1C
:100A30004568DD4085603A4D6D6805F46051C90A2E
:100A40003E4D6B5C4568DD40C560354D6D6805F415
:100A50004041890B3A4D6B5CC568B5FBF3F5056108
:100A600030BD29B12E4A526902432D4B5A6104E030
:100A70002B4A526982432A4B5A61704729B1284A4E
:100A800092690243264B9A6104E0254A92698243A7
:100A9000234B9A61704729B1214AD2690243204B06
:100AA000DA6104E01E4AD26982431D4BDA61704765
:100AB00029B11B4AD2680243194BDA6004E0184A94
:100AC000D2688243164BDA60704729B1144A126922
:100AD0000243134B1A6104E0114A12698243104B1E
:100AE0001A61704712494039086070470F49C8645D
:100AF00070470B49C87170470948406A40F08070E0
:100B000007494862704701460020054A92680A403A
:100B10000AB1012000E00020704701498872704747
:100B2000001002400000FFF8FFFFF6FE0000424206
:100B30008004424200127A0000093D0014000020A7
:100B40002400002010B50446BE48844208D101218B
:100B50008014FFF7ADFF0021A014FFF7A9FF16E0F6
:100B6000B948844208D101210014FFF7AEFF0021EB
:100B70002014FFF7AAFF0AE0B448844207D10121FC
:100B8000C013FFF7A2FF0021E013FFF79EFF10BD87
:100B900010B50022028802F441520B884C8823438E
:100BA0008C882343CC8823430C8923434C892343DB
:100BB0008C892343CC8923431A430280838B4FF2D1
:100BC000FF74234083830B8A038210BD2DE9F04F0D
:100BD00085B005460C464FF0000902274FF000088B
:100BE0004FF0010B0026B246A88B4FF2400108409F
:100BF000A88302202884B5F81C90A068022801D19F
:100C000000BF38E0A08810B94FF0010B01E04FF0B1
:100C1000020B8D48854200D100E000BF6846FFF717
:100C2000C0FEDDF800A0E088B0F5007F0AD14FEAF1
:100C30001A2000EB80004000A168B0FBF1F0401DDD
:100C400086B20BE04FEA4B10BAFBF0F000EB8000ED
:100C50004000A168B0FBF1F0401D86B20A20B6FB4F
:100C6000F0F606F00108A6EB0800C0F34F074FF6B8
:100C7000FF7000EA0828022F01DBFF2F02DD0227A8
:100C80004FF00008E08840EA080038432884A08834
:100C9000A1890843618808432188084340F4006023
:100CA00040EA0909A5F81C9005B0BDE8F08F0021C5
:100CB000018041808180C180018141818181C18128
:100CC0000721018270470021018041808180C1801D
:100CD0000221816000218181704721B1028842F0A8
:100CE0004002028004E002884FF6BF731A4002807F
:100CF000704721B1828B42F48062828304E0828B50
:100D00004FF6FF331A408283704730B5002400232A
:100D10000C110125A540ABB21AB185881D43858011
:100D200002E085889D43858030BD1AB183880B43DE
:100D3000838002E083888B43838070478181704782
:100D40000146888970474FF6FF62914204D00288BD
:100D500042F48072028004E002884FF6FF631A407A
:100D60000280704721B1828842F00402828004E050
:100D700082884FF6FB731A408280704702884FF2D8
:100D8000FF731A40028002880A430280704701887C
:100D900041F480510180704721B1028842F4005231
:100DA000028004E002884DF6FF731A40028070470B
:100DB00002460020012901D0108B00E0908A704784
:100DC0000146088A7047B1F5804F04D1028842F489
:100DD0008042028004E002884BF6FF731A400280D2
:100DE00070470246002013890B400BB1012000E040
:100DF00000207047CA4302817047F0B502460020C8
:100E000000240023002501F00F070126BE40B4B2E4
:100E10000B1101269E40B3B2968806EA0305168997
:100E2000264016B10DB1012000E00020F0BD10B544
:100E3000002201F00F040123A3409AB2D34303819F
:100E400010BD00000030014000380040003C004070
:100E500010B50446FE48844208D10121C014FFF7B2
:100E600027FE0021E014FFF723FEC4E0B4F1804F19
:100E700008D101210846FFF728FE00210120FFF7D5
:100E800024FEB8E0F348844208D101210220FFF794
:100E90001CFE00210220FFF718FEACE0EE48844261
:100EA00008D101210420FFF710FE00210420FFF7E4
:100EB0000CFEA0E0E948844208D101210820FFF798
:100EC00004FE00210820FFF700FE94E0E44884427D
:100ED00008D101211020FFF7F8FD00211020FFF7B5
:100EE000F4FD88E0DF48844208D101212020FFF78B
:100EF000ECFD00212020FFF7E8FD7CE0DA48844289
:100F000008D101214014FFF7D3FD00216014FFF741
:100F1000CFFD70E0D548844209D10121C804FFF714
:100F2000C7FD00214FF40020FFF7C2FD63E0D04869
:100F3000844209D101210805FFF7BAFD00214FF4D1
:100F40008010FFF7B5FD56E0CA48844209D101215F
:100F50004805FFF7ADFD00214FF40010FFF7A8FD95
:100F600049E0C548844208D101214020FFF7ADFD8A
:100F700000214020FFF7A9FD3DE0C048844208D190
:100F800001218020FFF7A1FD00218020FFF79DFDBA
:100F900031E0BB48844208D101218015FFF795FD5F
:100FA0000021A015FFF791FD25E0B648844209D144
:100FB00001210804FFF77CFD00214FF48030FFF78A
:100FC00077FD18E0B048844209D101214804FFF7B9
:100FD0006FFD00214FF40030FFF76AFD0BE0AB48D6
:100FE000844208D101218804FFF762FD00214FF4FB
:100FF0008020FFF75DFD10BD00220288944B9842CF
:101000000ED0994B98420BD0B0F1804F08D0914B45
:10101000984205D0904B984202D0904B984204D110
:101020004FF68F731A404B881A438D4B984207D066
:101030008C4B984204D04FF6FF431A40CB881A439A
:1010400002808B8883850B880385814B98420BD067
:10105000854B984208D08B4B984205D08A4B9842DA
:1010600002D08A4B984201D10B7A038601238382F6
:10107000704770B5002400220023058C4FF6FE76E1
:1010800035400584028C8388048B4FF68F752C4085
:10109000B51E2C400D882C43751E2A400D892A430D
:1010A0004D882A436A4DA8420BD06F4DA84208D004
:1010B000744DA84205D0744DA84202D0734DA84289
:1010C00013D14FF6F7752A404D892A434FF6FB7529
:1010D0002A408D882A434FF6FF652B404FF6FF5577
:1010E0002B408D892B43CD892B4383800483CD886E
:1010F0008586028470BD70B5002400220023058C13
:101100004FF6EF7635400584028C8388048B48F6D1
:10111000FF752C404FF6FF452C400D884FF6FF76AB
:1011200006EA05252C434FF6DF752A400D8906EAAD
:1011300005152A434D8806EA05152A43444DA84261
:1011400002D0494DA8421DD14FF67F752A404D89E6
:101150004FF6FF7606EA05152A434FF6BF752A407B
:101160008D8806EA05152A434FF6FF352B404FF2CE
:10117000FF752B408D8906EA85052B43CD8906EA4C
:1011800085052B4383800483CD880587028470BD49
:1011900070B5002400220023058C4FF6FF66354011
:1011A0000584028C8388848B4FF68F752C404FF614
:1011B000FC752C400D882C434FF6FF552A400D89B5
:1011C0004FF6FF7606EA05252A434D8806EA0525EF
:1011D0002A431F4DA84202D0234DA8421DD14FF2F1
:1011E000FF752A404D894FF6FF7606EA05252A430A
:1011F0004FF6FF352A408D8806EA05252A434EF62C
:10120000FF752B404DF6FF752B408D8906EA0515BD
:101210002B43CD8906EA05152B4383808483CD8833
:101220008587028470BD70B5002200230024058CE0
:101230004EF6FF7635400584038C8488828B48F611
:10124000FF752A404FF6FF452A400D8820E0000038
:10125000002C01400004004000080040000C004049
:10126000001000400014004000340140004C0140D8
:10127000005001400054014000180040001C004094
:10128000002000400040014000440140004801406F
:101290004FF6FF7606EA05252A434DF6FF752B40EB
:1012A0000D8906EA05352B434D8806EA05352B43A3
:1012B000FA4DA84202D0FA4DA84208D14BF6FF756C
:1012C0002C408D894FF6FF7606EA85152C438480E5
:1012D0008283CD88A0F84050038470BD828B4FF28A
:1012E000FF331A408283828B4FF6FF7303EA012398
:1012F0001A4382837047F0B50C4615460022002140
:101300000026078C4EF6FF7C07EA0C070784828BC9
:10131000018C4FF6FF7707EA043640F6FF473A4064
:101320004FF6FF7707EA05273A434FF6FF7707EABC
:1013300003373A43D94FB8420ED0D94FB8420BD0F9
:10134000B0F1804F08D0D74FB84205D0D64FB84241
:1013500002D0D64FB84206D14DF6FF77394046F459
:101360008057394305E047F6FF57394044F480572A
:10137000394382830184F0BD828B4FF6F3731A40A8
:101380008283828B0A4382837047F0B50C461546F0
:10139000002200210026078C4FF6FF6C07EA0C079D
:1013A0000784828B018C4FF6FF7707EA04264FF6FD
:1013B0000C773A404FF6FF7707EA03172F433A437B
:1013C000B64FB8420ED0B64FB8420BD0B0F1804FF6
:1013D00008D0B44FB84205D0B34FB84202D0B34F93
:1013E000B84206D14FF6FF57394046F4807739436B
:1013F00005E04FF2FF57394044F480773943828348
:101400000184F0BD028B4FF2FF331A400283028B3E
:101410004FF6FF7303EA01231A4302837047F0B5C6
:101420000C461546002200210026078C4FF6EF7C63
:1014300007EA0C070784028B018C4FF6FF7707EA57
:10144000041640F6FF473A404FF6FF7707EA0337A6
:101450003A434FF6FF7707EA05273A438F4FB842E2
:101460000ED08F4FB8420BD0B0F1804F08D08D4FC7
:10147000B84205D08C4FB84202D08C4FB84206D14A
:101480004FF6DF77394046F01007394305E04FF655
:101490005F77394044F01007394302830184F0BD7F
:1014A000028B4FF6F3731A400283028B0A430283C6
:1014B0007047F0B50C46154600220021068C4FF609
:1014C000FE773E400684028B018C4FF60C7632404C
:1014D0007E1C06EA03162E433243704EB0420ED0F5
:1014E0006F4EB0420BD0B0F1804F08D06D4EB0427D
:1014F00005D06D4EB04202D06C4EB04206D14FF6D0
:10150000FD76314044F00106314305E04FF6F576B3
:10151000314044F00106314302830184F0BD70B5CF
:1015200005460C465D4885420ED05D4885420BD08D
:10153000B5F1804F08D05B48854205D05A488542B6
:1015400002D05A48854200D100E000BF208850B93F
:101550002389A28861882846FFF7ABFFE1882846E7
:10156000FFF79EFF25E0208804280AD12389A2885E
:1015700061882846FFF753FFE1882846FFF742FFBE
:1015800017E0208808280AD12389A2886188284684
:10159000FFF7FBFEE1882846FFF7EEFE09E023890E
:1015A000A28861882846FFF7A6FEE1882846FFF753
:1015B00095FE70BD2DE9F04105460C460026012739
:1015C000608808B9022600E00026A088012801D121
:1015D000022700E001272088A0B92389A28861881A
:1015E0002846FFF766FFE1882846FFF759FF238961
:1015F0003A4631462846FFF712FFE1882846FFF7B2
:1016000001FF13E02389A28861882846FFF707FFBE
:10161000E1882846FFF7F6FE23893A4631462846F8
:10162000FFF747FFE1882846FFF73AFFBDE8F08162
:101630000A884B881A438B881A43CB881A430B8934
:101640001A434B891A438B891A43A0F844207047E8
:101650004FF6FF71818000210180C18041800172BD
:1016600070470021018041808180C18001814181DA
:101670008181C181704700210180418001218180E9
:101680000021C1800181704700210180418081805B
:10169000C18001814181818170470000002C01409F
:1016A000003401400004004000080040000C0040ED
:1016B00021B1028842F00102028004E002884FF664
:1016C000FE731A400280704731B1B0F8442042F4F2
:1016D0000042A0F8442005E0B0F84420C2F30E0216
:1016E000A0F8442070471AB183890B43838102E03C
:1016F00083898B43838170478182704741EA02036B
:10170000A0F8483070471AB183890B43838102E007
:1017100083898B438381704701894FF6F8721140AA
:10172000018170470A46002101894FF68F731940E5
:1017300011430181704730B504460D4629462046C5
:10174000FFF7F0FF208940F00700208130BD2DE930
:10175000F04104460D4616461F46602D06D13B4615
:10176000012231462046FFF75AFE05E03B460122A2
:1017700031462046FFF79DFE29462046FFF7D2FF5F
:10178000208940F007002081BDE8F08130B50C468B
:1017900000210189C9B24FF6FF7505EA03251543FB
:1017A00025432943018130BD2DE9F04105460E4610
:1017B00017469846002443463A4631462846FFF7E6
:1017C000E5FF2C894FF6F870044044F007044FF60B
:1017D0008F70044044F070042C81BDE8F081F0B5B6
:1017E00004460D4616461F463B46324629462046CD
:1017F000FFF7CCFF208940F480402081F0BD0185B7
:10180000828270470A46002101884FF68F73194083
:10181000114301807047F0B50C4615461E46002165
:10182000002200230189028B038C4FF6F8773940A0
:1018300021434FF6FC473A4040F201173A434FF636
:10184000DD773B404FF6FF7707EA06172F433B4310
:10185000018102830384F0BD0A460021018B4FF60B
:101860008F7319401143018370470A460021018B91
:1018700048F6FF7319404FF6FF7303EA022319433A
:10188000018370470A460021818B4FF68F73194000
:101890001143818370470A460021818B48F6FF730C
:1018A00019404FF6FF7303EA0223194381837047FF
:1018B00021B1028842F08002028004E002884FF6E3
:1018C0007F731A400280704721B1828842F004027F
:1018D000828004E082884FF6FB731A408280704752
:1018E00021B1828842F00802828004E082884FF6AB
:1018F000F7731A408280704721B1828842F001025A
:10190000828004E082884FF6FE731A40828070471E
:101910000A460021018B4FF6F773194011430183EA
:1019200070470A460021018B4FF2FF7319404FF6B2
:10193000FF7303EA02231943018370470A4600211B
:10194000818B4FF6F77319401143818370470A4624
:101950000021818B4FF2FF7319404FF6FF7303EAAA
:1019600002231943818370470A460021018B4FF6F9
:10197000FB7319401143018370470A460021018B14
:101980004FF6FF3319404FF6FF7303EA0223194362
:10199000018370470A460021818B4FF6FB73194083
:1019A0001143818370470A460021818B4FF6FF3334
:1019B00019404FF6FF7303EA0223194381837047EE
:1019C0000A460021018B4FF67F73194011430183B2
:1019D00070470A460021018BC1F30E014FF6FF73D9
:1019E00003EA02231943018370470A460021818BD1
:1019F0004FF67F7319401143818370470A460021D7
:101A0000818BC1F30E014FF6FF7303EA02231943E2
:101A1000818370470A460021018C4FF6FD731940FF
:101A20001143018470470A460021018C4FF6F77379
:101A300019401143018470470A460021018C4FF67A
:101A4000DF7319404FF6FF7303EA02131943018451
:101A500070470A460021018C4FF67F7319404FF6FC
:101A6000FF7303EA02131943018470470A460021F9
:101A7000018C4FF6FF5319404FF6FF7303EA022320
:101A80001943018470470A460021018C4FF2FF730D
:101A900019404FF6FF7303EA02231943018470478C
:101AA0000A460021018C4DF6FF7319404FF6FF7373
:101AB00003EA023319430184704730B5002301243F
:101AC0008C40A3B2048C9C430484048C02FA01F57C
:101AD000ADB22C43048430BD30B5002304248C40C7
:101AE000A3B2048C9C430484048C02FA01F5ADB2C9
:101AF0002C43048430BD70B50346002000241846F2
:101B0000183001258D40ACB21D8CA5431D8409B150
:101B1000082909D100EB6100056825F07005056012
:101B20000568154305600EE00D1FC5F34E052844FA
:101B3000056825F4E045056005684FF6FF7606EA7E
:101B400002263543056070BD21B1028842F00202D1
:101B5000028004E002884FF6FD731A40028070474D
:101B600021B1028842F00402028004E002884FF6AC
:101B7000FB731A400280704721B1828842F08002D4
:101B8000828004E082884FF67F731A40828070471B
:101B900002884FF6F7731A40028002880A430280D7
:101BA000704782884FF68F731A40828082880A437A
:101BB0008280704702894FF6F8731A4002810289C9
:101BC0000A430281704702894FF67F731A400281EF
:101BD00002890A430281704781847047818570477A
:101BE000818670470187704781877047A0F8401051
:101BF000704702884FF6FF431A40028002880A436A
:101C0000028070470146888E70470146088F7047F2
:101C10000146888F70470146B1F840007047014681
:101C2000888C70470146088D704702460020138A51
:101C30000B400BB1012000E000207047CA43028234
:101C4000704730B50246002000230024158A05EABB
:101C50000103958905EA010413B10CB1012000E0EC
:101C6000002030BDCA4302827047000010B5044610
:101C7000FB48844209D101218803FEF719FF0021A6
:101C80004FF48040FEF714FF32E0F648844209D159
:101C900001214804FEF719FF00214FF40030FEF740
:101CA00014FF25E0F048844209D101218804FEF7A1
:101CB0000CFF00214FF48020FEF707FF18E0EB48EF
:101CC000844209D10121C804FEF7FFFE00214FF430
:101CD0000020FEF7FAFE0BE0E548844208D101211E
:101CE0000805FEF7F2FE00214FF48010FEF7EDFE2E
:101CF00010BD2DE9F04786B005460E460024A246E9
:101D000000BFA1460027B08900B100BF2F462C8A32
:101D10004CF6FF700440F08804432C82AC894EF6E8
:101D2000F3100440B08831890843718908430443A3
:101D3000AC81AC8A4FF6FF400440B0890443AC82CA
:101D400001A8FEF72EFEC648874202D1DDF810A09A
:101D500001E0DDF80CA0A88900F4004040B10AEBD6
:101D6000CA0000EB0A1031684900B0FBF1F807E047
:101D70000AEBCA0000EB0A1031688900B0FBF1F8E9
:101D80006420B8FBF0F004012009642101FB1089F4
:101D9000A88900F4004040B1322000EBC900B0FB3C
:101DA000F1F000F00700044308E0322000EB0910D6
:101DB0006421B0FBF1F000F00F0004432C8106B069
:101DC000BDE8F0874FF41651016000218180C18089
:101DD00001810C21418100218181704710B50246AB
:101DE0000020108A4FF2FF0318400B884C882343D1
:101DF0008C882343CC8823431843108210BD0021D4
:101E0000018041808180C180704721B1828942F484
:101E10000052828104E082894DF6FF731A4082816C
:101E20007047F0B50346002400260025002040F648
:101E30006A17B94200D100BF1846C1F3421401F03D
:101E40001F06012707FA06F5012C01D10C3004E02A
:101E5000022C01D1103000E014301AB107682F4372
:101E6000076002E00768AF430760F0BD1AB1838ADC
:101E70000B43838202E0838A8B4383827047028A0A
:101E80004FF6F0731A400282028A0A4302827047B8
:101E900082894FF2FF731A40828182890A438281CC
:101EA000704721B1828942F00202828104E0828976
:101EB0004FF6FD731A4082817047028A4FF6DF7336
:101EC0001A400282028A0A430282704721B1028AC2
:101ED00042F48042028204E0028A4BF6FF731A4009
:101EE00002827047C1F308028280704701468888E9
:101EF000C0F308007047818941F00101818170477A
:101F0000028BD2B20283028B42EA01220283704723
:101F1000028B02F47F420283028B0A4302837047E2
:101F200021B1828A42F02002828204E0828A4FF646
:101F3000DF731A408282704721B1828A42F0100218
:101F4000828204E0828A4FF6EF731A4082827047E1
:101F500021B1828A42F00802828204E0828A4FF62E
:101F6000F7731A408282704721B1828942F400429D
:101F7000828103E08289C2F30E028281704721B11F
:101F8000828A42F40062828204E0828A4FF2FF7306
:101F90001A4082827047828A4FF6FB731A4082820F
:101FA000828A0A438282704721B1828A42F0020209
:101FB000828204E0828A4FF6FD731A408282704763
:101FC00002460020B1F5007F00D100BF13880B400E
:101FD0000BB1012000E00020704701F40072B2F55F
:101FE000007F00D100BFCA430280704770B502462F
:101FF000002400230025002040F66A16B14200D1DB
:1020000000BFC1F3421501F01F03012606FA03F3D6
:10201000012D02D19689334006E0022D02D1168AA5
:10202000334001E0968A33400C12012606FA04F48C
:102030001688344013B10CB1012000E0002070BDBF
:1020400010B50022002340F66A14A14200D100BF5F
:102050000A1201249440A3B2DC43048010BD0000A6
:10206000003801400044004000480040004C00405F
:102070000050004010B50446F748844209D10121C0
:102080004805FEF722FD00214FF40010FEF71DFD6C
:1020900008E001218805FEF718FD00214FF48000BB
:1020A000FEF713FD10BD2DE9F04385B004460D4643
:1020B0000026B1460427DFF8A483A6884FF6C07037
:1020C00006406846FEF76DFCDDF80880E448B8FB82
:1020D000F0F01FFA80F946EA0906A68020884FF63C
:1020E000FE71084020800026DE49286888420CD80E
:1020F00028684000B8FBF0F087B2042F00DA04270C
:102100003E4309F10100208427E0E8884BF6FF7187
:10211000884206D1286800EB4000B8FBF0F087B297
:1021200009E0286800EBC00101EB0010B8FBF0F0FB
:1021300087B247F48047C7F30B0008B947F001079F
:1021400047F4004006434FF4967009FB00F04FF44B
:102150007A7190FBF1F0401C2084A683208840F027
:102160000100208026884FF6F5300640A88869894E
:10217000084306432680A88929890843208105B0A1
:10218000BDE8F08341F288310160002181804BF687
:10219000FF71C1800021018141814FF48041818123
:1021A000704721B1028842F00102028004E00288F7
:1021B0004FF6FE731A400280704721B1828842F4C4
:1021C0000062828004E082884FF2FF731A408280AE
:1021D000704721B1828842F48052828004E0828874
:1021E0004EF6FF731A408280704721B1028842F494
:1021F0008072028004E002884FF6FF631A4002807A
:10220000704721B1028842F40072028004E0028823
:102210004FF6FF531A400280704721B1028842F402
:102220008062028004E002884FF6FF331A40028089
:1022300070470A46002181894FF60173194002F068
:10224000FE0319438181704721B1828942F0010266
:10225000828104E082894FF6FE731A4082817047C2
:1022600021B1028842F04002028004E002884FF669
:10227000BF731A40028070471AB183880B43838072
:1022800002E083888B438380704701827047014658
:10229000088AC0B2704712B141F0010102E04FF666
:1022A000FE7319400182704708B502460020009075
:1022B00000920098084400900098008808BD21B161
:1022C000028842F40042028003E00288C2F30E0258
:1022D00002807047B1F5006F04D1028842F40062B9
:1022E000028004E002884FF2FF731A4002807047B8
:1022F000B1F5005F04D1028842F40052028004E08C
:1023000002884DF6FF731A400280704721B102889F
:1023100042F48052028004E002884EF6FF731A40B5
:1023200002807047B1F5006F04D1028842F4006268
:10233000028004E002884FF2FF731A400280704767
:1023400021B1028842F02002028004E002884FF6A8
:10235000DF731A40028070470146088B00127047F5
:1023600021B1028842F01002028004E002884FF698
:10237000EF731A400280704721B9028842F0800250
:10238000028004E002884FF67F731A400280704793
:10239000B1F5804F05D0828B4BF6FF731A408283D4
:1023A00003E0828B42F480428283704770B502461C
:1023B0000024002500230020958A138B1B0445EA86
:1023C000030626F07F4404EA01068E4201D1012073
:1023D00000E0002070BD10B501460020002300225F
:1023E0008B8A0A8B120443EA020424F07F4010BD5A
:1023F0000CB50246002000230193009300920B0FBE
:10240000019321F07F41019B1BB1009B143300938A
:1024100003E0090C009B18330093009B1B680B40E2
:102420000BB1012000E000200CBD002221F07F4212
:10243000D3438382704730B502460020002394883E
:1024400001F0E06504EA154321F07F41948A0C40D5
:1024500054B14BB1012008E00054004000127A0052
:1024600040420F00A0860100002030BD002221F074
:102470007F42D343838270470E49086070470D49FD
:10248000486070470B49886070474AF6AA2009499E
:10249000086070474CF6CC4006490860704701461A
:1024A0000020044AD2680A400AB1012000E000205E
:1024B000704700000030004010B5A0B00021D04AA5
:1024C000116051609160D16003F050FD044604F04A
:1024D00029FBCB4AC2E9040100219161D16103F0DB
:1024E00028FA044604F043FBC54AC2E9080103F098
:1024F0009FF9044604F03BFBC14AC2E90A010020EF
:10250000106350639063D063106450640021916441
:10251000D164106550659165D16511665166B94801
:10252000B949CDE91E101046416E006ECDE91C017F
:102530001046C16D806DCDE91A011046416D006DE8
:10254000CDE91801B14811461690D1E91201CDE943
:1025500014011046416C006CCDE912011046C16BAC
:10256000806BCDE910011046416B006BCDE90E0187
:102570001146D1E90A01CDE90C011046416A006A11
:10258000CDE90A011146D1E90601CDE9080110465D
:1025900041690069CDE906011046C1688068CDE94E
:1025A0000401104603C8CDE90201994899499A4BA4
:1025B0009A4ACDE900109A499A4804F091FC02F039
:1025C000A7F920B010BD10B545E003F0A7F8964874
:1025D000016896A004F074FC93480068401C92497E
:1025E00008604FF480719248FEF73BF84FF4007199
:1025F0008F48FEF736F84FF480618D48FEF731F8CA
:1026000000F006FF4FF47A7001F034FF864800684E
:10261000242820DD87A004F053FC002082490860B4
:102620008C480068401C8B490860084600680228F6
:1026300011DD89A004F044FC00BF8B48006800F461
:10264000E0608A490843001D87490860BFF3408F56
:1026500000BF00BFFEE7864800680028B5D081A013
:1026600004F02EFC10BD1CB5482001F0E7FE43F637
:102670000951062000F0BAFE00F0C0F900F0F7F9A9
:1026800000F0A5FB03F09EFA00F0FEFE03F031FF20
:1026900003F032FD00F0EEFF01F00EF800F0DAFF7B
:1026A0007449754801F020FB74A004F009FC8048CF
:1026B000C07800907E488378427801787DA004F04D
:1026C000FFFB8348018883A004F0FAFB86A004F096
:1026D000F7FB94A004F0F4FB98A004F0F1FB03F0E6
:1026E000C1FAFFF770FF4FF480715148FDF7B7FF53
:1026F0004FF400714E48FDF7B2FF4FF480614C4833
:10270000FDF7ADFF4FF400714948FDF7AAFF76E0F1
:1027100000F097FEFFF7D0FE03F00CFC3848D0E93C
:10272000084322468DA004F0CBFB3548D0E90A438C
:1027300022468DA004F0C4FB3148D0E90443224670
:102740008BA004F0BDFB8C48006804F010FA04462E
:102750000B468A4803C82246CDE9000188A004F050
:10276000AFFB8D480068022814DD012001F0EBF971
:102770000446214689A004F0A3FB012001F0E3F9FF
:10278000172807D089A004F09BFB4FF480612848EC
:10279000FDF767FF80480068401C7F4908604FF4E0
:1027A0007A7001F067FE4FF47A7001F063FE4FF427
:1027B0007A7001F05FFE00F02BFE4FF47A7001F0AA
:1027C00059FE4FF47A7001F055FE012001F0BBF97B
:1027D000172812D14FF480611548FDF740FF4FF4E0
:1027E00000711348FDF73DFF4FF47A7001F042FE8F
:1027F0004FF400710E48FDF732FF00F009FE87E745
:10280000F80100206C000020670000206300002019
:10281000510000204400002042000020340000202D
:10282000C4770108280400202C0000202025640023
:10283000001801400D0A44484350204745542049A0
:1028400050204661696C2C5761697420526574721E
:10285000790D0A003000002053797374656D2052A1
:10286000657365740D0A00000CED00E00000FA05C8
:10287000C4000020B1000020A900002020B5E7C45A
:10288000D4D7F7CEAA544350B7FECEF1C6F72CC822
:10289000C35735353030D7F7CEAA20544350BFCD7B
:1028A000BBA7B6CBC8A5C1ACBDD320310D0A000073
:1028B0009800002020B7FECEF1C6F7495020323AEA
:1028C00025642E25642E25642E25640D0A00000043
:1028D0009C00002020BCE0CCFDB6CBBFDA20333A10
:1028E0002564200D0A00000020C1ACBDD3B3C9B9D6
:1028F000A6BAF3A3ACB7FECEF1C6F7B7A2CBCDCA4A
:10290000FDBEDDB8F85735353030A3AC573535301E
:1029100030BDABB7B5BBD8B6D4D3A6CAFDBEDD209B
:10292000340D0A0020D3A6D3C3B3CCD0F2D6B4D092
:10293000D0D6D0A1ADA1AD20350D0A0020506C65D8
:1029400061736520576169742061626F757420330B
:1029500030207365636F6E640D0A000072657375D5
:102960006C743D252E3266002C252E32662C00001C
:10297000252E32663B0D0A00480100203001002060
:102980007975616E7368693D252E32662C252E326D
:10299000663B0D0A00000000280000204448435018
:1029A0005F666C61673A2025640D0A0045746865AE
:1029B000726E657420436F6E6E6563742046616944
:1029C0006C2121210D0A0000704700BFFEE700BF07
:1029D000FEE700BFFEE700BFFEE7704770477047A5
:1029E000704710B501218807FFF72BF928B100F0D7
:1029F0000FFF01218807FFF735F910BD00B585B03D
:102A0000012144F20400FEF739F84FF40070ADF8EC
:102A1000100018208DF8130003208DF8120004A96F
:102A20005548FDF76FFD4FF48060ADF810000420AD
:102A30008DF8130004A95048FDF764FD4FF4E13010
:102A400000900020ADF80400ADF80600ADF80800D5
:102A5000ADF80C000C20ADF80A0069464748FFF7B6
:102A600048F901214548FFF7D0F905B000BD00B590
:102A700087B001210805FEF70EF801213020FDF78F
:102A8000FDFF4FF48050ADF8180018208DF81B00A2
:102A900003208DF81A0006A93948FDF733FD0420FC
:102AA000ADF818008DF81B0006A93648FDF72AFD81
:102AB0004FF4165002900020ADF80C00ADF80E0057
:102AC000ADF81000ADF814000C20ADF8120002A90A
:102AD0002D48FFF70EF94FF4A060FDF745FC3520B7
:102AE0008DF8040000208DF805008DF80600012007
:102AF0008DF8070001A8FDF73CFC012240F22551AA
:102B00002148FFF78EF901211F48FFF77EF907B032
:102B100000BD08B540F225511848FFF767FA60B1CB
:102B200020211648FFF759FA1448FFF7DFF9C0B221
:102B300000906946154803F0F5FD08BD70B50446E0
:102B40000D46E1B20D48FFF7CDF900BF40210B481B
:102B5000FFF736FA0028F9D0204670BD10B50446BC
:102B600000BF20210548FFF72BFA0028F9D00348C1
:102B7000FFF7BCF910BD000000080140003801401B
:102B80000010014000140140005000408C0400205F
:102B900000B587B001217420FDF770FF0121080303
:102BA000FDF76CFF2020ADF8040003208DF806002F
:102BB00018208DF8070001A94248FDF7A3FC40202A
:102BC000ADF8040001A93F48FDF79CFC8020ADF85A
:102BD000040001A93B48FDF795FC1020ADF8040066
:102BE0008DF8070001A93748FDF78CFC1020ADF8DF
:102BF00004008DF8070001A93348FDF783FC40F677
:102C00000270ADF8040010208DF8070001A92E48CD
:102C1000FDF778FC4FF480712B48FDF720FD4FF451
:102C200000712948FDF71BFD4FF480612648FDF730
:102C300016FD02212448FDF714FD4FF400612248DF
:102C4000FDF70FFD0020ADF808004FF48270ADF8DD
:102C50000A000020ADF80C000220ADF80E000120A3
:102C6000ADF810004002ADF812000820ADF81400D5
:102C70000020ADF816000720ADF8180002A913488F
:102C8000FDF786FF01211148FEF727F807B000BDC8
:102C900010B5044600BF02210C48FEF7A2F8002838
:102CA000F9D021460948FEF749F800BF012107483D
:102CB000FEF797F80028F9D00448FEF741F8C0B2B3
:102CC00010BD000000080140001801400030014024
:102CD00008B54FF4E060FDF747FB1C208DF80000BD
:102CE00000208DF8010003208DF8020001208DF8EE
:102CF00003006846FDF73DFB08BD0EB501210846FF
:102D0000FDF7C9FE4FF47A70ADF804004720ADF826
:102D100000000020ADF80600ADF8020069464FF053
:102D20008040FEF769F901218807FEF787FF01223D
:102D300011469007FEF7D7FC01218807FEF7B8FC83
:102D400000210120FDF7A7FE0EBD000008B50121FE
:102D50004805FDF7A0FE01210820FDF78FFE402069
:102D6000ADF8000003208DF802001C208DF8030050
:102D70006946FC48FDF7C6FB8020ADF80000032043
:102D80008DF802001C208DF803006946F548FDF718
:102D9000B9FB08BD1FB50020ADF804004BF6FF706D
:102DA000ADF806000A20ADF808004FF48060ADF8D9
:102DB0000A000001ADF80C00EB4800906946EB48B2
:102DC000FFF771F90121E948FFF7EBF91FBD10B5D5
:102DD000FFF7BCFFFFF7DEFF4020E549088010BD8C
:102DE00010B504462146E3A004F06AF8002010BDA7
:102DF00070B504460E4615460121DC48FFF7F5F98B
:102E00004FF48050E849086009E0E7490868411E2E
:102E1000E54A116018B90020FFF7E2FF70BDE349F1
:102E2000D248FFF7C3FA0028EFD000223146CF483E
:102E3000FFF731FA4FF48050DB49086009E0DA49C6
:102E40000868411ED84A116018B90120FFF7C8FF71
:102E5000E4E7D749C548FFF7A9FA0028EFD029468B
:102E6000C248FFF712FA4FF48050CF49086009E0DA
:102E7000CD490868411ECC4A116018B90220FFF7FD
:102E8000AFFFCBE7CA49891CB848FFF78FFA002883
:102E9000EED02178B548FFF7F8F94FF48050C249D9
:102EA000086009E0C0490868411EBF4A116018B9AE
:102EB0000320FFF795FFB1E7BD49891CAB48FFF739
:102EC00075FA0028EED00121A848FFF79AF90120F1
:102ED000A4E770B505460E4614464FF4A030B2493B
:102EE000086009E0B0490868411EAF4A116018B98E
:102EF0000920FFF775FF70BD4FF400319B48FFF7C5
:102F000077FA0028EED101219848FFF76EF94FF4C7
:102F10008050A549086009E0A3490868411EA24AFB
:102F2000116018B90A20FFF75BFFE4E79F498F485B
:102F3000FFF73CFA0028EFD08D48017800228B483B
:102F4000FFF7A9F94FF480509749086009E09649C6
:102F50000868411E944A116018B90B20FFF740FF22
:102F6000C9E793498148FFF721FA0028EFD00121F2
:102F70007E48FFF716F931467C48FFF786F94FF493
:102F800080508949086009E087490868411E864ADF
:102F9000116018B90C20FFF723FFACE78449891CA6
:102FA0007248FFF703FA0028EED001216F48FFF7BF
:102FB0001CF94FF480507C49086009E07A490868A0
:102FC000411E794A116018B90D20FFF709FF92E7F9
:102FD00076496648FFF7EAF90028EFD0644801789F
:102FE00001226248FFF757F94FF480506E4908609C
:102FF00009E06D490868411E6B4A116018B90E203E
:10300000FFF7EEFE77E76949491C5848FFF7CEF90C
:103010000028EED026E0012C07D100215348FFF70D
:10302000FCF801215148FFF7ECF84FF4A0305E495D
:10303000086009E05C490868411E5B4A116018B9E4
:103040000320FFF7CDFE56E758493F314748FFF7C9
:10305000ADF90028EED04548FFF719F928706D1C2E
:10306000601E84B2002CD6D101214048FFF7D5F86C
:10307000012040E72DE9F04105460F4616461C4663
:103080004FF4A030484908600AE047490868411EEB
:10309000454A116020B90920FFF7A2FEBDE8F08182
:1030A0004FF400313148FFF7A3F90028EDD1012199
:1030B0002E48FFF79AF84FF480503B49086009E02A
:1030C00039490868411E384A116018B90A20FFF7CB
:1030D00087FEE3E735492548FFF768F90028EFD078
:1030E000002239462148FFF7D6F84FF480502E4988
:1030F000086009E02C490868411E2B4A116018B984
:103100000B20FFF76DFEC9E729491848FFF74EF974
:103110000028EFD001211548FFF743F83146134846
:10312000FFF7B3F84FF480501F49086009E01E49CB
:103130000868411E1C4A116018B90C20FFF750FEA8
:10314000ACE71B49891C0948FFF730F90028EED08D
:1031500001210648FFF749F84FF4805012490860F2
:1031600032E00000000C0140A08601000054004045
:10317000740000203C3C2D454550524F4D2D45528A
:10318000524F522D3E3E20493243207761697420D0
:1031900074696D6F757420216572726F72436F640C
:1031A00065203D2025640A0078000020010003000E
:1031B0008200070087490868411E864A116018B9D5
:1031C0000D20FFF70DFE69E783498448FFF7EEF80D
:1031D0000028EFD0012239468048FFF75CF84FF411
:1031E00080507C49086009E07A490868411E794AA4
:1031F000116018B90E20FFF7F3FD4FE77649491C1F
:103200007648FFF7D3F80028EED026E0012C07D14E
:1032100000217248FFF701F801217048FEF7F1FF25
:103220004FF4A0306B49086009E06A490868411E04
:10323000684A116018B90320FFF7D2FD2EE76649EE
:103240003F316648FFF7B2F80028EED06348FFF739
:103250001EF828706D1C601E84B2002CD6D101218E
:103260005E48FEF7DAFF012018E708B5002000905D
:1032700000BF01215948FEF7B8FF14215748FFF756
:1032800013F800905648017800225448FFF703F8DD
:1032900014215248FFF708F800F002000028E8D097
:1032A00050494E48FFF7C1F801214C48FEF7A9FFED
:1032B00008BD2DE9F04104460F4615461E464FF461
:1032C000A030444908600AE042490868411E414A6A
:1032D000116020B90420FFF783FDBDE8F0814FF4B1
:1032E00000313E48FFF784F80028EDD101213B482A
:1032F000FEF77BFF4FF480503649086009E03549FE
:103300000868411E334A116018B90520FFF768FDAF
:10331000E3E731493148FFF749F80028EFD00022B0
:1033200039462E48FEF7B7FF4FF480502949086010
:1033300009E028490868411E264A116018B906208C
:10334000FFF74EFDC9E728492448FFF72FF800286A
:10335000EFD029462148FEF798FF4FF480501D49D1
:10336000086009E01B490868411E1A4A116018B933
:103370000720FFF735FDB0E71B49891C1748FFF709
:1033800015F80028EED01AE021781448FEF77DFFEA
:10339000641C4FF480500F49086009E00D4908682B
:1033A000411E0C4A116018B90820FFF719FD94E777
:1033B0000D49891C0948FEF7F9FF0028EED03000BE
:1033C000A6F10101CEB2DFD101210448FEF719FFB9
:1033D000012082E778000020010003000054004033
:1033E00074000020000400108200070070B505463C
:1033F0000C4645F25550FFF73FF82846FFF73FF8D7
:103400002046FFF73FF8FFF740F8FFF743F870BD9D
:1034100010B5FFF73AF810BD2DE9F0410746FDF76A
:10342000BFF972B64FF0006005684468002080F371
:10343000148800BF2846FCF78EFE2646B047BDE83C
:10344000F08110B5154916A003F03AFD18A11348F4
:1034500003F074F9B8B101201849086002F071FF57
:103460004FF47A7001F006F815A003F029FD1D480D
:103470000021018081704FF47A7000F0FBFF4FF063
:103480000060FFF7C9FF10BD10B562B61649C8024B
:10349000FCF7A1FF14481549086010BD8C040020FA
:1034A000726563656976653A2025730D0A00000030
:1034B0005550444154455F41505000007C0000206D
:1034C0002D2D2D2D2D2D2D3E3E204A756D702074F5
:1034D0006F2049415020426F6F746C6F6164657258
:1034E0000D0A0000AA0800200000010808ED00E015
:1034F00010B500240A2000F0BDFF10BD10B50A2051
:1035000000F0DFFF10BD08B5D148D2490A6802605B
:1035100089888180D0490968C0F80610CF490968B8
:10352000C0F80A10CE490968C0F80E10CD490968E4
:10353000C0F81210CC48007810B9CCA003F0C0FC41
:10354000C9480078022825D1FFF7D8FFCF48007876
:10355000D8B9CE484078082817D1CC488078DC28E4
:1035600013D1CBA003F0ACFCB948C849D1F8061080
:10357000C0F80610C549D1F80A10C0F80A10C349AE
:10358000D1F80E10C0F80E1004E0C6A003F098FCAD
:10359000FFF7AEFFB4480078012822D1CF48007869
:1035A000012818D1CEA003F08BFCA948D049D1F84E
:1035B0000610C0F80610CE49D1F80A10C0F80A105B
:1035C000CB49D1F80E10C0F80E10C949D1F812102D
:1035D000C0F8121005E0C7A003F072FCCEA003F003
:1035E0006FFC01209A49887600219948C1760A30FB
:1035F00000F01AFA96480E3000F006FA9448801D42
:1036000000F024FA944800F03CFA9348C078009007
:103610009148837842780178C8A003F051FC8F4824
:1036200000F01DFA8D48C07800908C48837842786D
:103630000178CAA003F044FC894800F0EDF98848FD
:10364000C07800908648837842780178CBA003F058
:1036500037FC08BD10B57E487E490A68026089883B
:10366000818000F0EAF9A2487A490A6802608988F4
:10367000818010BD10B5FFF78BFA01214FF48870DF
:10368000FDF7FCF910BD10B5044624B91021C3485C
:10369000FCF7E7FF05E0012C03D11021BF48FCF740
:1036A000DEFF10BD10B50020FFF7EDFF10BD10B517
:1036B0000120FFF7E8FF10BD10B54FF40041B848F6
:1036C000FCF7CFFF022000F0FCFE4FF40041B448AD
:1036D000FCF7C5FF4FF4C86000F0CCFE10BD10B57C
:1036E00004462046FFF7D4FA10BD70B504460D46D7
:1036F000FFF7D8FFC4F30740FFF7F1FFC4F307203B
:10370000FFF7EDFF04F0F801091DC8B2FFF7E7FF6E
:103710002846FFF7E4FFFFF7CAFF70BD70B5044607
:103720000025FFF7BFFFC4F30740FFF7D8FFC4F33E
:103730000720FFF7D4FF04F0F800FFF7D0FF0020C8
:10374000FFF7CDFF0546FFF7B2FF284670BD2DE914
:10375000F04104460F461546002615B991A003F026
:10376000AFFBFFF79FFFC4F30740FFF7B8FFC4F3B9
:103770000720FFF7B4FF04F0F801091DC8B2FFF7F6
:10378000AEFF002604E0B85DFFF7A9FF701C86B20B
:10379000AE42F8DBFFF78BFF2846BDE8F0812DE94C
:1037A000F04104460F461546002615B97DA003F0EA
:1037B00087FBFFF777FFC4F30740FFF790FFC4F3E1
:1037C0000720FFF78CFF04F0F800FFF788FF0026C2
:1037D00005E00020FFF783FFB855701C86B2AE42AB
:1037E000F7DBFFF764FF2846BDE8F08110B5FFF76F
:1037F00084FAFFF76DFA01210846FDF74CF910BD78
:1038000010B5FFF7F3FF10BD10B5FFF7EFFF10BDC8
:103810006A480068401C6949086008460068B0F5BD
:103820007A7F0BD30020086065480068401C64491B
:10383000086064480078401C62490870704770B5A1
:1038400061A003F03DFB002044682546A84770BDF9
:103850007209002080000020860000208A000020DD
:103860008E000020920000209E00002020CAB9D3C4
:10387000C3B6A8D2E5B5C44950D0C5CFA2C5E4D6D9
:10388000C357353530300D0A000000008E09002086
:103890002049502066726F6D20454550524F4D0DA6
:1038A0000A00000020454550524F4DCEB4C5E4D625
:1038B000C32CCAB9D3C3B6A8D2E5B5C44950D0C544
:1038C000CFA2C5E4D6C357353530302CB2A2D0B420
:1038D000C8EB454550524F4D0D0A00009F00002097
:1038E0002049502066726F6D20444843500D0A00F5
:1038F000F01100202058585844484350D7D3B3CC37
:10390000D0F2CEB4D4CBD0D02CBBF2D5DFB2BBB387
:10391000C9B9A60D0A000000205858585820CAB945
:10392000D3C3B6A8D2E5B5C44950D0C5CFA2C5E42B
:10393000D6C357353530300D0A00000020573535D5
:103940003030204950B5D8D6B72020203A20256401
:103950002E25642E25642E25640D0A00205735354A
:10396000303020D7D3CDF8D1DAC2EB203A2025640D
:103970002E25642E25642E25640D0A00205735352A
:10398000303020CDF8B9D820202020203A202564DE
:103990002E25642E25642E25640D0A0000080140A2
:1039A00000180140556E6578706563746564322057
:1039B0006C656E67746820300D0A0000A00000205E
:1039C000A4000020A800002020CFB5CDB3D6D8C6D3
:1039D000F4D6D0A1ADA1AD0D0A00000010B504468B
:1039E00021460020FFF781FE10BD10B58020FFF7B3
:1039F000F5FF10BD0146DC4830F811007047014664
:103A0000DA4830F81100704710B504460422214608
:103A10009001FFF79CFE10BD10B50446042221461C
:103A20009001FFF7BCFE10BD10B5044604222146EC
:103A30004FF4A060FFF78BFE10BD10B504460622C0
:103A400021464FF41060FFF782FE10BD10B504460A
:103A5000042221464FF47060FFF779FE10BD10B5C7
:103A60000446042221464FF4A060FFF798FE10BDE3
:103A700010B50446062221464FF41060FFF78FFE72
:103A800010BD10B50446042221464FF47060FFF7C4
:103A900086FE10BD10B54FF4A850FFF73FFE10BDD5
:103AA00010B50446210A4FF4C850FFF71EFEE1B2DC
:103AB0004FF4D050FFF719FE10BD10B50446214653
:103AC0004FF4D850FFF711FE10BD70B50446FFF754
:103AD000E1FF60EA0400C5B229464FF4A850FFF7A1
:103AE00004FE70BD70B504460D46290A41F2082255
:103AF00002EB4410FFF7F9FDE9B241F2083202EBA4
:103B00004410FFF7F2FD70BD70B504460D4641F25A
:103B1000086101EB44102946FFF7E7FD70BD10B5C1
:103B200004464FF4027101EB4410FFF7F7FD10BD9E
:103B300070B504460D464FF4027101EB441029465E
:103B4000FFF7D3FD70BD10B504464FF4427101EB91
:103B50004410FFF7E3FD10BD70B5044600250026B4
:103B600000BF42F2080101EB4410FFF7D7FD064603
:103B700042F2081101EB4410FFF7D0FD00EB0620E4
:103B800086B27EB142F2080101EB4410FFF7C6FD98
:103B9000054642F2081101EB4410FFF7BFFD00EBB0
:103BA000052085B2B542DCD1284670BD70B504460B
:103BB0000025002600BF42F2086101EB4410FFF728
:103BC000ADFD064642F2087101EB4410FFF7A6FD79
:103BD00000EB062086B27EB142F2086101EB441090
:103BE000FFF79CFD054642F2087101EB4410FFF718
:103BF00095FD00EB052085B2B542DCD1284670BDAD
:103C00002DE9F04104460F4616460025A8462EB978
:103C1000214657A003F054F9BDE8F08142F2084173
:103C200001EB4410FFF77AFD054642F2085101EB23
:103C30004410FFF773FD00EB052085B2280200EB6E
:103C4000441000F11008324639464046FFF77FFD28
:103C5000A81985B2290A42F2084202EB4410FFF784
:103C600044FDE9B242F2085202EB4410FFF73DFD79
:103C700000BFD1E72DE9F04104460F461646002566
:103C8000A8462EB9214642A003F01AF9BDE8F081FA
:103C900042F6080101EB4410FFF740FD054642F6ED
:103CA000081101EB4410FFF739FD00EB052085B248
:103CB000280200EB441000F118083246394640460D
:103CC000FFF76DFDA81985B2290A42F6080202EB3A
:103CD0004410FFF70AFDE9B242F6081202EB441065
:103CE000FFF703FD00BFD1E72DE9F04105460E4681
:103CF0000027B846002433E0295D41F6087202EB44
:103D00004410FFF7F2FC315D41F6086202EB44100B
:103D1000FFF7EBFC0020154921F81400124921F8A7
:103D20001400B7F5804F07DC285D4FF6FF7101EAFC
:103D300080200E4921F81400B8F5804F07DC305D73
:103D40004FF6FF7101EA8020074921F81400074867
:103D500030F814000744044830F814008044641C10
:103D6000082CC9DBBDE8F081B0090020A0090020C3
:103D700043483A20256420556E6578706563746504
:103D80006431206C656E67746820300D0A00000095
:103D900043483A20256420556E65787065637465E4
:103DA0006432206C656E67746820300D0A00000074
:103DB00010B504464FF4847101EB44101021FFF755
:103DC00094FC00BF4FF4847101EB4410FFF7A6FC94
:103DD0000028F7D14FF4027101EB4410FF21FFF7E7
:103DE00084FC10BD2DE9F04104460D461646984668
:103DF00005F00F0001280FD005F00F0002280BD0AE
:103E000005F00F00032807D005F00F00042803D0A9
:103E100005F00F00052841D12046FFF7C9FF45EA0C
:103E20000801082202EB4410FFF75FFC76B1310A6B
:103E30004FF4816202EB4410FFF757FCF1B24FF4EC
:103E4000A16202EB4410FFF750FC15E0FE48008829
:103E5000401CFD4908800A461288110A4FF481620D
:103E600002EB4410FFF741FCF74A11784FF4A162CE
:103E700002EB4410FFF739FC4FF4847101EB44105E
:103E80000121FFF732FC00BF4FF4847101EB4410B5
:103E9000FFF744FC0028F7D1012700E0002738464F
:103EA000BDE8F08170B504464FF4427101EB441057
:103EB000FFF734FC132811D14FF4847101EB441047
:103EC0000221FFF712FC00BF4FF4847101EB441094
:103ED000FFF724FC0028F7D1012500E00025284643
:103EE00070BD2DE9F04105460C4616462078FF28A6
:103EF00008D16078FF2805D1A078FF2802D1E078AA
:103F0000FF2808D0207828B9607818B9A07808B9B7
:103F1000E07800B10EB900275CE00127217840F677
:103F2000084202EB4510FFF7E0FB617840F60852CB
:103F300002EB4510FFF7D9FBA17840F6086202EBCF
:103F40004510FFF7D2FBE17840F6087202EB45100E
:103F5000FFF7CBFB310A41F2080202EB4510FFF7F5
:103F6000C4FBF1B241F2081202EB4510FFF7BDFBB2
:103F70004FF4847101EB45100421FFF7B6FB00BF3D
:103F80004FF4847101EB4510FFF7C8FB0028F7D10F
:103F900017E04FF4427101EB4510FFF7BFFB172804
:103FA00000D116E02846FFF7BAFD00F0080040B146
:103FB0004FF4027101EB45100821FFF796FB002733
:103FC00007E04FF4427101EB4510FFF7A7FB1528FE
:103FD000DFD100BF3846BDE8F08110B504464FF48C
:103FE000847101EB44100821FFF77FFB00BF4FF401
:103FF000847101EB4410FFF791FB0028F7D110BD4D
:104000002DE9F04704468846164600250027A946B4
:104010002046FFF7F4FCB04204DA2046FFF7EFFC3D
:10402000074600E0374600BF2046FFF795FD814672
:104030004FF4427101EB4410FFF770FB0546172D5A
:1040400003D01C2D01D0002701E0B945ECDB00BFF7
:104050003A4641462046FFF7D3FD4FF4847101EB09
:1040600044102021FFF741FB00BF4FF4847101EBA6
:104070004410FFF753FB0028F7D113E04FF44271CF
:1040800001EB4410FFF74AFB0546172D0AD01C2D03
:1040900008D06EA002F014FF2046FFF789FE002032
:1040A000BDE8F0874FF4027101EB4410FFF736FBD7
:1040B00000F010001028E1D14FF4027101EB441020
:1040C0001021FFF712FB4FF4027101EB4410102195
:1040D000FFF70BFB3846E3E72DE9F04104460E46B7
:1040E00015460027002D15DD2A4631462046FFF7EC
:1040F000C1FD4FF4847101EB44104021FFF7F5FA44
:1041000000BF4FF4847101EB4410FFF707FB002858
:10411000F7D12F463846BDE8F0812DE9F047044637
:10412000894616461D46089F4FF000082046FFF7B7
:1041300066FCB04204DA2046FFF761FC804600E0EE
:10414000B046287828B9687818B9A87808B9E87806
:1041500000B117B94FF0000863E0297840F6084233
:1041600002EB4410FFF7C1FA697840F6085202EBFF
:104170004410FFF7BAFAA97840F6086202EB44103F
:10418000FFF7B3FAE97840F6087202EB4410FFF744
:10419000ACFA390A41F2080202EB4410FFF7A5FA23
:1041A000F9B241F2081202EB4410FFF79EFA4246C0
:1041B00049462046FFF724FD4FF4847101EB44107B
:1041C0002021FFF792FA00BF4FF4847101EB4410F5
:1041D000FFF7A4FA0028F7D112E04FF4027101EBC7
:1041E0004410FFF79BFA00F0080048B14FF4027149
:1041F00001EB44101821FFF778FA0020BDE8F087A2
:104200004FF4027101EB4410FFF788FA00F0100040
:104210001028E2D14FF4027101EB44101021FFF796
:1042200064FA4046EAE72DE9FC5F05468A46914676
:104230001E46DDF8308000270024A346B9F1000FA8
:1042400071DD42F608010BE0BA00002053454E44F0
:104250005F4F4B2050726F626C656D21210D0A001B
:1042600001EB4510FFF75AFA044642F6081101EB3C
:104270004510FFF753FA00EB042084B2200200EB54
:10428000451000F1180B082101EB4510FFF746FA25
:1042900000F00700022804D0032845D0042878D174
:1042A00078E0082269465846FFF779FA04F10800D9
:1042B00084B29DF8000030709DF8010070709DF888
:1042C0000200B0709DF80300F0709DF80400A8F89B
:1042D00000009DF8050098F8001000EB0120A8F8F8
:1042E00000009DF806709DF8070000EB072087B2DC
:1042F000200200EB451000F1180B3A465146584693
:10430000FFF74DFAE01984B2210A42F6080202EBE7
:104310004510FFF7EAF9E1B242F6081202EB451048
:10432000FFF7E3F96AE07AE0062269465846FFF7AC
:1043300036FAA01D84B29DF8000030709DF801008F
:1043400070709DF80200B0709DF80300F0709DF849
:1043500004709DF8050000EB072087B2200200EBF7
:10436000451000F1180B3A4651465846FFF717FA28
:10437000E01984B2210A42F6080202EB4510FFF769
:10438000B4F9E1B242F6081202EB4510FFF7ADF9BD
:1043900034E032E0022269465846FFF700FAA01CDA
:1043A00084B29DF800709DF8010000EB0720801E8C
:1043B00087B240F2EA50874204DD1AA002F080FD85
:1043C00000BFFEE7200200EB451000F1180B3A4653
:1043D00051465846FFF7E3F9E01984B2210A42F644
:1043E000080202EB4510FFF780F9E1B242F608122D
:1043F00002EB4510FFF779F900E000BF00BF4FF472
:10440000847101EB45104021FFF76FF900BF4FF4B5
:10441000847101EB4510FFF781F90028F7D1384688
:10442000BDE8FC9F646174615F6C656E206F7665AA
:104430007220313531340D0A000000004FF0E021C8
:10444000096921F004014FF0E0221161C21700EB6D
:104450005272C2F3C702FE4B1A701946097801EB7B
:104460004102C2EBC1114FF6FF7202EAC101F94AE3
:10447000118070470146F74A12884A434FF0E02303
:104480005A6100229A6101221A6100BF4FF0E022B6
:10449000106900F001021AB100F48032002AF5D050
:1044A00000224FF0E0231A619A61704710B504466C
:1044B00004E04FF47A70FFF7DDFF641E002CF8D1A2
:1044C00010BD0146E24A12784A434FF0E0235A6198
:1044D00000229A6101221A6100BF4FF0E0221069A8
:1044E00000F001021AB100F48032002AF5D0002257
:1044F0004FF0E0231A619A6170470146302905DBCD
:10450000392903DCA1F13000C0B27047612905DB15
:10451000662903DCA1F15700C0B2F6E7412905DBAB
:10452000462903DCA1F13700C0B2EEE70846ECE70C
:1045300030B502460B46002405E012F8010BFFF7E8
:10454000DCFF04FB030410780028F6D1A0B230BDD4
:1045500030B502460B46002405E012F8010BFFF7C8
:10456000CCFF04FB030410780028F6D1204630BDB0
:104570002DE9F04104460D461646701EC7B22022B2
:104580003146284602F0BCF800BF0A2094FBF0F147
:1045900000FB11403030C2B23846791ECFB22A54E7
:1045A0000A2094FBF0F080B2041EEEDCBDE8F0813E
:1045B0002DE9F04104460F46904626460CB120787E
:1045C00010B90020BDE8F0810BE03078FFF795FFCF
:1045D0000546002D03DBBD4201DA761C01E0002018
:1045E000F0E730780028F0D1B9B22046FFF7A0FFFD
:1045F000C8F800000120E5E710B50B46002104E0F3
:10460000445C9C4200D14254491C445C002CF7D1CC
:1046100010BD014600200A06100C40EA1120704728
:10462000014600200806C1F3072240EA0240C1F318
:10463000074240EA022040EA116070472DE9F04746
:1046400081460E4617461D463146484602F076F82A
:104650000446304602F090F804443946204602F001
:104660006DF88246AAEB04001FFA80F84246214604
:10467000284602F075F8002005F80800BDE8F0872C
:104680002DE9F04188B006460F463146684602F0F3
:1046900087F86C4600251BE06FA1204602F08AF8DF
:1046A00004462078302809D16078782806D1102176
:1046B000A01CFFF73DFF00F0FF0805E00A2120469F
:1046C000FFF736FF00F0FF0807F8058000246D1C97
:1046D000042DE1DB08B0BDE8F0811CB504462021C3
:1046E0005E4802F014F8E0B2C4F30721220EC4F3CE
:1046F0000743CDE900105AA1584802F0F1FB574892
:104700001CBD1CB504461021584802F000F8E0B268
:10471000C4F30721220EC4F30743CDE9001054A1CE
:10472000524802F0CDFB51481CBDF0B58FB0064693
:104730000F4601AC314601A802F032F800252AE00C
:1047400045A1204602F036F8044614B900200FB007
:10475000F0BD207830280AD16078782807D10EAAD9
:104760001021A01CFFF724FF48B90020EFE70EAA94
:104770000A212046FFF71CFF08B90020E7E70E9842
:1047800078550E98002802DB0E98FF2801DD0020E6
:10479000DDE700246D1C042DD2DB0120D7E700B536
:1047A00003461846FFF735FF00BD00B5034618461F
:1047B000FFF736FF00BD10B504462046FFF7EFFFB8
:1047C00010BD10B504462046FFF7EFFF10BDF0B551
:1047D00002460D46C5F34F06002400210EE012F8F4
:1047E00011304FF6FF7707EA0323012707EB410754
:1047F000D75D1F44BBB21C444F1CB9B2B142EEDBC3
:1048000005F001071FB112F8113004EB0324A0B228
:1048100000EB1447FF43B8B2F0BDF1B500246D467C
:1048200000BF30E004F5A060FEF778FF295D00EAE4
:10483000010704F57060FEF771FF064604F5A060FD
:10484000FEF76CFF0640B7421CD00120F8BD000007
:10485000BC000020BE0000202E000000C009002087
:1048600025642E25642E25642E256400E009002091
:10487000253033642E253033642E253033642E25C5
:1048800030336400641C042CCCDB0020F8BD000035
:1048900010B500240020FFF756F930B113280CD0D2
:1048A00017280ED01C2831D12CE02023364802884E
:1048B00001210020FFF796FA28E00020FFF7F2FA26
:1048C00024E00020FFF72BF900F0010018B10121CE
:1048D0000020FFF72DF90020FFF768F90446002CAF
:1048E0000FDD224629490020FFF7F6FB002027496B
:1048F000085527A002F0E4FA224624490020FFF7D9
:104900007FFB03E00020FFF753FA00BF00BF10BD9C
:1049100010B50120FFF717F930B1132810D0172870
:1049200015D01C282ED129E0174802880088401C89
:10493000154B1880202301210846FFF753FA21E088
:104940001548028815490120FFF7CBFA1AE001202B
:10495000FFF7E5F800F0010018B101210846FFF764
:10496000E7F80F4801F008FF84B222460C49012005
:10497000FFF746FB03200B49086003E00120FFF727
:1049800017FA00BF00BF10BD96000020F0090020FC
:1049900025730D0A000000009C00002098000020F4
:1049A00028040020C00000200020FE490860FE49C5
:1049B0000860FC480068401DFC4908600020FC4974
:1049C0000870704710B586B0FAA000680590002402
:1049D0004FF40971F848006801F099FE0120F6498A
:1049E00009680870F449096848700620F2490968A6
:1049F00088700020F0490968C870F0480068FFF727
:104A0000D4FEED49096848600020FFF7C8FEEA4976
:104A1000096808814FF40040FFF7C1FEE6490968C4
:104A20004881E74800680078E34909680877E44866
:104A300000684178E04800684177E1480068817883
:104A4000DD4800688177DE480068C178DA48006890
:104A5000C177DB4800680179D748006880F82010EA
:104A6000D74800684179D448006880F82110632253
:104A70002146641CD0480068EC3042548222214612
:104A8000641CCD480068EC30425453222146641C1B
:104A9000C9480068EC30425463222146641CC64871
:104AA0000068EC30425435222146641CC24800683C
:104AB000EC30425401222146641CBF480068EC30AF
:104AC00042542146641CBC480068EC3042543D22EC
:104AD0002146641CB8480068EC3042540722214645
:104AE000641CB5480068EC30425401222146641C25
:104AF000B1480068EC304254B14800680278214661
:104B0000641CAD480068EC304254AD4800684278FF
:104B10002146641CA8480068EC304254A84800684C
:104B200082782146641CA4480068EC304254A448B2
:104B30000068C2782146641C9F480068EC304254EB
:104B40009F48006802792146641C9B480068EC304D
:104B500042549B48006842792046611C8CB29649B9
:104B60000968EC310A540C222046611C8CB292492F
:104B70000968EC310A549248006840799049096804
:104B80000979CDE900108E480068C3788DA28FA105
:104B900002A802F0A5F902A801F0EEFDC2B220467B
:104BA000611C8CB284490968EC310A548249096855
:104BB000EC31081902A901F0F3FD02A801F0DCFDB7
:104BC000204484B237222046611C8CB27A4909689D
:104BD000EC310A5406222046611C8CB276490968E1
:104BE000EC310A5401222046611C8CB272490968DA
:104BF000EC310A5403222046611C8CB26E490968CC
:104C0000EC310A5406222046611C8CB26A490968BC
:104C1000EC310A540F222046611C8CB266490968A7
:104C2000EC310A543A222046611C8CB26249096870
:104C3000EC310A543B222046611C8CB25E49096863
:104C4000EC310A54FF222046611C8CB25A49096893
:104C5000EC310A54432005AB4FF4097200905648DA
:104C600001680320FFF759FA06B010BD10B586B0F1
:104C700000244FF409715048006801F048FD0120FC
:104C80004D49096808704C490968487006204A492E
:104C900009688870002048490968C870474800685A
:104CA000FFF783FD4449096848600020FFF777FD5E
:104CB0004149096808814A480078032807DA4FF417
:104CC0000040FFF76CFD3C490968488109E000207D
:104CD00039490968488138480068424909680968C3
:104CE000C16035480068364909680A68C261898828
:104CF000018463222046611C8CB22F490968EC3183
:104D00000A5482222046611C8CB22B490968EC317E
:104D10000A5453222046611C8CB227490968EC31A1
:104D20000A5463222046611C8CB223490968EC3185
:104D30000A5435222046611C8CB21F490968EC31A7
:104D40000A5401222046611C8CB21B490968EC31CF
:104D50000A5403222046611C8CB217490968EC31C1
:104D60000A543D222046611C8CB213490968EC317B
:104D70000A5407222046611C8CB20F490968EC31A5
:104D80000A5401222046611C8CB20B490968EC319F
:104D90000A540B48006802782046611C8CB2064910
:104DA000096821E0A4000020F8000020F4000020A1
:104DB000ED000020FFFFFFFF0401002000010020A4
:104DC000C80000205735353030000000252E3473E0
:104DD0002D25303258253032582530325800000009
:104DE000EC000020DC000020EC310A54FE48006892
:104DF00042782046611C8CB2FC490968EC310A54A7
:104E0000F948006882782046611C8CB2F74909682D
:104E1000EC310A54F4480068C2782046611C8CB218
:104E2000F2490968EC310A54EF48006802792046DB
:104E3000611C8CB2ED490968EC310A54EA480068FB
:104E400042792046611C8CB2E8490968EC310A5469
:104E5000E748007803286BDA32222046611C8CB2C6
:104E6000E2490968EC310A5404222046611C8CB2E4
:104E7000DE490968EC310A54DE48006802782046B1
:104E8000611C8CB2D9490968EC310A54D9480068D0
:104E900042782046611C8CB2D4490968EC310A542E
:104EA000D448006882782046611C8CB2CF490968DA
:104EB000EC310A54CF480068C2782046611C8CB29D
:104EC000CA490968EC310A5436222046611C8CB26A
:104ED000C6490968EC310A5404222046611C8CB290
:104EE000C2490968EC310A54C34802782046611C63
:104EF0008CB2BE490968EC310A54BF48427820465A
:104F0000611C8CB2B9490968EC310A54BA488278FC
:104F10002046611C8CB2B5490968EC310A54B64888
:104F2000C2782046611C8CB2B0490968EC310A5441
:104F30000C222046611C8CB2AC490968EC310A5441
:104F4000A94800684079A84909680979CDE90010A5
:104F5000A5480068C378AFF29412AFF2901102A88E
:104F600001F0BEFF02A801F007FCC2B22046611C9E
:104F70008CB29E490968EC310A549C490968EC31AD
:104F8000081902A901F00CFC02A801F0F5FB20446D
:104F900084B237222046611C8CB294490968EC31F6
:104FA0000A5408222046611C8CB290490968EC31F1
:104FB0000A5401222146601C84B28C480068EC30FF
:104FC000425403222046611C8CB288490968EC31A6
:104FD0000A5406222046611C8CB284490968EC31CF
:104FE0000A540F222046611C8CB280490968EC31BA
:104FF0000A543A222046611C8CB27C490968EC3183
:105000000A543B222046611C8CB278490968EC3175
:105010000A541F222046611C8CB274490968EC3185
:105020000A5421222146601C84B270480068EC308A
:105030004254FF222146601C84B26C480068EC3068
:1050400042546B480078032804DA042105A801F0D3
:1050500057FB02E0684800680590432005AB4FF419
:1050600009720090614801680320FFF756F806B006
:1050700010BD7CB5054600244FF409715B480068FB
:1050800001F045FB01205949096808705749096832
:1050900048700620554909688870002053490968FE
:1050A000C87056480068FFF780FB5049096848609F
:1050B0000020FFF774FB4D490968088100204B4927
:1050C0000968488149480068474909680A68C26117
:1050D0008988018463222146641C44480068EC30BE
:1050E000425482222146641C40480068EC304254FD
:1050F00053222146641C3D480068EC304254632230
:105100002146641C39480068EC304254352221465F
:10511000641C36480068EC30425401222146641C6D
:1051200032480068EC3042540DB9072200E00422F6
:105130002046611C8CB22D490968EC310A543D228D
:105140002046611C8CB229490968EC310A540722B7
:105150002046611C8CB225490968EC310A540122B1
:105160002046611C8CB221490968EC310A541E4862
:10517000006802782046611C8CB21C490968EC3139
:105180000A541948006842782046611C8CB21749BD
:105190000968EC310A541448006882782046611C82
:1051A0008CB212490968EC310A540F480068C27881
:1051B0002046611C8CB20D490968EC310A540A483A
:1051C000006802792046611C8CB208490968EC31FC
:1051D0000A540548006842792046611C8CB2034994
:1051E0000968EC310A540BE0C800002004010020DB
:1051F000EC000020DC000020E00000200001002086
:1052000036222046611C8CB2FA490968EC310A54F6
:1052100004222046611C8CB2F6490968EC310A541C
:10522000F54802782046611C8CB2F2490968EC31DD
:105230000A54F14842782046611C8CB2ED49096855
:10524000EC310A54EC4882782046611C8CB2E94962
:105250000968EC310A54E848C2782046611C8CB2D7
:10526000E4490968EC310A54002D37D03222204637
:10527000611C8CB2DF490968EC310A5404222046D3
:10528000611C8CB2DB490968EC310A54DB480068C8
:1052900002782046611C8CB2D6490968EC310A5468
:1052A000D648006842782046611C8CB2D149096812
:1052B000EC310A54D148006882782046611C8CB2D7
:1052C000CC490968EC310A54CC480068C2782046C1
:1052D000611C8CB2C7490968EC310A54FF22204690
:1052E000611C8CB2C3490968EC310A5425B1042110
:1052F00001A801F005FA02E0BF48006801904320D0
:1053000001AB4FF409720090BA4801680320FEF720
:1053100004FF7CBD2DE9FF4705464FF0000901A8B9
:1053200002AB2A460090B34801680320FEF77BFFDA
:105330008046B04800680078022803D1BDF8040018
:10534000432803D0002004B0BDE8F0870622AC4813
:105350000168A84800681C3001F015FA40B9A94856
:105360000068FFF722FAA34909684968884201D01A
:105370000020E8E7A048006858B1A34800680299F7
:10538000884206D09C4800680299884201D00020DB
:10539000D9E79A48006897490968096901600027B8
:1053A00094480468F034A8F1F000061951E014F8AC
:1053B000011B33292AD007DC71B1012911D003293F
:1053C00016D0062940D11AE0352906D0362925D035
:1053D000FF2939D13846B6E739E014F8019B277820
:1053E00035E014F8019B89480068216801602EE0CF
:1053F00014F8019B864800682168016027E014F8D2
:10540000019B844800682168016020E014F8019B3A
:105410002068FFF7D6F98049086018E014F8019B6E
:105420007548006848B1784800680299884204D0FD
:10543000714800680299884205D16F48216801606F
:1054400071480299016002E014F8019B00BF00BF9F
:105450004C44B442ABD3002075E710B56F480078D8
:10546000032826DA6E4800686E49096888422AD9FE
:1054700000206B49086008460068401D69490860C3
:1054800066480078401C6549087067480078012824
:1054900004D0022805D0042809D105E0FFF792FACC
:1054A00006E0FFF7E3FB03E0FFF7E0FB00E000BFEF
:1054B00009E0FFF779FA01205C490870FFF782FAEA
:1054C00001205949087010BD08B541F2883000909C
:1054D0004A48112256A103680320FEF71EFE20B1A0
:1054E0000120FFF7C6FD002008BD0120FCE770B5D4
:1054F000054600242846FEF726FB48B12846FEF75D
:1055000055FB061E0DDD3046FFF704FF044608E09C
:105510000023442202210320FEF764FC08B9012085
:1055200070BD41480078052863D2DFE800F0031120
:105530001E39570000203D490870FFF735FAFFF784
:1055400041FA00203F49087001203749087093E074
:10555000022C07D1FFF728FAFFF788FB0220324917
:10556000087001E0FFF779FF86E0052C0DD1FFF709
:105570001BFAFFF7A9FF18B103202B490870CFE7EA
:105580000120294908700420CAE7062C05D1FFF73D
:105590000BFA01202449087001E0FFF75EFF6BE081
:1055A0001D480068401CC0B11D4800681A490968C0
:1055B000B0EB510F11D9002423481049096809683C
:1055C000016010480068401C0E490860FFF74EFB60
:1055D000042015490870FFF7E7F94DE0052C3CD190
:1055E000042206480168184801F0CDF870B3032082
:1055F00096E73DE004010020E0000020DC000020F0
:10560000C800002000010020E4000020CC000020A1
:10561000D0000020D4000020F0000020ED00002089
:10562000A4000020F4000020EC000020EE00002088
:10563000434845434B5F49505F434F4E464C4943B7
:1056400054000000FC000020E8000020FFE7FFF706
:10565000ABF903204E49087009E0062C05D1FFF78D
:10566000A3F901204A49087001E0FFF7F6FE03E0C4
:1056700000204749087000BF00BF46480078012855
:1056800004D1002042490870022049E7002047E782
:10569000414801680068401C3F4A1060B1F57A7FBC
:1056A00007D90020114608603C480068401C3B496F
:1056B000086070471FB500200390394839490860D9
:1056C0003948002101603948016039480160FEF71E
:1056D0008CF903A8FEF7A8F903A8FEF795F903A82B
:1056E000FEF7B4F93348006840793249096809790E
:1056F000304A1268D278CDE9002102902D48006826
:1057000083782C48006842782A48006801782AA0EB
:1057100001F0D6FB00201E4908701FBD10B5002403
:1057200001202E490870FEF76BF82D4800780128FB
:1057300004D1FFF7BFFF0020294908700320FFF7BD
:10574000D6FE044634B1022C05D0032C04D0042C20
:105750001BD10DE01AE019E0012022490870FDF785
:10576000D2FE21A001F0ACFB0120274908600DE02A
:1057700026A001F0A5FB00200549087029A001F032
:105780009FFB00201749087000E000BF00BF10BD5C
:10579000EC000020EE000020F8000020A400002013
:1057A0007856341200010020E8000020E0000020BC
:1057B000E4000020C80000206D61633D2530327890
:1057C0003A253032783A253032783A253032783AF4
:1057D000253032783A253032780D0A009E000020BC
:1057E000FD0000209F00002020D2D1B4D3444843C4
:1057F00050B7FECEF1C6F7B3C9B9A6BBF1B5C349E0
:1058000050B5D8D6B70D0A00C400002020B4D34448
:10581000484350BBF1C8A14950B5D8D6B7CAA7B0C4
:10582000DC0D0A0020D6D8CAD4D6D00D0A0000005C
:105830002DE9F0470223E52280217948FDF71AFC83
:10584000774800787749086008460068642190FB33
:10585000F1F07549086073480068642190FBF1F22B
:1058600001FB12006F4908606D4840786F4908607D
:105870006D4909684FF4C84201FB02F001F052F98A
:105880006B4A03C267490968684A126802EB012043
:1058900001F048F9674A03C265480CC80020664910
:1058A00001F051F804460022644B01F0BEF8604A52
:1058B00003C260480CC800205F4901F044F8044668
:1058C00000225E4B01F0B1F85A4A03C259485849C8
:1058D0000CC803C900F090FF594A03C20022594B7B
:1058E000574903C901F029F8554A03C25448D0E981
:1058F0000010554AC2E90010544A554B504903C99B
:1059000001F021F80646534A534B01F016F80446BD
:105910000022524B00F070FF80460022504B00F0F6
:105920006BFF474A03C2464903C901F033F9BDE89A
:10593000F0872DE9F05F0223E32280214948FDF73B
:1059400099FB48480078000247490860454840787C
:105950004649086044490968444A1268881801F0B9
:10596000DCF8434908600846006801F000F9804609
:10597000404A414B00F0E7FF064600222F4B01F062
:1059800054F8044601F006F93C49086008460068EE
:1059900001F0EDF806463A4A3A4B00F0CEFF0446D5
:1059A00001F0F8F835490860084600683649086093
:1059B0003248006801F0DBF80646344A344B00F008
:1059C000C2FF8046334A344B00F0B7FF04464FF025
:1059D0006632324B00F0B1FF824601F0DBF8274916
:1059E000086008460068BDE8F09F70B5FFF7A1FFAA
:1059F000064601F0BCF8044622460B4628A001F0FA
:105A00005FFAFFF715FF064601F0B1F8044622469B
:105A10000B4627A001F054FA70BD0020704700002B
:105A20000818002008010020100100200C010020AF
:105A3000200100202801002000405F400000F040CD
:105A40001801002000001840300100208DD0E8D05F
:105A500038A8ED3F4669B9EBE11D1A40000010403F
:105A60000000204008160020380100203C010020E2
:105A700044010020D7A3703D0AF765404001002093
:105A8000CDCCCCCCCC6C47404801002076CB0D6D02
:105A90003E39F03FAC1EE6CA9D5C15406666134079
:105AA000726573756C743D252E31662C0000000004
:105AB000252E662C0000000008B540F2255148480C
:105AC000FCF794FA60B120214548FCF786FA444877
:105AD000FCF70CFAC0B200906946424800F022FE82
