:020000040800F2
:1000000080F700206501000871360008733600088B
:10001000773600087B3600087F36000800000000B5
:10002000000000000000000000000000833600080F
:100030008536000800000000873600088936000871
:100040007F0100087F0100087F0100087F01000890
:100050007F0100087F0100087F0100087F01000880
:100060007F0100087F0100087F0100087F01000870
:100070007F0100087F0100087F0100087F01000860
:100080007F0100087F010008974800087F010008F1
:100090007F0100087F0100087F0100087F01000840
:1000A0007F0100087F0100087F0100087F01000830
:1000B0008B3600087F0100087F0100087F010008DF
:1000C0007F0100087F0100087F0100087F01000810
:1000D0007F010008DD420008CF430008F343000819
:1000E0007D5200087F0100087F0100087F010008A1
:1000F0007F0100087F0100087F0100087F010008E0
:100100007F0100087F0100087F0100087F010008CF
:10011000878E00080D4600087F0100087F01000857
:100120007F0100087F0100087F0100087F010008AF
:10013000DFF80CD009F010FE0048004759330008E2
:1001400080F70020EFF30980704780F3098870473B
:10015000EFF30880704780F30888704740BA704713
:10016000C0BA70470648804706480047FEE7FEE7EA
:10017000FEE7FEE7FEE7FEE7FEE7FEE7FEE7FEE757
:1001800067020008310100080CB5002001900090C2
:100190006C48006840F480306A49086000BF6948D4
:1001A000006800F4003000900198401C0190009815
:1001B00018B90198B0F5A06FF1D16248006800F459
:1001C000003010B10120009001E000200090009864
:1001D000012843D15C48006840F010005A4908608B
:1001E0000846006820F0030008600846006840F0F8
:1001F0000200086053484068524948600846406819
:1002000048600846406840F480604860084640689E
:1002100020F47C1048600846406840F4E8104860CC
:100220000846006840F08070086000BF45480068DC
:1002300000F000700028F9D04248406820F0030028
:10024000404948600846406840F00200486000BFEE
:100250003C48406800F00C000828F9D10CBD10B5EE
:10026000FFF792FF10BD10B53648006840F001005E
:1002700034490860084640683449084031494860BC
:1002800008460068324908402E4908600846006860
:1002900020F4802008600846406820F4FE00486092
:1002A0004FF41F008860FFF7DAFF4FF00060294924
:1002B000086010BD10B5002100200022214B5B68B2
:1002C00003F00C0121B1042906D0082928D107E048
:1002D000214B224C236027E01F4B204C236023E05E
:1002E000184B5B6803F47010164B5B6803F48032A4
:1002F000022303EB904022B9194B4343174C236070
:100300000DE0104B5B6803F4003323B1144B4343FF
:10031000124C236003E0104B4343104C236003E076
:100320000D4B0E4C236000BF00BF064B5B68C3F350
:1003300003130C4CE15C094B1B68CB40074C23605A
:1003400010BD000000100240002002400000FFF835
:10035000FFFFF6FE08ED00E000127A00000000202A
:1003600000093D000400002031490143314A116079
:10037000704770B5002100230F22C47804B32D4CC0
:10038000246804F4E064C4F5E064210AC1F10403C4
:10039000CA40447804FA03F18478144021430901E7
:1003A000254C0678A155047804F01F050124AC40C3
:1003B00005786D11AD0005F1E025C5F8004109E0B3
:1003C000047804F01F050124AC401C4D067876111A
:1003D00045F8264070BD1A4A0A400243154B1B1FC0
:1003E0001A60704739B1134A121D12680243114B4B
:1003F0001B1D1A6006E00F4A121D126882430D4B46
:100400001B1D1A607047042808D14FF0E0210969CC
:1004100041F004014FF0E022116107E04FF0E021CC
:10042000096921F004014FF0E022116170470000DA
:100430000000FA050CED00E000E400E080E100E0DF
:1004400080FFFF1F002044490860091D0860091D46
:100450000860091D086041483F4914310860704731
:1004600000213D498279002A3AD00A461268036881
:100470009A430B461A600A1D126803689A430B1DC3
:100480001A60027911440A6803681A430A60324A02
:100490000832126803689A432F4B08331A601A1DFA
:1004A000126803689A432C4B0C331A604279102A65
:1004B0000ED11A1F126803681A43274B08331A60BB
:1004C0001A1D126803681A43234B0C331A600DE09F
:1004D0002149427911440A6803681A430A6005E019
:1004E000027911440A6803689A430A607047002140
:1004F000016001710C214171002181717047164921
:10050000103109680143144A1032116070470146E6
:100510000020114A143212680A400AB1012000E09A
:10052000002070470C4914310860704701460020D4
:100530000022094B1B6803EA0102074B14331B68B6
:100540000B4013B10AB1012000E0002070470249BE
:10055000143108607047000000040140FFFF0F00E5
:1005600010B50446CC48844208D10121042000F093
:100570002DFB0021042000F029FB46E0C7488442FF
:1005800008D10121082000F021FB0021082000F003
:100590001DFB3AE0C248844208D10121102000F03E
:1005A00015FB0021102000F011FB2EE0BD48844215
:1005B00008D10121202000F009FB0021202000F0BB
:1005C00005FB22E0B848844208D10121402000F018
:1005D000FDFA0021402000F0F9FA16E0B348844209
:1005E00008D10121802000F0F1FA0021802000F0E4
:1005F000EDFA0AE0AE48844207D10121801500F0EF
:10060000E5FA0021A01500F0E1FA10BD10B50121B6
:10061000084600F0DBFA0021012000F0D7FA10BDF7
:100620002DE9F04102460025002600200023002489
:10063000002791F803C00CF00F0591F803C00CF0EF
:10064000100CBCF1000F03D091F802C04CEA050574
:1006500091F800C0BCF1000F31D0146800202BE0ED
:100660004FF0010C0CFA00F3B1F800C00CEA0306DD
:100670009E4220D183004FF00F0C0CFA03F7BC43CD
:1006800005FA03FC4CEA040491F803C0BCF1280FFE
:1006900006D14FF0010C0CFA00FCC2F814C00AE0BD
:1006A00091F803C0BCF1480F05D14FF0010C0CFAD2
:1006B00000FCC2F810C0401C0828D1D31460B1F867
:1006C00000C0BCF1FF0F34DD546800202EE000F1C3
:1006D000080C4FF0010808FA0CF3B1F800C00CEA5E
:1006E00003069E4221D183004FF00F0C0CFA03F752
:1006F000BC4305FA03FC4CEA040491F803C0BCF1C6
:10070000280F05D100F1080C08FA0CF8C2F8148083
:1007100091F803C0BCF1480F07D100F1080C4FF06D
:10072000010808FA0CF8C2F81080401C0828CED343
:100730005460BDE8F0814FF6FF71018002218170A5
:100740000421C17070470246002093680B400BB132
:10075000012000E0002070470146886880B27047A1
:1007600002460020D3680B400BB1012000E00020BE
:1007700070470146C86880B27047016170474161A7
:1007800070470AB1016100E041617047C160704784
:100790004FF480320A438261816182618269826999
:1007A000704702460020434B18684FF6807318408C
:1007B00040EA021008433F4B186070473E49C86149
:1007C0007047F0B50A46002300240021002500F000
:1007D0000046B6F1004F02D1364EF16901E0354EC8
:1007E0007168C0F3034583B200F44016B6F5401FAC
:1007F00008D121F070612F4E766826F070662D4F7B
:100800007E6012E000F48016B6F5801F06D1032644
:1008100006FA05F4A14341F0706106E0460D360189
:1008200003FA06F6B14341F0706122B1460D36017C
:1008300003FA06F6314300F00046B6F1004F02D14C
:100840001C4EF16101E01B4E7160F0BD30B500221D
:100850008B071C0F0F2303FA04F2164B08338C107E
:1008600053F824309343134C08348D1044F825304A
:1008700023468C1053F824308C07240F00FA04F41C
:1008800023430C4C08348D1044F8253030BD0A4900
:10089000DC3108607047000000080140000C014096
:1008A000001001400014014000180140001C0140EC
:1008B000002001400000014000002042DF480068A5
:1008C00040F00100DD49086008464068DC49084006
:1008D000DA49486008460068DA490840D7490860A4
:1008E0000846006820F4802008600846406820F42C
:1008F000FE0048604FF41F0088607047CF490968C8
:1009000021F48031CD4A11601146096821F480211B
:100910001160B0F5803F03D0B0F5802F0ED106E016
:10092000C649096841F48031C44A116007E0C349EF
:10093000096841F4A021C14A116000E000BF00BF76
:10094000704710B501460022002300204A11012AF9
:1009500002D1BA4C236806E0022A02D1B74C236ABE
:1009600001E0B64C636A01F01F02012494401C4070
:100970000CB1012000E0002010BD38B5002000902F
:100980000024002500BF3120FFF7DBFF054600985B
:10099000401C00900098B0F5A06F01D0002DF2D05F
:1009A0003120FFF7CEFF08B1012400E000242046EB
:1009B00038BD01460020A14A106820F0F80040EA46
:1009C000C10010607047A0490860704702460020CF
:1009D0009A4B586820F47C1042EA01031843974B65
:1009E0005860704798490866704701460020934A4E
:1009F000506820F003000843506070478F484068FB
:100A000000F00C007047014600208C4A506820F02E
:100A1000F00008435060704701460020874A506844
:100A200020F4E06008435060704701460020834A8C
:100A3000506820F4605040EAC1005060704729B10E
:100A40007E4A527A02437D4B5A7204E07B4A527AC4
:100A500082437A4B5A7270477B49D831086070479D
:100A600001460020754A506820F440400843506019
:100A700070470021714A20321170704A82F82010AC
:100A8000012802D004280AD104E001216B4A203257
:100A9000117005E00521694A2032117000E000BFA5
:100AA00000BF70476949086070476449096A01439B
:100AB000624A11627047654944390860704730B531
:100AC00000210022002400235C4D6D6805F00C011C
:100AD00021B1042905D0082923D105E05C4D05602A
:100AE00022E05B4D05601FE0544D6D6805F4701207
:100AF000524D6D6805F48034022505EB92421CB915
:100B0000544D554305600BE04C4D6D6805F40035C0
:100B10001DB1504D5543056002E04D4D55430560F4
:100B200002E04B4D056000BF00BF444D6D6805F00D
:100B3000F0010909484D6B5C0568DD4045603F4D9B
:100B40006D6805F4E061090A434D6B5C4568DD4062
:100B500085603A4D6D6805F46051C90A3E4D6B5C85
:100B60004568DD40C560354D6D6805F44041890B31
:100B70003A4D6B5CC568B5FBF3F5056130BD29B135
:100B80002E4A526902432D4B5A6104E02B4A5269A6
:100B900082432A4B5A61704729B1284A926902431D
:100BA000264B9A6104E0254A92698243234B9A615D
:100BB000704729B1214AD2690243204BDA6104E02F
:100BC0001E4AD26982431D4BDA61704729B11B4A24
:100BD000D2680243194BDA6004E0184AD2688243B3
:100BE000164BDA60704729B1144A12690243134B5D
:100BF0001A6104E0114A12698243104B1A6170476E
:100C000012494039086070470F49C86470470B4962
:100C1000C87170470948406A40F0807007494862CF
:100C2000704701460020054A92680A400AB1012037
:100C300000E00020704701498872704700100240B0
:100C40000000FFF8FFFFF6FE00004242800442422F
:100C500000127A0000093D0014000020240000204A
:100C600010B50446BE48844208D101218014FFF724
:100C7000ADFF0021A014FFF7A9FF16E0B948844298
:100C800008D101210014FFF7AEFF00212014FFF767
:100C9000AAFF0AE0B448844207D10121C013FFF73C
:100CA000A2FF0021E013FFF79EFF10BD10B5002248
:100CB000028802F441520B884C8823438C882343DA
:100CC000CC8823430C8923434C8923438C892343B9
:100CD000CC8923431A430280838B4FF2FF74234055
:100CE00083830B8A038210BD2DE9F04F85B0054642
:100CF0000C464FF0000902274FF000084FF0010B9F
:100D00000026B246A88B4FF240010840A88302207B
:100D10002884B5F81C90A068022801D100BF38E0F3
:100D2000A08810B94FF0010B01E04FF0020B8D4885
:100D3000854200D100E000BF6846FFF7C0FEDDF845
:100D400000A0E088B0F5007F0AD14FEA1A2000EB3E
:100D500080004000A168B0FBF1F0401D86B20BE0BE
:100D60004FEA4B10BAFBF0F000EB80004000A168A6
:100D7000B0FBF1F0401D86B20A20B6FBF0F606F09B
:100D80000108A6EB0800C0F34F074FF6FF7000EA1A
:100D90000828022F01DBFF2F02DD02274FF0000899
:100DA000E08840EA080038432884A088A1890843E5
:100DB000618808432188084340F4006040EA09093B
:100DC000A5F81C9005B0BDE8F08F0021018041809E
:100DD0008180C180018141818181C181072101829E
:100DE00070470021018041808180C18002218160A3
:100DF00000218181704721B1028842F040020280C7
:100E000004E002884FF6BF731A400280704721B198
:100E1000828B42F48062828304E0828B4FF6FF3340
:100E20001A408283704730B5002400230C1101253D
:100E3000A540ABB21AB185881D43858002E0858844
:100E40009D43858030BD1AB183880B43838002E0C7
:100E500083888B43838070478181704701468889EE
:100E600070474FF6FF62914204D0028842F48072CC
:100E7000028004E002884FF6FF631A400280704748
:100E800021B1828842F00402828004E082884FF619
:100E9000FB731A408280704702884FF2FF731A403A
:100EA000028002880A4302807047018841F4805121
:100EB0000180704721B1028842F40052028004E0B0
:100EC00002884DF6FF731A400280704702460020E8
:100ED000012901D0108B00E0908A70470146088AF2
:100EE0007047B1F5804F04D1028842F480420280FD
:100EF00004E002884BF6FF731A40028070470246F6
:100F0000002013890B400BB1012000E00020704746
:100F1000CA4302817047F0B5024600200024002336
:100F2000002501F00F070126BE40B4B20B110126C7
:100F30009E40B3B2968806EA03051689264016B18C
:100F40000DB1012000E00020F0BD10B5002201F03D
:100F50000F040123A3409AB2D343038110BD0000C4
:100F60000030014000380040003C004010B504460D
:100F7000FE48844208D10121C014FFF727FE00215A
:100F8000E014FFF723FEC4E0B4F1804F08D1012143
:100F90000846FFF728FE00210120FFF724FEB8E0F5
:100FA000F348844208D101210220FFF71CFE0021F2
:100FB0000220FFF718FEACE0EE48844208D1012180
:100FC0000420FFF710FE00210420FFF70CFEA0E034
:100FD000E948844208D101210820FFF704FE0021DE
:100FE0000820FFF700FE94E0E448844208D1012184
:100FF0001020FFF7F8FD00211020FFF7F4FD88E036
:10100000DF48844208D101212020FFF7ECFD0021B8
:101010002020FFF7E8FD7CE0DA48844208D1012176
:101020004014FFF7D3FD00216014FFF7CFFD70E0FF
:10103000D548844209D10121C804FFF7C7FD00212A
:101040004FF40020FFF7C2FD63E0D048844209D18D
:1010500001210805FFF7BAFD00214FF48010FFF7CA
:10106000B5FD56E0CA48844209D101214805FFF781
:10107000ADFD00214FF40010FFF7A8FD49E0C54881
:10108000844208D101214020FFF7ADFD002140201E
:10109000FFF7A9FD3DE0C048844208D1012180202E
:1010A000FFF7A1FD00218020FFF79DFD31E0BB4847
:1010B000844208D101218015FFF795FD0021A0157C
:1010C000FFF791FD25E0B648844209D101210804CB
:1010D000FFF77CFD00214FF48030FFF777FD18E02B
:1010E000B048844209D101214804FFF76FFD002177
:1010F0004FF40030FFF76AFD0BE0AB48844208D1A3
:1011000001218804FFF762FD00214FF48020FFF7E2
:101110005DFD10BD00220288944B98420ED0994B81
:1011200098420BD0B0F1804F08D0914B984205D037
:10113000904B984202D0904B984204D14FF68F7357
:101140001A404B881A438D4B984207D08C4B9842DB
:1011500004D04FF6FF431A40CB881A4302808B8895
:1011600083850B880385814B98420BD0854B984231
:1011700008D08B4B984205D08A4B984202D08A4BBC
:10118000984201D10B7A038601238382704770B5A0
:10119000002400220023058C4FF6FE76354005849E
:1011A000028C8388048B4FF68F752C40B51E2C4023
:1011B0000D882C43751E2A400D892A434D882A43E9
:1011C0006A4DA8420BD06F4DA84208D0744DA8427A
:1011D00005D0744DA84202D0734DA84213D14FF6EA
:1011E000F7752A404D892A434FF6FB752A408D88B2
:1011F0002A434FF6FF652B404FF6FF552B408D8954
:101200002B43CD892B4383800483CD88858602843C
:1012100070BD70B5002400220023058C4FF6EF76D8
:1012200035400584028C8388048B48F6FF752C407A
:101230004FF6FF452C400D884FF6FF7606EA052550
:101240002C434FF6DF752A400D8906EA05152A431F
:101250004D8806EA05152A43444DA84202D0494D5F
:10126000A8421DD14FF67F752A404D894FF6FF7673
:1012700006EA05152A434FF6BF752A408D8806EA0F
:1012800005152A434FF6FF352B404FF2FF752B40D3
:101290008D8906EA85052B43CD8906EA85052B4312
:1012A00083800483CD880587028470BD70B50024D7
:1012B00000220023058C4FF6FF6635400584028C22
:1012C0008388848B4FF68F752C404FF6FC752C402D
:1012D0000D882C434FF6FF552A400D894FF6FF76B7
:1012E00006EA05252A434D8806EA05252A431F4DAF
:1012F000A84202D0234DA8421DD14FF2FF752A40CB
:101300004D894FF6FF7606EA05252A434FF6FF354D
:101310002A408D8806EA05252A434EF6FF752B40A4
:101320004DF6FF752B408D8906EA05152B43CD89B7
:1013300006EA05152B4383808483CD888587028444
:1013400070BD70B5002200230024058C4EF6FF7698
:1013500035400584038C8488828B48F6FF752A40CB
:101360004FF6FF452A400D8820E00000002C014088
:101370000004004000080040000C00400010004045
:101380000014004000340140004C01400050014076
:101390000054014000180040001C004000200040A4
:1013A0000040014000440140004801404FF6FF76F4
:1013B00006EA05252A434DF6FF752B400D8906EAFE
:1013C00005352B434D8806EA05352B43FA4DA842D7
:1013D00002D0FA4DA84208D14BF6FF752C408D89FA
:1013E0004FF6FF7606EA85152C4384808283CD88EC
:1013F000A0F84050038470BD828B4FF2FF331A4037
:101400008283828B4FF6FF7303EA01231A438283A0
:101410007047F0B50C461546002200210026078CC7
:101420004EF6FF7C07EA0C070784828B018C4FF68F
:10143000FF7707EA043640F6FF473A404FF6FF775A
:1014400007EA05273A434FF6FF7707EA03373A439F
:10145000D94FB8420ED0D94FB8420BD0B0F1804F1F
:1014600008D0D74FB84205D0D64FB84202D0D64F99
:10147000B84206D14DF6FF77394046F480573943DC
:1014800005E047F6FF57394044F4805739438283DB
:101490000184F0BD828B4FF6F3731A408283828BF6
:1014A0000A4382837047F0B50C461546002200219E
:1014B0000026078C4FF6FF6C07EA0C070784828B27
:1014C000018C4FF6FF7707EA04264FF60C773A4077
:1014D0004FF6FF7707EA03172F433A43B64FB84258
:1014E0000ED0B64FB8420BD0B0F1804F08D0B44FF9
:1014F000B84205D0B34FB84202D0B34FB84206D17C
:101500004FF6FF57394046F48077394305E04FF2F4
:10151000FF57394044F48077394382830184F0BD1A
:10152000028B4FF2FF331A400283028B4FF6FF7398
:1015300003EA01231A4302837047F0B50C461546AF
:10154000002200210026078C4FF6EF7C07EA0C07EB
:101550000784028B018C4FF6FF7707EA041640F6EA
:10156000FF473A404FF6FF7707EA03373A434FF613
:10157000FF7707EA05273A438F4FB8420ED08F4FC7
:10158000B8420BD0B0F1804F08D08D4FB84205D093
:101590008C4FB84202D08C4FB84206D14FF6DF775D
:1015A000394046F01007394305E04FF65F77394080
:1015B00044F01007394302830184F0BD028B4FF6DB
:1015C000F3731A400283028B0A4302837047F0B51B
:1015D0000C46154600220021068C4FF6FE773E4051
:1015E0000684028B018C4FF60C7632407E1C06EA94
:1015F00003162E433243704EB0420ED06F4EB042AF
:101600000BD0B0F1804F08D06D4EB04205D06D4E7A
:10161000B04202D06C4EB04206D14FF6FD7631405A
:1016200044F00106314305E04FF6F576314044F0D1
:101630000106314302830184F0BD70B505460C46B6
:101640005D4885420ED05D4885420BD0B5F1804F94
:1016500008D05B48854205D05A48854202D05A4896
:10166000854200D100E000BF208850B92389A288BC
:1016700061882846FFF7ABFFE1882846FFF79EFF09
:1016800025E0208804280AD12389A2886188284679
:10169000FFF753FFE1882846FFF742FF17E0208855
:1016A00008280AD12389A28861882846FFF7FBFE13
:1016B000E1882846FFF7EEFE09E02389A2886188C9
:1016C0002846FFF7A6FEE1882846FFF795FE70BD85
:1016D0002DE9F04105460C4600260127608808B92F
:1016E000022600E00026A088012801D1022700E0A0
:1016F00001272088A0B92389A28861882846FFF79E
:1017000066FFE1882846FFF759FF23893A463146AC
:101710002846FFF712FFE1882846FFF701FF13E094
:101720002389A28861882846FFF707FFE1882846B9
:10173000FFF7F6FE23893A4631462846FFF747FF72
:10174000E1882846FFF73AFFBDE8F0810A884B8818
:101750001A438B881A43CB881A430B891A434B8947
:101760001A438B891A43A0F8442070474FF6FF7143
:10177000818000210180C180418001727047002179
:10178000018041808180C180018141818181C1814D
:101790007047002101804180012181800021C180AA
:1017A000018170470021018041808180C1800181D9
:1017B0004181818170470000002C014000340140CC
:1017C0000004004000080040000C004021B10288E5
:1017D00042F00102028004E002884FF6FE731A40D4
:1017E0000280704731B1B0F8442042F40042A0F8C2
:1017F000442005E0B0F84420C2F30E02A0F84420D3
:1018000070471AB183890B43838102E083898B433C
:10181000838170478182704741EA0203A0F8483013
:1018200070471AB183890B43838102E083898B431C
:101830008381704701894FF6F8721140018170472A
:101840000A46002101894FF68F7319401143018127
:10185000704730B504460D4629462046FFF7F0FF95
:10186000208940F00700208130BD2DE9F041044679
:101870000D4616461F46602D06D13B4601223146D5
:101880002046FFF75AFE05E03B460122314620463E
:10189000FFF79DFE29462046FFF7D2FF208940F042
:1018A00007002081BDE8F08130B50C460021018998
:1018B000C9B24FF6FF7505EA0325154325432943B1
:1018C000018130BD2DE9F04105460E461746984688
:1018D000002443463A4631462846FFF7E5FF2C8967
:1018E0004FF6F870044044F007044FF68F70044040
:1018F00044F070042C81BDE8F081F0B504460D463B
:1019000016461F463B46324629462046FFF7CCFF87
:10191000208940F480402081F0BD0185828270479B
:101920000A46002101884FF68F7319401143018048
:101930007047F0B50C4615461E46002100220023D4
:101940000189028B038C4FF6F877394021434FF61B
:10195000FC473A4040F201173A434FF6DD773B40EF
:101960004FF6FF7707EA06172F433B4301810283B7
:101970000384F0BD0A460021018B4FF68F73194096
:101980001143018370470A460021018B48F6FF731B
:1019900019404FF6FF7303EA02231943018370478E
:1019A0000A460021818B4FF68F73194011438183C2
:1019B00070470A460021818B48F6FF7319404FF6A5
:1019C000FF7303EA022319438183704721B1028820
:1019D00042F08002028004E002884FF67F731A40D2
:1019E0000280704721B1828842F00402828004E0C4
:1019F00082884FF6FB731A408280704721B182883B
:101A000042F00802828004E082884FF6F7731A40A1
:101A10008280704721B1828842F00102828004E016
:101A200082884FF6FE731A40828070470A46002172
:101A3000018B4FF6F77319401143018370470A4633
:101A40000021018B4FF2FF7319404FF6FF7303EA39
:101A500002231943018370470A460021818B4FF608
:101A6000F77319401143818370470A460021818B27
:101A70004FF2FF7319404FF6FF7303EA0223194335
:101A8000818370470A460021018B4FF6FB73194092
:101A90001143018370470A460021018B4FF6FF3343
:101AA00019404FF6FF7303EA02231943018370477D
:101AB0000A460021818B4FF6FB7319401143818345
:101AC00070470A460021818B4FF6FF3319404FF6CD
:101AD000FF7303EA02231943818370470A460021FA
:101AE000018B4FF67F7319401143018370470A46FB
:101AF0000021018BC1F30E014FF6FF7303EA0223AD
:101B00001943018370470A460021818B4FF67F738A
:101B100019401143818370470A460021818BC1F32C
:101B20000E014FF6FF7303EA0223194381837047C6
:101B30000A460021018C4FF6FD73194011430184C0
:101B400070470A460021018C4FF6F7731940114384
:101B5000018470470A460021018C4FF6DF7319405B
:101B60004FF6FF7303EA02131943018470470A46D4
:101B70000021018C4FF67F7319404FF6FF7303EA83
:101B800002131943018470470A460021018C4FF665
:101B9000FF5319404FF6FF7303EA022319430184F0
:101BA00070470A460021018C4FF2FF7319404FF62F
:101BB000FF7303EA02231943018470470A46002198
:101BC000018C4DF6FF7319404FF6FF7303EA0233A1
:101BD00019430184704730B5002301248C40A3B21F
:101BE000048C9C430484048C02FA01F5ADB22C43AE
:101BF000048430BD30B5002304248C40A3B2048C8F
:101C00009C430484048C02FA01F5ADB22C43048495
:101C100030BD70B503460020002418461830012559
:101C20008D40ACB21D8CA5431D8409B1082909D192
:101C300000EB6100056825F0700505600568154337
:101C400005600EE00D1FC5F34E052844056825F418
:101C5000E045056005684FF6FF7606EA0226354343
:101C6000056070BD21B1028842F00202028004E0EA
:101C700002884FF6FD731A400280704721B1028836
:101C800042F00402028004E002884FF6FB731A401F
:101C90000280704721B1828842F08002828004E095
:101CA00082884FF67F731A408280704702884FF611
:101CB000F7731A40028002880A43028070478288C4
:101CC0004FF68F731A40828082880A438280704761
:101CD00002894FF6F8731A40028102890A43028191
:101CE000704702894FF67F731A40028102890A43C6
:101CF0000281704781847047818570478186704773
:101D00000187704781877047A0F8401070470288AC
:101D10004FF6FF431A40028002880A430280704750
:101D20000146888E70470146088F70470146888FAC
:101D300070470146B1F8400070470146888C7047F3
:101D40000146088D704702460020138A0B400BB1F4
:101D5000012000E000207047CA430282704730B57E
:101D60000246002000230024158A05EA0103958914
:101D700005EA010413B10CB1012000E0002030BDE0
:101D8000CA4302827047000010B50446FB488442F3
:101D900009D101218803FEF719FF00214FF480408B
:101DA000FEF714FF32E0F648844209D101214804CD
:101DB000FEF719FF00214FF40030FEF714FF25E075
:101DC000F048844209D101218804FEF70CFF00216C
:101DD0004FF48020FEF707FF18E0EB48844209D15A
:101DE0000121C804FEF7FFFE00214FF40020FEF79A
:101DF000FAFE0BE0E548844208D101210805FEF710
:101E0000F2FE00214FF48010FEF7EDFE10BD2DE92B
:101E1000F04786B005460E460024A24600BFA14604
:101E20000027B08900B100BF2F462C8A4CF6FF7006
:101E30000440F08804432C82AC894EF6F310044031
:101E4000B08831890843718908430443AC81AC8A66
:101E50004FF6FF400440B0890443AC8201A8FEF76E
:101E60002EFEC648874202D1DDF810A001E0DDF861
:101E70000CA0A88900F4004040B10AEBCA0000EBB6
:101E80000A1031684900B0FBF1F807E00AEBCA001C
:101E900000EB0A1031688900B0FBF1F86420B8FB50
:101EA000F0F004012009642101FB1089A88900F4E5
:101EB000004040B1322000EBC900B0FBF1F000F06F
:101EC0000700044308E0322000EB09106421B0FB56
:101ED000F1F000F00F0004432C8106B0BDE8F0875C
:101EE0004FF41651016000218180C18001810C21D5
:101EF000418100218181704710B502460020108A7F
:101F00004FF2FF0318400B884C8823438C882343EF
:101F1000CC8823431843108210BD002101804180EA
:101F20008180C180704721B1828942F40052828150
:101F300004E082894DF6FF731A4082817047F0B544
:101F40000346002400260025002040F66A17B94207
:101F500000D100BF1846C1F3421401F01F0601274B
:101F600007FA06F5012C01D10C3004E0022C01D156
:101F7000103000E014301AB107682F43076002E008
:101F80000768AF430760F0BD1AB1838A0B438382B1
:101F900002E0838A8B4383827047028A4FF6F07394
:101FA0001A400282028A0A430282704782894FF2F3
:101FB000FF731A40828182890A438281704721B16E
:101FC000828942F00202828104E082894FF6FD7329
:101FD0001A4082817047028A4FF6DF731A400282EC
:101FE000028A0A430282704721B1028A42F4804287
:101FF000028204E0028A4BF6FF731A4002827047A5
:10200000C1F308028280704701468888C0F3080047
:102010007047818941F0010181817047028BD2B202
:102020000283028B42EA012202837047028B02F490
:102030007F420283028B0A430283704721B1828A66
:1020400042F02002828204E0828A4FF6DF731A4057
:102050008282704721B1828A42F01002828204E0BB
:10206000828A4FF6EF731A408282704721B1828ACA
:1020700042F00802828204E0828A4FF6F7731A4027
:102080008282704721B1828942F40042828103E05A
:102090008289C2F30E028281704721B1828A42F4A2
:1020A0000062828204E0828A4FF2FF731A408282C9
:1020B0007047828A4FF6FB731A408282828A0A43F3
:1020C0008282704721B1828A42F00202828204E059
:1020D000828A4FF6FD731A408282704702460020C2
:1020E000B1F5007F00D100BF13880B400BB1012078
:1020F00000E00020704701F40072B2F5007F00D1CB
:1021000000BFCA430280704770B502460024002316
:102110000025002040F66A16B14200D100BFC1F38D
:10212000421501F01F03012606FA03F3012D02D127
:102130009689334006E0022D02D1168A334001E031
:10214000968A33400C12012606FA04F416883440AD
:1021500013B10CB1012000E0002070BD10B50022C9
:10216000002340F66A14A14200D100BF0A120124E4
:102170009440A3B2DC43048010BD0000003801404D
:102180000044004000480040004C00400050004027
:1021900010B50446F748844209D101214805FEF7ED
:1021A00022FD00214FF40010FEF71DFD08E0012183
:1021B0008805FEF718FD00214FF48000FEF713FD9F
:1021C00010BD2DE9F04385B004460D460026B1460A
:1021D0000427DFF8A483A6884FF6C070064068463F
:1021E000FEF76DFCDDF80880E448B8FBF0F01FFA5C
:1021F00080F946EA0906A68020884FF6FE7108405D
:1022000020800026DE49286888420CD828684000D3
:10221000B8FBF0F087B2042F00DA04273E4309F13F
:102220000100208427E0E8884BF6FF71884206D140
:10223000286800EB4000B8FBF0F087B209E028689E
:1022400000EBC00101EB0010B8FBF0F087B247F4DF
:102250008047C7F30B0008B947F0010747F4004077
:1022600006434FF4967009FB00F04FF47A7190FB2F
:10227000F1F0401C2084A683208840F001002080DB
:1022800026884FF6F5300640A8886989084306433A
:102290002680A88929890843208105B0BDE8F083FC
:1022A00041F288310160002181804BF6FF71C180CD
:1022B0000021018141814FF480418181704721B12A
:1022C000028842F00102028004E002884FF6FE73A9
:1022D0001A400280704721B1828842F400628280F5
:1022E00004E082884FF2FF731A408280704721B168
:1022F000828842F48052828004E082884EF6FF7326
:102300001A408280704721B1028842F480720280B4
:1023100004E002884FF6FF631A400280704721B143
:10232000028842F40072028004E002884FF6FF53F4
:102330001A400280704721B1028842F48062028014
:1023400004E002884FF6FF331A40028070470A46C5
:10235000002181894FF60173194002F0FE031943F1
:102360008181704721B1828942F00102828104E0BB
:1023700082894FF6FE731A408281704721B102882C
:1023800042F04002028004E002884FF6BF731A4018
:10239000028070471AB183880B43838002E08388F0
:1023A0008B4383807047018270470146088AC0B220
:1023B000704712B141F0010102E04FF6FE7319407F
:1023C0000182704708B502460020009000920098F4
:1023D000084400900098008808BD21B1028842F4AA
:1023E0000042028003E00288C2F30E0202807047BE
:1023F000B1F5006F04D1028842F40062028004E06B
:1024000002884FF2FF731A4002807047B1F5005FF7
:1024100004D1028842F40052028004E002884DF6A2
:10242000FF731A400280704721B1028842F4805243
:10243000028004E002884EF6FF731A400280704763
:10244000B1F5006F04D1028842F40062028004E01A
:1024500002884FF2FF731A400280704721B1028850
:1024600042F02002028004E002884FF6DF731A4037
:10247000028070470146088B0012704721B1028824
:1024800042F01002028004E002884FF6EF731A4017
:102490000280704721B9028842F08002028004E085
:1024A00002884FF67F731A4002807047B1F5804F63
:1024B00005D0828B4BF6FF731A40828303E0828B38
:1024C00042F480428283704770B5024600240025A2
:1024D00000230020958A138B1B0445EA030626F08F
:1024E0007F4404EA01068E4201D1012000E0002071
:1024F00070BD10B501460020002300228B8A0A8B94
:10250000120443EA020424F07F4010BD0CB50246D9
:10251000002000230193009300920B0F019321F000
:102520007F41019B1BB1009B1433009303E0090C16
:10253000009B18330093009B1B680B400BB10120DC
:1025400000E000200CBD002221F07F42D3438382B3
:10255000704730B5024600200023948801F0E06502
:1025600004EA154321F07F41948A0C4054B14BB1E9
:10257000012008E00054004000127A0040420F00A1
:10258000A0860100002030BD002221F07F42D3430D
:10259000838270470E49086070470D494860704754
:1025A0000B49886070474AF6AA20094908607047BD
:1025B0004CF6CC4006490860704701460020044AAA
:1025C000D2680A400AB1012000E0002070470000F4
:1025D0000030004010B50446FA48844208D1012179
:1025E0004015FEF7F3FA00216015FEF7EFFA17E049
:1025F000F548844208D101210015FEF7E7FA0021D1
:102600002015FEF7E3FA0BE0F048844208D10121DF
:10261000C803FEF7DBFA00214FF40040FEF7D6FABC
:1026200010BD30B50246002000235068E84C204021
:102630000D790C6844EA0524204350609068E54C0D
:102640002040D1E902542C434D7944EA450420430B
:102650009060D06A20F470000C7C641EE4B22343C6
:1026600040EA0350D06230BD002101600171417128
:102670008160C16001210174704721B1826842F01C
:102680000102826003E0826822F0010282607047EA
:1026900021B1826842F48072826003E0826822F491
:1026A00080728260704710B50023CBB21AB14468C3
:1026B0001C43446002E044689C43446010BD816850
:1026C00041F0080181607047014600208A6802F0ED
:1026D00008020AB1012000E000207047816841F043
:1026E000040181607047014600208A6802F00402FC
:1026F0000AB1012000E00020704721B1826842F455
:10270000A002826003E0826822F4A0028260704727
:10271000014600208A6802F480020AB1012000E02C
:102720000020704710B50A4600210023416821F4BB
:102730006041531E41EA4331416010BD21B14268FE
:1027400042F40062426003E0426822F400624260A8
:102750007047F0B504460D4600200021092D11DD1B
:10276000E068A5F10A0606EB4607072606FA07F118
:102770008843A5F10A0606EB460603FA06F108436C
:10278000E0600CE0206905EB4507072606FA07F133
:10279000884305EB450603FA06F108432061072A42
:1027A0000FDA606B561E06EB86071F2606FA07F146
:1027B0008843561E06EB860605FA06F10843606359
:1027C00022E00D2A0FDA206BD61F06EB86071F26A4
:1027D00006FA07F18843D61F06EB860605FA06F1CE
:1027E0000843206310E0E06AA2F10D0606EB8607BD
:1027F0001F2606FA07F18843A2F10D0606EB8606AE
:1028000005FA06F10843E062F0BD21B1826842F4A6
:102810008012826003E0826822F480128260704736
:102820000146C86C80B2704766484C3000687047FB
:1028300021B1426842F48062426003E0426822F4BF
:1028400080624260704721B1426842F48052426027
:1028500003E0426822F48052426070470A46002139
:10286000816821F4E04111438160704721B18268A1
:1028700042F40042826003E0826822F400428260F7
:10288000704721B1826842F40212826003E08268DC
:1028900022F4021282607047014600208A6802F426
:1028A00000120AB1012000E000207047F0B5044694
:1028B0001546002000220026092911DDE068A1F15B
:1028C0000A0707EB470C072707FA0CF29043A1F120
:1028D0000A0707EB470703FA07F21043E0600CE032
:1028E000206901EB410C072707FA0CF2904301EB3A
:1028F000410703FA07F210432061A06BC0F30156B1
:10290000EF1C06F1010CA7EB0C0707EB870C1F2748
:1029100007FA0CF29043EF1C06F1010CA7EB0C0731
:1029200007EB870701FA07F21043A063F0BD10B56B
:102930000A4600210023816B21F44011531E41EA15
:102940000351816310BD08B5002300930090009BE4
:102950000B440093009B1A6008BD08B50246002096
:102960000090009201F12800009B1844009000980C
:10297000006880B208BD0A4600214168164B194024
:102980001143416070474162826270470A460021EC
:10299000416821F01F0111434160704740B109496E
:1029A0000831096841F40001064A0832116007E065
:1029B00004490831096821F40001024A0832116013
:1029C000704700000024014000280140003C014005
:1029D000FFFEF0FFFDF7F1FFFFFD3FFF0246002085
:1029E00013680B400BB1012000E000207047CA4380
:1029F0000260704770B502460020002300240B12CD
:102A00005568CEB205EA060415681D4015B10CB133
:102A1000012000E0002070BD00220A12D3430360B1
:102A20007047000010B545E004F0CAFEF2480168A6
:102A3000F2A007F0CFF9F0480068401CEE490860AA
:102A40004FF48071EE48FDF79AFE4FF40071EC48A8
:102A5000FDF795FE4FF48061E948FDF790FE01F027
:102A60005DFA4FF47A7003F057FDE34800682428BC
:102A700020DDE4A007F0AEF90020DF490860E94856
:102A80000068401CE749086008460068022811DD1C
:102A9000E5A007F09FF900BFE748006800F4E06098
:102AA000E6490843001DE4490860BFF34F8F00BFAB
:102AB00000BFFEE7E24800680028B5D0DDA007F0BF
:102AC00089F910BD08B502F03CFE02F05CFE02F090
:102AD00028FE02F07FFDDB49DB4803F057F9DBA05D
:102AE00007F078F9E648C0780090E54883784278A6
:102AF0000178E4A007F06EF9E8480188E8A007F043
:102B000069F9EBA007F066F9F8A007F063F9FCA0FB
:102B100007F060F94FF48071B948FDF72EFE4FF4CD
:102B20000071B748FDF729FE4FF48061B448FDF706
:102B300024FE4FF40071B248FDF721FE08BD10B528
:102B40004021F748FDF71BFE4FF48061F548FDF783
:102B500016FE4FF4FA7003F0DFFC4021F048FDF759
:102B60000CFE4FF48061EF48FDF707FE10BD10B575
:102B7000A2B00121EC48FDF700FEEC48D0E90010BE
:102B8000EB4AC2E90010EB48D0E90010C2E902109C
:102B9000E948006806F044FFE54AC2E90401002163
:102BA0009161D16106F029FA044606F039FFE04A46
:102BB000C2E9080106F0AEF9044606F031FFDC4A2E
:102BC000C2E90A0105F00AFE044606F0BFFED84A33
:102BD000C2E90C0105F0CCFD044606F0B7FED44A6C
:102BE000C2E90E01D548D0E91010C2E91010D3484F
:102BF000D0E91210C2E91210D148D0E90010C2E9A0
:102C0000141005F035FD044606F0A0FEC84AC2E9DE
:102C10001601002010665066CA48CB49CDE9201045
:102C20001146D1E91801CDE91E011146D1E916017D
:102C3000CDE91C011046416D006DCDE91A01C34874
:102C400011461890D1E91201CDE916011146D1E9DA
:102C50001001CDE914011146D1E90E01CDE91201AF
:102C60001146D1E90C01CDE910011146D1E90A0163
:102C7000CDE90E011146D1E90801CDE90C0110465C
:102C8000C1698069CDE90A011146D1E90401CDE9A4
:102C900008011046C1688068CDE90601114603C9E4
:102CA000CDE90401AA48AB49AB4AAC4BCDE90021C0
:102CB0000290AB4AAB49AC4807F09CF8AA49ABA0DC
:102CC00007F088F803F078FE6421A74806F033FC8B
:102CD000ABA2B5A1A44807F08DF803F06DFE642106
:102CE000A14806F028FC22B010BD10B50A24AFA1FF
:102CF000B14806F037FC002823D0B0A007F06AF8EE
:102D000003E04FF47A7003F007FC201EA4F10101E8
:102D1000CCB2F6D1AE48007801280AD0AC48007891
:102D2000032806D0AA480078072802D0A9A007F0F7
:102D300051F80020A64908704FF480619E4806F0C3
:102D4000FAFB10BD10B5A9A19B4806F00BFC20B101
:102D5000A9A007F03FF804F088FF10BD10B5ACA1A2
:102D6000954806F0FFFB10B1ACA007F033F810BD9A
:102D700010B5B0A1904806F0F5FB20B1B0A007F067
:102D800029F801F0CFFC10BD10B5B2A18A4806F0B9
:102D9000E9FB30B1B2A007F01DF8B6A1B8A002F06F
:102DA00013F810BD10B5B9A1834806F0DBFB20B1C4
:102DB000B9A007F00FF805F077FB10BD10B503249C
:102DC000BAA17D4806F0CEFB002813D0BBA007F0C7
:102DD00001F804E0FFF7CBFEC82003F09DFB201EA6
:102DE000A4F10101CCB2F5D1012002F0FEFE1728BA
:102DF00001D06FE175E171E12C0000202025640015
:102E0000001801400D0A44484350204745542049CA
:102E100050204661696C2C57616974205265747248
:102E2000790D0A003000002053797374656D2052CB
:102E3000657365740D0A00000CED00E00000FA05F2
:102E4000C4010020AD010020A50100200D0AB5E756
:102E5000C4D4D7F7CEAA544350B7FECEF1C6F72C50
:102E6000C8C35735353030D7F7CEAA20544350BFAA
:102E7000CDBBA7B6CBC8A5C1ACBDD30D0A00000021
:102E800092010020B7FECEF1C6F749503A25642ED4
:102E900025642E25642E25640D0A0000960100206D
:102EA000BCE0CCFDB6CBBFDA3A2564200D0A0000A9
:102EB000C1ACBDD3B3C9B9A6BAF3A3ACB7FECEF1CA
:102EC000C6F7B7A2CBCDCAFDBEDDB8F85735353051
:102ED00030A3AC5735353030BDABB7B5BBD8B6D461
:102EE000D3A6CAFDBEDD0D0A00000000D3A6D3C3E1
:102EF000B3CCD0F2D6B4D0D0D6D00D0A00000000AA
:102F0000506C6561736520576169742061626F75EB
:102F100074203333207365636F6E640D0A00000004
:102F20000010014000140140000C01405803002033
:102F300000040020A0000020C80000203807002066
:102F400050030020830000207E0000207A00002033
:102F5000590200205E010020590000204F0000208F
:102F60004A000020E0AB0008D00600200D0A4461B2
:102F700074612053656E643A25730D0A00000000E9
:102F80000D0A2D2D2D2D2D2D2D2D2D3E3E3E3E3E5F
:102F90003E2045746865726E657420544553542014
:102FA0004F4B0D0A00000000257300005445535498
:102FB000234B45592A000000F60700202D2D2D3EF9
:102FC0003E3E4B455920544553540D0A0000000025
:102FD0007D0100202D2D2D3E3E3E4B657920544530
:102FE0005354204641494C0D0A00000054455354A7
:102FF00023464C4153482A000D0A2D2D2D3E3E3EBE
:10300000464C41534820544553540D0A00000000DB
:10301000544553542355534152542A000D0A2D2D23
:103020002D3E3E3E55534152542054455354204F5B
:103030004B0D0A00544553542342542A000000000B
:103040000D0A2D2D2D3E3E3E425420544553540D25
:103050000A0000005445535423574946492A0000AA
:103060000D0A2D2D2D3E3E3E5749464920544553CD
:10307000540D0A005A515751415A31323300000061
:103080004D616465696E4368696E610054455354CF
:10309000234949432A0000000D0A2D2D2D3E3E3EB6
:1030A00049494320544553540D0A00005445535494
:1030B0002345544845524E45542A00000D0A2D2DF3
:1030C0002D3E3E3E45746865726E657420544553CE
:1030D000540D0A00F1A006F07DFE02E0F6A006F015
:1030E00079FE10BD70B505460E46FAA006F072FED8
:1030F00000240FE0295DF9A006F06CFE295DF84878
:10310000FEF77EFF00BF8021F548FEF7E7FF0028AD
:10311000F9D0641CB442EDDBE6A006F05BFE70BDA6
:1031200010B5F048006858B3EE480068132827D857
:10313000ED48006835284BD105F084FD044606F0C3
:1031400005FCEA4A03C205F09AFE044606F0FEFBBF
:10315000E74A03C20022E74BE54903C906F007FB33
:10316000E54A03C20721E548FFF7BCFF0020E44918
:103170000860E4490860E4490860DB49086027E02A
:10318000D9480068B0F58C7F22D105F05BFD04467C
:1031900006F0DCFBD54A03C205F071FE044606F0DA
:1031A000D5FBD34A03C20022D24BD14903C906F052
:1031B000DEFAD14A03C20721D048FFF793FF00206F
:1031C000CF490860CF490860CF490860C649086008
:1031D00010BD2DE9F05F4FF0030ACCA1CF4806F0F7
:1031E000C1F900287DD08EE005F02CFD044606F0E4
:1031F000ADFBBE4A03C205F042FE044606F0A6FB44
:10320000BB4A03C2C6A006F0E5FDCC48D0E908439E
:103210002246CBA006F0DEFDC849D1E90A4322468A
:10322000CAA006F0D7FD05F0A6FA06F04AF98346D3
:1032300006F08CFB8046C84AC84B06F098FA064652
:10324000C74AC84B06F0ECF9044606F015FCC6491F
:1032500008600846006806F0E3FB0446C04AC14B1C
:1032600006F0F2FB02D10020BF490860BE480068AA
:1032700006F0D6FB044622460B46BCA006F0AAFD8B
:103280009A480CC8BCA006F0A5FD99480CC8BDA082
:1032900006F0A0FD01F025FBBD4A03C2BC480CC8E6
:1032A000BCA006F097FD2021BE48FDF74CFA01288E
:1032B00008D1BDA006F08EFD0020BE49BE4AC2E97D
:1032C000100106E0BDA006F085FD0021BA4A116498
:1032D00051641021B348FDF736FA01280AD1BAA08B
:1032E00000E018E006F076FD0020B249B24AC2E9DB
:1032F000120106E0B7A006F06DFD0020AE4A906412
:10330000D064FFF734FCBAF10000AAF1010101F02A
:10331000FF0A7FF469AFBDE8F09F10B5B0A17F4808
:1033200006F020F920B1B2A006F054FD04F049FEE9
:1033300010BD10B5B5A006F04DFD00F008FE00F080
:103340003DFE00F066FEB648007820B102F085F838
:103350000020B349087010BDFCF785FF00F06EFF38
:1033600000F0EBFF01F057F801F0A4F801F0E8F8E5
:10337000AC49ADA006F02EFDADA006F02BFD482017
:1033800003F0AEF805F056FA02F09DF801F011FBDB
:1033900000F0A7FA04F07FFEAFF2A43006F01AFDA9
:1033A00004F063FC04F00DFE04F017FE40F6354116
:1033B000062000F0A1FD05F0FCFE05F07DF9FFF709
:1033C000BEFB0A2003F0C4F800F0A8FD0121444828
:1033D000FEF7A9FD07214948FFF784FE0021404878
:1033E000FEF7A1FD012240F225513D48FEF7A7FD61
:1033F00001213B48FEF797FDAFF2BC3006F0EAFC36
:1034000001F090F9AFF2703006F0E4FC05F04CF8F2
:10341000AFF2583006F0DEFCFFF754FB3CE08A4880
:10342000007820B989480078401C8849087087488E
:10343000007802280AD18448007838B978480078A2
:1034400020B900208149087005F018FBFFF74DFCFA
:10345000FFF778FCFFF78CFCFFF796FCFFF77EFC8C
:10346000FFF7A0FCFFF7AAFCFFF73FFCFFF7B1FE58
:10347000FFF753FF04F0E3FD4FF48061274806F0A7
:103480005AF800F04BFD724806F0A4FC71A006F05B
:10349000A1FC012003F05CF8C1E700002D2D2D3EBA
:1034A0003E3E45746865726E6574205445535420E1
:1034B0004641494C0D0A00002D2D2D3E3E3E4574DF
:1034C0006865726E65742054455354204F4B0D0A45
:1034D00000000000636F6D6D616E64002025780050
:1034E000004C004008030020680300205003002027
:1034F000580300200000244090000020B800002065
:10350000640300204003002060030020544553540E
:103510002353454E534F522A00000000F607002067
:103520000D0A2D2D2D2D2D2D2D2D3E3E3E53656E3C
:10353000736F722056616C75650D0A0000040020DF
:1035400054656D703D252E32660D0A0048756D6913
:103550003D252E32660D0A0052B81E85EB51F23F12
:10356000295C8FC2F5084740C80000204C75783AA6
:10357000252E32660D0A0000504D322E353D252E87
:10358000660D0A00447573743D252E660D0A000011
:10359000A0000020736F756E643D252E32660D0A03
:1035A00000000000001001404D6F74696F6E313DE6
:1035B000310D0A000000F03F380700204D6F74699C
:1035C0006F6E313D300D0A004D6F74696F6E323D84
:1035D000310D0A004D6F74696F6E323D300D0A0077
:1035E00041542B524541445F4554484D41432300CB
:1035F0002D2D2D3E3E3E52656164204574686572F6
:103600006E6574204D41430D0A0000002A2A2A2AC3
:103610002A2A2A2A2A2A2A2A2A2A0D0A00000000EF
:10362000780100204F00002049443A25730D0A001C
:103630002D2D2D3E3E3E555341525420544553545A
:10364000204F4B0D0A000000B0000020AC0000200D
:1036500070AB0008576169742052656365697665CF
:10366000205465737420436F6D6D616E640D0A00A4
:10367000704700BFFEE700BFFEE700BFFEE700BFE8
:10368000FEE7704770477047704710B50121880703
:10369000FEF765FB28B102F022F901218807FEF749
:1036A0006FFB10BD00B587B001217420FDF774FADF
:1036B00001210803FDF770FA2020ADF80400032073
:1036C0008DF8060018208DF8070001A94248FCF784
:1036D000A7FF4020ADF8040001A93F48FCF7A0FF78
:1036E0008020ADF8040001A93B48FCF799FF1020A9
:1036F000ADF804008DF8070001A93748FCF790FFEA
:103700001020ADF804008DF8070001A93348FCF73C
:1037100087FF40F60270ADF8040010208DF8070016
:1037200001A92E48FCF77CFF4FF480712B48FDF770
:1037300024F84FF400712948FDF71FF84FF4806119
:103740002648FDF71AF802212448FDF718F84FF42F
:1037500000612248FDF713F80020ADF808004FF48F
:103760008270ADF80A000020ADF80C000220ADF820
:103770000E000120ADF810004002ADF81200082044
:10378000ADF814000020ADF816000720ADF81800C1
:1037900002A91348FDF78AFA01211148FDF72BFB16
:1037A00007B000BD10B5044600BF02210C48FDF76C
:1037B000A6FB0028F9D021460948FDF74DFB00BFC4
:1037C00001210748FDF79BFB0028F9D00448FDF7CD
:1037D00045FBC0B210BD00000008014000180140C8
:1037E0000030014008B54FF4E060FCF7BDFD1C203F
:1037F0008DF8000000208DF8010003208DF80200F4
:1038000001208DF803006846FCF7B3FD08BD0EB536
:1038100001210846FDF7CDF94FF47A70ADF80400A8
:103820004720ADF800000020ADF80600ADF802001A
:1038300069464FF08040FDF76DFC01218807FEF7D7
:103840008BFA012211469007FDF7DBFF0121880763
:10385000FDF7BCFF00210120FDF7ABF90EBD000014
:1038600008B501214805FDF7A4F901210820FDF75D
:1038700093F94020ADF8000003208DF802001C20D1
:103880008DF803006946FC48FCF7CAFE8020ADF8BD
:10389000000003208DF802001C208DF8030069460B
:1038A000F548FCF7BDFE08BD1FB50020ADF80400CB
:1038B0004BF6FF70ADF806000A20ADF808004FF493
:1038C0008060ADF80A000001ADF80C00EB480090F4
:1038D0006946EB48FEF775FC0121E948FEF7EFFC6D
:1038E0001FBD10B5FFF7BCFFFFF7DEFF4020E54925
:1038F000088010BD10B504462146E3A006F06AFA20
:10390000002010BD70B504460E4615460121DC4866
:10391000FEF7F9FC4FF48050E649086009E0E549FC
:103920000868411EE34A116018B90020FFF7E2FF62
:1039300070BDE149D248FEF7C7FD0028EFD0002254
:103940003146CF48FEF735FD4FF48050D949086025
:1039500009E0D8490868411ED64A116018B901200B
:10396000FFF7C8FFE4E7D549C548FEF7ADFD0028DD
:10397000EFD02946C248FEF716FD4FF48050CD49DE
:10398000086009E0CB490868411ECA4A116018B9AD
:103990000220FFF7AFFFCBE7C849891CB848FEF704
:1039A00093FD0028EED02178B548FEF7FCFC4FF4DB
:1039B0008050C049086009E0BE490868411EBD4A00
:1039C000116018B90320FFF795FFB1E7BB49891CC7
:1039D000AB48FEF779FD0028EED00121A848FEF79C
:1039E0009EFC0120A4E770B505460E4614464FF430
:1039F000A030B049086009E0AE490868411EAD4AF0
:103A0000116018B90920FFF775FF70BD4FF4003140
:103A10009B48FEF77BFD0028EED101219848FEF778
:103A200072FC4FF48050A349086009E0A14908687E
:103A3000411EA04A116018B90A20FFF75BFFE4E7B6
:103A40009D498F48FEF740FD0028EFD08D48017852
:103A500000228B48FEF7ADFC4FF48050954908607A
:103A600009E094490868411E924A116018B90B2078
:103A7000FFF740FFC9E791498148FEF725FD00287F
:103A8000EFD001217E48FEF71AFC31467C48FEF754
:103A90008AFC4FF480508749086009E0854908682E
:103AA000411E844A116018B90C20FFF723FFACE7D0
:103AB0008249891C7248FEF707FD0028EED00121DB
:103AC0006F48FEF720FC4FF480507A49086009E007
:103AD00078490868411E774A116018B90D20FFF730
:103AE00009FF92E774496648FEF7EEFC0028EFD024
:103AF0006448017801226248FEF75BFC4FF4805075
:103B00006C49086009E06B490868411E694A116008
:103B100018B90E20FFF7EEFE77E76749491C5848B1
:103B2000FEF7D2FC0028EED026E0012C07D10021C0
:103B30005348FEF700FC01215148FEF7F0FB4FF41B
:103B4000A0305C49086009E05A490868411E594A9A
:103B5000116018B90320FFF7CDFE56E756493F31F3
:103B60004748FEF7B1FC0028EED04548FEF71DFCA3
:103B700028706D1C601E84B2002CD6D101214048F3
:103B8000FEF7D9FB012040E72DE9F04105460F463D
:103B900016461C464FF4A030464908600AE04549E5
:103BA0000868411E434A116020B90920FFF7A2FEB0
:103BB000BDE8F0814FF400313148FEF7A7FC002842
:103BC000EDD101212E48FEF79EFB4FF4805039497C
:103BD000086009E037490868411E364A116018B983
:103BE0000A20FFF787FEE3E733492548FEF76CFC20
:103BF0000028EFD0002239462148FEF7DAFB4FF4C7
:103C000080502C49086009E02A490868411E294A69
:103C1000116018B90B20FFF76DFEC9E72749184856
:103C2000FEF752FC0028EFD001211548FEF747FBB4
:103C300031461348FEF7B7FB4FF480501D4908602A
:103C400009E01C490868411E1A4A116018B90C2085
:103C5000FFF750FEACE71949891C0948FEF734FC10
:103C60000028EED001210648FEF74DFB4FF48050AE
:103C7000104908602EE00000000C0140A086010001
:103C800000540040CC0000203C3C2D454550524F94
:103C90004D2D4552524F522D3E3E20493243204534
:103CA00052524F5220466C6167203D2025640D0A18
:103CB0000A000000D000002001000300820007007D
:103CC00087490868411E864A116018B90D20FFF720
:103CD00011FE6DE783498448FEF7F6FB0028EFD01C
:103CE000012239468048FEF764FB4FF480507C493E
:103CF000086009E07A490868411E794A116018B9DC
:103D00000E20FFF7F7FD53E77649491C7648FEF78A
:103D1000DBFB0028EED026E0012C07D10021724801
:103D2000FEF709FB01217048FEF7F9FA4FF4A030C5
:103D30006B49086009E06A490868411E684A1160D9
:103D400018B90320FFF7D6FD32E766493F316648D0
:103D5000FEF7BAFB0028EED06348FEF726FB28707A
:103D60006D1C601E84B2002CD6D101215E48FEF786
:103D7000E2FA01201CE708B50020009000BF0121F5
:103D80005948FEF7C0FA14215748FEF71BFB009074
:103D90005648017800225448FEF70BFB1421524884
:103DA000FEF710FB00F002000028E8D050494E4812
:103DB000FEF7C9FB01214C48FEF7B1FA08BD2DE919
:103DC000F04104460F4615461E464FF4A0304449C4
:103DD00008600AE042490868411E414A116020B962
:103DE0000420FFF787FDBDE8F0814FF400313E4825
:103DF000FEF78CFB0028EDD101213B48FEF783FA4A
:103E00004FF480503649086009E035490868411E82
:103E1000334A116018B90520FFF76CFDE3E731491B
:103E20003148FEF751FB0028EFD0002239462E48DA
:103E3000FEF7BFFA4FF480502949086009E028498D
:103E40000868411E264A116018B90620FFF752FD86
:103E5000C9E728492448FEF737FB0028EFD0294658
:103E60002148FEF7A0FA4FF480501D49086009E090
:103E70001B490868411E1A4A116018B90720FFF74C
:103E800039FDB0E71B49891C1748FEF71DFB0028C8
:103E9000EED01AE021781448FEF785FA641C4FF43E
:103EA00080500F49086009E00D490868411E0C4A1E
:103EB000116018B90820FFF71DFD94E70D49891C12
:103EC0000948FEF701FB0028EED0301EA6F10101E3
:103ED000CEB2DFD101210448FEF721FA012082E7AA
:103EE000D00000200100030000540040CC0000205E
:103EF000000400108200070070B505460C4645F22C
:103F00005550FEF747FB2846FEF747FB2046FEF7D5
:103F100047FBFEF748FBFEF74BFB70BD10B5FEF705
:103F200042FB10BD2DE9F0410746FCF7C7FC72B615
:103F30004FF0006005684468002080F3148800BFDB
:103F40002846FCF708F92646B047BDE8F08110B5D1
:103F50006D496EA005F03EFF704B71A274A17648CA
:103F600005F048FF7449684805F0FCFA00281AD0AB
:103F700003F034FF0120714908604FF47A7002F0B9
:103F8000CBFA6FA005F026FF76A000F0C4FE7C48B7
:103F90000021018081704FF47A7002F0BDFA03F0C5
:103FA000ECFF00F0A2F810BD10B562B67549C8026A
:103FB000FCF711FA73487449086010BD1CB573A072
:103FC0005649734B73A2CDE9001076A1784805F0ED
:103FD00011FF77494C4805F0C5FAC8B1002003F03D
:103FE000DEFD4FF4405003F0DAFD72A0684B72A280
:103FF00073A10090744805F0FDFE4FF47A7002F052
:104000008BFA714800F087FE03F0B7FF00F06DF8FF
:104010001CBD08B51E223C496C4805F0B5FA6CA2DF
:104020006DA16E4805F0E6FE6C49684805F09AFA05
:10403000002859D00DE0344869490968415C684856
:104040000068801F674A115465480068401C644935
:1040500008602D4862490968405C2C28EBD100209B
:104060005F4908605F4805F09BFA5F4908600846B1
:1040700001685EA005F0AEFE12E05B480068C01D5E
:104080002149085C5D49564A1268885456480068C0
:10409000401C5549086052480068401C504908605F
:1040A00051480068C01D1849085C2A28E5D14D49CF
:1040B00053A005F08FFE514955A005F08BFE03F08B
:1040C00004FF3CA0154B57A23DA10090594805F0B4
:1040D00091FE4FF47A7002F01FFA564800F01BFE72
:1040E00003F04BFF00F001F808BD2748001D0068F1
:1040F00000F4E06050490843001D2349091D086091
:10410000BFF34F8F00BFFEE7F607002072656365BF
:104110006976653A2025730D0A00000059020020D7
:104120004E65656455706772616465230000000028
:104130002573257300000000D8070020D40000205C
:104140002D2D2D2D2D2D2D3E3E204A756D70207468
:104150006F2049415020426F6F746C6F61646572CB
:104160000D0A00004A756D7020746F20494150207F
:10417000426F6F746C6F616465720D0A000000001D
:10418000F60F00200000010808ED00E02A00000002
:104190004F0000204865726D6573436F6D6D616EF1
:1041A00064000000257325732C257325730000001F
:1041B000681100204F4B2A00434C45415250570094
:1041C000257325732C257300E0110020FA100020C0
:1041D0004D41434944230000257300002211002073
:1041E000D80000209A110020DC0000205365727670
:1041F00065724C656E3A25640D0A0000B811002006
:104200005365727665725F49503A25730D0A000056
:104210005365727665725F506F72743A25730D0A3A
:10422000000000004368616E6765536572766572D1
:1042300023000000C21100200000FA0500B587B07D
:1042400001210420FCF7A8FC01218803FCF7A4FC51
:104250004FF40070ADF8180018208DF81B000320F3
:104260008DF81A0006A9DF48FCF7DAF94FF48060F0
:10427000ADF8180004208DF81B0006A9D948FCF7FA
:10428000CFF925208DF8040000208DF805008DF869
:10429000060001208DF8070001A8FCF76AF84FF42A
:1042A000E13002900020ADF80C00ADF80E00ADF842
:1042B0001000ADF814000C20ADF8120002A9CA4895
:1042C000FDF7A5FD012240F22551C748FDF737FE55
:1042D0000121C548FDF727FE07B000BD08B540F233
:1042E0002551C148FDF710FF48B1BF48FDF78CFECE
:1042F000C0B200906946BD4805F028F900BF08BD6E
:1043000070B504460D46E1B2B748FDF779FE00BF2F
:104310008021B548FDF7E2FE0028F9D0204670BDA7
:1043200010B5044600BF2021B148FDF7D7FE002894
:10433000F9D0AF48FDF768FE10BD00B587B0012188
:104340004804FCF736FC0420ADF8180003208DF873
:104350001A0018208DF81B0006A9A248FCF760F986
:104360000820ADF8180004208DF81B0006A99D4810
:10437000FCF756F926208DF8040003208DF805007F
:104380008DF8060001208DF8070001A8FBF7F1FF6A
:104390004FF4E13002900020ADF80C00ADF80E00B3
:1043A000ADF81000ADF814000C20ADF8120002A911
:1043B0009048FDF72CFD012240F225518D48FDF774
:1043C000BEFD01218B48FDF7AEFD07B000BD08B56D
:1043D00040F225518748FDF797FE48B18548FDF723
:1043E00013FEC0B200906946804805F0AFF800BFE8
:1043F00008BD08B540F225517D48FDF785FE48B15E
:104400007B48FDF701FEC0B200906946774805F091
:104410009DF800BF08BD00B587B001218804FCF7F6
:10442000C8FB01210820FCF7B7FB18208DF80B0012
:104430004FF48060ADF8080003208DF80A0002A94F
:104440006D48FCF7EDF804208DF80B004002ADF844
:10445000080002A96848FCF7E3F84FF4E130039044
:104460000020ADF818000C20ADF816000020ADF8C3
:104470001400ADF81200ADF8100003A95C48FDF778
:10448000C6FC27208DF8040001208DF807008DF868
:1044900005008DF8060001A8FBF76BFF012240F232
:1044A00025515348FDF74BFD01215148FDF73BFDD8
:1044B00007B000BD00B587B00121C804FCF779FB47
:1044C00001211020FCF768FB18208DF80B004FF439
:1044D0008060ADF8080003208DF80A0002A9474863
:1044E000FCF79EF804208DF80B004002ADF80800A0
:1044F00002A94248FCF794F84FF4165003900020AC
:10450000ADF818000C20ADF816000020ADF814002E
:10451000ADF81200ADF8100003A93948FDF777FC9B
:1045200034208DF8040001208DF8070002208DF85A
:1045300005008DF8060001A8FBF71BFF07B000BDC2
:1045400000B587B001210805FCF733FB01213020BD
:10455000FCF722FB4FF48050ADF8180018208DF8BE
:104560001B0003208DF81A0006A92448FCF758F810
:104570000420ADF818008DF81B0006A92148FCF7AF
:104580004FF84FF4165002900020ADF80C00ADF833
:104590000E00ADF81000ADF814000C20ADF81200BC
:1045A00002A91948FDF733FC4FF4A060FBF7DCFECD
:1045B00035208DF8040000208DF805008DF80600E8
:1045C00001208DF8070001A8FBF7D3FE012240F27D
:1045D00025510D48FDF7B3FC01210B48FDF7A3FC65
:1045E00007B000BD0008014000380140F607002078
:1045F0000048004000440040000C01400010014011
:10460000004C0040001401400050004008B540F24A
:1046100025514A48FDF778FD60B120214748FDF754
:104620006AFD4648FDF7F0FCC0B200906946444878
:1046300004F08CFF08BD10B510214248FCF79FF82C
:104640004FF4FA7001F068FF10213E48FCF795F82E
:1046500010BD2DE9F0470446894616461F462146FF
:1046600039A005F0B7FB4FF4967001F055FF2046D6
:1046700004F096FF8246514637A005F0ABFB4FF0A1
:1046800000083FE000250BE0615D2C48FDF7B8FC19
:1046900000BF80212948FDF721FD0028F9D06D1CBD
:1046A000204604F07DFFA842EED8304601F034FFEA
:1046B00031A1234804F056FF70B100BF30480068B4
:1046C00000F4E0602F490843001D2D490860BFF346
:1046D0004F8F00BF00BFFEE74946194804F042FF74
:1046E00068B129A005F076FB2BA005F073FB4FF411
:1046F0000061134804F01FFF0020BDE8F08700BFF1
:1047000008F10108B845BDDB214628A005F062FB91
:104710002CA005F05FFB4FF40061094804F00BFF8B
:104720000120EAE710B5FFF786FF01234FF4FA6294
:104730002AA12BA0FFF78DFF10BD00000050004004
:1047400008120020001801402D2D2D3E3E73656E8D
:1047500064202573000000002D2D2D3E3E73656EF4
:104760006420636F6D6D616E64206C656E67746844
:104770003A25640D0A0000002B57414B450000000C
:104780000CED00E00000FA052D2D2D3C3C73657406
:10479000206F6B0D0A0000002D2D2D3E3E3E425431
:1047A0002054455354204F4B0D0A00002D2D2D3E13
:1047B0003E73656E64203A2573206661696C210D35
:1047C0000A0000002D2D2D3E3E3E2042542054452F
:1047D0005354204641494C0D0A0000004F4B000045
:1047E00041542B534C4545500D0A000008B501219A
:1047F0001020FCF7D1F90120ADF8000000208DF861
:10480000030069466E48FBF70BFF08BD00B585B095
:1048100001218802FCF7C0F9002000908DF8040007
:1048200001208DF805004FF46020029000200390D5
:1048300001208DF8100069466248FDF7F2FE4FF442
:104840004040FCF70DF9052301220A215D48FDF7E0
:1048500080FF01224FF408715A48FDF724FF01211F
:104860005848FDF70AFF5748FDF729FF00BF554894
:10487000FDF72AFF0028FAD15248FDF72FFF00BFAD
:104880005048FDF730FF0028FAD101214D48FDF7CF
:1048900034FF05B000BD10B54FF408714948FEF76C
:1048A000A9F8012804D14748FDF7BAFF4649088016
:1048B0004FF408714348FEF7AFF810BD2DE9F04101
:1048C00004460D4616461F4632463B4620462946BC
:1048D00005F0BAF801D234463D4620462946BDE8E7
:1048E000F0812DE9F0410021384A1160516000202B
:1048F0003749086035E00021364A116051600020D8
:10490000354908601BE02F48FDF78AFF3349324ADA
:10491000126841F82200304A126851F8220005F06E
:1049200015F8044622460B462A4903C9FFF7C6FF7D
:10493000284A03C228480068401C274908602648C6
:104940000068B0F57A7FDEDD224820490CC803C933
:1049500004F066FE1D4A03C21D480068401C1C4945
:1049600008601B4800680528C5DB4FF47A711B48B6
:1049700004F0E1FD00221A4B144903C904F069FF59
:10498000144A03C2134903C905F076F815490860B3
:10499000104903C905F01CFF06464FF06632124B62
:1049A00004F0E5FE0446114A114B04F0DAFEBDE8BE
:1049B000F08110B5FFF71AFFFFF728FF10BD0000C8
:1049C0000010014000280140E0000020F00000201D
:1049D000E4000020F8000020E8000020081A002071
:1049E000000014400001002066A636407B14AE474C
:1049F000E11A514010B54FF48071FE48FBF7BFFE3D
:104A00004FF4FA7001F088FD4FF48071F948FBF71C
:104A1000B4FE10BD2DE9F0470446894616461F46F0
:104A2000204604F0BDFD82465146F3A005F0D2F9C0
:104A30004FF000082DE000250BE0615DF348FDF725
:104A4000DFFA00BF8021F148FDF748FB0028F9D0CC
:104A50006D1C204604F0A4FDA842EED8304601F0BB
:104A60005BFDEB49EBA005F0B5F94946E84804F0D9
:104A700079FD58B12146EAA005F0ACF94FF4006188
:104A8000E34804F058FD0020BDE8F08700BF08F1BE
:104A90000108B845CFDBE6A005F09CF90120F3E75B
:104AA0002DE9F0470446894616461F46204604F085
:104AB00077FD82465146D0A005F08CF92146E0A052
:104AC00005F088F94FF0000828E000250BE0615D53
:104AD000CE48FDF795FA00BF8021CC48FDF7FEFADD
:104AE0000028F9D06D1C204604F05AFDA842EED8EB
:104AF000304601F011FD4946C54804F033FD50B180
:104B0000D3A005F067F94FF40061C14804F013FD2C
:104B10000020BDE8F08700BF08F10108B845D4DBEC
:104B2000C3A005F057F90120F3E72DE9F04705464A
:104B3000894616461F464FF0000839E000240BE076
:104B4000295DB248FDF75CFA00BF8021AF48FDF750
:104B5000C5FA0028F9D0641C284604F021FDA042C3
:104B6000EED8304601F0D8FC1122A9491C31BC48CE
:104B700004F00AFD4FF4FA7001F0CEFCB849B9A078
:104B800005F028F94946A24804F0ECFC68B1B0A051
:104B900005F020F9B6A005F01DF94FF400619C481E
:104BA00004F0C9FC0020BDE8F08700BF08F101084F
:104BB000B845C3DB9EA005F00DF9B3A005F00AF9D6
:104BC0000120F0E72DE9F0470446894616461F46C6
:104BD000204604F0E5FC8246514687A005F0FAF82D
:104BE00021468FA005F0F6F84FF0000846E00025BA
:104BF0000BE0615D8548FDF703FA00BF8021834823
:104C0000FDF76CFA0028F9D06D1C204604F0C8FCB2
:104C1000A842EED8304601F07FFC0F227C491831C3
:104C20009F4804F0B1FC0CE09D489E490968405C37
:104C30009D499C4A126888549A480068401C9949CA
:104C40000860974897490968405C2228ECD196494A
:104C500096A005F0BFF849466D4804F083FC50B1BA
:104C60007BA005F0B7F84FF40061694804F063FCDD
:104C70000020BDE8F08700BF08F10108B845B6DBA9
:104C80006BA005F0A7F80120F3E72DE9F0470446F3
:104C9000894616461F46204604F082FC824651464D
:104CA00055A005F097F84FF000082CE000250BE028
:104CB000615D5648FDF7A4F900BF80215348FDF718
:104CC0000DFA0028F9D06D1C204604F069FCA842BA
:104CD000EED8304601F020FC49464D4804F042FC35
:104CE00070B1214676A005F075F859A005F072F86C
:104CF0004FF40061464804F01EFC0020BDE8F08738
:104D000000BF08F10108B845D0DB214670A005F0CE
:104D100061F80120F2E770B5054600240BE0295D3B
:104D20003A48FDF76DF900BF80213848FDF7D6F904
:104D30000028F9D0641C284604F032FCA042EED8CA
:104D400070BD70B504464FF4C871674804F0F3FBBA
:104D5000204604F025FC05462A4664A1624805F079
:104D600049F800BF0123642264A15F48FFF752FEA7
:104D70000028F7D100BF01234FF4FA7260A120464A
:104D8000FFF748FE0028F6D170BD10B500BF032321
:104D90004FF4FA725CA15DA0FFF73CFE0028F6D14B
:104DA00010BD10B50323642257A15CA0FFF732FEAB
:104DB00048B100BF03234FF47A725CA14A48FFF761
:104DC00029FE0028F6D110BD70B504460D46FFF748
:104DD000A5F8FFF70FFE03234FF4FA724AA155A07E
:104DE000FFF75EFE0323642247A154A0FFF758FE9D
:104DF0000323ABE000080140636F6D6D616E6420BA
:104E00006C656E6774683A25640D0A0000440040C2
:104E1000F60700202D2D2D3C3C25730D0A000000C7
:104E20002D2D2D3E3E73656E642025730D0A000006
:104E30002D2D2D3E3E6661696C210D0A000000009B
:104E40002D2D2D3E3E73656E6420257300000000FD
:104E50002D2D2D3C3C736574206F6B0D0A000000F6
:104E6000DA2900202440257340230D0A00000000A9
:104E70002D2D2D3E3E3E2057494649205445535442
:104E8000204F4B0D0A0000002D2D2D3E3E3E574970
:104E900046492054455354204641494C0D0A0000D0
:104EA000782C0020740100205E0100202D2D2D3C67
:104EB0003C65737049503A2025730D0A00000000CC
:104EC0002D2D2D3E73656E642025730D0A000000A4
:104ED0002D2D2D3E73656E64203A25732066616921
:104EE0006C210D0A000000004005002041542B43B6
:104EF000495053454E443D25640D0A003E000000D4
:104F000053454E44204F4B004F4B000041542B4320
:104F10004950434C4F53450D0A00000041542B4368
:104F20004950434C4F53453D3F0D0A00434F4E4EB1
:104F30004543540041540D0A0000000041542B43E6
:104F4000574D4F44453D330D0A0000006422AFF237
:104F500048018BA0FFF7E9FD4FF400618C4804F095
:104F6000EAFA4FF4C8718B4804F0E5FAFEF7D6FF71
:104F7000142001F0D1FA70BD2DE9F04106468846B3
:104F800017460FE0C821304604F0D5FA80480119D1
:104F90003A46304604F0F8FA641C6E2C00DD00241A
:104FA000E019451E4146304604F0DCFA0028E9D0FD
:104FB000FEF7B4FF00E0641C7548005D0D28FAD1CF
:104FC0007349601C085C0A28F5D1601B821C0846E6
:104FD0004119304604F0D8FA32466FA16F4804F008
:104FE00009FF3221304604F0A6FA621B6B493046B5
:104FF00004F0CAFABDE8F08110B5FEF78FFFFFF7A5
:10500000F9FC4FF40061624804F095FA15E01420B1
:1050100001F082FA62A0FFF77EFE142001F07CFA14
:105020005FA0FFF778FE142001F076FA5CA0FFF78E
:1050300072FE4FF4FA6001F06FFA03234FF47A72B4
:10504000AFF23C11AFF21410FFF71FFE0028DED1C3
:1050500054A004F0BFFE00BF01234FF4FA72AFF278
:105060005811AFF23010FFF710FE0028F4D100BF46
:1050700001234FF4FA72AFF2701150A0FFF705FE52
:105080000028F5D100BF01236422AFF284114EA0A5
:10509000FFF706FD0028F6D100BF01236422AFF21E
:1050A000981137A0FFF741FD0028F6D100BF01237A
:1050B00041F27072AFF2B01147A0FFF7E6FD002891
:1050C000F5D14FF47A7001F027FA4FF47A7001F0BD
:1050D00023FA4FF47A7001F01FFAFEF71FFF49E040
:1050E0002B4942A004F076FE294804F059FA044600
:1050F000214642A004F06EFE4FF47A7001F00CFAE3
:105100004FF47A7001F008FA214804F049FA642853
:105110002ED93DA004F05EFE052243A14448FFF7CE
:105120002BFF434943A004F055FE414804F038FAF0
:105130000446214644A004F04DFE1E21454804F0DB
:10514000FAF9092244A14748FFF716FF454946A04E
:1051500004F040FE434804F023FA044621463AA0F6
:1051600004F038FE4FF40061094804F0E4F904E06B
:10517000FEF7D4FE06480028B2D100BF10BD0000E3
:1051800041542B4349505354414D41433F0D0A0074
:10519000F60700204005002025730000A829002004
:1051A0002B2B2B00736D617274636F6E66696720C1
:1051B000697320646F696E670D0A000041542B52B9
:1051C00053540D0A0000000041542B43574D4F44E7
:1051D000453D310D0A00000041542B4357535441C3
:1051E0005254534D4152540D0A00000072656365DC
:1051F0006976653A25730D0A000000002D2D2D3CBF
:105200003C3C3A25640D0A00526563656976652069
:1052100050617373776F72442026205353494420A2
:1052200049530D0A00000000737369643A000000DE
:10523000400100202D3C3C3C202020205353494479
:105240003A2025730D0A00006C656E74683A2025BB
:10525000640D0A00742B002070617373776F7264A1
:105260003A0000008E2A00202D3C3C3C50617373B4
:10527000776F72643A2025730D0A000010B54FF461
:105280000060FBF753F900287ED003F069FC4FF46F
:105290007A7001F041F94FF400619E48FBF753FA30
:1052A000002872D14FF47A7001F036F94FF47A7019
:1052B00001F032F94FF400619648FBF744FA0028F8
:1052C00066D10A209449087000240AE003F059FCD2
:1052D000C82001F021F903F060FCC82001F01CF99E
:1052E000641C032CF2DB4FF400618A48FBF72BFAB5
:1052F00001280BD100208849087088A004F06AFDBD
:1053000003208F49087001208E49087000240CE0AA
:105310004FF400617F48FBF716FA012800D106E040
:105320004FF47A7001F0F8F8641C032CF0DB00BF36
:105330004FF400617748FBF706FA00286AD1142081
:105340007549087000240AE003F048FCC82001F009
:10535000E3F803F054FCC82001F0DEF8641C032CD1
:10536000F2DB4FF400616B48FBF7EDF9012810D137
:1053700000206949087074A004F02CFD07207049D2
:1053800008704FF47A7001E066E037E001F0C4F88D
:1053900040E04FF400615F48FBF7D5F9002839D1B0
:1053A00000240CE04FF400615A48FBF7CCF90128C7
:1053B00000D106E04FF47A7001F0AEF8641C022CC4
:1053C000F0DB00BF4FF400615248FBF7BCF908BBAB
:1053D00000240AE003F017FCC82001F09DF803F058
:1053E00023FCC82001F098F8641C032CF2DB5FA0BA
:1053F00004F0F0FC0920524908700BE04FF4006102
:105400004448FBF7A0F928B161A004F0E3FC0120B7
:105410004B490870404800780A2808D13FA004F0A2
:10542000D9FC0320464908700120464908703A48D3
:105430000078142809D144A004F0CCFC072040498E
:1054400008704FF47A7001F067F800203249087054
:105450004FF40060FBF77BF810BDFFF7CDFD02F0C5
:1054600004FC02F072FD002402E003F007FB641C60
:10547000032CFADB01204F490870FEF74FFD02F0C4
:105480007CFD00BF4C48006800F4E0604B490843D5
:10549000001D49490860BFF34F8F00BF00BFFEE702
:1054A00008B54FF4C060FAF75FFF28208DF80000C0
:1054B00001208DF801008DF802008DF80300684688
:1054C000FAF757FF08BD0EB501210520FBF764FB75
:1054D000FFF7E6FF4FF40060ADF8080004208DF8F8
:1054E0000B0002A90B48FBF79BF80B210020FBF7F0
:1054F000ADF94FF40060009000208DF804000C20FE
:105500008DF8050001208DF806006846FAF7A8FF1F
:105510000EBD0000000801407A0100200D0A2D2D6B
:105520002D3E3E3E4B65792054687265652053657B
:10553000636F6E642054657374204F4B0D0A000036
:105540007D010020780100200D0A2D2D2D3E3E3ECC
:105550004B657920536576656E205365636F6E6485
:105560002054657374204F4B0D0A00000D0A2D2D39
:105570002D3E3E3E4B6579204E696E652053656336
:105580006F6E642054657374204F4B0D0A00000049
:105590000D0A2D2D2D3E3E3E4B6579204F6E652028
:1055A0005365636F6E642054657374204F4B0D0A0E
:1055B00000000000790100200CED00E00000FA0579
:1055C00010B50A2000F0A8FF10BD10B50A2000F0A9
:1055D000CAFF10BD08B5D248D2490A68026089885E
:1055E0008180D1490968C0F80610D0490968C0F81F
:1055F0000A10CF490968C0F80E10CE490968C0F8F2
:105600001210CD48007810B9CCA004F0E3FBCA48D2
:105610000078022825D1FFF7D8FFCF480078D8B905
:10562000CD484078082817D1CB488078DC2813D1A2
:10563000CAA004F0CFFBBA48C749D1F80610C0F899
:105640000610C549D1F80A10C0F80A10C249D1F8AD
:105650000E10C0F80E1004E0C5A004F0BBFBFFF76D
:10566000AFFFB5480078012822D1CF480078012843
:1056700018D1CEA004F0AEFBA948D049D1F806104D
:10568000C0F80610CD49D1F80A10C0F80A10CB496D
:10569000D1F80E10C0F80E10C849D1F81210C0F899
:1056A000121005E0C6A004F095FBA4A004F092FB44
:1056B00001209B49887600219948C1760A3000F084
:1056C00005FA97480E3000F0F1F99548801D00F07A
:1056D0000FFA954800F027FA9348C0780090924856
:1056E000837842780178BEA004F074FB8F4800F004
:1056F00008FA8E48C07800908C4883784278017808
:10570000BFA004F067FB8A4800F0D8F98848C07849
:1057100000908748837842780178C1A004F05AFB52
:1057200008BD10B57E487F490A680260898881807B
:1057300000F0D5F9A1487B490A6802608988818018
:1057400010BD10B5FDF7AEFF01214FF48870FBF7D7
:1057500023FA10BD10B5044624B91021B848FBF750
:105760000EF805E0012C03D11021B548FBF705F830
:1057700010BD10B50020FFF7EDFF10BD10B50120E2
:10578000FFF7E8FF10BD10B54FF40041AD48FAF740
:10579000F6FF022000F0E7FE4FF40041A948FAF7B7
:1057A000ECFF4FF4C86000F0B7FE10BD10B5044622
:1057B0002046FDF7F7FF10BD70B504460D46FFF714
:1057C000D8FFC4F30740FFF7F1FFC4F30720FFF74A
:1057D000EDFF04F0F801091DC8B2FFF7E7FF284606
:1057E000FFF7E4FFFFF7CAFF70BD70B50446002560
:1057F000FFF7BFFFC4F30740FFF7D8FFC4F307204C
:10580000FFF7D4FF04F0F800FFF7D0FF0020FFF708
:10581000CDFF0546FFF7B2FF284670BD2DE9F041E8
:1058200004460F461546002615B987A004F0D2FAA3
:10583000FFF79FFFC4F30740FFF7B8FFC4F307204B
:10584000FFF7B4FF04F0F801091DC8B2FFF7AEFF7F
:10585000002604E0B85DFFF7A9FF701C86B2AE42D7
:10586000F8DBFFF78BFF2846BDE8F0812DE9F0411A
:1058700004460F461546002615B973A004F0AAFA8F
:10588000FFF777FFC4F30740FFF790FFC4F307204B
:10589000FFF78CFF04F0F800FFF788FF002605E013
:1058A0000020FFF783FFB855701C86B2AE42F7DBCD
:1058B000FFF764FF2846BDE8F08110B5FDF7A7FFAC
:1058C000FDF790FF01210846FBF773F910BD10B5F5
:1058D000FFF7F3FF10BD10B5FFF7EFFF10BD6048F5
:1058E0000068401C5E49086008460068B0F57A7F91
:1058F0000BD3002008605B480068401C59490860D1
:1059000059480078401C58490870704770B557A036
:1059100004F060FA002044682546A84770BD0000E6
:105920008C2C0020440000208001002084010020F5
:10593000880100208C01002098010020CAB9D3C33F
:10594000B6A8D2E5B5C44950D0C5CFA2C5E4D6C3E8
:1059500057353530300D0A00A82C002049502066FC
:10596000726F6D20454550524F4D0D0A00000000EA
:10597000454550524F4DCEB4C5E4D6C32CCAB9D319
:10598000C3B6A8D2E5B5C44950D0C5CFA2C5E4D6A8
:10599000C357353530302CB2A2D0B4C8EB45455092
:1059A000524F4D0D0A000000990100204950206619
:1059B000726F6D20444843500D0A00000AE1002038
:1059C00044484350D7D3B3CCD0F2CEB4D4CBD0D00C
:1059D0002CBBF2D5DFB2BBB3C9B9A60D0A000000DB
:1059E0005735353030204950B5D8D6B72020203A29
:1059F0002025642E25642E25642E25640D0A0000C2
:105A0000573535303020D7D3CDF8D1DAC2EB203A34
:105A10002025642E25642E25642E25640D0A0000A1
:105A2000573535303020CDF8B9D820202020203A05
:105A30002025642E25642E25642E25640D0A000081
:105A40000008014000180140556E65787065637468
:105A5000656432206C656E67746820300D0A000042
:105A60009C010020A0010020A401002020CFB5CD82
:105A7000B3D6D8C6F4D6D0A1ADA1AD0D0A000000B2
:105A800010B5044621460020FFF796FE10BD10B564
:105A90008020FFF7F5FF10BD0146DC4830F811000B
:105AA00070470146DA4830F81100704710B50446D7
:105AB000042221469001FFF7B1FE10BD10B5044647
:105AC000042221469001FFF7D1FE10BD10B5044617
:105AD000042221464FF4A060FFF7A0FE10BD10B5D0
